{
  "_format": "hh-sol-artifact-1",
  "contractName": "MockYANG",
  "sourceName": "contracts/test/MockYANG.sol",
  "abi": [
    {
      "inputs": [],
      "stateMutability": "nonpayable",
      "type": "constructor"
    },
    {
      "inputs": [],
      "name": "chiManager",
      "outputs": [
        {
          "internalType": "address",
          "name": "",
          "type": "address"
        }
      ],
      "stateMutability": "view",
      "type": "function"
    },
    {
      "inputs": [
        {
          "internalType": "address",
          "name": "token0",
          "type": "address"
        },
        {
          "internalType": "uint256",
          "name": "amount0",
          "type": "uint256"
        },
        {
          "internalType": "address",
          "name": "token1",
          "type": "address"
        },
        {
          "internalType": "uint256",
          "name": "amount1",
          "type": "uint256"
        }
      ],
      "name": "deposit",
      "outputs": [],
      "stateMutability": "nonpayable",
      "type": "function"
    },
    {
      "inputs": [
        {
          "internalType": "address",
          "name": "_chiManager",
          "type": "address"
        }
      ],
      "name": "setCHIManager",
      "outputs": [],
      "stateMutability": "nonpayable",
      "type": "function"
    },
    {
      "inputs": [
        {
          "components": [
            {
              "internalType": "uint256",
              "name": "yangId",
              "type": "uint256"
            },
            {
              "internalType": "uint256",
              "name": "chiId",
              "type": "uint256"
            },
            {
              "internalType": "uint256",
              "name": "amount0Desired",
              "type": "uint256"
            },
            {
              "internalType": "uint256",
              "name": "amount1Desired",
              "type": "uint256"
            },
            {
              "internalType": "uint256",
              "name": "amount0Min",
              "type": "uint256"
            },
            {
              "internalType": "uint256",
              "name": "amount1Min",
              "type": "uint256"
            }
          ],
          "internalType": "struct MockYANG.SubscribeParam",
          "name": "params",
          "type": "tuple"
        }
      ],
      "name": "subscribe",
      "outputs": [
        {
          "internalType": "uint256",
          "name": "",
          "type": "uint256"
        }
      ],
      "stateMutability": "nonpayable",
      "type": "function"
    },
    {
      "inputs": [],
      "name": "totallyShares",
      "outputs": [
        {
          "internalType": "uint256",
          "name": "",
          "type": "uint256"
        }
      ],
      "stateMutability": "view",
      "type": "function"
    },
    {
      "inputs": [
        {
          "components": [
            {
              "internalType": "uint256",
              "name": "yangId",
              "type": "uint256"
            },
            {
              "internalType": "uint256",
              "name": "chiId",
              "type": "uint256"
            },
            {
              "internalType": "uint256",
              "name": "shares",
              "type": "uint256"
            },
            {
              "internalType": "uint256",
              "name": "amount0Min",
              "type": "uint256"
            },
            {
              "internalType": "uint256",
              "name": "amount1Min",
              "type": "uint256"
            }
          ],
          "internalType": "struct MockYANG.UnSubscribeParam",
          "name": "params",
          "type": "tuple"
        }
      ],
      "name": "unsubscribe",
      "outputs": [],
      "stateMutability": "nonpayable",
      "type": "function"
    },
    {
      "inputs": [
        {
          "internalType": "address",
          "name": "token0",
          "type": "address"
        },
        {
          "internalType": "uint256",
          "name": "amount0",
          "type": "uint256"
        },
        {
          "internalType": "address",
          "name": "token1",
          "type": "address"
        },
        {
          "internalType": "uint256",
          "name": "amount1",
          "type": "uint256"
        }
      ],
      "name": "withdraw",
      "outputs": [],
      "stateMutability": "nonpayable",
      "type": "function"
    }
  ],
  "bytecode": "0x6080604052600060015534801561001557600080fd5b50610f46806100256000396000f3fe608060405234801561001057600080fd5b506004361061007d5760003560e01c80635c0d107e1161005b5780635c0d107e146100c857806390d25074146100e8578063a244a481146100fb578063dd9ef3981461010e5761007d565b80633ab2e4ba146100825780633da6be60146100975780634b2084e3146100b5575b600080fd5b610095610090366004610d0c565b610116565b005b61009f61020b565b6040516100ac9190610dc5565b60405180910390f35b6100956100c3366004610c52565b61021a565b6100db6100d6366004610c99565b610288565b6040516100ac9190610e47565b6100956100f6366004610c52565b61059b565b610095610109366004610b95565b610605565b6100db61063f565b806040015160015410156101455760405162461bcd60e51b815260040161013c90610e10565b60405180910390fd5b600054815160208301516040808501516060860151608087015192517f46698e750000000000000000000000000000000000000000000000000000000081526001600160a01b03909616956346698e75956101a895909490939291600401610e50565b6040805180830381600087803b1580156101c157600080fd5b505af11580156101d5573d6000803e3d6000fd5b505050506040513d601f19601f820116820180604052508101906101f99190610d75565b50506040015160018054919091039055565b6000546001600160a01b031681565b6000831161023a5760405162461bcd60e51b815260040161013c90610dd9565b6000811161025a5760405162461bcd60e51b815260040161013c90610dd9565b61026e6001600160a01b0385163385610645565b6102826001600160a01b0383163383610645565b50505050565b6000805460208301516040517fb9decd6600000000000000000000000000000000000000000000000000000000815283926001600160a01b03169163b9decd66916102d69190600401610e47565b6101006040518083038186803b1580156102ef57600080fd5b505afa158015610303573d6000803e3d6000fd5b505050506040513d601f19601f820116820180604052508101906103279190610bcd565b50505050509250505060008190506103d260008054906101000a90046001600160a01b03168560400151836001600160a01b0316630dfe16816040518163ffffffff1660e01b815260040160206040518083038186803b15801561038a57600080fd5b505afa15801561039e573d6000803e3d6000fd5b505050506040513d601f19601f820116820180604052508101906103c29190610bb1565b6001600160a01b031691906106ca565b61042760008054906101000a90046001600160a01b03168560600151836001600160a01b031663d21220a76040518163ffffffff1660e01b815260040160206040518083038186803b15801561038a57600080fd5b600080548551602087015160408089015160608a015160808b015160a08c015193517fec28fcac0000000000000000000000000000000000000000000000000000000081526001600160a01b039097169663ec28fcac966104919690959094939291600401610e73565b606060405180830381600087803b1580156104ab57600080fd5b505af11580156104bf573d6000803e3d6000fd5b505050506040513d601f19601f820116820180604052508101906104e39190610d98565b5050905061053960008054906101000a90046001600160a01b03166000846001600160a01b0316630dfe16816040518163ffffffff1660e01b815260040160206040518083038186803b15801561038a57600080fd5b61058b60008054906101000a90046001600160a01b03166000846001600160a01b031663d21220a76040518163ffffffff1660e01b815260040160206040518083038186803b15801561038a57600080fd5b6001805482019055949350505050565b600083116105bb5760405162461bcd60e51b815260040161013c90610dd9565b600081116105db5760405162461bcd60e51b815260040161013c90610dd9565b6105f06001600160a01b038516333086610824565b6102826001600160a01b038316333084610824565b600080547fffffffffffffffffffffffff0000000000000000000000000000000000000000166001600160a01b0392909216919091179055565b60015481565b604080516001600160a01b038416602482015260448082018490528251808303909101815260649091019091526020810180517bffffffffffffffffffffffffffffffffffffffffffffffffffffffff167fa9059cbb000000000000000000000000000000000000000000000000000000001790526106c59084906108a8565b505050565b8015806107695750604080517fdd62ed3e0000000000000000000000000000000000000000000000000000000081523060048201526001600160a01b03848116602483015291519185169163dd62ed3e91604480820192602092909190829003018186803b15801561073b57600080fd5b505afa15801561074f573d6000803e3d6000fd5b505050506040513d602081101561076557600080fd5b5051155b6107a45760405162461bcd60e51b8152600401808060200182810382526036815260200180610f046036913960400191505060405180910390fd5b604080516001600160a01b038416602482015260448082018490528251808303909101815260649091019091526020810180517bffffffffffffffffffffffffffffffffffffffffffffffffffffffff167f095ea7b3000000000000000000000000000000000000000000000000000000001790526106c59084906108a8565b604080516001600160a01b0380861660248301528416604482015260648082018490528251808303909101815260849091019091526020810180517bffffffffffffffffffffffffffffffffffffffffffffffffffffffff167f23b872dd000000000000000000000000000000000000000000000000000000001790526102829085905b60006108fd826040518060400160405280602081526020017f5361666545524332303a206c6f772d6c6576656c2063616c6c206661696c6564815250856001600160a01b03166109599092919063ffffffff16565b8051909150156106c55780806020019051602081101561091c57600080fd5b50516106c55760405162461bcd60e51b815260040180806020018281038252602a815260200180610eda602a913960400191505060405180910390fd5b60606109688484600085610972565b90505b9392505050565b6060824710156109b35760405162461bcd60e51b8152600401808060200182810382526026815260200180610eb46026913960400191505060405180910390fd5b6109bc85610aeb565b610a0d576040805162461bcd60e51b815260206004820152601d60248201527f416464726573733a2063616c6c20746f206e6f6e2d636f6e7472616374000000604482015290519081900360640190fd5b600080866001600160a01b031685876040518082805190602001908083835b60208310610a6957805182527fffffffffffffffffffffffffffffffffffffffffffffffffffffffffffffffe09092019160209182019101610a2c565b6001836020036101000a03801982511681845116808217855250505050505090500191505060006040518083038185875af1925050503d8060008114610acb576040519150601f19603f3d011682016040523d82523d6000602084013e610ad0565b606091505b5091509150610ae0828286610af1565b979650505050505050565b3b151590565b60608315610b0057508161096b565b825115610b105782518084602001fd5b8160405162461bcd60e51b81526004018080602001828103825283818151815260200191508051906020019080838360005b83811015610b5a578181015183820152602001610b42565b50505050905090810190601f168015610b875780820380516001836020036101000a031916815260200191505b509250505060405180910390fd5b600060208284031215610ba6578081fd5b813561096b81610e9b565b600060208284031215610bc2578081fd5b815161096b81610e9b565b600080600080600080600080610100898b031215610be9578384fd5b8851610bf481610e9b565b60208a0151909850610c0581610e9b565b60408a0151909750610c1681610e9b565b60608a0151909650610c2781610e9b565b60808a015160a08b015160c08c015160e0909c01519a9d999c50979a91999098919650945092505050565b60008060008060808587031215610c67578384fd5b8435610c7281610e9b565b9350602085013592506040850135610c8981610e9b565b9396929550929360600135925050565b600060c08284031215610caa578081fd5b60405160c0810181811067ffffffffffffffff82111715610cc757fe5b8060405250823581526020830135602082015260408301356040820152606083013560608201526080830135608082015260a083013560a08201528091505092915050565b600060a08284031215610d1d578081fd5b60405160a0810181811067ffffffffffffffff82111715610d3a57fe5b806040525082358152602083013560208201526040830135604082015260608301356060820152608083013560808201528091505092915050565b60008060408385031215610d87578182fd5b505080516020909101519092909150565b600080600060608486031215610dac578283fd5b8351925060208401519150604084015190509250925092565b6001600160a01b0391909116815260200190565b60208082526002908201527f4e5a000000000000000000000000000000000000000000000000000000000000604082015260600190565b60208082526013908201527f696e73756666696369656e742073686172657300000000000000000000000000604082015260600190565b90815260200190565b948552602085019390935260408401919091526060830152608082015260a00190565b958652602086019490945260408501929092526060840152608083015260a082015260c00190565b6001600160a01b0381168114610eb057600080fd5b5056fe416464726573733a20696e73756666696369656e742062616c616e636520666f722063616c6c5361666545524332303a204552433230206f7065726174696f6e20646964206e6f7420737563636565645361666545524332303a20617070726f76652066726f6d206e6f6e2d7a65726f20746f206e6f6e2d7a65726f20616c6c6f77616e6365a164736f6c6343000706000a",
  "linkReferences": {},
  "deployedLinkReferences": {}
}