{
  "_format": "hh-sol-artifact-1",
  "contractName": "CHIVaultDeployer",
  "sourceName": "contracts/CHIVaultDeployer.sol",
  "abi": [
    {
      "inputs": [],
      "stateMutability": "nonpayable",
      "type": "constructor"
    },
    {
      "anonymous": false,
      "inputs": [
        {
          "indexed": true,
          "internalType": "address",
          "name": "oldCHIManager",
          "type": "address"
        },
        {
          "indexed": true,
          "internalType": "address",
          "name": "newCHIManager",
          "type": "address"
        }
      ],
      "name": "CHIManagerChanged",
      "type": "event"
    },
    {
      "anonymous": false,
      "inputs": [
        {
          "indexed": true,
          "internalType": "address",
          "name": "oldOwner",
          "type": "address"
        },
        {
          "indexed": true,
          "internalType": "address",
          "name": "newOwner",
          "type": "address"
        }
      ],
      "name": "OwnerChanged",
      "type": "event"
    },
    {
      "inputs": [],
      "name": "CHIManager",
      "outputs": [
        {
          "internalType": "address",
          "name": "",
          "type": "address"
        }
      ],
      "stateMutability": "view",
      "type": "function"
    },
    {
      "inputs": [
        {
          "internalType": "address",
          "name": "uniswapV3pool",
          "type": "address"
        },
        {
          "internalType": "address",
          "name": "manager",
          "type": "address"
        },
        {
          "internalType": "uint256",
          "name": "fee",
          "type": "uint256"
        }
      ],
      "name": "createVault",
      "outputs": [
        {
          "internalType": "address",
          "name": "pool",
          "type": "address"
        }
      ],
      "stateMutability": "nonpayable",
      "type": "function"
    },
    {
      "inputs": [],
      "name": "owner",
      "outputs": [
        {
          "internalType": "address",
          "name": "",
          "type": "address"
        }
      ],
      "stateMutability": "view",
      "type": "function"
    },
    {
      "inputs": [
        {
          "internalType": "address",
          "name": "_manager",
          "type": "address"
        }
      ],
      "name": "setCHIManager",
      "outputs": [],
      "stateMutability": "nonpayable",
      "type": "function"
    },
    {
      "inputs": [
        {
          "internalType": "address",
          "name": "_owner",
          "type": "address"
        }
      ],
      "name": "setOwner",
      "outputs": [],
      "stateMutability": "nonpayable",
      "type": "function"
    }
  ],
  "bytecode": "0x608060405234801561001057600080fd5b50600080546001600160a01b03191633179055613a3a806100326000396000f3fe608060405234801561001057600080fd5b50600436106100675760003560e01c80638da5cb5b116100505780638da5cb5b146100e65780639d60da50146100ee578063a244a481146100f657610067565b806313af40351461006c57806358b4b71114610094575b600080fd5b6100926004803603602081101561008257600080fd5b50356001600160a01b031661011c565b005b6100ca600480360360608110156100aa57600080fd5b506001600160a01b038135811691602081013590911690604001356101a6565b604080516001600160a01b039092168252519081900360200190f35b6100ca61021e565b6100ca61022d565b6100926004803603602081101561010c57600080fd5b50356001600160a01b031661023c565b6000546001600160a01b0316331461013357600080fd5b600080546040516001600160a01b03808516939216917fb532073b38c83145e3e5135377a08bf9aab55bc0fd7c1179cd4fb995d2a5159c91a3600080547fffffffffffffffffffffffff0000000000000000000000000000000000000000166001600160a01b0392909216919091179055565b6001546000906001600160a01b031633146101c057600080fd5b8383836040516101cf906102c7565b80846001600160a01b03168152602001836001600160a01b031681526020018281526020019350505050604051809103906000f080158015610215573d6000803e3d6000fd5b50949350505050565b6000546001600160a01b031681565b6001546001600160a01b031681565b6000546001600160a01b0316331461025357600080fd5b6001546040516001600160a01b038084169216907f25196b6887a2c4bc24ff6330982317d18b73000e05091640ca171dcdc3995bdf90600090a3600180547fffffffffffffffffffffffff0000000000000000000000000000000000000000166001600160a01b0392909216919091179055565b613759806102d58339019056fe60e0604052620f42406006553480156200001857600080fd5b506040516200375938038062003759833981810160405260608110156200003e57600080fd5b5080516020808301516040938401516001600081905580546001600160a01b0319166001600160a01b0380871691909117918290558651630dfe168160e01b81529651959693959294911692630dfe16819260048083019392829003018186803b158015620000ac57600080fd5b505afa158015620000c1573d6000803e3d6000fd5b505050506040513d6020811015620000d857600080fd5b505160601b6001600160601b0319166080526001546040805163d21220a760e01b815290516001600160a01b039092169163d21220a791600480820192602092909190829003018186803b1580156200013057600080fd5b505afa15801562000145573d6000803e3d6000fd5b505050506040513d60208110156200015c57600080fd5b505160601b6001600160601b03191660a052600154604080516334324e9f60e21b815290516001600160a01b039092169163d0c93a7c91600480820192602092909190829003018186803b158015620001b457600080fd5b505afa158015620001c9573d6000803e3d6000fd5b505050506040513d6020811015620001e057600080fd5b5051600290810b810b60e81b60c05280546001600160a01b0319166001600160a01b0384161790556005819055600654811062000248576040805162461bcd60e51b81526020600482015260016024820152603360f91b604482015290519081900360640190fd5b50505060805160601c60a05160601c60c05160e81c61349c620002bd600039806110b152806124ec528061257152508061054f5280610f3452806110d5528061115b52806113905280611c8e525080610515528061057d5280610f05528061112152806113565280611be7525061349c6000f3fe608060405234801561001057600080fd5b506004361061018d5760003560e01c8063b5962917116100e3578063d34879971161008c578063db4dcce411610066578063db4dcce414610465578063eae989a21461048f578063ecefc705146104975761018d565b8063d34879971461037f578063d473a654146103fb578063d4da6185146104395761018d565b8063cc364f48116100bd578063cc364f4814610318578063d0c93a7c14610358578063d21220a7146103775761018d565b8063b5962917146102b5578063bf02b5ea146102bd578063c4a7761e146103105761018d565b80635a64998b11610145578063a00fa77f1161011f578063a00fa77f1461029d578063b0e21e8a146102a5578063b135a145146102ad5761018d565b80635a64998b146102425780639d60da501461026c5780639d9d75be146102745761018d565b806316f0115b1161017657806316f0115b146101ea57806318160ddd146101f25780632106fa461461020c5761018d565b80630430c130146101925780630dfe1681146101c6575b600080fd5b6101c4600480360360608110156101a857600080fd5b50803590602081013590604001356001600160a01b031661049f565b005b6101ce61057b565b604080516001600160a01b039092168252519081900360200190f35b6101ce61059f565b6101fa6105ae565b60408051918252519081900360200190f35b6102296004803603602081101561022257600080fd5b50356105b4565b6040805192835260208301919091528051918290030190f35b6101c46004803603604081101561025857600080fd5b508035600290810b9160200135900b610829565b6101ce61090b565b6101c46004803603606081101561028a57600080fd5b508035906020810135906040013561091a565b6101fa610bed565b6101fa610bf3565b6101fa610bf9565b6101c4610c0a565b6102f2600480360360a08110156102d357600080fd5b5080359060208101359060408101359060608101359060800135610cb8565b60408051938452602084019290925282820152519081900360600190f35b610229611001565b6103356004803603602081101561032e57600080fd5b5035611094565b604051808360020b81526020018260020b81526020019250505060405180910390f35b6103606110af565b6040805160029290920b8252519081900360200190f35b6101ce6110d3565b6101c46004803603606081101561039557600080fd5b8135916020810135918101906060810160408201356401000000008111156103bc57600080fd5b8201836020820111156103ce57600080fd5b803590602001918460018302840111640100000000831117156103f057600080fd5b5090925090506110f7565b610229600480360360a081101561041157600080fd5b50803590602081013590604081013590606081013590608001356001600160a01b0316611188565b6102296004803603604081101561044f57600080fd5b50803590602001356001600160801b03166114e4565b6101c46004803603604081101561047b57600080fd5b508035600290810b9160200135900b6117b7565b6101fa61189c565b6101fa6118a2565b6002546001600160a01b031633146104e2576040805162461bcd60e51b81526020600482015260016024820152606d60f81b604482015290519081900360640190fd5b6003546104ef90846118a8565b6003556004546104ff90836118a8565b600455821561053c5761053c6001600160a01b037f000000000000000000000000000000000000000000000000000000000000000016828561190a565b8115610576576105766001600160a01b037f000000000000000000000000000000000000000000000000000000000000000016828461190a565b505050565b7f000000000000000000000000000000000000000000000000000000000000000081565b6001546001600160a01b031681565b60075490565b6000806002600054141561060f576040805162461bcd60e51b815260206004820152601f60248201527f5265656e7472616e637947756172643a207265656e7472616e742063616c6c00604482015290519081900360640190fd5b60026000819055546001600160a01b03163314610657576040805162461bcd60e51b81526020600482015260016024820152606d60f81b604482015290519081900360640190fd5b60008061066d61066860088761198a565b61199d565b91509150600061067d83836119ae565b90506001600160801b0381161561081a576001546040805163a34123a760e01b8152600286810b600483015285900b60248201526001600160801b038416604482015281516001600160a01b039093169263a34123a7926064808401939192918290030181600087803b1580156106f357600080fd5b505af1158015610707573d6000803e3d6000fd5b505050506040513d604081101561071d57600080fd5b5080516020909101519095509350841515806107395750600084115b1561081a576001546001600160a01b0316634f1eb3d830858561075b8a611a71565b6107648a611a71565b6040518663ffffffff1660e01b815260040180866001600160a01b031681526020018560020b81526020018460020b8152602001836001600160801b03168152602001826001600160801b03168152602001955050505050506040805180830381600087803b1580156107d657600080fd5b505af11580156107ea573d6000803e3d6000fd5b505050506040513d604081101561080057600080fd5b5080516020909101516001600160801b0391821696501693505b50506001600055509092909150565b6002546001600160a01b0316331461086c576040805162461bcd60e51b81526020600482015260016024820152606d60f81b604482015290519081900360640190fd5b6000806108798484611a8c565b91509150816000146108b7576040805162461bcd60e51b8152602060048201526002602482015261061360f41b604482015290519081900360640190fd5b80156108ef576040805162461bcd60e51b8152602060048201526002602482015261061360f41b604482015290519081900360640190fd5b6109046108fc8585611ba8565b600890611bd1565b5050505050565b6002546001600160a01b031681565b60026000541415610972576040805162461bcd60e51b815260206004820152601f60248201527f5265656e7472616e637947756172643a207265656e7472616e742063616c6c00604482015290519081900360640190fd5b60026000819055546001600160a01b031633146109ba576040805162461bcd60e51b81526020600482015260016024820152606d60f81b604482015290519081900360640190fd5b6000806109cb61066860088761198a565b915091506109d7611bdd565b841115610a2b576040805162461bcd60e51b815260206004820152600360248201527f4942300000000000000000000000000000000000000000000000000000000000604482015290519081900360640190fd5b610a33611c84565b831115610a87576040805162461bcd60e51b815260206004820152600360248201527f4942310000000000000000000000000000000000000000000000000000000000604482015290519081900360640190fd5b6000610a9583838787611cf9565b90506001600160801b03811615610be0576001546001600160a01b0316633c8a7d8d3085858560006040519080825280601f01601f191660200182016040528015610ae7576020820181803683370190505b506040518663ffffffff1660e01b815260040180866001600160a01b031681526020018560020b81526020018460020b8152602001836001600160801b0316815260200180602001828103825283818151815260200191508051906020019080838360005b83811015610b64578181015183820152602001610b4c565b50505050905090810190601f168015610b915780820380516001836020036101000a031916815260200191505b5096505050505050506040805180830381600087803b158015610bb357600080fd5b505af1158015610bc7573d6000803e3d6000fd5b505050506040513d6040811015610bdd57600080fd5b50505b5050600160005550505050565b60045490565b60055490565b6000610c056008611d9f565b905090565b600080610c15611daa565b60005b610c226008611d9f565b811015610c7857600080610c3a61066860088561198a565b91509150600080610c4b8484611e87565b9092509050610c5a878361209d565b9650610c66868261209d565b95505060019093019250610c18915050565b50604080518381526020810183905281517f38436c42bcfd74414acafc159a381bf74b9880bc4c1c9f922686fc7161d9c7ad929181900390910190a15050565b600080600060026000541415610d15576040805162461bcd60e51b815260206004820152601f60248201527f5265656e7472616e637947756172643a207265656e7472616e742063616c6c00604482015290519081900360640190fd5b60026000819055546001600160a01b03163314610d5d576040805162461bcd60e51b81526020600482015260016024820152606d60f81b604482015290519081900360640190fd5b6000871180610d6c5750600086115b610dbf576040805162461bcd60e51b8152602060048083019190915260248201527f6130613100000000000000000000000000000000000000000000000000000000604482015290519081900360640190fd5b610dc7611daa565b610dd187876120f7565b9194509250905082610e2a576040805162461bcd60e51b815260206004820152600160248201527f7300000000000000000000000000000000000000000000000000000000000000604482015290519081900360640190fd5b84821015610e7f576040805162461bcd60e51b815260206004820152600360248201527f41304d0000000000000000000000000000000000000000000000000000000000604482015290519081900360640190fd5b83811015610ed4576040805162461bcd60e51b815260206004820152600360248201527f41314d0000000000000000000000000000000000000000000000000000000000604482015290519081900360640190fd5b604080517fed1bbd0b0000000000000000000000000000000000000000000000000000000081526001600160a01b037f000000000000000000000000000000000000000000000000000000000000000081166004830152602482018590527f0000000000000000000000000000000000000000000000000000000000000000166044820152606481018390529051339163ed1bbd0b91608480830192600092919082900301818387803b158015610f8a57600080fd5b505af1158015610f9e573d6000803e3d6000fd5b50505050610fab8361225c565b6040805184815260208101849052808201839052905189917f9b776d199f09c774f5b205c9bc2ac6f40d508c347aaea919867eeaf06ebef0e9919081900360600190a26001600081905550955095509592505050565b60008060005b6110116008611d9f565b8110156110675760008061102961066860088561198a565b9150915060008061103a8484611a8c565b9092509050611049878361209d565b9650611055868261209d565b95505060019093019250611007915050565b5061107a611073611bdd565b839061209d565b915061108e611087611c84565b829061209d565b90509091565b6000806110a561066860088561198a565b9094909350915050565b7f000000000000000000000000000000000000000000000000000000000000000081565b7f000000000000000000000000000000000000000000000000000000000000000081565b6001546001600160a01b0316331461110e57600080fd5b8315611148576111486001600160a01b037f000000000000000000000000000000000000000000000000000000000000000016338661190a565b8215611182576111826001600160a01b037f000000000000000000000000000000000000000000000000000000000000000016338561190a565b50505050565b600080600260005414156111e3576040805162461bcd60e51b815260206004820152601f60248201527f5265656e7472616e637947756172643a207265656e7472616e742063616c6c00604482015290519081900360640190fd5b60026000819055546001600160a01b0316331461122b576040805162461bcd60e51b81526020600482015260016024820152606d60f81b604482015290519081900360640190fd5b60008611611280576040805162461bcd60e51b815260206004820152600160248201527f7300000000000000000000000000000000000000000000000000000000000000604482015290519081900360640190fd5b6001600160a01b038316158015906112a157506001600160a01b0383163014155b6112f2576040805162461bcd60e51b815260206004820152600260248201527f746f000000000000000000000000000000000000000000000000000000000000604482015290519081900360640190fd5b6000806112ff8886612267565b9150915061130b610c0a565b600061132b6007546113258b61131f611bdd565b906122ef565b90612348565b905060006113416007546113258c61131f611c84565b9050811561137d5761137d6001600160a01b037f000000000000000000000000000000000000000000000000000000000000000016888461190a565b80156113b7576113b76001600160a01b037f000000000000000000000000000000000000000000000000000000000000000016888361190a565b6113c1848361209d565b95506113cd838261209d565b945088861015611424576040805162461bcd60e51b815260206004820152600360248201527f41304d0000000000000000000000000000000000000000000000000000000000604482015290519081900360640190fd5b87851015611479576040805162461bcd60e51b815260206004820152600360248201527f41314d0000000000000000000000000000000000000000000000000000000000604482015290519081900360640190fd5b6114828a6123af565b604080518b81526020810188905280820187905290516001600160a01b038916918d917f30011545efcd097ee25dae81386c1513acbd42b2af85ac6caae1a3b7d51933669181900360600190a350506001600055509197909650945050505050565b6000806002600054141561153f576040805162461bcd60e51b815260206004820152601f60248201527f5265656e7472616e637947756172643a207265656e7472616e742063616c6c00604482015290519081900360640190fd5b60026000819055546001600160a01b03163314611587576040805162461bcd60e51b81526020600482015260016024820152606d60f81b604482015290519081900360640190fd5b60008061159861066860088861198a565b915091506115a682826119ae565b6001600160801b0316856001600160801b0316111561160c576040805162461bcd60e51b815260206004820152600160248201527f4c00000000000000000000000000000000000000000000000000000000000000604482015290519081900360640190fd5b6001600160801b038516156117a7576001546040805163a34123a760e01b8152600285810b600483015284900b60248201526001600160801b038816604482015281516001600160a01b039093169263a34123a7926064808401939192918290030181600087803b15801561168057600080fd5b505af1158015611694573d6000803e3d6000fd5b505050506040513d60408110156116aa57600080fd5b5080516020909101519094509250831515806116c65750600083115b156117a7576001546001600160a01b0316634f1eb3d83084846116e889611a71565b6116f189611a71565b6040518663ffffffff1660e01b815260040180866001600160a01b031681526020018560020b81526020018460020b8152602001836001600160801b03168152602001826001600160801b03168152602001955050505050506040805180830381600087803b15801561176357600080fd5b505af1158015611777573d6000803e3d6000fd5b505050506040513d604081101561178d57600080fd5b5080516020909101516001600160801b0391821695501692505b5050600160005590939092509050565b6002546001600160a01b031633146117fa576040805162461bcd60e51b81526020600482015260016024820152606d60f81b604482015290519081900360640190fd5b6000806118078484611a8c565b9150915081600014611845576040805162461bcd60e51b8152602060048201526002602482015261061360f41b604482015290519081900360640190fd5b801561187d576040805162461bcd60e51b8152602060048201526002602482015261061360f41b604482015290519081900360640190fd5b61188784846123bb565b6109046118948585611ba8565b6008906125f8565b60035490565b60065481565b6000828211156118ff576040805162461bcd60e51b815260206004820152601e60248201527f536166654d6174683a207375627472616374696f6e206f766572666c6f770000604482015290519081900360640190fd5b508082035b92915050565b604080516001600160a01b038416602482015260448082018490528251808303909101815260649091019091526020810180517bffffffffffffffffffffffffffffffffffffffffffffffffffffffff167fa9059cbb00000000000000000000000000000000000000000000000000000000179052610576908490612604565b600061199683836126b5565b9392505050565b608081901c9160c091821b90911d90565b604080513060601b602080830191909152600285810b60e890811b60348501529085900b901b60378301528251808303601a018152603a83018085528151919092012060015463514ea4bf60e01b909252603e83018190529251600093926001600160a01b039092169163514ea4bf91605e8083019260a0929190829003018186803b158015611a3d57600080fd5b505afa158015611a51573d6000803e3d6000fd5b505050506040513d60a0811015611a6757600080fd5b5051949350505050565b806001600160801b0381168114611a8757600080fd5b919050565b604080513060601b602080830191909152600285810b60e890811b60348501529085900b901b60378301528251601a818403018152603a83018085528151919092012060015463514ea4bf60e01b909252603e83018190529251600093849390928492839283926001600160a01b03169163514ea4bf91605e8082019260a092909190829003018186803b158015611b2357600080fd5b505afa158015611b37573d6000803e3d6000fd5b505050506040513d60a0811015611b4d57600080fd5b50805160608201516080909201519094509092509050611b6e888885612719565b9096509450611b86866001600160801b03841661209d565b9550611b9b856001600160801b03831661209d565b9450505050509250929050565b600290810b62ffffff1691900b60801b72ffffff00000000000000000000000000000000160190565b600061199683836127c3565b6000610c056003547f00000000000000000000000000000000000000000000000000000000000000006001600160a01b03166370a08231306040518263ffffffff1660e01b815260040180826001600160a01b0316815260200191505060206040518083038186803b158015611c5257600080fd5b505afa158015611c66573d6000803e3d6000fd5b505050506040513d6020811015611c7c57600080fd5b5051906118a8565b6000610c056004547f00000000000000000000000000000000000000000000000000000000000000006001600160a01b03166370a08231306040518263ffffffff1660e01b815260040180826001600160a01b0316815260200191505060206040518083038186803b158015611c5257600080fd5b600080600160009054906101000a90046001600160a01b03166001600160a01b0316633850c7bd6040518163ffffffff1660e01b815260040160e06040518083038186803b158015611d4a57600080fd5b505afa158015611d5e573d6000803e3d6000fd5b505050506040513d60e0811015611d7457600080fd5b50519050611d9581611d8588612889565b611d8e88612889565b8787612be4565b9695505050505050565b600061190482612ca8565b60005b611db76008611d9f565b811015611e8457600080611dcf61066860088561198a565b915091506000611ddf83836119ae565b6001600160801b03161115611e7a576001546040805163a34123a760e01b8152600285810b600483015284900b602482015260006044820181905282516001600160a01b039094169363a34123a7936064808501949193918390030190829087803b158015611e4d57600080fd5b505af1158015611e61573d6000803e3d6000fd5b505050506040513d6040811015611e7757600080fd5b50505b5050600101611dad565b50565b604080513060601b602080830191909152600285810b60e890811b60348501529085900b901b60378301528251808303601a018152603a83018085528151919092012060015463514ea4bf60e01b909252603e8301819052925160009384939092849283926001600160a01b039092169163514ea4bf91605e8083019260a0929190829003018186803b158015611f1d57600080fd5b505afa158015611f31573d6000803e3d6000fd5b505050506040513d60a0811015611f4757600080fd5b506060810151608090910151600154604080517f4f1eb3d800000000000000000000000000000000000000000000000000000000815230600482015260028c810b60248301528b900b60448201526001600160801b0380861660648301528416608482015281519496509294506001600160a01b0390911692634f1eb3d89260a48082019392918290030181600087803b158015611fe457600080fd5b505af1158015611ff8573d6000803e3d6000fd5b505050506040513d604081101561200e57600080fd5b5080516020909101516005546001600160801b03928316975091169450600090819015612091576120506006546113256005548a6122ef90919063ffffffff16565b915061206d600654611325600554896122ef90919063ffffffff16565b60035490915061207d908361209d565b60035560045461208d908261209d565b6004555b50505050509250929050565b600082820183811015611996576040805162461bcd60e51b815260206004820152601b60248201527f536166654d6174683a206164646974696f6e206f766572666c6f770000000000604482015290519081900360640190fd5b6000806000806000612107611001565b915091506007546000148061211c5750600082115b806121275750600081115b61212d57fe5b60075461214b578693508592506121448484612cac565b9450612253565b8161216c5785925061214481611325600754866122ef90919063ffffffff16565b8061218d5786935061214482611325600754876122ef90919063ffffffff16565b60006121ab61219c89846122ef565b6121a689866122ef565b612cc3565b905060008111612202576040805162461bcd60e51b815260206004820152600160248201527f6300000000000000000000000000000000000000000000000000000000000000604482015290519081900360640190fd5b61221b60016122158461132585846118a8565b9061209d565b945061223060016122158561132585846118a8565b935061224f8261132585611325600754866122ef90919063ffffffff16565b9550505b50509250925092565b600780549091019055565b60008060005b6122776008611d9f565b8110156122e75760008061228f61066860088561198a565b91509150600061229f83836119ae565b6001600160801b031611156122dd576000806122bd84848b8b612cd2565b90925090506122cc878361209d565b96506122d8868261209d565b955050505b505060010161226d565b509250929050565b6000826122fe57506000611904565b8282028284828161230b57fe5b04146119965760405162461bcd60e51b81526004018080602001828103825260218152602001806134456021913960400191505060405180910390fd5b600080821161239e576040805162461bcd60e51b815260206004820152601a60248201527f536166654d6174683a206469766973696f6e206279207a65726f000000000000604482015290519081900360640190fd5b8183816123a757fe5b049392505050565b60078054919091039055565b8060020b8260020b12612415576040805162461bcd60e51b815260206004820152600360248201527f544c550000000000000000000000000000000000000000000000000000000000604482015290519081900360640190fd5b7ffffffffffffffffffffffffffffffffffffffffffffffffffffffffffff27618600283900b121561248e576040805162461bcd60e51b815260206004820152600360248201527f544c4d0000000000000000000000000000000000000000000000000000000000604482015290519081900360640190fd5b620d89e8600282900b13156124ea576040805162461bcd60e51b815260206004820152600360248201527f54554d0000000000000000000000000000000000000000000000000000000000604482015290519081900360640190fd5b7f000000000000000000000000000000000000000000000000000000000000000060020b8260020b8161251957fe5b0760020b1561256f576040805162461bcd60e51b815260206004820152600360248201527f544c460000000000000000000000000000000000000000000000000000000000604482015290519081900360640190fd5b7f000000000000000000000000000000000000000000000000000000000000000060020b8160020b8161259e57fe5b0760020b156125f4576040805162461bcd60e51b815260206004820152600360248201527f5455460000000000000000000000000000000000000000000000000000000000604482015290519081900360640190fd5b5050565b60006119968383612eb7565b6000612659826040518060400160405280602081526020017f5361666545524332303a206c6f772d6c6576656c2063616c6c206661696c6564815250856001600160a01b0316612f019092919063ffffffff16565b8051909150156105765780806020019051602081101561267857600080fd5b50516105765760405162461bcd60e51b815260040180806020018281038252602a815260200180613466602a913960400191505060405180910390fd5b815460009082106126f75760405162461bcd60e51b81526004018080602001828103825260228152602001806133fd6022913960400191505060405180910390fd5b82600001828154811061270657fe5b9060005260206000200154905092915050565b6000806000600160009054906101000a90046001600160a01b03166001600160a01b0316633850c7bd6040518163ffffffff1660e01b815260040160e06040518083038186803b15801561276c57600080fd5b505afa158015612780573d6000803e3d6000fd5b505050506040513d60e081101561279657600080fd5b505190506127b6816127a788612889565b6127b088612889565b87612f18565b9097909650945050505050565b6000818152600183016020526040812054801561287f57835460001980830191908101906000908790839081106127f657fe5b906000526020600020015490508087600001848154811061281357fe5b60009182526020808320909101929092558281526001898101909252604090209084019055865487908061284357fe5b60019003818190600052602060002001600090559055866001016000878152602001908152602001600020600090556001945050505050611904565b6000915050611904565b60008060008360020b126128a0578260020b6128a8565b8260020b6000035b9050620d89e8811115612902576040805162461bcd60e51b815260206004820152600160248201527f5400000000000000000000000000000000000000000000000000000000000000604482015290519081900360640190fd5b60006001821661292357700100000000000000000000000000000000612935565b6ffffcb933bd6fad37aa2d162d1a5940015b70ffffffffffffffffffffffffffffffffff1690506002821615612969576ffff97272373d413259a46990580e213a0260801c5b6004821615612988576ffff2e50f5f656932ef12357cf3c7fdcc0260801c5b60088216156129a7576fffe5caca7e10e4e61c3624eaa0941cd00260801c5b60108216156129c6576fffcb9843d60f6159c9db58835c9266440260801c5b60208216156129e5576fff973b41fa98c081472e6896dfb254c00260801c5b6040821615612a04576fff2ea16466c96a3843ec78b326b528610260801c5b6080821615612a23576ffe5dee046a99a2a811c461f1969c30530260801c5b610100821615612a43576ffcbe86c7900a88aedcffc83b479aa3a40260801c5b610200821615612a63576ff987a7253ac413176f2b074cf7815e540260801c5b610400821615612a83576ff3392b0822b70005940c7a398e4b70f30260801c5b610800821615612aa3576fe7159475a2c29b7443b29c7fa6e889d90260801c5b611000821615612ac3576fd097f3bdfd2022b8845ad8f792aa58250260801c5b612000821615612ae3576fa9f746462d870fdf8a65dc1f90e061e50260801c5b614000821615612b03576f70d869a156d2a1b890bb3df62baf32f70260801c5b618000821615612b23576f31be135f97d08fd981231505542fcfa60260801c5b62010000821615612b44576f09aa508b5b7a84e1c677de54f3e99bc90260801c5b62020000821615612b64576e5d6af8dedb81196699c329225ee6040260801c5b62040000821615612b83576d2216e584f5fa1ea926041bedfe980260801c5b62080000821615612ba0576b048a170391f7dc42444e8fa20260801c5b60008460020b1315612bbb578060001981612bb757fe5b0490505b640100000000810615612bcf576001612bd2565b60005b60ff16602082901c0192505050919050565b6000836001600160a01b0316856001600160a01b03161115612c04579293925b846001600160a01b0316866001600160a01b031611612c2f57612c28858585612fb4565b9050612c9f565b836001600160a01b0316866001600160a01b03161015612c91576000612c56878686612fb4565b90506000612c6587898661301b565b9050806001600160801b0316826001600160801b031610612c865780612c88565b815b92505050612c9f565b612c9c85858461301b565b90505b95945050505050565b5490565b600081831015612cbc5781611996565b5090919050565b6000818310612cbc5781611996565b6000806000612ce187876119ae565b90506000612d0f612d0a60075461132589866001600160801b03166122ef90919063ffffffff16565b611a71565b90506001600160801b03811615612eac576001546040805163a34123a760e01b815260028b810b60048301528a900b60248201526001600160801b038416604482015281516001600160a01b039093169263a34123a7926064808401939192918290030181600087803b158015612d8557600080fd5b505af1158015612d99573d6000803e3d6000fd5b505050506040513d6040811015612daf57600080fd5b508051602090910151909450925083151580612dcb5750600083115b15612eac576001546001600160a01b0316634f1eb3d8868a8a612ded89611a71565b612df689611a71565b6040518663ffffffff1660e01b815260040180866001600160a01b031681526020018560020b81526020018460020b8152602001836001600160801b03168152602001826001600160801b03168152602001955050505050506040805180830381600087803b158015612e6857600080fd5b505af1158015612e7c573d6000803e3d6000fd5b505050506040513d6040811015612e9257600080fd5b5080516020909101516001600160801b0391821695501692505b505094509492505050565b6000612ec38383613061565b612ef957508154600181810184556000848152602080822090930184905584548482528286019093526040902091909155611904565b506000611904565b6060612f108484600085613079565b949350505050565b600080836001600160a01b0316856001600160a01b03161115612f39579293925b846001600160a01b0316866001600160a01b031611612f6457612f5d8585856131f2565b9150612fab565b836001600160a01b0316866001600160a01b03161015612f9d57612f898685856131f2565b9150612f9685878561325b565b9050612fab565b612fa885858561325b565b90505b94509492505050565b6000826001600160a01b0316846001600160a01b03161115612fd4579192915b6000613000856001600160a01b0316856001600160a01b03166c010000000000000000000000006132a3565b9050612c9f612d0a84838888036001600160a01b03166132a3565b6000826001600160a01b0316846001600160a01b0316111561303b579192915b612f10612d0a836c010000000000000000000000008787036001600160a01b03166132a3565b60009081526001919091016020526040902054151590565b6060824710156130ba5760405162461bcd60e51b815260040180806020018281038252602681526020018061341f6026913960400191505060405180910390fd5b6130c385613352565b613114576040805162461bcd60e51b815260206004820152601d60248201527f416464726573733a2063616c6c20746f206e6f6e2d636f6e7472616374000000604482015290519081900360640190fd5b600080866001600160a01b031685876040518082805190602001908083835b6020831061317057805182527fffffffffffffffffffffffffffffffffffffffffffffffffffffffffffffffe09092019160209182019101613133565b6001836020036101000a03801982511681845116808217855250505050505090500191505060006040518083038185875af1925050503d80600081146131d2576040519150601f19603f3d011682016040523d82523d6000602084013e6131d7565b606091505b50915091506131e7828286613358565b979650505050505050565b6000826001600160a01b0316846001600160a01b03161115613212579192915b836001600160a01b031661324b606060ff16846001600160801b0316901b8686036001600160a01b0316866001600160a01b03166132a3565b8161325257fe5b04949350505050565b6000826001600160a01b0316846001600160a01b0316111561327b579192915b612f10826001600160801b03168585036001600160a01b03166c010000000000000000000000005b60008080600019858709868602925082811090839003039050806132d957600084116132ce57600080fd5b508290049050611996565b8084116132e557600080fd5b6000848688096000868103871696879004966002600389028118808a02820302808a02820302808a02820302808a02820302808a02820302808a02909103029181900381900460010186841190950394909402919094039290920491909117919091029150509392505050565b3b151590565b60608315613367575081611996565b8251156133775782518084602001fd5b8160405162461bcd60e51b81526004018080602001828103825283818151815260200191508051906020019080838360005b838110156133c15781810151838201526020016133a9565b50505050905090810190601f1680156133ee5780820380516001836020036101000a031916815260200191505b509250505060405180910390fdfe456e756d657261626c655365743a20696e646578206f7574206f6620626f756e6473416464726573733a20696e73756666696369656e742062616c616e636520666f722063616c6c536166654d6174683a206d756c7469706c69636174696f6e206f766572666c6f775361666545524332303a204552433230206f7065726174696f6e20646964206e6f742073756363656564a164736f6c6343000706000aa164736f6c6343000706000a",
  "linkReferences": {},
  "deployedLinkReferences": {}
}