{
  "_format": "hh-sol-artifact-1",
  "contractName": "CHIVaultDeployer",
  "sourceName": "contracts/CHIVaultDeployer.sol",
  "abi": [
    {
      "inputs": [],
      "stateMutability": "nonpayable",
      "type": "constructor"
    },
    {
      "anonymous": false,
      "inputs": [
        {
          "indexed": true,
          "internalType": "address",
          "name": "oldCHIManager",
          "type": "address"
        },
        {
          "indexed": true,
          "internalType": "address",
          "name": "newCHIManager",
          "type": "address"
        }
      ],
      "name": "CHIManagerChanged",
      "type": "event"
    },
    {
      "anonymous": false,
      "inputs": [
        {
          "indexed": true,
          "internalType": "address",
          "name": "oldOwner",
          "type": "address"
        },
        {
          "indexed": true,
          "internalType": "address",
          "name": "newOwner",
          "type": "address"
        }
      ],
      "name": "OwnerChanged",
      "type": "event"
    },
    {
      "inputs": [],
      "name": "CHIManager",
      "outputs": [
        {
          "internalType": "address",
          "name": "",
          "type": "address"
        }
      ],
      "stateMutability": "view",
      "type": "function"
    },
    {
      "inputs": [
        {
          "internalType": "address",
          "name": "uniswapV3pool",
          "type": "address"
        },
        {
          "internalType": "address",
          "name": "manager",
          "type": "address"
        },
        {
          "internalType": "uint256",
          "name": "fee",
          "type": "uint256"
        }
      ],
      "name": "createVault",
      "outputs": [
        {
          "internalType": "address",
          "name": "pool",
          "type": "address"
        }
      ],
      "stateMutability": "nonpayable",
      "type": "function"
    },
    {
      "inputs": [],
      "name": "owner",
      "outputs": [
        {
          "internalType": "address",
          "name": "",
          "type": "address"
        }
      ],
      "stateMutability": "view",
      "type": "function"
    },
    {
      "inputs": [
        {
          "internalType": "address",
          "name": "_manager",
          "type": "address"
        }
      ],
      "name": "setCHIManager",
      "outputs": [],
      "stateMutability": "nonpayable",
      "type": "function"
    },
    {
      "inputs": [
        {
          "internalType": "address",
          "name": "_owner",
          "type": "address"
        }
      ],
      "name": "setOwner",
      "outputs": [],
      "stateMutability": "nonpayable",
      "type": "function"
    }
  ],
  "bytecode": "0x608060405234801561001057600080fd5b50600080546001600160a01b03191633179055613a40806100326000396000f3fe608060405234801561001057600080fd5b50600436106100675760003560e01c80638da5cb5b116100505780638da5cb5b146100e65780639d60da50146100ee578063a244a481146100f657610067565b806313af40351461006c57806358b4b71114610094575b600080fd5b6100926004803603602081101561008257600080fd5b50356001600160a01b031661011c565b005b6100ca600480360360608110156100aa57600080fd5b506001600160a01b038135811691602081013590911690604001356101a6565b604080516001600160a01b039092168252519081900360200190f35b6100ca61021e565b6100ca61022d565b6100926004803603602081101561010c57600080fd5b50356001600160a01b031661023c565b6000546001600160a01b0316331461013357600080fd5b600080546040516001600160a01b03808516939216917fb532073b38c83145e3e5135377a08bf9aab55bc0fd7c1179cd4fb995d2a5159c91a3600080547fffffffffffffffffffffffff0000000000000000000000000000000000000000166001600160a01b0392909216919091179055565b6001546000906001600160a01b031633146101c057600080fd5b8383836040516101cf906102c7565b80846001600160a01b03168152602001836001600160a01b031681526020018281526020019350505050604051809103906000f080158015610215573d6000803e3d6000fd5b50949350505050565b6000546001600160a01b031681565b6001546001600160a01b031681565b6000546001600160a01b0316331461025357600080fd5b6001546040516001600160a01b038084169216907f25196b6887a2c4bc24ff6330982317d18b73000e05091640ca171dcdc3995bdf90600090a3600180547fffffffffffffffffffffffff0000000000000000000000000000000000000000166001600160a01b0392909216919091179055565b61375f806102d58339019056fe60e0604052620f42406006553480156200001857600080fd5b506040516200375f3803806200375f833981810160405260608110156200003e57600080fd5b5080516020808301516040938401516001600081905580546001600160a01b0319166001600160a01b0380871691909117918290558651630dfe168160e01b81529651959693959294911692630dfe16819260048083019392829003018186803b158015620000ac57600080fd5b505afa158015620000c1573d6000803e3d6000fd5b505050506040513d6020811015620000d857600080fd5b505160601b6001600160601b0319166080526001546040805163d21220a760e01b815290516001600160a01b039092169163d21220a791600480820192602092909190829003018186803b1580156200013057600080fd5b505afa15801562000145573d6000803e3d6000fd5b505050506040513d60208110156200015c57600080fd5b505160601b6001600160601b03191660a052600154604080516334324e9f60e21b815290516001600160a01b039092169163d0c93a7c91600480820192602092909190829003018186803b158015620001b457600080fd5b505afa158015620001c9573d6000803e3d6000fd5b505050506040513d6020811015620001e057600080fd5b5051600290810b810b60e81b60c05280546001600160a01b0319166001600160a01b0384161790556005819055600654811062000248576040805162461bcd60e51b81526020600482015260016024820152603360f91b604482015290519081900360640190fd5b50505060805160601c60a05160601c60c05160e81c6134a2620002bd600039806110d752806124f252806125775250806105755280610f5a52806110fb528061118152806113b55280611c9452508061053b52806105a35280610f2b5280611147528061137b5280611bed52506134a26000f3fe608060405234801561001057600080fd5b506004361061018d5760003560e01c8063b5962917116100e3578063d34879971161008c578063db4dcce411610066578063db4dcce41461048b578063eae989a2146104b5578063ecefc705146104bd5761018d565b8063d34879971461037f578063d473a654146103fb578063d4da61851461045f5761018d565b8063cc364f48116100bd578063cc364f4814610318578063d0c93a7c14610358578063d21220a7146103775761018d565b8063b5962917146102b5578063bf02b5ea146102bd578063c4a7761e146103105761018d565b80635a64998b11610145578063a00fa77f1161011f578063a00fa77f1461029d578063b0e21e8a146102a5578063b135a145146102ad5761018d565b80635a64998b146102425780639d60da501461026c5780639d9d75be146102745761018d565b806316f0115b1161017657806316f0115b146101ea57806318160ddd146101f25780632106fa461461020c5761018d565b80630430c130146101925780630dfe1681146101c6575b600080fd5b6101c4600480360360608110156101a857600080fd5b50803590602081013590604001356001600160a01b03166104c5565b005b6101ce6105a1565b604080516001600160a01b039092168252519081900360200190f35b6101ce6105c5565b6101fa6105d4565b60408051918252519081900360200190f35b6102296004803603602081101561022257600080fd5b50356105da565b6040805192835260208301919091528051918290030190f35b6101c46004803603604081101561025857600080fd5b508035600290810b9160200135900b61084f565b6101ce610931565b6101c46004803603606081101561028a57600080fd5b5080359060208101359060400135610940565b6101fa610c13565b6101fa610c19565b6101fa610c1f565b6101c4610c30565b6102f2600480360360a08110156102d357600080fd5b5080359060208101359060408101359060608101359060800135610cde565b60408051938452602084019290925282820152519081900360600190f35b610229611027565b6103356004803603602081101561032e57600080fd5b50356110ba565b604051808360020b81526020018260020b81526020019250505060405180910390f35b6103606110d5565b6040805160029290920b8252519081900360200190f35b6101ce6110f9565b6101c46004803603606081101561039557600080fd5b8135916020810135918101906060810160408201356401000000008111156103bc57600080fd5b8201836020820111156103ce57600080fd5b803590602001918460018302840111640100000000831117156103f057600080fd5b50909250905061111d565b610439600480360360a081101561041157600080fd5b50803590602081013590604081013590606081013590608001356001600160a01b03166111ae565b604080519485526020850193909352838301919091526060830152519081900360800190f35b6102296004803603604081101561047557600080fd5b50803590602001356001600160801b031661150a565b6101c4600480360360408110156104a157600080fd5b508035600290810b9160200135900b6117dd565b6101fa6118c2565b6101fa6118c8565b6002546001600160a01b03163314610508576040805162461bcd60e51b81526020600482015260016024820152606d60f81b604482015290519081900360640190fd5b60035461051590846118ce565b60035560045461052590836118ce565b6004558215610562576105626001600160a01b037f0000000000000000000000000000000000000000000000000000000000000000168285611930565b811561059c5761059c6001600160a01b037f0000000000000000000000000000000000000000000000000000000000000000168284611930565b505050565b7f000000000000000000000000000000000000000000000000000000000000000081565b6001546001600160a01b031681565b60075490565b60008060026000541415610635576040805162461bcd60e51b815260206004820152601f60248201527f5265656e7472616e637947756172643a207265656e7472616e742063616c6c00604482015290519081900360640190fd5b60026000819055546001600160a01b0316331461067d576040805162461bcd60e51b81526020600482015260016024820152606d60f81b604482015290519081900360640190fd5b60008061069361068e6008876119b0565b6119c3565b9150915060006106a383836119ce565b90506001600160801b03811615610840576001546040805163a34123a760e01b8152600286810b600483015285900b60248201526001600160801b038416604482015281516001600160a01b039093169263a34123a7926064808401939192918290030181600087803b15801561071957600080fd5b505af115801561072d573d6000803e3d6000fd5b505050506040513d604081101561074357600080fd5b50805160209091015190955093508415158061075f5750600084115b15610840576001546001600160a01b0316634f1eb3d83085856107818a611a91565b61078a8a611a91565b6040518663ffffffff1660e01b815260040180866001600160a01b031681526020018560020b81526020018460020b8152602001836001600160801b03168152602001826001600160801b03168152602001955050505050506040805180830381600087803b1580156107fc57600080fd5b505af1158015610810573d6000803e3d6000fd5b505050506040513d604081101561082657600080fd5b5080516020909101516001600160801b0391821696501693505b50506001600055509092909150565b6002546001600160a01b03163314610892576040805162461bcd60e51b81526020600482015260016024820152606d60f81b604482015290519081900360640190fd5b60008061089f8484611aac565b91509150816000146108dd576040805162461bcd60e51b8152602060048201526002602482015261061360f41b604482015290519081900360640190fd5b8015610915576040805162461bcd60e51b8152602060048201526002602482015261061360f41b604482015290519081900360640190fd5b61092a6109228585611bc8565b600890611bd7565b5050505050565b6002546001600160a01b031681565b60026000541415610998576040805162461bcd60e51b815260206004820152601f60248201527f5265656e7472616e637947756172643a207265656e7472616e742063616c6c00604482015290519081900360640190fd5b60026000819055546001600160a01b031633146109e0576040805162461bcd60e51b81526020600482015260016024820152606d60f81b604482015290519081900360640190fd5b6000806109f161068e6008876119b0565b915091506109fd611be3565b841115610a51576040805162461bcd60e51b815260206004820152600360248201527f4942300000000000000000000000000000000000000000000000000000000000604482015290519081900360640190fd5b610a59611c8a565b831115610aad576040805162461bcd60e51b815260206004820152600360248201527f4942310000000000000000000000000000000000000000000000000000000000604482015290519081900360640190fd5b6000610abb83838787611cff565b90506001600160801b03811615610c06576001546001600160a01b0316633c8a7d8d3085858560006040519080825280601f01601f191660200182016040528015610b0d576020820181803683370190505b506040518663ffffffff1660e01b815260040180866001600160a01b031681526020018560020b81526020018460020b8152602001836001600160801b0316815260200180602001828103825283818151815260200191508051906020019080838360005b83811015610b8a578181015183820152602001610b72565b50505050905090810190601f168015610bb75780820380516001836020036101000a031916815260200191505b5096505050505050506040805180830381600087803b158015610bd957600080fd5b505af1158015610bed573d6000803e3d6000fd5b505050506040513d6040811015610c0357600080fd5b50505b5050600160005550505050565b60045490565b60055490565b6000610c2b6008611da5565b905090565b600080610c3b611db0565b60005b610c486008611da5565b811015610c9e57600080610c6061068e6008856119b0565b91509150600080610c718484611e8d565b9092509050610c8087836120a3565b9650610c8c86826120a3565b95505060019093019250610c3e915050565b50604080518381526020810183905281517f38436c42bcfd74414acafc159a381bf74b9880bc4c1c9f922686fc7161d9c7ad929181900390910190a15050565b600080600060026000541415610d3b576040805162461bcd60e51b815260206004820152601f60248201527f5265656e7472616e637947756172643a207265656e7472616e742063616c6c00604482015290519081900360640190fd5b60026000819055546001600160a01b03163314610d83576040805162461bcd60e51b81526020600482015260016024820152606d60f81b604482015290519081900360640190fd5b6000871180610d925750600086115b610de5576040805162461bcd60e51b8152602060048083019190915260248201527f6130613100000000000000000000000000000000000000000000000000000000604482015290519081900360640190fd5b610ded611db0565b610df787876120fd565b9194509250905082610e50576040805162461bcd60e51b815260206004820152600160248201527f7300000000000000000000000000000000000000000000000000000000000000604482015290519081900360640190fd5b84821015610ea5576040805162461bcd60e51b815260206004820152600360248201527f41304d0000000000000000000000000000000000000000000000000000000000604482015290519081900360640190fd5b83811015610efa576040805162461bcd60e51b815260206004820152600360248201527f41314d0000000000000000000000000000000000000000000000000000000000604482015290519081900360640190fd5b604080517fed1bbd0b0000000000000000000000000000000000000000000000000000000081526001600160a01b037f000000000000000000000000000000000000000000000000000000000000000081166004830152602482018590527f0000000000000000000000000000000000000000000000000000000000000000166044820152606481018390529051339163ed1bbd0b91608480830192600092919082900301818387803b158015610fb057600080fd5b505af1158015610fc4573d6000803e3d6000fd5b50505050610fd183612262565b6040805184815260208101849052808201839052905189917f9b776d199f09c774f5b205c9bc2ac6f40d508c347aaea919867eeaf06ebef0e9919081900360600190a26001600081905550955095509592505050565b60008060005b6110376008611da5565b81101561108d5760008061104f61068e6008856119b0565b915091506000806110608484611aac565b909250905061106f87836120a3565b965061107b86826120a3565b9550506001909301925061102d915050565b506110a0611099611be3565b83906120a3565b91506110b46110ad611c8a565b82906120a3565b90509091565b6000806110cb61068e6008856119b0565b9094909350915050565b7f000000000000000000000000000000000000000000000000000000000000000081565b7f000000000000000000000000000000000000000000000000000000000000000081565b6001546001600160a01b0316331461113457600080fd5b831561116e5761116e6001600160a01b037f0000000000000000000000000000000000000000000000000000000000000000163386611930565b82156111a8576111a86001600160a01b037f0000000000000000000000000000000000000000000000000000000000000000163385611930565b50505050565b6000806000806002600054141561120c576040805162461bcd60e51b815260206004820152601f60248201527f5265656e7472616e637947756172643a207265656e7472616e742063616c6c00604482015290519081900360640190fd5b60026000819055546001600160a01b03163314611254576040805162461bcd60e51b81526020600482015260016024820152606d60f81b604482015290519081900360640190fd5b600088116112a9576040805162461bcd60e51b815260206004820152600160248201527f7300000000000000000000000000000000000000000000000000000000000000604482015290519081900360640190fd5b6001600160a01b038516158015906112ca57506001600160a01b0385163014155b61131b576040805162461bcd60e51b815260206004820152600260248201527f746f000000000000000000000000000000000000000000000000000000000000604482015290519081900360640190fd5b6000806113288a8861226d565b91509150611334610c30565b61135260075461134c8c611346611be3565b906122f5565b9061234e565b935061136660075461134c8c611346611c8a565b925083156113a2576113a26001600160a01b037f0000000000000000000000000000000000000000000000000000000000000000168886611930565b82156113dc576113dc6001600160a01b037f0000000000000000000000000000000000000000000000000000000000000000168885611930565b6113e682856120a3565b95506113f281846120a3565b945088861015611449576040805162461bcd60e51b815260206004820152600360248201527f41304d0000000000000000000000000000000000000000000000000000000000604482015290519081900360640190fd5b8785101561149e576040805162461bcd60e51b815260206004820152600360248201527f41314d0000000000000000000000000000000000000000000000000000000000604482015290519081900360640190fd5b6114a78a6123b5565b604080518b81526020810188905280820187905290516001600160a01b038916918d917f30011545efcd097ee25dae81386c1513acbd42b2af85ac6caae1a3b7d51933669181900360600190a35050600160008190555095509550955095915050565b60008060026000541415611565576040805162461bcd60e51b815260206004820152601f60248201527f5265656e7472616e637947756172643a207265656e7472616e742063616c6c00604482015290519081900360640190fd5b60026000819055546001600160a01b031633146115ad576040805162461bcd60e51b81526020600482015260016024820152606d60f81b604482015290519081900360640190fd5b6000806115be61068e6008886119b0565b915091506115cc82826119ce565b6001600160801b0316856001600160801b03161115611632576040805162461bcd60e51b815260206004820152600160248201527f4c00000000000000000000000000000000000000000000000000000000000000604482015290519081900360640190fd5b6001600160801b038516156117cd576001546040805163a34123a760e01b8152600285810b600483015284900b60248201526001600160801b038816604482015281516001600160a01b039093169263a34123a7926064808401939192918290030181600087803b1580156116a657600080fd5b505af11580156116ba573d6000803e3d6000fd5b505050506040513d60408110156116d057600080fd5b5080516020909101519094509250831515806116ec5750600083115b156117cd576001546001600160a01b0316634f1eb3d830848461170e89611a91565b61171789611a91565b6040518663ffffffff1660e01b815260040180866001600160a01b031681526020018560020b81526020018460020b8152602001836001600160801b03168152602001826001600160801b03168152602001955050505050506040805180830381600087803b15801561178957600080fd5b505af115801561179d573d6000803e3d6000fd5b505050506040513d60408110156117b357600080fd5b5080516020909101516001600160801b0391821695501692505b5050600160005590939092509050565b6002546001600160a01b03163314611820576040805162461bcd60e51b81526020600482015260016024820152606d60f81b604482015290519081900360640190fd5b60008061182d8484611aac565b915091508160001461186b576040805162461bcd60e51b8152602060048201526002602482015261061360f41b604482015290519081900360640190fd5b80156118a3576040805162461bcd60e51b8152602060048201526002602482015261061360f41b604482015290519081900360640190fd5b6118ad84846123c1565b61092a6118ba8585611bc8565b6008906125fe565b60035490565b60065481565b600082821115611925576040805162461bcd60e51b815260206004820152601e60248201527f536166654d6174683a207375627472616374696f6e206f766572666c6f770000604482015290519081900360640190fd5b508082035b92915050565b604080516001600160a01b038416602482015260448082018490528251808303909101815260649091019091526020810180517bffffffffffffffffffffffffffffffffffffffffffffffffffffffff167fa9059cbb0000000000000000000000000000000000000000000000000000000017905261059c90849061260a565b60006119bc83836126bb565b9392505050565b601081905260005191565b604080513060601b602080830191909152600285810b60e890811b60348501529085900b901b60378301528251808303601a018152603a83018085528151919092012060015463514ea4bf60e01b909252603e83018190529251600093926001600160a01b039092169163514ea4bf91605e8083019260a0929190829003018186803b158015611a5d57600080fd5b505afa158015611a71573d6000803e3d6000fd5b505050506040513d60a0811015611a8757600080fd5b5051949350505050565b806001600160801b0381168114611aa757600080fd5b919050565b604080513060601b602080830191909152600285810b60e890811b60348501529085900b901b60378301528251601a818403018152603a83018085528151919092012060015463514ea4bf60e01b909252603e83018190529251600093849390928492839283926001600160a01b03169163514ea4bf91605e8082019260a092909190829003018186803b158015611b4357600080fd5b505afa158015611b57573d6000803e3d6000fd5b505050506040513d60a0811015611b6d57600080fd5b50805160608201516080909201519094509092509050611b8e88888561271f565b9096509450611ba6866001600160801b0384166120a3565b9550611bbb856001600160801b0383166120a3565b9450505050509250929050565b60109081526000919091525190565b60006119bc83836127c9565b6000610c2b6003547f00000000000000000000000000000000000000000000000000000000000000006001600160a01b03166370a08231306040518263ffffffff1660e01b815260040180826001600160a01b0316815260200191505060206040518083038186803b158015611c5857600080fd5b505afa158015611c6c573d6000803e3d6000fd5b505050506040513d6020811015611c8257600080fd5b5051906118ce565b6000610c2b6004547f00000000000000000000000000000000000000000000000000000000000000006001600160a01b03166370a08231306040518263ffffffff1660e01b815260040180826001600160a01b0316815260200191505060206040518083038186803b158015611c5857600080fd5b600080600160009054906101000a90046001600160a01b03166001600160a01b0316633850c7bd6040518163ffffffff1660e01b815260040160e06040518083038186803b158015611d5057600080fd5b505afa158015611d64573d6000803e3d6000fd5b505050506040513d60e0811015611d7a57600080fd5b50519050611d9b81611d8b8861288f565b611d948861288f565b8787612bea565b9695505050505050565b600061192a82612cae565b60005b611dbd6008611da5565b811015611e8a57600080611dd561068e6008856119b0565b915091506000611de583836119ce565b6001600160801b03161115611e80576001546040805163a34123a760e01b8152600285810b600483015284900b602482015260006044820181905282516001600160a01b039094169363a34123a7936064808501949193918390030190829087803b158015611e5357600080fd5b505af1158015611e67573d6000803e3d6000fd5b505050506040513d6040811015611e7d57600080fd5b50505b5050600101611db3565b50565b604080513060601b602080830191909152600285810b60e890811b60348501529085900b901b60378301528251808303601a018152603a83018085528151919092012060015463514ea4bf60e01b909252603e8301819052925160009384939092849283926001600160a01b039092169163514ea4bf91605e8083019260a0929190829003018186803b158015611f2357600080fd5b505afa158015611f37573d6000803e3d6000fd5b505050506040513d60a0811015611f4d57600080fd5b506060810151608090910151600154604080517f4f1eb3d800000000000000000000000000000000000000000000000000000000815230600482015260028c810b60248301528b900b60448201526001600160801b0380861660648301528416608482015281519496509294506001600160a01b0390911692634f1eb3d89260a48082019392918290030181600087803b158015611fea57600080fd5b505af1158015611ffe573d6000803e3d6000fd5b505050506040513d604081101561201457600080fd5b5080516020909101516005546001600160801b039283169750911694506000908190156120975761205660065461134c6005548a6122f590919063ffffffff16565b915061207360065461134c600554896122f590919063ffffffff16565b60035490915061208390836120a3565b60035560045461209390826120a3565b6004555b50505050509250929050565b6000828201838110156119bc576040805162461bcd60e51b815260206004820152601b60248201527f536166654d6174683a206164646974696f6e206f766572666c6f770000000000604482015290519081900360640190fd5b600080600080600061210d611027565b91509150600754600014806121225750600082115b8061212d5750600081115b61213357fe5b6007546121515786935085925061214a8484612cb2565b9450612259565b816121725785925061214a8161134c600754866122f590919063ffffffff16565b806121935786935061214a8261134c600754876122f590919063ffffffff16565b60006121b16121a289846122f5565b6121ac89866122f5565b612cc9565b905060008111612208576040805162461bcd60e51b815260206004820152600160248201527f6300000000000000000000000000000000000000000000000000000000000000604482015290519081900360640190fd5b612221600161221b8461134c85846118ce565b906120a3565b9450612236600161221b8561134c85846118ce565b93506122558261134c8561134c600754866122f590919063ffffffff16565b9550505b50509250925092565b600780549091019055565b60008060005b61227d6008611da5565b8110156122ed5760008061229561068e6008856119b0565b9150915060006122a583836119ce565b6001600160801b031611156122e3576000806122c384848b8b612cd8565b90925090506122d287836120a3565b96506122de86826120a3565b955050505b5050600101612273565b509250929050565b6000826123045750600061192a565b8282028284828161231157fe5b04146119bc5760405162461bcd60e51b815260040180806020018281038252602181526020018061344b6021913960400191505060405180910390fd5b60008082116123a4576040805162461bcd60e51b815260206004820152601a60248201527f536166654d6174683a206469766973696f6e206279207a65726f000000000000604482015290519081900360640190fd5b8183816123ad57fe5b049392505050565b60078054919091039055565b8060020b8260020b1261241b576040805162461bcd60e51b815260206004820152600360248201527f544c550000000000000000000000000000000000000000000000000000000000604482015290519081900360640190fd5b7ffffffffffffffffffffffffffffffffffffffffffffffffffffffffffff27618600283900b1215612494576040805162461bcd60e51b815260206004820152600360248201527f544c4d0000000000000000000000000000000000000000000000000000000000604482015290519081900360640190fd5b620d89e8600282900b13156124f0576040805162461bcd60e51b815260206004820152600360248201527f54554d0000000000000000000000000000000000000000000000000000000000604482015290519081900360640190fd5b7f000000000000000000000000000000000000000000000000000000000000000060020b8260020b8161251f57fe5b0760020b15612575576040805162461bcd60e51b815260206004820152600360248201527f544c460000000000000000000000000000000000000000000000000000000000604482015290519081900360640190fd5b7f000000000000000000000000000000000000000000000000000000000000000060020b8160020b816125a457fe5b0760020b156125fa576040805162461bcd60e51b815260206004820152600360248201527f5455460000000000000000000000000000000000000000000000000000000000604482015290519081900360640190fd5b5050565b60006119bc8383612ebd565b600061265f826040518060400160405280602081526020017f5361666545524332303a206c6f772d6c6576656c2063616c6c206661696c6564815250856001600160a01b0316612f079092919063ffffffff16565b80519091501561059c5780806020019051602081101561267e57600080fd5b505161059c5760405162461bcd60e51b815260040180806020018281038252602a81526020018061346c602a913960400191505060405180910390fd5b815460009082106126fd5760405162461bcd60e51b81526004018080602001828103825260228152602001806134036022913960400191505060405180910390fd5b82600001828154811061270c57fe5b9060005260206000200154905092915050565b6000806000600160009054906101000a90046001600160a01b03166001600160a01b0316633850c7bd6040518163ffffffff1660e01b815260040160e06040518083038186803b15801561277257600080fd5b505afa158015612786573d6000803e3d6000fd5b505050506040513d60e081101561279c57600080fd5b505190506127bc816127ad8861288f565b6127b68861288f565b87612f1e565b9097909650945050505050565b6000818152600183016020526040812054801561288557835460001980830191908101906000908790839081106127fc57fe5b906000526020600020015490508087600001848154811061281957fe5b60009182526020808320909101929092558281526001898101909252604090209084019055865487908061284957fe5b6001900381819060005260206000200160009055905586600101600087815260200190815260200160002060009055600194505050505061192a565b600091505061192a565b60008060008360020b126128a6578260020b6128ae565b8260020b6000035b9050620d89e8811115612908576040805162461bcd60e51b815260206004820152600160248201527f5400000000000000000000000000000000000000000000000000000000000000604482015290519081900360640190fd5b6000600182166129295770010000000000000000000000000000000061293b565b6ffffcb933bd6fad37aa2d162d1a5940015b70ffffffffffffffffffffffffffffffffff169050600282161561296f576ffff97272373d413259a46990580e213a0260801c5b600482161561298e576ffff2e50f5f656932ef12357cf3c7fdcc0260801c5b60088216156129ad576fffe5caca7e10e4e61c3624eaa0941cd00260801c5b60108216156129cc576fffcb9843d60f6159c9db58835c9266440260801c5b60208216156129eb576fff973b41fa98c081472e6896dfb254c00260801c5b6040821615612a0a576fff2ea16466c96a3843ec78b326b528610260801c5b6080821615612a29576ffe5dee046a99a2a811c461f1969c30530260801c5b610100821615612a49576ffcbe86c7900a88aedcffc83b479aa3a40260801c5b610200821615612a69576ff987a7253ac413176f2b074cf7815e540260801c5b610400821615612a89576ff3392b0822b70005940c7a398e4b70f30260801c5b610800821615612aa9576fe7159475a2c29b7443b29c7fa6e889d90260801c5b611000821615612ac9576fd097f3bdfd2022b8845ad8f792aa58250260801c5b612000821615612ae9576fa9f746462d870fdf8a65dc1f90e061e50260801c5b614000821615612b09576f70d869a156d2a1b890bb3df62baf32f70260801c5b618000821615612b29576f31be135f97d08fd981231505542fcfa60260801c5b62010000821615612b4a576f09aa508b5b7a84e1c677de54f3e99bc90260801c5b62020000821615612b6a576e5d6af8dedb81196699c329225ee6040260801c5b62040000821615612b89576d2216e584f5fa1ea926041bedfe980260801c5b62080000821615612ba6576b048a170391f7dc42444e8fa20260801c5b60008460020b1315612bc1578060001981612bbd57fe5b0490505b640100000000810615612bd5576001612bd8565b60005b60ff16602082901c0192505050919050565b6000836001600160a01b0316856001600160a01b03161115612c0a579293925b846001600160a01b0316866001600160a01b031611612c3557612c2e858585612fba565b9050612ca5565b836001600160a01b0316866001600160a01b03161015612c97576000612c5c878686612fba565b90506000612c6b878986613021565b9050806001600160801b0316826001600160801b031610612c8c5780612c8e565b815b92505050612ca5565b612ca2858584613021565b90505b95945050505050565b5490565b600081831015612cc257816119bc565b5090919050565b6000818310612cc257816119bc565b6000806000612ce787876119ce565b90506000612d15612d1060075461134c89866001600160801b03166122f590919063ffffffff16565b611a91565b90506001600160801b03811615612eb2576001546040805163a34123a760e01b815260028b810b60048301528a900b60248201526001600160801b038416604482015281516001600160a01b039093169263a34123a7926064808401939192918290030181600087803b158015612d8b57600080fd5b505af1158015612d9f573d6000803e3d6000fd5b505050506040513d6040811015612db557600080fd5b508051602090910151909450925083151580612dd15750600083115b15612eb2576001546001600160a01b0316634f1eb3d8868a8a612df389611a91565b612dfc89611a91565b6040518663ffffffff1660e01b815260040180866001600160a01b031681526020018560020b81526020018460020b8152602001836001600160801b03168152602001826001600160801b03168152602001955050505050506040805180830381600087803b158015612e6e57600080fd5b505af1158015612e82573d6000803e3d6000fd5b505050506040513d6040811015612e9857600080fd5b5080516020909101516001600160801b0391821695501692505b505094509492505050565b6000612ec98383613067565b612eff5750815460018181018455600084815260208082209093018490558454848252828601909352604090209190915561192a565b50600061192a565b6060612f16848460008561307f565b949350505050565b600080836001600160a01b0316856001600160a01b03161115612f3f579293925b846001600160a01b0316866001600160a01b031611612f6a57612f638585856131f8565b9150612fb1565b836001600160a01b0316866001600160a01b03161015612fa357612f8f8685856131f8565b9150612f9c858785613261565b9050612fb1565b612fae858585613261565b90505b94509492505050565b6000826001600160a01b0316846001600160a01b03161115612fda579192915b6000613006856001600160a01b0316856001600160a01b03166c010000000000000000000000006132a9565b9050612ca5612d1084838888036001600160a01b03166132a9565b6000826001600160a01b0316846001600160a01b03161115613041579192915b612f16612d10836c010000000000000000000000008787036001600160a01b03166132a9565b60009081526001919091016020526040902054151590565b6060824710156130c05760405162461bcd60e51b81526004018080602001828103825260268152602001806134256026913960400191505060405180910390fd5b6130c985613358565b61311a576040805162461bcd60e51b815260206004820152601d60248201527f416464726573733a2063616c6c20746f206e6f6e2d636f6e7472616374000000604482015290519081900360640190fd5b600080866001600160a01b031685876040518082805190602001908083835b6020831061317657805182527fffffffffffffffffffffffffffffffffffffffffffffffffffffffffffffffe09092019160209182019101613139565b6001836020036101000a03801982511681845116808217855250505050505090500191505060006040518083038185875af1925050503d80600081146131d8576040519150601f19603f3d011682016040523d82523d6000602084013e6131dd565b606091505b50915091506131ed82828661335e565b979650505050505050565b6000826001600160a01b0316846001600160a01b03161115613218579192915b836001600160a01b0316613251606060ff16846001600160801b0316901b8686036001600160a01b0316866001600160a01b03166132a9565b8161325857fe5b04949350505050565b6000826001600160a01b0316846001600160a01b03161115613281579192915b612f16826001600160801b03168585036001600160a01b03166c010000000000000000000000005b60008080600019858709868602925082811090839003039050806132df57600084116132d457600080fd5b5082900490506119bc565b8084116132eb57600080fd5b6000848688096000868103871696879004966002600389028118808a02820302808a02820302808a02820302808a02820302808a02820302808a02909103029181900381900460010186841190950394909402919094039290920491909117919091029150509392505050565b3b151590565b6060831561336d5750816119bc565b82511561337d5782518084602001fd5b8160405162461bcd60e51b81526004018080602001828103825283818151815260200191508051906020019080838360005b838110156133c75781810151838201526020016133af565b50505050905090810190601f1680156133f45780820380516001836020036101000a031916815260200191505b509250505060405180910390fdfe456e756d657261626c655365743a20696e646578206f7574206f6620626f756e6473416464726573733a20696e73756666696369656e742062616c616e636520666f722063616c6c536166654d6174683a206d756c7469706c69636174696f6e206f766572666c6f775361666545524332303a204552433230206f7065726174696f6e20646964206e6f742073756363656564a164736f6c6343000706000aa164736f6c6343000706000a",
  "linkReferences": {},
  "deployedLinkReferences": {}
}