{
  "_format": "hh-sol-artifact-1",
  "contractName": "CHIManager",
  "sourceName": "contracts/CHIManager.sol",
  "abi": [
    {
      "anonymous": false,
      "inputs": [
        {
          "indexed": true,
          "internalType": "address",
          "name": "owner",
          "type": "address"
        },
        {
          "indexed": true,
          "internalType": "address",
          "name": "approved",
          "type": "address"
        },
        {
          "indexed": true,
          "internalType": "uint256",
          "name": "tokenId",
          "type": "uint256"
        }
      ],
      "name": "Approval",
      "type": "event"
    },
    {
      "anonymous": false,
      "inputs": [
        {
          "indexed": true,
          "internalType": "address",
          "name": "owner",
          "type": "address"
        },
        {
          "indexed": true,
          "internalType": "address",
          "name": "operator",
          "type": "address"
        },
        {
          "indexed": false,
          "internalType": "bool",
          "name": "approved",
          "type": "bool"
        }
      ],
      "name": "ApprovalForAll",
      "type": "event"
    },
    {
      "anonymous": false,
      "inputs": [
        {
          "indexed": false,
          "internalType": "uint256",
          "name": "tokenId",
          "type": "uint256"
        },
        {
          "indexed": false,
          "internalType": "address",
          "name": "pool",
          "type": "address"
        },
        {
          "indexed": false,
          "internalType": "address",
          "name": "vault",
          "type": "address"
        },
        {
          "indexed": false,
          "internalType": "uint256",
          "name": "vaultFee",
          "type": "uint256"
        }
      ],
      "name": "Create",
      "type": "event"
    },
    {
      "anonymous": false,
      "inputs": [
        {
          "indexed": true,
          "internalType": "address",
          "name": "from",
          "type": "address"
        },
        {
          "indexed": true,
          "internalType": "address",
          "name": "to",
          "type": "address"
        },
        {
          "indexed": true,
          "internalType": "uint256",
          "name": "tokenId",
          "type": "uint256"
        }
      ],
      "name": "Transfer",
      "type": "event"
    },
    {
      "inputs": [
        {
          "internalType": "contract IERC20",
          "name": "token0",
          "type": "address"
        },
        {
          "internalType": "uint256",
          "name": "amount0",
          "type": "uint256"
        },
        {
          "internalType": "contract IERC20",
          "name": "token1",
          "type": "address"
        },
        {
          "internalType": "uint256",
          "name": "amount1",
          "type": "uint256"
        }
      ],
      "name": "CHIDepositCallback",
      "outputs": [],
      "stateMutability": "nonpayable",
      "type": "function"
    },
    {
      "inputs": [
        {
          "internalType": "uint256",
          "name": "tokenId",
          "type": "uint256"
        },
        {
          "components": [
            {
              "internalType": "int24",
              "name": "tickLower",
              "type": "int24"
            },
            {
              "internalType": "int24",
              "name": "tickUpper",
              "type": "int24"
            }
          ],
          "internalType": "struct ICHIManager.RangeParams[]",
          "name": "addRanges",
          "type": "tuple[]"
        },
        {
          "components": [
            {
              "internalType": "int24",
              "name": "tickLower",
              "type": "int24"
            },
            {
              "internalType": "int24",
              "name": "tickUpper",
              "type": "int24"
            }
          ],
          "internalType": "struct ICHIManager.RangeParams[]",
          "name": "removeRanges",
          "type": "tuple[]"
        }
      ],
      "name": "addAndRemoveRanges",
      "outputs": [],
      "stateMutability": "nonpayable",
      "type": "function"
    },
    {
      "inputs": [
        {
          "internalType": "uint256",
          "name": "tokenId",
          "type": "uint256"
        },
        {
          "internalType": "uint256",
          "name": "rangeIndex",
          "type": "uint256"
        },
        {
          "internalType": "uint256",
          "name": "amount0Desired",
          "type": "uint256"
        },
        {
          "internalType": "uint256",
          "name": "amount1Desired",
          "type": "uint256"
        }
      ],
      "name": "addLiquidityToPosition",
      "outputs": [],
      "stateMutability": "nonpayable",
      "type": "function"
    },
    {
      "inputs": [
        {
          "internalType": "uint256",
          "name": "tokenId",
          "type": "uint256"
        },
        {
          "internalType": "int24",
          "name": "tickLower",
          "type": "int24"
        },
        {
          "internalType": "int24",
          "name": "tickUpper",
          "type": "int24"
        }
      ],
      "name": "addRange",
      "outputs": [],
      "stateMutability": "nonpayable",
      "type": "function"
    },
    {
      "inputs": [
        {
          "internalType": "address",
          "name": "to",
          "type": "address"
        },
        {
          "internalType": "uint256",
          "name": "tokenId",
          "type": "uint256"
        }
      ],
      "name": "approve",
      "outputs": [],
      "stateMutability": "nonpayable",
      "type": "function"
    },
    {
      "inputs": [
        {
          "internalType": "uint256",
          "name": "tokenId",
          "type": "uint256"
        }
      ],
      "name": "archive",
      "outputs": [],
      "stateMutability": "nonpayable",
      "type": "function"
    },
    {
      "inputs": [
        {
          "internalType": "address",
          "name": "owner",
          "type": "address"
        }
      ],
      "name": "balanceOf",
      "outputs": [
        {
          "internalType": "uint256",
          "name": "",
          "type": "uint256"
        }
      ],
      "stateMutability": "view",
      "type": "function"
    },
    {
      "inputs": [],
      "name": "baseURI",
      "outputs": [
        {
          "internalType": "string",
          "name": "",
          "type": "string"
        }
      ],
      "stateMutability": "pure",
      "type": "function"
    },
    {
      "inputs": [
        {
          "internalType": "uint256",
          "name": "tokenId",
          "type": "uint256"
        }
      ],
      "name": "chi",
      "outputs": [
        {
          "internalType": "address",
          "name": "owner",
          "type": "address"
        },
        {
          "internalType": "address",
          "name": "operator",
          "type": "address"
        },
        {
          "internalType": "address",
          "name": "pool",
          "type": "address"
        },
        {
          "internalType": "address",
          "name": "vault",
          "type": "address"
        },
        {
          "internalType": "uint256",
          "name": "accruedProtocolFees0",
          "type": "uint256"
        },
        {
          "internalType": "uint256",
          "name": "accruedProtocolFees1",
          "type": "uint256"
        },
        {
          "internalType": "uint256",
          "name": "fee",
          "type": "uint256"
        },
        {
          "internalType": "uint256",
          "name": "totalShares",
          "type": "uint256"
        }
      ],
      "stateMutability": "view",
      "type": "function"
    },
    {
      "inputs": [
        {
          "internalType": "uint256",
          "name": "tokenId",
          "type": "uint256"
        },
        {
          "internalType": "uint256",
          "name": "amount0",
          "type": "uint256"
        },
        {
          "internalType": "uint256",
          "name": "amount1",
          "type": "uint256"
        },
        {
          "internalType": "address",
          "name": "to",
          "type": "address"
        }
      ],
      "name": "collectProtocol",
      "outputs": [],
      "stateMutability": "nonpayable",
      "type": "function"
    },
    {
      "inputs": [],
      "name": "deployer",
      "outputs": [
        {
          "internalType": "address",
          "name": "",
          "type": "address"
        }
      ],
      "stateMutability": "view",
      "type": "function"
    },
    {
      "inputs": [
        {
          "internalType": "uint256",
          "name": "tokenId",
          "type": "uint256"
        }
      ],
      "name": "getApproved",
      "outputs": [
        {
          "internalType": "address",
          "name": "",
          "type": "address"
        }
      ],
      "stateMutability": "view",
      "type": "function"
    },
    {
      "inputs": [
        {
          "internalType": "uint176",
          "name": "_initId",
          "type": "uint176"
        },
        {
          "internalType": "address",
          "name": "_v3Factory",
          "type": "address"
        },
        {
          "internalType": "address",
          "name": "_yangNFT",
          "type": "address"
        },
        {
          "internalType": "address",
          "name": "_deployer",
          "type": "address"
        },
        {
          "internalType": "bytes32",
          "name": "_merkleRoot",
          "type": "bytes32"
        }
      ],
      "name": "initialize",
      "outputs": [],
      "stateMutability": "nonpayable",
      "type": "function"
    },
    {
      "inputs": [
        {
          "internalType": "address",
          "name": "owner",
          "type": "address"
        },
        {
          "internalType": "address",
          "name": "operator",
          "type": "address"
        }
      ],
      "name": "isApprovedForAll",
      "outputs": [
        {
          "internalType": "bool",
          "name": "",
          "type": "bool"
        }
      ],
      "stateMutability": "view",
      "type": "function"
    },
    {
      "inputs": [],
      "name": "manager",
      "outputs": [
        {
          "internalType": "address",
          "name": "",
          "type": "address"
        }
      ],
      "stateMutability": "view",
      "type": "function"
    },
    {
      "inputs": [],
      "name": "merkleRoot",
      "outputs": [
        {
          "internalType": "bytes32",
          "name": "",
          "type": "bytes32"
        }
      ],
      "stateMutability": "view",
      "type": "function"
    },
    {
      "inputs": [
        {
          "components": [
            {
              "internalType": "address",
              "name": "recipient",
              "type": "address"
            },
            {
              "internalType": "address",
              "name": "token0",
              "type": "address"
            },
            {
              "internalType": "address",
              "name": "token1",
              "type": "address"
            },
            {
              "internalType": "uint24",
              "name": "fee",
              "type": "uint24"
            },
            {
              "internalType": "uint256",
              "name": "vaultFee",
              "type": "uint256"
            }
          ],
          "internalType": "struct ICHIManager.MintParams",
          "name": "params",
          "type": "tuple"
        },
        {
          "internalType": "bytes32[]",
          "name": "merkleProof",
          "type": "bytes32[]"
        }
      ],
      "name": "mint",
      "outputs": [
        {
          "internalType": "uint256",
          "name": "tokenId",
          "type": "uint256"
        },
        {
          "internalType": "address",
          "name": "vault",
          "type": "address"
        }
      ],
      "stateMutability": "nonpayable",
      "type": "function"
    },
    {
      "inputs": [],
      "name": "name",
      "outputs": [
        {
          "internalType": "string",
          "name": "",
          "type": "string"
        }
      ],
      "stateMutability": "view",
      "type": "function"
    },
    {
      "inputs": [
        {
          "internalType": "uint256",
          "name": "tokenId",
          "type": "uint256"
        }
      ],
      "name": "ownerOf",
      "outputs": [
        {
          "internalType": "address",
          "name": "",
          "type": "address"
        }
      ],
      "stateMutability": "view",
      "type": "function"
    },
    {
      "inputs": [
        {
          "internalType": "uint256",
          "name": "tokenId",
          "type": "uint256"
        }
      ],
      "name": "pause",
      "outputs": [],
      "stateMutability": "nonpayable",
      "type": "function"
    },
    {
      "inputs": [
        {
          "internalType": "bytes32",
          "name": "",
          "type": "bytes32"
        }
      ],
      "name": "positions",
      "outputs": [
        {
          "internalType": "uint256",
          "name": "shares",
          "type": "uint256"
        }
      ],
      "stateMutability": "view",
      "type": "function"
    },
    {
      "inputs": [
        {
          "internalType": "uint256",
          "name": "tokenId",
          "type": "uint256"
        },
        {
          "internalType": "uint256",
          "name": "rangeIndex",
          "type": "uint256"
        }
      ],
      "name": "removeAllLiquidityFromPosition",
      "outputs": [],
      "stateMutability": "nonpayable",
      "type": "function"
    },
    {
      "inputs": [
        {
          "internalType": "uint256",
          "name": "tokenId",
          "type": "uint256"
        },
        {
          "internalType": "uint256",
          "name": "rangeIndex",
          "type": "uint256"
        },
        {
          "internalType": "uint128",
          "name": "liquidity",
          "type": "uint128"
        }
      ],
      "name": "removeLiquidityFromPosition",
      "outputs": [],
      "stateMutability": "nonpayable",
      "type": "function"
    },
    {
      "inputs": [
        {
          "internalType": "uint256",
          "name": "tokenId",
          "type": "uint256"
        },
        {
          "internalType": "int24",
          "name": "tickLower",
          "type": "int24"
        },
        {
          "internalType": "int24",
          "name": "tickUpper",
          "type": "int24"
        }
      ],
      "name": "removeRange",
      "outputs": [],
      "stateMutability": "nonpayable",
      "type": "function"
    },
    {
      "inputs": [
        {
          "internalType": "address",
          "name": "from",
          "type": "address"
        },
        {
          "internalType": "address",
          "name": "to",
          "type": "address"
        },
        {
          "internalType": "uint256",
          "name": "tokenId",
          "type": "uint256"
        }
      ],
      "name": "safeTransferFrom",
      "outputs": [],
      "stateMutability": "nonpayable",
      "type": "function"
    },
    {
      "inputs": [
        {
          "internalType": "address",
          "name": "from",
          "type": "address"
        },
        {
          "internalType": "address",
          "name": "to",
          "type": "address"
        },
        {
          "internalType": "uint256",
          "name": "tokenId",
          "type": "uint256"
        },
        {
          "internalType": "bytes",
          "name": "_data",
          "type": "bytes"
        }
      ],
      "name": "safeTransferFrom",
      "outputs": [],
      "stateMutability": "nonpayable",
      "type": "function"
    },
    {
      "inputs": [
        {
          "internalType": "address",
          "name": "operator",
          "type": "address"
        },
        {
          "internalType": "bool",
          "name": "approved",
          "type": "bool"
        }
      ],
      "name": "setApprovalForAll",
      "outputs": [],
      "stateMutability": "nonpayable",
      "type": "function"
    },
    {
      "inputs": [
        {
          "internalType": "uint256",
          "name": "tokenId",
          "type": "uint256"
        }
      ],
      "name": "stateOfCHI",
      "outputs": [
        {
          "internalType": "bool",
          "name": "isPaused",
          "type": "bool"
        },
        {
          "internalType": "bool",
          "name": "isArchived",
          "type": "bool"
        }
      ],
      "stateMutability": "view",
      "type": "function"
    },
    {
      "inputs": [
        {
          "internalType": "uint256",
          "name": "yangId",
          "type": "uint256"
        },
        {
          "internalType": "uint256",
          "name": "tokenId",
          "type": "uint256"
        },
        {
          "internalType": "uint256",
          "name": "amount0Desired",
          "type": "uint256"
        },
        {
          "internalType": "uint256",
          "name": "amount1Desired",
          "type": "uint256"
        },
        {
          "internalType": "uint256",
          "name": "amount0Min",
          "type": "uint256"
        },
        {
          "internalType": "uint256",
          "name": "amount1Min",
          "type": "uint256"
        }
      ],
      "name": "subscribe",
      "outputs": [
        {
          "internalType": "uint256",
          "name": "shares",
          "type": "uint256"
        },
        {
          "internalType": "uint256",
          "name": "amount0",
          "type": "uint256"
        },
        {
          "internalType": "uint256",
          "name": "amount1",
          "type": "uint256"
        }
      ],
      "stateMutability": "nonpayable",
      "type": "function"
    },
    {
      "inputs": [
        {
          "internalType": "bytes4",
          "name": "interfaceId",
          "type": "bytes4"
        }
      ],
      "name": "supportsInterface",
      "outputs": [
        {
          "internalType": "bool",
          "name": "",
          "type": "bool"
        }
      ],
      "stateMutability": "view",
      "type": "function"
    },
    {
      "inputs": [],
      "name": "symbol",
      "outputs": [
        {
          "internalType": "string",
          "name": "",
          "type": "string"
        }
      ],
      "stateMutability": "view",
      "type": "function"
    },
    {
      "inputs": [
        {
          "internalType": "uint256",
          "name": "index",
          "type": "uint256"
        }
      ],
      "name": "tokenByIndex",
      "outputs": [
        {
          "internalType": "uint256",
          "name": "",
          "type": "uint256"
        }
      ],
      "stateMutability": "view",
      "type": "function"
    },
    {
      "inputs": [
        {
          "internalType": "address",
          "name": "owner",
          "type": "address"
        },
        {
          "internalType": "uint256",
          "name": "index",
          "type": "uint256"
        }
      ],
      "name": "tokenOfOwnerByIndex",
      "outputs": [
        {
          "internalType": "uint256",
          "name": "",
          "type": "uint256"
        }
      ],
      "stateMutability": "view",
      "type": "function"
    },
    {
      "inputs": [
        {
          "internalType": "uint256",
          "name": "tokenId",
          "type": "uint256"
        }
      ],
      "name": "tokenURI",
      "outputs": [
        {
          "internalType": "string",
          "name": "",
          "type": "string"
        }
      ],
      "stateMutability": "view",
      "type": "function"
    },
    {
      "inputs": [],
      "name": "totalSupply",
      "outputs": [
        {
          "internalType": "uint256",
          "name": "",
          "type": "uint256"
        }
      ],
      "stateMutability": "view",
      "type": "function"
    },
    {
      "inputs": [
        {
          "internalType": "address",
          "name": "from",
          "type": "address"
        },
        {
          "internalType": "address",
          "name": "to",
          "type": "address"
        },
        {
          "internalType": "uint256",
          "name": "tokenId",
          "type": "uint256"
        }
      ],
      "name": "transferFrom",
      "outputs": [],
      "stateMutability": "nonpayable",
      "type": "function"
    },
    {
      "inputs": [
        {
          "internalType": "uint256",
          "name": "tokenId",
          "type": "uint256"
        }
      ],
      "name": "unpause",
      "outputs": [],
      "stateMutability": "nonpayable",
      "type": "function"
    },
    {
      "inputs": [
        {
          "internalType": "uint256",
          "name": "yangId",
          "type": "uint256"
        },
        {
          "internalType": "uint256",
          "name": "tokenId",
          "type": "uint256"
        },
        {
          "internalType": "uint256",
          "name": "shares",
          "type": "uint256"
        },
        {
          "internalType": "uint256",
          "name": "amount0Min",
          "type": "uint256"
        },
        {
          "internalType": "uint256",
          "name": "amount1Min",
          "type": "uint256"
        }
      ],
      "name": "unsubscribe",
      "outputs": [
        {
          "internalType": "uint256",
          "name": "amount0",
          "type": "uint256"
        },
        {
          "internalType": "uint256",
          "name": "amount1",
          "type": "uint256"
        }
      ],
      "stateMutability": "nonpayable",
      "type": "function"
    },
    {
      "inputs": [
        {
          "internalType": "bytes32",
          "name": "_merkleRoot",
          "type": "bytes32"
        }
      ],
      "name": "updateMerkleRoot",
      "outputs": [],
      "stateMutability": "nonpayable",
      "type": "function"
    },
    {
      "inputs": [],
      "name": "v3Factory",
      "outputs": [
        {
          "internalType": "address",
          "name": "",
          "type": "address"
        }
      ],
      "stateMutability": "view",
      "type": "function"
    },
    {
      "inputs": [],
      "name": "yangNFT",
      "outputs": [
        {
          "internalType": "address",
          "name": "",
          "type": "address"
        }
      ],
      "stateMutability": "view",
      "type": "function"
    }
  ],
  "bytecode": "0x608060405234801561001057600080fd5b50614009806100206000396000f3fe608060405234801561001057600080fd5b50600436106102d35760003560e01c80635d87b6e411610186578063b88d4fde116100e3578063df84f84d11610097578063ec28fcac11610071578063ec28fcac146105c4578063ed1bbd0b146105e6578063fabc1cbc146105f9576102d3565b8063df84f84d1461058b578063e2c3350e1461059e578063e985e9c5146105b1576102d3565b8063c2108d1b116100c8578063c2108d1b1461055d578063c87b56dd14610570578063d5f3948814610583576102d3565b8063b88d4fde14610523578063b9decd6614610536576102d3565b80637c887c591161013a57806393e4f7e61161011f57806393e4f7e6146104f557806395d89b4114610508578063a22cb46514610510576102d3565b80637c887c59146104da57806393c829fc146104e2576102d3565b80636c0360eb1161016b5780636c0360eb1461049e57806370a08231146104a657806372405f0b146104b9576102d3565b80635d87b6e4146104785780636352211e1461048b576102d3565b80632f745c5911610234578063481c6a75116101e85780634f6ccce7116101cd5780634f6ccce714610431578063514ea4bf1461044457806354cc59ba14610457576102d3565b8063481c6a75146104165780634b57512d1461041e576102d3565b806342842e0e1161021957806342842e0e146103cf57806346698e75146103e25780634783f0ef14610403576102d3565b80632f745c59146103b45780634259ab44146103c7576102d3565b8063136439dd1161028b57806323b872dd1161027057806323b872dd1461038657806325f368ae146103995780632eb4a7ab146103ac576102d3565b8063136439dd1461035e57806318160ddd14610371576102d3565b8063081812fc116102bc578063081812fc14610316578063095ea7b3146103365780630e082b741461034b576102d3565b806301ffc9a7146102d857806306fdde0314610301575b600080fd5b6102eb6102e6366004613539565b61060c565b6040516102f89190613a5d565b60405180910390f35b610309610647565b6040516102f89190613a97565b610329610324366004613521565b6106dd565b6040516102f891906139b3565b6103496103443660046134ac565b610729565b005b61034961035936600461380f565b6107ff565b61034961036c366004613521565b6108dc565b610379610982565b6040516102f89190613a7a565b61034961039436600461337b565b610993565b6103496103a7366004613888565b6109ea565b610379610aa9565b6103796103c23660046134ac565b610aaf565b610329610ada565b6103496103dd36600461337b565b610ae9565b6103f56103f03660046138f9565b610b04565b6040516102f89291906139a5565b610349610411366004613521565b610cdb565b610329610d0a565b61034961042c366004613790565b610d19565b61037961043f366004613521565b610dd5565b610379610452366004613521565b610deb565b61046a610465366004613521565b610dfd565b6040516102f8929190613a68565b6103496104863660046137cb565b610ed2565b610329610499366004613521565b610fac565b610309610fd4565b6103796104b436600461330b565b610fd9565b6104cc6104c73660046135da565b611041565b6040516102f8929190613cff565b610329611396565b6103496104f0366004613521565b6113a5565b610349610503366004613661565b61144e565b6103096115fb565b61034961051e36600461347f565b61165c565b6103496105313660046133bb565b611761565b610549610544366004613521565b6117bf565b6040516102f89897969594939291906139eb565b61034961056b3660046138c8565b611a30565b61030961057e366004613521565b611ab5565b610329611add565b610349610599366004613719565b611aec565b6103496105ac366004613790565b611ca9565b6102eb6105bf366004613343565b611d2c565b6105d76105d2366004613933565b611d5a565b6040516102f893929190613d7a565b6103496105f4366004613579565b611f1a565b610349610607366004613521565b61207a565b7fffffffff00000000000000000000000000000000000000000000000000000000811660009081526065602052604090205460ff165b919050565b609c8054604080516020601f60026000196101006001881615020190951694909404938401819004810282018101909252828152606093909290918301828280156106d35780601f106106a8576101008083540402835291602001916106d3565b820191906000526020600020905b8154815290600101906020018083116106b657829003601f168201915b5050505050905090565b60006106e88261210c565b61070d5760405162461bcd60e51b815260040161070490613ca2565b60405180910390fd5b50600090815260cb60205260409020546001600160a01b031690565b600061073482610fac565b9050806001600160a01b0316836001600160a01b031614156107875760405162461bcd60e51b8152600401808060200182810382526021815260200180613fab6021913960400191505060405180910390fd5b806001600160a01b0316610799612119565b6001600160a01b031614806107b557506107b5816105bf612119565b6107f05760405162461bcd60e51b8152600401808060200182810382526038815260200180613ea76038913960400191505060405180910390fd5b6107fa838361211d565b505050565b8261080a3382612198565b6108265760405162461bcd60e51b815260040161070490613bfd565b600084815260cb602052604090819020600281015491517fd4da618500000000000000000000000000000000000000000000000000000000815290916001600160a01b03169063d4da6185906108829087908790600401613d3b565b6040805180830381600087803b15801561089b57600080fd5b505af11580156108af573d6000803e3d6000fd5b505050506040513d601f19601f820116820180604052508101906108d391906137ec565b50505050505050565b806108e73382612198565b6109035760405162461bcd60e51b815260040161070490613bfd565b600082815260cb6020526040808220600281015482517f9e0879c2000000000000000000000000000000000000000000000000000000008152925191936001600160a01b0390911692639e0879c2926004808301939282900301818387803b15801561096e57600080fd5b505af11580156108d3573d6000803e3d6000fd5b600061098e609861223c565b905090565b6109a461099e612119565b82612198565b6109df5760405162461bcd60e51b8152600401808060200182810382526031815260200180613fcc6031913960400191505060405180910390fd5b6107fa838383612247565b836109f53382612198565b610a115760405162461bcd60e51b815260040161070490613bfd565b600085815260cb602052604090819020600281015491517f0430c13000000000000000000000000000000000000000000000000000000000815290916001600160a01b031690630430c13090610a6f90889088908890600401613d5b565b600060405180830381600087803b158015610a8957600080fd5b505af1158015610a9d573d6000803e3d6000fd5b50505050505050505050565b60d05481565b6001600160a01b0382166000908152609760205260408120610ad19083612393565b90505b92915050565b60ce546001600160a01b031681565b6107fa83838360405180602001604052806000815250611761565b60ce5460009081906001600160a01b03163314610b335760405162461bcd60e51b815260040161070490613c34565b60026001541415610b8b576040805162461bcd60e51b815260206004820152601f60248201527f5265656e7472616e637947756172643a207265656e7472616e742063616c6c00604482015290519081900360640190fd5b6002600155604051600090610ba690899089906020016139a5565b60408051601f198184030181529181528151602092830120600081815260ca9093529120805491925090871115610bef5760405162461bcd60e51b815260040161070490613bc6565b600088815260cb602052604090819020600281015460ce5492517fd473a65400000000000000000000000000000000000000000000000000000000815291926001600160a01b039182169263d473a65492610c57928f928e928e928e92911690600401613d90565b6040805180830381600087803b158015610c7057600080fd5b505af1158015610c84573d6000803e3d6000fd5b505050506040513d601f19601f82011682018060405250810190610ca891906137ec565b600085815260ca60205260409020549196509450610cc6908961239f565b90915550506001805590969095509350505050565b60cc546001600160a01b03163314610d055760405162461bcd60e51b815260040161070490613b21565b60d055565b60cc546001600160a01b031681565b82610d243382612198565b610d405760405162461bcd60e51b815260040161070490613bfd565b600084815260cb602052604090819020600281015491517f5a64998b00000000000000000000000000000000000000000000000000000000815290916001600160a01b031690635a64998b90610d9c9087908790600401613a83565b600060405180830381600087803b158015610db657600080fd5b505af1158015610dca573d6000803e3d6000fd5b505050505050505050565b600080610de36098846123fc565b509392505050565b60ca6020526000908152604090205481565b600081815260cb602052604081208190610e168461210c565b610e325760405162461bcd60e51b815260040161070490613c6b565b6002810154604080517fafa9863200000000000000000000000000000000000000000000000000000000815281516001600160a01b039093169263afa9863292600480840193919291829003018186803b158015610e8f57600080fd5b505afa158015610ea3573d6000803e3d6000fd5b505050506040513d601f19601f82011682018060405250810190610ec791906134f3565b909590945092505050565b81610edd3382612198565b610ef95760405162461bcd60e51b815260040161070490613bfd565b600083815260cb602052604090819020600281015491517f2106fa4600000000000000000000000000000000000000000000000000000000815290916001600160a01b031690632106fa4690610f53908690600401613a7a565b6040805180830381600087803b158015610f6c57600080fd5b505af1158015610f80573d6000803e3d6000fd5b505050506040513d601f19601f82011682018060405250810190610fa491906137ec565b505050505050565b6000610ad482604051806060016040528060298152602001613f09602991396098919061241a565b606090565b60006001600160a01b0382166110205760405162461bcd60e51b815260040180806020018281038252602a815260200180613edf602a913960400191505060405180910390fd5b6001600160a01b0382166000908152609760205260409020610ad49061223c565b60008083836000336040516020016110599190613975565b6040516020818303038152906040528051906020012090506110b28383808060200260200160405190810160405280939291908181526020018383602002808284376000920191909152505060d0549150849050612431565b6110ce5760405162461bcd60e51b815260040161070490613aea565b60cd546000906001600160a01b0316631698ee826110f260408c0160208d0161330b565b61110260608d0160408e0161330b565b61111260808e0160608f016136de565b6040518463ffffffff1660e01b815260040161113093929190613a35565b60206040518083038186803b15801561114857600080fd5b505afa15801561115c573d6000803e3d6000fd5b505050506040513d601f19601f820116820180604052508101906111809190613327565b90506001600160a01b0381166111a85760405162461bcd60e51b815260040161070490613b8f565b60cf546040517f58b4b7110000000000000000000000000000000000000000000000000000000081526001600160a01b03909116906358b4b711906111f9908490309060808f0135906004016139c7565b602060405180830381600087803b15801561121357600080fd5b505af1158015611227573d6000803e3d6000fd5b505050506040513d601f19601f8201168201806040525081019061124b9190613327565b94506112b261125d60208b018b61330b565b60c980547fffffffffffffffffffff000000000000000000000000000000000000000000008116600175ffffffffffffffffffffffffffffffffffffffffffff928316908101909216179091559750876124da565b6040805160608101909152806112cb60208c018c61330b565b6001600160a01b03908116825283811660208084019190915288821660409384015260008a815260cb82528390208451815490841673ffffffffffffffffffffffffffffffffffffffff1991821617825591850151600182018054918516918416919091179055938301516002909401805494909216931692909217909155517ff03c0794e29ab9041701d90faa819fd394c96b5d374215f11d7dd03839606d5e906113829088908490899060808f013590613d16565b60405180910390a150505050935093915050565b60cd546001600160a01b031681565b60cc546001600160a01b031633146113cf5760405162461bcd60e51b815260040161070490613b21565b600081815260cb6020526040808220600281015482517f0bda770f000000000000000000000000000000000000000000000000000000008152925191936001600160a01b0390911692630bda770f926004808301939282900301818387803b15801561143a57600080fd5b505af1158015610fa4573d6000803e3d6000fd5b600054610100900460ff16806114675750611467612608565b80611475575060005460ff16155b6114b05760405162461bcd60e51b815260040180806020018281038252602e815260200180613f32602e913960400191505060405180910390fd5b600054610100900460ff161580156114db576000805460ff1961ff0019909116610100171660011790555b60cc80543373ffffffffffffffffffffffffffffffffffffffff199182161790915560cd805482166001600160a01b038881169190911790915560ce8054831687831617905560cf805490921690851617905560d082905560c980547fffffffffffffffffffff000000000000000000000000000000000000000000001675ffffffffffffffffffffffffffffffffffffffffffff881617905560408051808201825260208082527f59494e20556e697377617020563320506f736974696f6e73204d616e61676572818301528251808401909352600383527f4348490000000000000000000000000000000000000000000000000000000000908301526115e291612619565b8015610fa4576000805461ff0019169055505050505050565b609d8054604080516020601f60026000196101006001881615020190951694909404938401819004810282018101909252828152606093909290918301828280156106d35780601f106106a8576101008083540402835291602001916106d3565b611664612119565b6001600160a01b0316826001600160a01b031614156116ca576040805162461bcd60e51b815260206004820152601960248201527f4552433732313a20617070726f766520746f2063616c6c657200000000000000604482015290519081900360640190fd5b80609b60006116d7612119565b6001600160a01b03908116825260208083019390935260409182016000908120918716808252919093529120805460ff19169215159290921790915561171b612119565b6001600160a01b03167f17307eab39ab6107e8899845ad3d59bd9653f200f220920489ca2b5937696c318360405180821515815260200191505060405180910390a35050565b61177261176c612119565b83612198565b6117ad5760405162461bcd60e51b8152600401808060200182810382526031815260200180613fcc6031913960400191505060405180910390fd5b6117b9848484846126d6565b50505050565b600081815260cb6020526040812081908190819081908190819081906117e48a61210c565b6118005760405162461bcd60e51b815260040161070490613c6b565b60028101546001600160a01b03166118178b610fac565b825460018401546002850154604080517feae989a200000000000000000000000000000000000000000000000000000000815290516001600160a01b0394851694938416939283169287169163eae989a2916004808301926020929190829003018186803b15801561188857600080fd5b505afa15801561189c573d6000803e3d6000fd5b505050506040513d601f19601f820116820180604052508101906118c09190613701565b856001600160a01b031663a00fa77f6040518163ffffffff1660e01b815260040160206040518083038186803b1580156118f957600080fd5b505afa15801561190d573d6000803e3d6000fd5b505050506040513d601f19601f820116820180604052508101906119319190613701565b866001600160a01b031663b0e21e8a6040518163ffffffff1660e01b815260040160206040518083038186803b15801561196a57600080fd5b505afa15801561197e573d6000803e3d6000fd5b505050506040513d601f19601f820116820180604052508101906119a29190613701565b876001600160a01b03166318160ddd6040518163ffffffff1660e01b815260040160206040518083038186803b1580156119db57600080fd5b505afa1580156119ef573d6000803e3d6000fd5b505050506040513d601f19601f82011682018060405250810190611a139190613701565b995099509950995099509950995099505050919395975091939597565b83611a3b3382612198565b611a575760405162461bcd60e51b815260040161070490613bfd565b600085815260cb602052604090819020600281015491517f9d9d75be00000000000000000000000000000000000000000000000000000000815290916001600160a01b031690639d9d75be90610a6f90889088908890600401613d7a565b6060611ac08261210c565b611ac957600080fd5b505060408051602081019091526000815290565b60cf546001600160a01b031681565b84611af73382612198565b611b135760405162461bcd60e51b815260040161070490613bfd565b600086815260cb60205260408120905b85811015611bdf5760028201546001600160a01b031663db4dcce4888884818110611b4a57fe5b611b6092602060409092020190810191506135c0565b898985818110611b6c57fe5b9050604002016020016020810190611b8491906135c0565b6040518363ffffffff1660e01b8152600401611ba1929190613a83565b600060405180830381600087803b158015611bbb57600080fd5b505af1158015611bcf573d6000803e3d6000fd5b505060019092019150611b239050565b5060005b83811015611c9f5760028201546001600160a01b0316635a64998b868684818110611c0a57fe5b611c2092602060409092020190810191506135c0565b878785818110611c2c57fe5b9050604002016020016020810190611c4491906135c0565b6040518363ffffffff1660e01b8152600401611c61929190613a83565b600060405180830381600087803b158015611c7b57600080fd5b505af1158015611c8f573d6000803e3d6000fd5b505060019092019150611be39050565b5050505050505050565b82611cb43382612198565b611cd05760405162461bcd60e51b815260040161070490613bfd565b600084815260cb602052604090819020600281015491517fdb4dcce400000000000000000000000000000000000000000000000000000000815290916001600160a01b03169063db4dcce490610d9c9087908790600401613a83565b6001600160a01b039182166000908152609b6020908152604080832093909416825291909152205460ff1690565b60ce54600090819081906001600160a01b03163314611d8b5760405162461bcd60e51b815260040161070490613c34565b60d1889055600154889060021415611dea576040805162461bcd60e51b815260206004820152601f60248201527f5265656e7472616e637947756172643a207265656e7472616e742063616c6c00604482015290519081900360640190fd5b6002600181905560008a815260cb6020526040908190209182015490517fbf02b5ea0000000000000000000000000000000000000000000000000000000081526001600160a01b039091169063bf02b5ea90611e52908e908d908d908d908d90600401613dbc565b606060405180830381600087803b158015611e6c57600080fd5b505af1158015611e80573d6000803e3d6000fd5b505050506040513d601f19601f82011682018060405250810190611ea4919061385b565b6040519297509095509350600090611ec2908d908d906020016139a5565b60408051601f198184030181529181528151602092830120600081815260ca909352912054909150611ef49087612728565b600091825260ca60205260408220556001805560d1555092999198509650945050505050565b611f2333612782565b8215611fcc5760ce546040517f23b872dd0000000000000000000000000000000000000000000000000000000081526001600160a01b03868116926323b872dd92611f789290911690339088906004016139c7565b602060405180830381600087803b158015611f9257600080fd5b505af1158015611fa6573d6000803e3d6000fd5b505050506040513d601f19601f82011682018060405250810190611fca91906134d7565b505b80156117b95760ce546040517f23b872dd0000000000000000000000000000000000000000000000000000000081526001600160a01b03848116926323b872dd926120219290911690339086906004016139c7565b602060405180830381600087803b15801561203b57600080fd5b505af115801561204f573d6000803e3d6000fd5b505050506040513d601f19601f8201168201806040525081019061207391906134d7565b5050505050565b806120853382612198565b6120a15760405162461bcd60e51b815260040161070490613bfd565b600082815260cb6020526040808220600281015482517f0b7562be000000000000000000000000000000000000000000000000000000008152925191936001600160a01b0390911692630b7562be926004808301939282900301818387803b15801561096e57600080fd5b6000610ad46098836127c6565b3390565b600081815260cb60205260409020805473ffffffffffffffffffffffffffffffffffffffff19166001600160a01b038416908117909155819061215f82610fac565b6001600160a01b03167f8c5be1e5ebec7d5bd14f71427d1e84f3dd0314c0f7b2291e5b200ac8c7c3b92560405160405180910390a45050565b60006121a38261210c565b6121de5760405162461bcd60e51b815260040180806020018281038252602c815260200180613e7b602c913960400191505060405180910390fd5b60006121e983610fac565b9050806001600160a01b0316846001600160a01b031614806122245750836001600160a01b0316612219846106dd565b6001600160a01b0316145b8061223457506122348185611d2c565b949350505050565b6000610ad4826127d2565b826001600160a01b031661225a82610fac565b6001600160a01b03161461229f5760405162461bcd60e51b8152600401808060200182810382526029815260200180613f826029913960400191505060405180910390fd5b6001600160a01b0382166122e45760405162461bcd60e51b8152600401808060200182810382526024815260200180613e576024913960400191505060405180910390fd5b6122ef8383836107fa565b6122fa60008261211d565b6001600160a01b038316600090815260976020526040902061231c90826127d6565b506001600160a01b038216600090815260976020526040902061233f90826127e2565b5061234c609882846127ee565b5080826001600160a01b0316846001600160a01b03167fddf252ad1be2c89b69c2b068fc378daa952ba7f163c4a11628f55a4df523b3ef60405160405180910390a4505050565b6000610ad18383612804565b6000828211156123f6576040805162461bcd60e51b815260206004820152601e60248201527f536166654d6174683a207375627472616374696f6e206f766572666c6f770000604482015290519081900360640190fd5b50900390565b600080808061240b8686612868565b909450925050505b9250929050565b60006124278484846128e3565b90505b9392505050565b600081815b85518110156124cf57600086828151811061244d57fe5b6020026020010151905080831161249457828160405160200180838152602001828152602001925050506040516020818303038152906040528051906020012092506124c6565b808360405160200180838152602001828152602001925050506040516020818303038152906040528051906020012092505b50600101612436565b509092149392505050565b6001600160a01b038216612535576040805162461bcd60e51b815260206004820181905260248201527f4552433732313a206d696e7420746f20746865207a65726f2061646472657373604482015290519081900360640190fd5b61253e8161210c565b15612590576040805162461bcd60e51b815260206004820152601c60248201527f4552433732313a20746f6b656e20616c7265616479206d696e74656400000000604482015290519081900360640190fd5b61259c600083836107fa565b6001600160a01b03821660009081526097602052604090206125be90826127e2565b506125cb609882846127ee565b5060405181906001600160a01b038416906000907fddf252ad1be2c89b69c2b068fc378daa952ba7f163c4a11628f55a4df523b3ef908290a45050565b6000612613306129ad565b15905090565b600054610100900460ff16806126325750612632612608565b80612640575060005460ff16155b61267b5760405162461bcd60e51b815260040180806020018281038252602e815260200180613f32602e913960400191505060405180910390fd5b600054610100900460ff161580156126a6576000805460ff1961ff0019909116610100171660011790555b6126ae6129b3565b6126b6612a55565b6126c08383612b0b565b80156107fa576000805461ff0019169055505050565b6126e1848484612247565b6126ed84848484612c3b565b6117b95760405162461bcd60e51b8152600401808060200182810382526032815260200180613e256032913960400191505060405180910390fd5b600082820183811015610ad1576040805162461bcd60e51b815260206004820152601b60248201527f536166654d6174683a206164646974696f6e206f766572666c6f770000000000604482015290519081900360640190fd5b60d154600090815260cb6020526040902060028101546001600160a01b038381169116146127c25760405162461bcd60e51b815260040161070490613b58565b5050565b6000610ad18383612e17565b5490565b6000610ad18383612e2f565b6000610ad18383612ef5565b600061242784846001600160a01b038516612f3f565b815460009082106128465760405162461bcd60e51b8152600401808060200182810382526022815260200180613e036022913960400191505060405180910390fd5b82600001828154811061285557fe5b9060005260206000200154905092915050565b8154600090819083106128ac5760405162461bcd60e51b8152600401808060200182810382526022815260200180613f606022913960400191505060405180910390fd5b60008460000184815481106128bd57fe5b906000526020600020906002020190508060000154816001015492509250509250929050565b6000828152600184016020526040812054828161297e5760405162461bcd60e51b81526004018080602001828103825283818151815260200191508051906020019080838360005b8381101561294357818101518382015260200161292b565b50505050905090810190601f1680156129705780820380516001836020036101000a031916815260200191505b509250505060405180910390fd5b5084600001600182038154811061299157fe5b9060005260206000209060020201600101549150509392505050565b3b151590565b600054610100900460ff16806129cc57506129cc612608565b806129da575060005460ff16155b612a155760405162461bcd60e51b815260040180806020018281038252602e815260200180613f32602e913960400191505060405180910390fd5b600054610100900460ff16158015612a40576000805460ff1961ff0019909116610100171660011790555b8015612a52576000805461ff00191690555b50565b600054610100900460ff1680612a6e5750612a6e612608565b80612a7c575060005460ff16155b612ab75760405162461bcd60e51b815260040180806020018281038252602e815260200180613f32602e913960400191505060405180910390fd5b600054610100900460ff16158015612ae2576000805460ff1961ff0019909116610100171660011790555b612a407f01ffc9a700000000000000000000000000000000000000000000000000000000612fd6565b600054610100900460ff1680612b245750612b24612608565b80612b32575060005460ff16155b612b6d5760405162461bcd60e51b815260040180806020018281038252602e815260200180613f32602e913960400191505060405180910390fd5b600054610100900460ff16158015612b98576000805460ff1961ff0019909116610100171660011790555b8251612bab90609c906020860190613215565b508151612bbf90609d906020850190613215565b50612be97f80ac58cd00000000000000000000000000000000000000000000000000000000612fd6565b612c127f5b5e139f00000000000000000000000000000000000000000000000000000000612fd6565b6126c07f780e9d6300000000000000000000000000000000000000000000000000000000612fd6565b6000612c4f846001600160a01b03166129ad565b612c5b57506001612234565b6000612dac7f150b7a0200000000000000000000000000000000000000000000000000000000612c89612119565b88878760405160240180856001600160a01b03168152602001846001600160a01b0316815260200183815260200180602001828103825283818151815260200191508051906020019080838360005b83811015612cf0578181015183820152602001612cd8565b50505050905090810190601f168015612d1d5780820380516001836020036101000a031916815260200191505b5095505050505050604051602081830303815290604052907bffffffffffffffffffffffffffffffffffffffffffffffffffffffff19166020820180517bffffffffffffffffffffffffffffffffffffffffffffffffffffffff8381831617835250505050604051806060016040528060328152602001613e25603291396001600160a01b038816919061308a565b90506000818060200190516020811015612dc557600080fd5b50517fffffffff00000000000000000000000000000000000000000000000000000000167f150b7a02000000000000000000000000000000000000000000000000000000001492505050949350505050565b60009081526001919091016020526040902054151590565b60008181526001830160205260408120548015612eeb5783546000198083019190810190600090879083908110612e6257fe5b9060005260206000200154905080876000018481548110612e7f57fe5b600091825260208083209091019290925582815260018981019092526040902090840190558654879080612eaf57fe5b60019003818190600052602060002001600090559055866001016000878152602001908152602001600020600090556001945050505050610ad4565b6000915050610ad4565b6000612f018383612e17565b612f3757508154600181810184556000848152602080822090930184905584548482528286019093526040902091909155610ad4565b506000610ad4565b600082815260018401602052604081205480612fa457505060408051808201825283815260208082018481528654600181810189556000898152848120955160029093029095019182559151908201558654868452818801909252929091205561242a565b82856000016001830381548110612fb757fe5b906000526020600020906002020160010181905550600091505061242a565b7fffffffff00000000000000000000000000000000000000000000000000000000808216141561304d576040805162461bcd60e51b815260206004820152601c60248201527f4552433136353a20696e76616c696420696e7465726661636520696400000000604482015290519081900360640190fd5b7fffffffff00000000000000000000000000000000000000000000000000000000166000908152606560205260409020805460ff19166001179055565b606061242784846000858561309e856129ad565b6130ef576040805162461bcd60e51b815260206004820152601d60248201527f416464726573733a2063616c6c20746f206e6f6e2d636f6e7472616374000000604482015290519081900360640190fd5b600080866001600160a01b031685876040518082805190602001908083835b6020831061312d5780518252601f19909201916020918201910161310e565b6001836020036101000a03801982511681845116808217855250505050505090500191505060006040518083038185875af1925050503d806000811461318f576040519150601f19603f3d011682016040523d82523d6000602084013e613194565b606091505b50915091506131a48282866131af565b979650505050505050565b606083156131be57508161242a565b8251156131ce5782518084602001fd5b60405162461bcd60e51b815260206004820181815284516024840152845185939192839260440191908501908083836000831561294357818101518382015260200161292b565b828054600181600116156101000203166002900490600052602060002090601f01602090048101928261324b5760008555613291565b82601f1061326457805160ff1916838001178555613291565b82800160010185558215613291579182015b82811115613291578251825591602001919060010190613276565b5061329d9291506132a1565b5090565b5b8082111561329d57600081556001016132a2565b60008083601f8401126132c7578182fd5b50813567ffffffffffffffff8111156132de578182fd5b60208301915083602060408302850101111561241357600080fd5b8035600281900b811461064257600080fd5b60006020828403121561331c578081fd5b8135610ad181613ddf565b600060208284031215613338578081fd5b8151610ad181613ddf565b60008060408385031215613355578081fd5b823561336081613ddf565b9150602083013561337081613ddf565b809150509250929050565b60008060006060848603121561338f578081fd5b833561339a81613ddf565b925060208401356133aa81613ddf565b929592945050506040919091013590565b600080600080608085870312156133d0578081fd5b84356133db81613ddf565b93506020858101356133ec81613ddf565b935060408601359250606086013567ffffffffffffffff8082111561340f578384fd5b818801915088601f830112613422578384fd5b81358181111561342e57fe5b60405184601f19601f840116820101818110848211171561344b57fe5b60405281815283820185018b1015613461578586fd5b81858501868301379081019093019390935250939692955090935050565b60008060408385031215613491578182fd5b823561349c81613ddf565b9150602083013561337081613df4565b600080604083850312156134be578182fd5b82356134c981613ddf565b946020939093013593505050565b6000602082840312156134e8578081fd5b8151610ad181613df4565b60008060408385031215613505578182fd5b825161351081613df4565b602084015190925061337081613df4565b600060208284031215613532578081fd5b5035919050565b60006020828403121561354a578081fd5b81357fffffffff0000000000000000000000000000000000000000000000000000000081168114610ad1578182fd5b6000806000806080858703121561358e578182fd5b843561359981613ddf565b93506020850135925060408501356135b081613ddf565b9396929550929360600135925050565b6000602082840312156135d1578081fd5b610ad1826132f9565b600080600083850360c08112156135ef578182fd5b60a08112156135fc578182fd5b5083925060a084013567ffffffffffffffff8082111561361a578283fd5b818601915086601f83011261362d578283fd5b81358181111561363b578384fd5b876020808302850101111561364e578384fd5b6020830194508093505050509250925092565b600080600080600060a08688031215613678578283fd5b853575ffffffffffffffffffffffffffffffffffffffffffff8116811461369d578384fd5b945060208601356136ad81613ddf565b935060408601356136bd81613ddf565b925060608601356136cd81613ddf565b949793965091946080013592915050565b6000602082840312156136ef578081fd5b813562ffffff81168114610ad1578182fd5b600060208284031215613712578081fd5b5051919050565b600080600080600060608688031215613730578283fd5b85359450602086013567ffffffffffffffff8082111561374e578485fd5b61375a89838a016132b6565b90965094506040880135915080821115613772578283fd5b5061377f888289016132b6565b969995985093965092949392505050565b6000806000606084860312156137a4578081fd5b833592506137b4602085016132f9565b91506137c2604085016132f9565b90509250925092565b600080604083850312156137dd578182fd5b50508035926020909101359150565b600080604083850312156137fe578182fd5b505080516020909101519092909150565b600080600060608486031215613823578081fd5b833592506020840135915060408401356fffffffffffffffffffffffffffffffff81168114613850578182fd5b809150509250925092565b60008060006060848603121561386f578081fd5b8351925060208401519150604084015190509250925092565b6000806000806080858703121561389d578182fd5b84359350602085013592506040850135915060608501356138bd81613ddf565b939692955090935050565b600080600080608085870312156138dd578182fd5b5050823594602084013594506040840135936060013592509050565b600080600080600060a08688031215613910578283fd5b505083359560208501359550604085013594606081013594506080013592509050565b60008060008060008060c0878903121561394b578384fd5b505084359660208601359650604086013595606081013595506080810135945060a0013592509050565b60609190911b7fffffffffffffffffffffffffffffffffffffffff00000000000000000000000016815260140190565b918252602082015260400190565b6001600160a01b0391909116815260200190565b6001600160a01b039384168152919092166020820152604081019190915260600190565b6001600160a01b03988916815296881660208801529487166040870152929095166060850152608084015260a083019390935260c082019290925260e08101919091526101000190565b6001600160a01b03938416815291909216602082015262ffffff909116604082015260600190565b901515815260200190565b91151582521515602082015260400190565b90815260200190565b600292830b8152910b602082015260400190565b6000602080835283518082850152825b81811015613ac357858101830151858201604001528201613aa7565b81811115613ad45783604083870101525b50601f01601f1916929092016040019392505050565b60208082526009908201527f6f6e6c7920676f76730000000000000000000000000000000000000000000000604082015260600190565b60208082526007908201527f6d616e6167657200000000000000000000000000000000000000000000000000604082015260600190565b6020808252600d908201527f63616c6c6261636b206661696c00000000000000000000000000000000000000604082015260600190565b60208082526011908201527f4e6f6e2d6578697374656e7420706f6f6c000000000000000000000000000000604082015260600190565b60208082526001908201527f7300000000000000000000000000000000000000000000000000000000000000604082015260600190565b6020808252600c908201527f4e6f7420617070726f7665640000000000000000000000000000000000000000604082015260600190565b60208082526001908201527f7900000000000000000000000000000000000000000000000000000000000000604082015260600190565b60208082526010908201527f496e76616c696420746f6b656e20494400000000000000000000000000000000604082015260600190565b60208082526037908201527f4552433732315570677261646561626c653a20617070726f766564207175657260408201527f7920666f72206e6f6e6578697374656e7420746f6b656e000000000000000000606082015260800190565b9182526001600160a01b0316602082015260400190565b9384526001600160a01b03928316602085015291166040830152606082015260800190565b9182526fffffffffffffffffffffffffffffffff16602082015260400190565b92835260208301919091526001600160a01b0316604082015260600190565b9283526020830191909152604082015260600190565b9485526020850193909352604084019190915260608301526001600160a01b0316608082015260a00190565b948552602085019390935260408401919091526060830152608082015260a00190565b6001600160a01b0381168114612a5257600080fd5b8015158114612a5257600080fdfe456e756d657261626c655365743a20696e646578206f7574206f6620626f756e64734552433732313a207472616e7366657220746f206e6f6e20455243373231526563656976657220696d706c656d656e7465724552433732313a207472616e7366657220746f20746865207a65726f20616464726573734552433732313a206f70657261746f7220717565727920666f72206e6f6e6578697374656e7420746f6b656e4552433732313a20617070726f76652063616c6c6572206973206e6f74206f776e6572206e6f7220617070726f76656420666f7220616c6c4552433732313a2062616c616e636520717565727920666f7220746865207a65726f20616464726573734552433732313a206f776e657220717565727920666f72206e6f6e6578697374656e7420746f6b656e496e697469616c697a61626c653a20636f6e747261637420697320616c726561647920696e697469616c697a6564456e756d657261626c654d61703a20696e646578206f7574206f6620626f756e64734552433732313a207472616e73666572206f6620746f6b656e2074686174206973206e6f74206f776e4552433732313a20617070726f76616c20746f2063757272656e74206f776e65724552433732313a207472616e736665722063616c6c6572206973206e6f74206f776e6572206e6f7220617070726f766564a164736f6c6343000706000a",
  "linkReferences": {},
  "deployedLinkReferences": {}
}