{
  "_format": "hh-sol-artifact-1",
  "contractName": "CHIManager",
  "sourceName": "contracts/CHIManager.sol",
  "abi": [
    {
      "anonymous": false,
      "inputs": [
        {
          "indexed": true,
          "internalType": "address",
          "name": "owner",
          "type": "address"
        },
        {
          "indexed": true,
          "internalType": "address",
          "name": "approved",
          "type": "address"
        },
        {
          "indexed": true,
          "internalType": "uint256",
          "name": "tokenId",
          "type": "uint256"
        }
      ],
      "name": "Approval",
      "type": "event"
    },
    {
      "anonymous": false,
      "inputs": [
        {
          "indexed": true,
          "internalType": "address",
          "name": "owner",
          "type": "address"
        },
        {
          "indexed": true,
          "internalType": "address",
          "name": "operator",
          "type": "address"
        },
        {
          "indexed": false,
          "internalType": "bool",
          "name": "approved",
          "type": "bool"
        }
      ],
      "name": "ApprovalForAll",
      "type": "event"
    },
    {
      "anonymous": false,
      "inputs": [
        {
          "indexed": false,
          "internalType": "uint256",
          "name": "tokenId",
          "type": "uint256"
        },
        {
          "indexed": false,
          "internalType": "address",
          "name": "pool",
          "type": "address"
        },
        {
          "indexed": false,
          "internalType": "address",
          "name": "vault",
          "type": "address"
        },
        {
          "indexed": false,
          "internalType": "uint256",
          "name": "vaultFee",
          "type": "uint256"
        }
      ],
      "name": "Create",
      "type": "event"
    },
    {
      "anonymous": false,
      "inputs": [
        {
          "indexed": true,
          "internalType": "address",
          "name": "from",
          "type": "address"
        },
        {
          "indexed": true,
          "internalType": "address",
          "name": "to",
          "type": "address"
        },
        {
          "indexed": true,
          "internalType": "uint256",
          "name": "tokenId",
          "type": "uint256"
        }
      ],
      "name": "Transfer",
      "type": "event"
    },
    {
      "inputs": [
        {
          "internalType": "contract IERC20",
          "name": "token0",
          "type": "address"
        },
        {
          "internalType": "uint256",
          "name": "amount0",
          "type": "uint256"
        },
        {
          "internalType": "contract IERC20",
          "name": "token1",
          "type": "address"
        },
        {
          "internalType": "uint256",
          "name": "amount1",
          "type": "uint256"
        }
      ],
      "name": "CHIDepositCallback",
      "outputs": [],
      "stateMutability": "nonpayable",
      "type": "function"
    },
    {
      "inputs": [
        {
          "internalType": "uint256",
          "name": "tokenId",
          "type": "uint256"
        },
        {
          "components": [
            {
              "internalType": "int24",
              "name": "tickLower",
              "type": "int24"
            },
            {
              "internalType": "int24",
              "name": "tickUpper",
              "type": "int24"
            }
          ],
          "internalType": "struct ICHIManager.RangeParams[]",
          "name": "addRanges",
          "type": "tuple[]"
        },
        {
          "components": [
            {
              "internalType": "int24",
              "name": "tickLower",
              "type": "int24"
            },
            {
              "internalType": "int24",
              "name": "tickUpper",
              "type": "int24"
            }
          ],
          "internalType": "struct ICHIManager.RangeParams[]",
          "name": "removeRanges",
          "type": "tuple[]"
        }
      ],
      "name": "addAndRemoveRanges",
      "outputs": [],
      "stateMutability": "nonpayable",
      "type": "function"
    },
    {
      "inputs": [
        {
          "internalType": "uint256",
          "name": "tokenId",
          "type": "uint256"
        },
        {
          "internalType": "uint256",
          "name": "rangeIndex",
          "type": "uint256"
        },
        {
          "internalType": "uint256",
          "name": "amount0Desired",
          "type": "uint256"
        },
        {
          "internalType": "uint256",
          "name": "amount1Desired",
          "type": "uint256"
        }
      ],
      "name": "addLiquidityToPosition",
      "outputs": [],
      "stateMutability": "nonpayable",
      "type": "function"
    },
    {
      "inputs": [
        {
          "internalType": "uint256",
          "name": "tokenId",
          "type": "uint256"
        },
        {
          "internalType": "int24",
          "name": "tickLower",
          "type": "int24"
        },
        {
          "internalType": "int24",
          "name": "tickUpper",
          "type": "int24"
        }
      ],
      "name": "addRange",
      "outputs": [],
      "stateMutability": "nonpayable",
      "type": "function"
    },
    {
      "inputs": [
        {
          "internalType": "address",
          "name": "to",
          "type": "address"
        },
        {
          "internalType": "uint256",
          "name": "tokenId",
          "type": "uint256"
        }
      ],
      "name": "approve",
      "outputs": [],
      "stateMutability": "nonpayable",
      "type": "function"
    },
    {
      "inputs": [
        {
          "internalType": "uint256",
          "name": "tokenId",
          "type": "uint256"
        }
      ],
      "name": "archivedCHI",
      "outputs": [],
      "stateMutability": "nonpayable",
      "type": "function"
    },
    {
      "inputs": [
        {
          "internalType": "address",
          "name": "owner",
          "type": "address"
        }
      ],
      "name": "balanceOf",
      "outputs": [
        {
          "internalType": "uint256",
          "name": "",
          "type": "uint256"
        }
      ],
      "stateMutability": "view",
      "type": "function"
    },
    {
      "inputs": [],
      "name": "baseURI",
      "outputs": [
        {
          "internalType": "string",
          "name": "",
          "type": "string"
        }
      ],
      "stateMutability": "pure",
      "type": "function"
    },
    {
      "inputs": [
        {
          "internalType": "uint256",
          "name": "tokenId",
          "type": "uint256"
        }
      ],
      "name": "chi",
      "outputs": [
        {
          "internalType": "address",
          "name": "owner",
          "type": "address"
        },
        {
          "internalType": "address",
          "name": "operator",
          "type": "address"
        },
        {
          "internalType": "address",
          "name": "pool",
          "type": "address"
        },
        {
          "internalType": "address",
          "name": "vault",
          "type": "address"
        },
        {
          "internalType": "uint256",
          "name": "accruedProtocolFees0",
          "type": "uint256"
        },
        {
          "internalType": "uint256",
          "name": "accruedProtocolFees1",
          "type": "uint256"
        },
        {
          "internalType": "uint256",
          "name": "fee",
          "type": "uint256"
        },
        {
          "internalType": "uint256",
          "name": "totalShares",
          "type": "uint256"
        }
      ],
      "stateMutability": "view",
      "type": "function"
    },
    {
      "inputs": [
        {
          "internalType": "uint256",
          "name": "tokenId",
          "type": "uint256"
        },
        {
          "internalType": "uint256",
          "name": "amount0",
          "type": "uint256"
        },
        {
          "internalType": "uint256",
          "name": "amount1",
          "type": "uint256"
        },
        {
          "internalType": "address",
          "name": "to",
          "type": "address"
        }
      ],
      "name": "collectProtocol",
      "outputs": [],
      "stateMutability": "nonpayable",
      "type": "function"
    },
    {
      "inputs": [],
      "name": "deployer",
      "outputs": [
        {
          "internalType": "address",
          "name": "",
          "type": "address"
        }
      ],
      "stateMutability": "view",
      "type": "function"
    },
    {
      "inputs": [
        {
          "internalType": "uint256",
          "name": "tokenId",
          "type": "uint256"
        }
      ],
      "name": "getApproved",
      "outputs": [
        {
          "internalType": "address",
          "name": "",
          "type": "address"
        }
      ],
      "stateMutability": "view",
      "type": "function"
    },
    {
      "inputs": [
        {
          "internalType": "uint176",
          "name": "_initId",
          "type": "uint176"
        },
        {
          "internalType": "address",
          "name": "_v3Factory",
          "type": "address"
        },
        {
          "internalType": "address",
          "name": "_yangNFT",
          "type": "address"
        },
        {
          "internalType": "address",
          "name": "_deployer",
          "type": "address"
        },
        {
          "internalType": "bytes32",
          "name": "_merkleRoot",
          "type": "bytes32"
        }
      ],
      "name": "initialize",
      "outputs": [],
      "stateMutability": "nonpayable",
      "type": "function"
    },
    {
      "inputs": [
        {
          "internalType": "address",
          "name": "owner",
          "type": "address"
        },
        {
          "internalType": "address",
          "name": "operator",
          "type": "address"
        }
      ],
      "name": "isApprovedForAll",
      "outputs": [
        {
          "internalType": "bool",
          "name": "",
          "type": "bool"
        }
      ],
      "stateMutability": "view",
      "type": "function"
    },
    {
      "inputs": [],
      "name": "manager",
      "outputs": [
        {
          "internalType": "address",
          "name": "",
          "type": "address"
        }
      ],
      "stateMutability": "view",
      "type": "function"
    },
    {
      "inputs": [],
      "name": "merkleRoot",
      "outputs": [
        {
          "internalType": "bytes32",
          "name": "",
          "type": "bytes32"
        }
      ],
      "stateMutability": "view",
      "type": "function"
    },
    {
      "inputs": [
        {
          "components": [
            {
              "internalType": "address",
              "name": "recipient",
              "type": "address"
            },
            {
              "internalType": "address",
              "name": "token0",
              "type": "address"
            },
            {
              "internalType": "address",
              "name": "token1",
              "type": "address"
            },
            {
              "internalType": "uint24",
              "name": "fee",
              "type": "uint24"
            },
            {
              "internalType": "uint256",
              "name": "vaultFee",
              "type": "uint256"
            }
          ],
          "internalType": "struct ICHIManager.MintParams",
          "name": "params",
          "type": "tuple"
        },
        {
          "internalType": "bytes32[]",
          "name": "merkleProof",
          "type": "bytes32[]"
        }
      ],
      "name": "mint",
      "outputs": [
        {
          "internalType": "uint256",
          "name": "tokenId",
          "type": "uint256"
        },
        {
          "internalType": "address",
          "name": "vault",
          "type": "address"
        }
      ],
      "stateMutability": "nonpayable",
      "type": "function"
    },
    {
      "inputs": [],
      "name": "name",
      "outputs": [
        {
          "internalType": "string",
          "name": "",
          "type": "string"
        }
      ],
      "stateMutability": "view",
      "type": "function"
    },
    {
      "inputs": [
        {
          "internalType": "uint256",
          "name": "tokenId",
          "type": "uint256"
        }
      ],
      "name": "ownerOf",
      "outputs": [
        {
          "internalType": "address",
          "name": "",
          "type": "address"
        }
      ],
      "stateMutability": "view",
      "type": "function"
    },
    {
      "inputs": [
        {
          "internalType": "uint256",
          "name": "tokenId",
          "type": "uint256"
        }
      ],
      "name": "pausedCHI",
      "outputs": [],
      "stateMutability": "nonpayable",
      "type": "function"
    },
    {
      "inputs": [
        {
          "internalType": "bytes32",
          "name": "",
          "type": "bytes32"
        }
      ],
      "name": "positions",
      "outputs": [
        {
          "internalType": "uint256",
          "name": "shares",
          "type": "uint256"
        }
      ],
      "stateMutability": "view",
      "type": "function"
    },
    {
      "inputs": [
        {
          "internalType": "uint256",
          "name": "tokenId",
          "type": "uint256"
        },
        {
          "internalType": "uint256",
          "name": "rangeIndex",
          "type": "uint256"
        }
      ],
      "name": "removeAllLiquidityFromPosition",
      "outputs": [],
      "stateMutability": "nonpayable",
      "type": "function"
    },
    {
      "inputs": [
        {
          "internalType": "uint256",
          "name": "tokenId",
          "type": "uint256"
        },
        {
          "internalType": "uint256",
          "name": "rangeIndex",
          "type": "uint256"
        },
        {
          "internalType": "uint128",
          "name": "liquidity",
          "type": "uint128"
        }
      ],
      "name": "removeLiquidityFromPosition",
      "outputs": [],
      "stateMutability": "nonpayable",
      "type": "function"
    },
    {
      "inputs": [
        {
          "internalType": "uint256",
          "name": "tokenId",
          "type": "uint256"
        },
        {
          "internalType": "int24",
          "name": "tickLower",
          "type": "int24"
        },
        {
          "internalType": "int24",
          "name": "tickUpper",
          "type": "int24"
        }
      ],
      "name": "removeRange",
      "outputs": [],
      "stateMutability": "nonpayable",
      "type": "function"
    },
    {
      "inputs": [
        {
          "internalType": "address",
          "name": "from",
          "type": "address"
        },
        {
          "internalType": "address",
          "name": "to",
          "type": "address"
        },
        {
          "internalType": "uint256",
          "name": "tokenId",
          "type": "uint256"
        }
      ],
      "name": "safeTransferFrom",
      "outputs": [],
      "stateMutability": "nonpayable",
      "type": "function"
    },
    {
      "inputs": [
        {
          "internalType": "address",
          "name": "from",
          "type": "address"
        },
        {
          "internalType": "address",
          "name": "to",
          "type": "address"
        },
        {
          "internalType": "uint256",
          "name": "tokenId",
          "type": "uint256"
        },
        {
          "internalType": "bytes",
          "name": "_data",
          "type": "bytes"
        }
      ],
      "name": "safeTransferFrom",
      "outputs": [],
      "stateMutability": "nonpayable",
      "type": "function"
    },
    {
      "inputs": [
        {
          "internalType": "address",
          "name": "operator",
          "type": "address"
        },
        {
          "internalType": "bool",
          "name": "approved",
          "type": "bool"
        }
      ],
      "name": "setApprovalForAll",
      "outputs": [],
      "stateMutability": "nonpayable",
      "type": "function"
    },
    {
      "inputs": [
        {
          "internalType": "uint256",
          "name": "tokenId",
          "type": "uint256"
        }
      ],
      "name": "stateOfCHI",
      "outputs": [
        {
          "internalType": "bool",
          "name": "isPaused",
          "type": "bool"
        },
        {
          "internalType": "bool",
          "name": "isArchived",
          "type": "bool"
        }
      ],
      "stateMutability": "view",
      "type": "function"
    },
    {
      "inputs": [
        {
          "internalType": "uint256",
          "name": "yangId",
          "type": "uint256"
        },
        {
          "internalType": "uint256",
          "name": "tokenId",
          "type": "uint256"
        },
        {
          "internalType": "uint256",
          "name": "amount0Desired",
          "type": "uint256"
        },
        {
          "internalType": "uint256",
          "name": "amount1Desired",
          "type": "uint256"
        },
        {
          "internalType": "uint256",
          "name": "amount0Min",
          "type": "uint256"
        },
        {
          "internalType": "uint256",
          "name": "amount1Min",
          "type": "uint256"
        }
      ],
      "name": "subscribe",
      "outputs": [
        {
          "internalType": "uint256",
          "name": "shares",
          "type": "uint256"
        },
        {
          "internalType": "uint256",
          "name": "amount0",
          "type": "uint256"
        },
        {
          "internalType": "uint256",
          "name": "amount1",
          "type": "uint256"
        }
      ],
      "stateMutability": "nonpayable",
      "type": "function"
    },
    {
      "inputs": [
        {
          "internalType": "bytes4",
          "name": "interfaceId",
          "type": "bytes4"
        }
      ],
      "name": "supportsInterface",
      "outputs": [
        {
          "internalType": "bool",
          "name": "",
          "type": "bool"
        }
      ],
      "stateMutability": "view",
      "type": "function"
    },
    {
      "inputs": [],
      "name": "symbol",
      "outputs": [
        {
          "internalType": "string",
          "name": "",
          "type": "string"
        }
      ],
      "stateMutability": "view",
      "type": "function"
    },
    {
      "inputs": [
        {
          "internalType": "uint256",
          "name": "index",
          "type": "uint256"
        }
      ],
      "name": "tokenByIndex",
      "outputs": [
        {
          "internalType": "uint256",
          "name": "",
          "type": "uint256"
        }
      ],
      "stateMutability": "view",
      "type": "function"
    },
    {
      "inputs": [
        {
          "internalType": "address",
          "name": "owner",
          "type": "address"
        },
        {
          "internalType": "uint256",
          "name": "index",
          "type": "uint256"
        }
      ],
      "name": "tokenOfOwnerByIndex",
      "outputs": [
        {
          "internalType": "uint256",
          "name": "",
          "type": "uint256"
        }
      ],
      "stateMutability": "view",
      "type": "function"
    },
    {
      "inputs": [
        {
          "internalType": "uint256",
          "name": "tokenId",
          "type": "uint256"
        }
      ],
      "name": "tokenURI",
      "outputs": [
        {
          "internalType": "string",
          "name": "",
          "type": "string"
        }
      ],
      "stateMutability": "view",
      "type": "function"
    },
    {
      "inputs": [],
      "name": "totalSupply",
      "outputs": [
        {
          "internalType": "uint256",
          "name": "",
          "type": "uint256"
        }
      ],
      "stateMutability": "view",
      "type": "function"
    },
    {
      "inputs": [
        {
          "internalType": "address",
          "name": "from",
          "type": "address"
        },
        {
          "internalType": "address",
          "name": "to",
          "type": "address"
        },
        {
          "internalType": "uint256",
          "name": "tokenId",
          "type": "uint256"
        }
      ],
      "name": "transferFrom",
      "outputs": [],
      "stateMutability": "nonpayable",
      "type": "function"
    },
    {
      "inputs": [
        {
          "internalType": "uint256",
          "name": "tokenId",
          "type": "uint256"
        }
      ],
      "name": "unpausedCHI",
      "outputs": [],
      "stateMutability": "nonpayable",
      "type": "function"
    },
    {
      "inputs": [
        {
          "internalType": "uint256",
          "name": "yangId",
          "type": "uint256"
        },
        {
          "internalType": "uint256",
          "name": "tokenId",
          "type": "uint256"
        },
        {
          "internalType": "uint256",
          "name": "shares",
          "type": "uint256"
        },
        {
          "internalType": "uint256",
          "name": "amount0Min",
          "type": "uint256"
        },
        {
          "internalType": "uint256",
          "name": "amount1Min",
          "type": "uint256"
        }
      ],
      "name": "unsubscribe",
      "outputs": [
        {
          "internalType": "uint256",
          "name": "amount0",
          "type": "uint256"
        },
        {
          "internalType": "uint256",
          "name": "amount1",
          "type": "uint256"
        }
      ],
      "stateMutability": "nonpayable",
      "type": "function"
    },
    {
      "inputs": [
        {
          "internalType": "bytes32",
          "name": "_merkleRoot",
          "type": "bytes32"
        }
      ],
      "name": "updateMerkleRoot",
      "outputs": [],
      "stateMutability": "nonpayable",
      "type": "function"
    },
    {
      "inputs": [],
      "name": "v3Factory",
      "outputs": [
        {
          "internalType": "address",
          "name": "",
          "type": "address"
        }
      ],
      "stateMutability": "view",
      "type": "function"
    },
    {
      "inputs": [],
      "name": "yangNFT",
      "outputs": [
        {
          "internalType": "address",
          "name": "",
          "type": "address"
        }
      ],
      "stateMutability": "view",
      "type": "function"
    }
  ],
  "bytecode": "0x608060405234801561001057600080fd5b506141d6806100206000396000f3fe608060405234801561001057600080fd5b50600436106102d35760003560e01c806354cc59ba11610186578063b88d4fde116100e3578063df84f84d11610097578063ec28fcac11610071578063ec28fcac146105c4578063ed1bbd0b146105e6578063f801deaa146105f9576102d3565b8063df84f84d1461058b578063e2c3350e1461059e578063e985e9c5146105b1576102d3565b8063c2108d1b116100c8578063c2108d1b1461055d578063c87b56dd14610570578063d5f3948814610583576102d3565b8063b88d4fde14610523578063b9decd6614610536576102d3565b806372405f0b1161013a57806393e4f7e61161011f57806393e4f7e6146104f557806395d89b4114610508578063a22cb46514610510576102d3565b806372405f0b146104cc5780637c887c59146104ed576102d3565b80636352211e1161016b5780636352211e1461049e5780636c0360eb146104b157806370a08231146104b9576102d3565b806354cc59ba1461046a5780635d87b6e41461048b576102d3565b80632eb4a7ab116102345780634783f0ef116101e85780634b57512d116101cd5780634b57512d146104315780634f6ccce714610444578063514ea4bf14610457576102d3565b80634783f0ef14610416578063481c6a7514610429576102d3565b80634259ab44116102195780634259ab44146103da57806342842e0e146103e257806346698e75146103f5576102d3565b80632eb4a7ab146103bf5780632f745c59146103c7576102d3565b80630e082b741161028b5780632118338611610270578063211833861461038657806323b872dd1461039957806325f368ae146103ac576102d3565b80630e082b741461035e57806318160ddd14610371576102d3565b8063081812fc116102bc578063081812fc14610316578063095ea7b3146103365780630cb1ac8c1461034b576102d3565b806301ffc9a7146102d857806306fdde0314610301575b600080fd5b6102eb6102e636600461362a565b61060c565b6040516102f89190613b4e565b60405180910390f35b610309610647565b6040516102f89190613b88565b610329610324366004613612565b6106dd565b6040516102f89190613aa4565b6103496103443660046135cb565b610729565b005b610349610359366004613612565b6107ff565b61034961036c366004613900565b6108a0565b6103796109a8565b6040516102f89190613b6b565b610349610394366004613612565b6109b9565b6103496103a736600461349a565b610a34565b6103496103ba366004613979565b610a8b565b610379610b75565b6103796103d53660046135cb565b610b7b565b610329610ba6565b6103496103f036600461349a565b610bb5565b6104086104033660046139ea565b610bd0565b6040516102f8929190613a96565b610349610424366004613612565b610dd0565b610329610dff565b61034961043f366004613881565b610e0e565b610379610452366004613612565b610ef5565b610379610465366004613612565b610f0b565b61047d610478366004613612565b610f1d565b6040516102f8929190613b59565b6103496104993660046138bc565b610f47565b6103296104ac366004613612565b61104c565b610309611074565b6103796104c736600461342a565b611079565b6104df6104da3660046136cb565b6110e1565b6040516102f8929190613ecc565b6103296114af565b610349610503366004613752565b6114be565b61030961166b565b61034961051e36600461359e565b6116cc565b6103496105313660046134da565b6117d1565b610549610544366004613612565b61182f565b6040516102f8989796959493929190613adc565b61034961056b3660046139b9565b611aa0565b61030961057e366004613612565b611b50565b610329611b78565b61034961059936600461380a565b611b87565b6103496105ac366004613881565b611d71565b6102eb6105bf366004613462565b611e1f565b6105d76105d2366004613a24565b611e4d565b6040516102f893929190613f47565b6103496105f436600461366a565b612038565b610349610607366004613612565b612198565b7fffffffff00000000000000000000000000000000000000000000000000000000811660009081526065602052604090205460ff165b919050565b609c8054604080516020601f60026000196101006001881615020190951694909404938401819004810282018101909252828152606093909290918301828280156106d35780601f106106a8576101008083540402835291602001916106d3565b820191906000526020600020905b8154815290600101906020018083116106b657829003601f168201915b5050505050905090565b60006106e88261222b565b61070d5760405162461bcd60e51b815260040161070490613e6f565b60405180910390fd5b50600090815260cb60205260409020546001600160a01b031690565b60006107348261104c565b9050806001600160a01b0316836001600160a01b031614156107875760405162461bcd60e51b81526004018080602001828103825260218152602001806141786021913960400191505060405180910390fd5b806001600160a01b0316610799612238565b6001600160a01b031614806107b557506107b5816105bf612238565b6107f05760405162461bcd60e51b81526004018080602001828103825260388152602001806140746038913960400191505060405180910390fd5b6107fa838361223c565b505050565b600081815260cb6020526040902061081733836122b7565b8061082c575060cc546001600160a01b031633145b6108485760405162461bcd60e51b815260040161070490613d93565b6002810154600160a81b900460ff16156108745760405162461bcd60e51b815260040161070490613d5c565b60020180547fffffffffffffffffffffff00ffffffffffffffffffffffffffffffffffffffff16905550565b826108ab33826122b7565b6108c75760405162461bcd60e51b815260040161070490613d93565b600084815260cb602052604090206002810154600160a81b900460ff16156109015760405162461bcd60e51b815260040161070490613c80565b60028101546040517fd4da61850000000000000000000000000000000000000000000000000000000081526001600160a01b039091169063d4da61859061094e9087908790600401613f08565b6040805180830381600087803b15801561096757600080fd5b505af115801561097b573d6000803e3d6000fd5b505050506040513d601f19601f8201168201806040525081019061099f91906138dd565b50505050505050565b60006109b4609861235b565b905090565b600081815260cb602052604090206109d133836122b7565b806109e6575060cc546001600160a01b031633145b610a025760405162461bcd60e51b815260040161070490613d93565b60020180547fffffffffffffffffffffff00ffffffffffffffffffffffffffffffffffffffff16600160a01b17905550565b610a45610a3f612238565b826122b7565b610a805760405162461bcd60e51b81526004018080602001828103825260318152602001806141996031913960400191505060405180910390fd5b6107fa838383612366565b83610a9633826122b7565b610ab25760405162461bcd60e51b815260040161070490613d93565b600085815260cb602052604090206002810154600160a01b900460ff1615610aec5760405162461bcd60e51b815260040161070490613bdb565b60028101546040517f0430c1300000000000000000000000000000000000000000000000000000000081526001600160a01b0390911690630430c13090610b3b90889088908890600401613f28565b600060405180830381600087803b158015610b5557600080fd5b505af1158015610b69573d6000803e3d6000fd5b50505050505050505050565b60d05481565b6001600160a01b0382166000908152609760205260408120610b9d90836124b2565b90505b92915050565b60ce546001600160a01b031681565b6107fa838383604051806020016040528060008152506117d1565b60ce5460009081906001600160a01b03163314610bff5760405162461bcd60e51b815260040161070490613dca565b60026001541415610c57576040805162461bcd60e51b815260206004820152601f60248201527f5265656e7472616e637947756172643a207265656e7472616e742063616c6c00604482015290519081900360640190fd5b60026001819055600087815260cb6020526040902090810154600160a81b900460ff1615610c975760405162461bcd60e51b815260040161070490613c80565b60008888604051602001610cac929190613a96565b60408051601f198184030181529181528151602092830120600081815260ca9093529120805491925090881115610cf55760405162461bcd60e51b815260040161070490613d25565b600283015460ce546040517fd473a6540000000000000000000000000000000000000000000000000000000081526001600160a01b039283169263d473a65492610d4d928f928e928e928e9290911690600401613f5d565b6040805180830381600087803b158015610d6657600080fd5b505af1158015610d7a573d6000803e3d6000fd5b505050506040513d601f19601f82011682018060405250810190610d9e91906138dd565b600084815260ca60205260409020549196509450610dbc90896124be565b905550506001805590969095509350505050565b60cc546001600160a01b03163314610dfa5760405162461bcd60e51b815260040161070490613c49565b60d055565b60cc546001600160a01b031681565b82610e1933826122b7565b610e355760405162461bcd60e51b815260040161070490613d93565b600084815260cb602052604090206002810154600160a01b900460ff1615610e6f5760405162461bcd60e51b815260040161070490613bdb565b60028101546040517f5a64998b0000000000000000000000000000000000000000000000000000000081526001600160a01b0390911690635a64998b90610ebc9087908790600401613b74565b600060405180830381600087803b158015610ed657600080fd5b505af1158015610eea573d6000803e3d6000fd5b505050505050505050565b600080610f0360988461251b565b509392505050565b60ca6020526000908152604090205481565b600090815260cb602052604090206002015460ff600160a01b8204811692600160a81b9092041690565b81610f5233826122b7565b610f6e5760405162461bcd60e51b815260040161070490613d93565b600083815260cb602052604090206002810154600160a81b900460ff1615610fa85760405162461bcd60e51b815260040161070490613c80565b60028101546040517f2106fa460000000000000000000000000000000000000000000000000000000081526001600160a01b0390911690632106fa4690610ff3908690600401613b6b565b6040805180830381600087803b15801561100c57600080fd5b505af1158015611020573d6000803e3d6000fd5b505050506040513d601f19601f8201168201806040525081019061104491906138dd565b505050505050565b6000610ba0826040518060600160405280602981526020016140d66029913960989190612539565b606090565b60006001600160a01b0382166110c05760405162461bcd60e51b815260040180806020018281038252602a8152602001806140ac602a913960400191505060405180910390fd5b6001600160a01b0382166000908152609760205260409020610ba09061235b565b60008083836000336040516020016110f99190613a66565b6040516020818303038152906040528051906020012090506111528383808060200260200160405190810160405280939291908181526020018383602002808284376000920191909152505060d0549150849050612550565b61116e5760405162461bcd60e51b815260040161070490613c12565b60cd546000906001600160a01b0316631698ee8261119260408c0160208d0161342a565b6111a260608d0160408e0161342a565b6111b260808e0160608f016137cf565b6040518463ffffffff1660e01b81526004016111d093929190613b26565b60206040518083038186803b1580156111e857600080fd5b505afa1580156111fc573d6000803e3d6000fd5b505050506040513d601f19601f820116820180604052508101906112209190613446565b90506001600160a01b0381166112485760405162461bcd60e51b815260040161070490613cee565b60cf546040517f58b4b7110000000000000000000000000000000000000000000000000000000081526001600160a01b03909116906358b4b71190611299908490309060808f013590600401613ab8565b602060405180830381600087803b1580156112b357600080fd5b505af11580156112c7573d6000803e3d6000fd5b505050506040513d601f19601f820116820180604052508101906112eb9190613446565b94506113526112fd60208b018b61342a565b60c980547fffffffffffffffffffff000000000000000000000000000000000000000000008116600175ffffffffffffffffffffffffffffffffffffffffffff928316908101909216179091559750876125f9565b6040805160a081019091528061136b60208c018c61342a565b6001600160a01b0390811682528381166020808401919091528882166040808501919091526000606080860182905260809586018290528c825260cb8452908290208651815490861673ffffffffffffffffffffffffffffffffffffffff1991821617825593870151600182018054918716918616919091179055868301516002909101805492880151978701511515600160a81b027fffffffffffffffffffff00ffffffffffffffffffffffffffffffffffffffffff981515600160a01b027fffffffffffffffffffffff00ffffffffffffffffffffffffffffffffffffffff93909716939095169290921716939093179490941617905590517ff03c0794e29ab9041701d90faa819fd394c96b5d374215f11d7dd03839606d5e9161149b91899185918a918f013590613ee3565b60405180910390a150505050935093915050565b60cd546001600160a01b031681565b600054610100900460ff16806114d757506114d7612727565b806114e5575060005460ff16155b6115205760405162461bcd60e51b815260040180806020018281038252602e8152602001806140ff602e913960400191505060405180910390fd5b600054610100900460ff1615801561154b576000805460ff1961ff0019909116610100171660011790555b60cc80543373ffffffffffffffffffffffffffffffffffffffff199182161790915560cd805482166001600160a01b038881169190911790915560ce8054831687831617905560cf805490921690851617905560d082905560c980547fffffffffffffffffffff000000000000000000000000000000000000000000001675ffffffffffffffffffffffffffffffffffffffffffff881617905560408051808201825260208082527f59494e20556e697377617020563320506f736974696f6e73204d616e61676572818301528251808401909352600383527f43484900000000000000000000000000000000000000000000000000000000009083015261165291612738565b8015611044576000805461ff0019169055505050505050565b609d8054604080516020601f60026000196101006001881615020190951694909404938401819004810282018101909252828152606093909290918301828280156106d35780601f106106a8576101008083540402835291602001916106d3565b6116d4612238565b6001600160a01b0316826001600160a01b0316141561173a576040805162461bcd60e51b815260206004820152601960248201527f4552433732313a20617070726f766520746f2063616c6c657200000000000000604482015290519081900360640190fd5b80609b6000611747612238565b6001600160a01b03908116825260208083019390935260409182016000908120918716808252919093529120805460ff19169215159290921790915561178b612238565b6001600160a01b03167f17307eab39ab6107e8899845ad3d59bd9653f200f220920489ca2b5937696c318360405180821515815260200191505060405180910390a35050565b6117e26117dc612238565b836122b7565b61181d5760405162461bcd60e51b81526004018080602001828103825260318152602001806141996031913960400191505060405180910390fd5b611829848484846127f5565b50505050565b600081815260cb6020526040812081908190819081908190819081906118548a61222b565b6118705760405162461bcd60e51b815260040161070490613e38565b60028101546001600160a01b03166118878b61104c565b825460018401546002850154604080517feae989a200000000000000000000000000000000000000000000000000000000815290516001600160a01b0394851694938416939283169287169163eae989a2916004808301926020929190829003018186803b1580156118f857600080fd5b505afa15801561190c573d6000803e3d6000fd5b505050506040513d601f19601f8201168201806040525081019061193091906137f2565b856001600160a01b031663a00fa77f6040518163ffffffff1660e01b815260040160206040518083038186803b15801561196957600080fd5b505afa15801561197d573d6000803e3d6000fd5b505050506040513d601f19601f820116820180604052508101906119a191906137f2565b866001600160a01b031663b0e21e8a6040518163ffffffff1660e01b815260040160206040518083038186803b1580156119da57600080fd5b505afa1580156119ee573d6000803e3d6000fd5b505050506040513d601f19601f82011682018060405250810190611a1291906137f2565b876001600160a01b03166318160ddd6040518163ffffffff1660e01b815260040160206040518083038186803b158015611a4b57600080fd5b505afa158015611a5f573d6000803e3d6000fd5b505050506040513d601f19601f82011682018060405250810190611a8391906137f2565b995099509950995099509950995099505050919395975091939597565b83611aab33826122b7565b611ac75760405162461bcd60e51b815260040161070490613d93565b600085815260cb602052604090206002810154600160a01b900460ff1615611b015760405162461bcd60e51b815260040161070490613bdb565b60028101546040517f9d9d75be0000000000000000000000000000000000000000000000000000000081526001600160a01b0390911690639d9d75be90610b3b90889088908890600401613f47565b6060611b5b8261222b565b611b6457600080fd5b505060408051602081019091526000815290565b60cf546001600160a01b031681565b84611b9233826122b7565b611bae5760405162461bcd60e51b815260040161070490613d93565b600086815260cb602052604090206002810154600160a01b900460ff1615611be85760405162461bcd60e51b815260040161070490613bdb565b60005b85811015611ca75760028201546001600160a01b031663db4dcce4888884818110611c1257fe5b611c2892602060409092020190810191506136b1565b898985818110611c3457fe5b9050604002016020016020810190611c4c91906136b1565b6040518363ffffffff1660e01b8152600401611c69929190613b74565b600060405180830381600087803b158015611c8357600080fd5b505af1158015611c97573d6000803e3d6000fd5b505060019092019150611beb9050565b5060005b83811015611d675760028201546001600160a01b0316635a64998b868684818110611cd257fe5b611ce892602060409092020190810191506136b1565b878785818110611cf457fe5b9050604002016020016020810190611d0c91906136b1565b6040518363ffffffff1660e01b8152600401611d29929190613b74565b600060405180830381600087803b158015611d4357600080fd5b505af1158015611d57573d6000803e3d6000fd5b505060019092019150611cab9050565b5050505050505050565b82611d7c33826122b7565b611d985760405162461bcd60e51b815260040161070490613d93565b600084815260cb602052604090206002810154600160a01b900460ff1615611dd25760405162461bcd60e51b815260040161070490613bdb565b60028101546040517fdb4dcce40000000000000000000000000000000000000000000000000000000081526001600160a01b039091169063db4dcce490610ebc9087908790600401613b74565b6001600160a01b039182166000908152609b6020908152604080832093909416825291909152205460ff1690565b60ce54600090819081906001600160a01b03163314611e7e5760405162461bcd60e51b815260040161070490613dca565b60d1889055600154889060021415611edd576040805162461bcd60e51b815260206004820152601f60248201527f5265656e7472616e637947756172643a207265656e7472616e742063616c6c00604482015290519081900360640190fd5b6002600181905560008a815260cb6020526040902090810154600160a01b900460ff1615611f1d5760405162461bcd60e51b815260040161070490613bdb565b60028101546040517fbf02b5ea0000000000000000000000000000000000000000000000000000000081526001600160a01b039091169063bf02b5ea90611f70908e908d908d908d908d90600401613f89565b606060405180830381600087803b158015611f8a57600080fd5b505af1158015611f9e573d6000803e3d6000fd5b505050506040513d601f19601f82011682018060405250810190611fc2919061394c565b6040519297509095509350600090611fe0908d908d90602001613a96565b60408051601f198184030181529181528151602092830120600081815260ca9093529120549091506120129087612847565b600091825260ca60205260408220556001805560d1555092999198509650945050505050565b612041336128a1565b82156120ea5760ce546040517f23b872dd0000000000000000000000000000000000000000000000000000000081526001600160a01b03868116926323b872dd92612096929091169033908890600401613ab8565b602060405180830381600087803b1580156120b057600080fd5b505af11580156120c4573d6000803e3d6000fd5b505050506040513d601f19601f820116820180604052508101906120e891906135f6565b505b80156118295760ce546040517f23b872dd0000000000000000000000000000000000000000000000000000000081526001600160a01b03848116926323b872dd9261213f929091169033908690600401613ab8565b602060405180830381600087803b15801561215957600080fd5b505af115801561216d573d6000803e3d6000fd5b505050506040513d601f19601f8201168201806040525081019061219191906135f6565b5050505050565b806121a333826122b7565b6121bf5760405162461bcd60e51b815260040161070490613d93565b600082815260cb602052604090206002810154600160a01b900460ff166121f85760405162461bcd60e51b815260040161070490613e01565b60020180547fffffffffffffffffffff00ffffffffffffffffffffffffffffffffffffffffff16600160a81b1790555050565b6000610ba06098836128e5565b3390565b600081815260cb60205260409020805473ffffffffffffffffffffffffffffffffffffffff19166001600160a01b038416908117909155819061227e8261104c565b6001600160a01b03167f8c5be1e5ebec7d5bd14f71427d1e84f3dd0314c0f7b2291e5b200ac8c7c3b92560405160405180910390a45050565b60006122c28261222b565b6122fd5760405162461bcd60e51b815260040180806020018281038252602c815260200180614048602c913960400191505060405180910390fd5b60006123088361104c565b9050806001600160a01b0316846001600160a01b031614806123435750836001600160a01b0316612338846106dd565b6001600160a01b0316145b8061235357506123538185611e1f565b949350505050565b6000610ba0826128f1565b826001600160a01b03166123798261104c565b6001600160a01b0316146123be5760405162461bcd60e51b815260040180806020018281038252602981526020018061414f6029913960400191505060405180910390fd5b6001600160a01b0382166124035760405162461bcd60e51b81526004018080602001828103825260248152602001806140246024913960400191505060405180910390fd5b61240e8383836107fa565b61241960008261223c565b6001600160a01b038316600090815260976020526040902061243b90826128f5565b506001600160a01b038216600090815260976020526040902061245e9082612901565b5061246b6098828461290d565b5080826001600160a01b0316846001600160a01b03167fddf252ad1be2c89b69c2b068fc378daa952ba7f163c4a11628f55a4df523b3ef60405160405180910390a4505050565b6000610b9d8383612923565b600082821115612515576040805162461bcd60e51b815260206004820152601e60248201527f536166654d6174683a207375627472616374696f6e206f766572666c6f770000604482015290519081900360640190fd5b50900390565b600080808061252a8686612987565b909450925050505b9250929050565b6000612546848484612a02565b90505b9392505050565b600081815b85518110156125ee57600086828151811061256c57fe5b602002602001015190508083116125b357828160405160200180838152602001828152602001925050506040516020818303038152906040528051906020012092506125e5565b808360405160200180838152602001828152602001925050506040516020818303038152906040528051906020012092505b50600101612555565b509092149392505050565b6001600160a01b038216612654576040805162461bcd60e51b815260206004820181905260248201527f4552433732313a206d696e7420746f20746865207a65726f2061646472657373604482015290519081900360640190fd5b61265d8161222b565b156126af576040805162461bcd60e51b815260206004820152601c60248201527f4552433732313a20746f6b656e20616c7265616479206d696e74656400000000604482015290519081900360640190fd5b6126bb600083836107fa565b6001600160a01b03821660009081526097602052604090206126dd9082612901565b506126ea6098828461290d565b5060405181906001600160a01b038416906000907fddf252ad1be2c89b69c2b068fc378daa952ba7f163c4a11628f55a4df523b3ef908290a45050565b600061273230612acc565b15905090565b600054610100900460ff16806127515750612751612727565b8061275f575060005460ff16155b61279a5760405162461bcd60e51b815260040180806020018281038252602e8152602001806140ff602e913960400191505060405180910390fd5b600054610100900460ff161580156127c5576000805460ff1961ff0019909116610100171660011790555b6127cd612ad2565b6127d5612b74565b6127df8383612c2a565b80156107fa576000805461ff0019169055505050565b612800848484612366565b61280c84848484612d5a565b6118295760405162461bcd60e51b8152600401808060200182810382526032815260200180613ff26032913960400191505060405180910390fd5b600082820183811015610b9d576040805162461bcd60e51b815260206004820152601b60248201527f536166654d6174683a206164646974696f6e206f766572666c6f770000000000604482015290519081900360640190fd5b60d154600090815260cb6020526040902060028101546001600160a01b038381169116146128e15760405162461bcd60e51b815260040161070490613cb7565b5050565b6000610b9d8383612f36565b5490565b6000610b9d8383612f4e565b6000610b9d8383613014565b600061254684846001600160a01b03851661305e565b815460009082106129655760405162461bcd60e51b8152600401808060200182810382526022815260200180613fd06022913960400191505060405180910390fd5b82600001828154811061297457fe5b9060005260206000200154905092915050565b8154600090819083106129cb5760405162461bcd60e51b815260040180806020018281038252602281526020018061412d6022913960400191505060405180910390fd5b60008460000184815481106129dc57fe5b906000526020600020906002020190508060000154816001015492509250509250929050565b60008281526001840160205260408120548281612a9d5760405162461bcd60e51b81526004018080602001828103825283818151815260200191508051906020019080838360005b83811015612a62578181015183820152602001612a4a565b50505050905090810190601f168015612a8f5780820380516001836020036101000a031916815260200191505b509250505060405180910390fd5b50846000016001820381548110612ab057fe5b9060005260206000209060020201600101549150509392505050565b3b151590565b600054610100900460ff1680612aeb5750612aeb612727565b80612af9575060005460ff16155b612b345760405162461bcd60e51b815260040180806020018281038252602e8152602001806140ff602e913960400191505060405180910390fd5b600054610100900460ff16158015612b5f576000805460ff1961ff0019909116610100171660011790555b8015612b71576000805461ff00191690555b50565b600054610100900460ff1680612b8d5750612b8d612727565b80612b9b575060005460ff16155b612bd65760405162461bcd60e51b815260040180806020018281038252602e8152602001806140ff602e913960400191505060405180910390fd5b600054610100900460ff16158015612c01576000805460ff1961ff0019909116610100171660011790555b612b5f7f01ffc9a7000000000000000000000000000000000000000000000000000000006130f5565b600054610100900460ff1680612c435750612c43612727565b80612c51575060005460ff16155b612c8c5760405162461bcd60e51b815260040180806020018281038252602e8152602001806140ff602e913960400191505060405180910390fd5b600054610100900460ff16158015612cb7576000805460ff1961ff0019909116610100171660011790555b8251612cca90609c906020860190613334565b508151612cde90609d906020850190613334565b50612d087f80ac58cd000000000000000000000000000000000000000000000000000000006130f5565b612d317f5b5e139f000000000000000000000000000000000000000000000000000000006130f5565b6127df7f780e9d63000000000000000000000000000000000000000000000000000000006130f5565b6000612d6e846001600160a01b0316612acc565b612d7a57506001612353565b6000612ecb7f150b7a0200000000000000000000000000000000000000000000000000000000612da8612238565b88878760405160240180856001600160a01b03168152602001846001600160a01b0316815260200183815260200180602001828103825283818151815260200191508051906020019080838360005b83811015612e0f578181015183820152602001612df7565b50505050905090810190601f168015612e3c5780820380516001836020036101000a031916815260200191505b5095505050505050604051602081830303815290604052907bffffffffffffffffffffffffffffffffffffffffffffffffffffffff19166020820180517bffffffffffffffffffffffffffffffffffffffffffffffffffffffff8381831617835250505050604051806060016040528060328152602001613ff2603291396001600160a01b03881691906131a9565b90506000818060200190516020811015612ee457600080fd5b50517fffffffff00000000000000000000000000000000000000000000000000000000167f150b7a02000000000000000000000000000000000000000000000000000000001492505050949350505050565b60009081526001919091016020526040902054151590565b6000818152600183016020526040812054801561300a5783546000198083019190810190600090879083908110612f8157fe5b9060005260206000200154905080876000018481548110612f9e57fe5b600091825260208083209091019290925582815260018981019092526040902090840190558654879080612fce57fe5b60019003818190600052602060002001600090559055866001016000878152602001908152602001600020600090556001945050505050610ba0565b6000915050610ba0565b60006130208383612f36565b61305657508154600181810184556000848152602080822090930184905584548482528286019093526040902091909155610ba0565b506000610ba0565b6000828152600184016020526040812054806130c3575050604080518082018252838152602080820184815286546001818101895560008981528481209551600290930290950191825591519082015586548684528188019092529290912055612549565b828560000160018303815481106130d657fe5b9060005260206000209060020201600101819055506000915050612549565b7fffffffff00000000000000000000000000000000000000000000000000000000808216141561316c576040805162461bcd60e51b815260206004820152601c60248201527f4552433136353a20696e76616c696420696e7465726661636520696400000000604482015290519081900360640190fd5b7fffffffff00000000000000000000000000000000000000000000000000000000166000908152606560205260409020805460ff19166001179055565b60606125468484600085856131bd85612acc565b61320e576040805162461bcd60e51b815260206004820152601d60248201527f416464726573733a2063616c6c20746f206e6f6e2d636f6e7472616374000000604482015290519081900360640190fd5b600080866001600160a01b031685876040518082805190602001908083835b6020831061324c5780518252601f19909201916020918201910161322d565b6001836020036101000a03801982511681845116808217855250505050505090500191505060006040518083038185875af1925050503d80600081146132ae576040519150601f19603f3d011682016040523d82523d6000602084013e6132b3565b606091505b50915091506132c38282866132ce565b979650505050505050565b606083156132dd575081612549565b8251156132ed5782518084602001fd5b60405162461bcd60e51b8152602060048201818152845160248401528451859391928392604401919085019080838360008315612a62578181015183820152602001612a4a565b828054600181600116156101000203166002900490600052602060002090601f01602090048101928261336a57600085556133b0565b82601f1061338357805160ff19168380011785556133b0565b828001600101855582156133b0579182015b828111156133b0578251825591602001919060010190613395565b506133bc9291506133c0565b5090565b5b808211156133bc57600081556001016133c1565b60008083601f8401126133e6578182fd5b50813567ffffffffffffffff8111156133fd578182fd5b60208301915083602060408302850101111561253257600080fd5b8035600281900b811461064257600080fd5b60006020828403121561343b578081fd5b8135610b9d81613fac565b600060208284031215613457578081fd5b8151610b9d81613fac565b60008060408385031215613474578081fd5b823561347f81613fac565b9150602083013561348f81613fac565b809150509250929050565b6000806000606084860312156134ae578081fd5b83356134b981613fac565b925060208401356134c981613fac565b929592945050506040919091013590565b600080600080608085870312156134ef578081fd5b84356134fa81613fac565b935060208581013561350b81613fac565b935060408601359250606086013567ffffffffffffffff8082111561352e578384fd5b818801915088601f830112613541578384fd5b81358181111561354d57fe5b60405184601f19601f840116820101818110848211171561356a57fe5b60405281815283820185018b1015613580578586fd5b81858501868301379081019093019390935250939692955090935050565b600080604083850312156135b0578182fd5b82356135bb81613fac565b9150602083013561348f81613fc1565b600080604083850312156135dd578182fd5b82356135e881613fac565b946020939093013593505050565b600060208284031215613607578081fd5b8151610b9d81613fc1565b600060208284031215613623578081fd5b5035919050565b60006020828403121561363b578081fd5b81357fffffffff0000000000000000000000000000000000000000000000000000000081168114610b9d578182fd5b6000806000806080858703121561367f578182fd5b843561368a81613fac565b93506020850135925060408501356136a181613fac565b9396929550929360600135925050565b6000602082840312156136c2578081fd5b610b9d82613418565b600080600083850360c08112156136e0578182fd5b60a08112156136ed578182fd5b5083925060a084013567ffffffffffffffff8082111561370b578283fd5b818601915086601f83011261371e578283fd5b81358181111561372c578384fd5b876020808302850101111561373f578384fd5b6020830194508093505050509250925092565b600080600080600060a08688031215613769578283fd5b853575ffffffffffffffffffffffffffffffffffffffffffff8116811461378e578384fd5b9450602086013561379e81613fac565b935060408601356137ae81613fac565b925060608601356137be81613fac565b949793965091946080013592915050565b6000602082840312156137e0578081fd5b813562ffffff81168114610b9d578182fd5b600060208284031215613803578081fd5b5051919050565b600080600080600060608688031215613821578283fd5b85359450602086013567ffffffffffffffff8082111561383f578485fd5b61384b89838a016133d5565b90965094506040880135915080821115613863578283fd5b50613870888289016133d5565b969995985093965092949392505050565b600080600060608486031215613895578081fd5b833592506138a560208501613418565b91506138b360408501613418565b90509250925092565b600080604083850312156138ce578182fd5b50508035926020909101359150565b600080604083850312156138ef578182fd5b505080516020909101519092909150565b600080600060608486031215613914578081fd5b833592506020840135915060408401356fffffffffffffffffffffffffffffffff81168114613941578182fd5b809150509250925092565b600080600060608486031215613960578081fd5b8351925060208401519150604084015190509250925092565b6000806000806080858703121561398e578182fd5b84359350602085013592506040850135915060608501356139ae81613fac565b939692955090935050565b600080600080608085870312156139ce578182fd5b5050823594602084013594506040840135936060013592509050565b600080600080600060a08688031215613a01578283fd5b505083359560208501359550604085013594606081013594506080013592509050565b60008060008060008060c08789031215613a3c578384fd5b505084359660208601359650604086013595606081013595506080810135945060a0013592509050565b60609190911b7fffffffffffffffffffffffffffffffffffffffff00000000000000000000000016815260140190565b918252602082015260400190565b6001600160a01b0391909116815260200190565b6001600160a01b039384168152919092166020820152604081019190915260600190565b6001600160a01b03988916815296881660208801529487166040870152929095166060850152608084015260a083019390935260c082019290925260e08101919091526101000190565b6001600160a01b03938416815291909216602082015262ffffff909116604082015260600190565b901515815260200190565b91151582521515602082015260400190565b90815260200190565b600292830b8152910b602082015260400190565b6000602080835283518082850152825b81811015613bb457858101830151858201604001528201613b98565b81811115613bc55783604083870101525b50601f01601f1916929092016040019392505050565b6020808252600a908201527f4348492050617573656400000000000000000000000000000000000000000000604082015260600190565b60208082526009908201527f6f6e6c7920676f76730000000000000000000000000000000000000000000000604082015260600190565b60208082526007908201527f6d616e6167657200000000000000000000000000000000000000000000000000604082015260600190565b6020808252600c908201527f4348492041726368697665640000000000000000000000000000000000000000604082015260600190565b6020808252600d908201527f63616c6c6261636b206661696c00000000000000000000000000000000000000604082015260600190565b60208082526011908201527f4e6f6e2d6578697374656e7420706f6f6c000000000000000000000000000000604082015260600190565b60208082526001908201527f7300000000000000000000000000000000000000000000000000000000000000604082015260600190565b6020808252600c908201527f4348492061726368697665640000000000000000000000000000000000000000604082015260600190565b6020808252600c908201527f4e6f7420617070726f7665640000000000000000000000000000000000000000604082015260600190565b60208082526001908201527f7900000000000000000000000000000000000000000000000000000000000000604082015260600190565b6020808252600e908201527f434849206e6f7420706175736564000000000000000000000000000000000000604082015260600190565b60208082526010908201527f496e76616c696420746f6b656e20494400000000000000000000000000000000604082015260600190565b60208082526037908201527f4552433732315570677261646561626c653a20617070726f766564207175657260408201527f7920666f72206e6f6e6578697374656e7420746f6b656e000000000000000000606082015260800190565b9182526001600160a01b0316602082015260400190565b9384526001600160a01b03928316602085015291166040830152606082015260800190565b9182526fffffffffffffffffffffffffffffffff16602082015260400190565b92835260208301919091526001600160a01b0316604082015260600190565b9283526020830191909152604082015260600190565b9485526020850193909352604084019190915260608301526001600160a01b0316608082015260a00190565b948552602085019390935260408401919091526060830152608082015260a00190565b6001600160a01b0381168114612b7157600080fd5b8015158114612b7157600080fdfe456e756d657261626c655365743a20696e646578206f7574206f6620626f756e64734552433732313a207472616e7366657220746f206e6f6e20455243373231526563656976657220696d706c656d656e7465724552433732313a207472616e7366657220746f20746865207a65726f20616464726573734552433732313a206f70657261746f7220717565727920666f72206e6f6e6578697374656e7420746f6b656e4552433732313a20617070726f76652063616c6c6572206973206e6f74206f776e6572206e6f7220617070726f76656420666f7220616c6c4552433732313a2062616c616e636520717565727920666f7220746865207a65726f20616464726573734552433732313a206f776e657220717565727920666f72206e6f6e6578697374656e7420746f6b656e496e697469616c697a61626c653a20636f6e747261637420697320616c726561647920696e697469616c697a6564456e756d657261626c654d61703a20696e646578206f7574206f6620626f756e64734552433732313a207472616e73666572206f6620746f6b656e2074686174206973206e6f74206f776e4552433732313a20617070726f76616c20746f2063757272656e74206f776e65724552433732313a207472616e736665722063616c6c6572206973206e6f74206f776e6572206e6f7220617070726f766564a164736f6c6343000706000a",
  "linkReferences": {},
  "deployedLinkReferences": {}
}