{
  "_format": "hh-sol-artifact-1",
  "contractName": "CHIManager",
  "sourceName": "contracts/CHIManager.sol",
  "abi": [
    {
      "inputs": [
        {
          "internalType": "address",
          "name": "_v3Factory",
          "type": "address"
        },
        {
          "internalType": "address",
          "name": "_yangNFT",
          "type": "address"
        },
        {
          "internalType": "address",
          "name": "_deployer",
          "type": "address"
        },
        {
          "internalType": "bytes32",
          "name": "_merkleRoot",
          "type": "bytes32"
        }
      ],
      "stateMutability": "nonpayable",
      "type": "constructor"
    },
    {
      "anonymous": false,
      "inputs": [
        {
          "indexed": true,
          "internalType": "address",
          "name": "owner",
          "type": "address"
        },
        {
          "indexed": true,
          "internalType": "address",
          "name": "approved",
          "type": "address"
        },
        {
          "indexed": true,
          "internalType": "uint256",
          "name": "tokenId",
          "type": "uint256"
        }
      ],
      "name": "Approval",
      "type": "event"
    },
    {
      "anonymous": false,
      "inputs": [
        {
          "indexed": true,
          "internalType": "address",
          "name": "owner",
          "type": "address"
        },
        {
          "indexed": true,
          "internalType": "address",
          "name": "operator",
          "type": "address"
        },
        {
          "indexed": false,
          "internalType": "bool",
          "name": "approved",
          "type": "bool"
        }
      ],
      "name": "ApprovalForAll",
      "type": "event"
    },
    {
      "anonymous": false,
      "inputs": [
        {
          "indexed": false,
          "internalType": "uint256",
          "name": "tokenId",
          "type": "uint256"
        },
        {
          "indexed": false,
          "internalType": "address",
          "name": "pool",
          "type": "address"
        },
        {
          "indexed": false,
          "internalType": "address",
          "name": "vault",
          "type": "address"
        },
        {
          "indexed": false,
          "internalType": "uint256",
          "name": "vaultFee",
          "type": "uint256"
        }
      ],
      "name": "Create",
      "type": "event"
    },
    {
      "anonymous": false,
      "inputs": [
        {
          "indexed": true,
          "internalType": "address",
          "name": "from",
          "type": "address"
        },
        {
          "indexed": true,
          "internalType": "address",
          "name": "to",
          "type": "address"
        },
        {
          "indexed": true,
          "internalType": "uint256",
          "name": "tokenId",
          "type": "uint256"
        }
      ],
      "name": "Transfer",
      "type": "event"
    },
    {
      "inputs": [
        {
          "internalType": "contract IERC20",
          "name": "token0",
          "type": "address"
        },
        {
          "internalType": "uint256",
          "name": "amount0",
          "type": "uint256"
        },
        {
          "internalType": "contract IERC20",
          "name": "token1",
          "type": "address"
        },
        {
          "internalType": "uint256",
          "name": "amount1",
          "type": "uint256"
        }
      ],
      "name": "CHIDepositCallback",
      "outputs": [],
      "stateMutability": "nonpayable",
      "type": "function"
    },
    {
      "inputs": [
        {
          "internalType": "uint256",
          "name": "tokenId",
          "type": "uint256"
        },
        {
          "components": [
            {
              "internalType": "int24",
              "name": "tickLower",
              "type": "int24"
            },
            {
              "internalType": "int24",
              "name": "tickUpper",
              "type": "int24"
            }
          ],
          "internalType": "struct ICHIManager.RangeParams[]",
          "name": "addRanges",
          "type": "tuple[]"
        },
        {
          "components": [
            {
              "internalType": "int24",
              "name": "tickLower",
              "type": "int24"
            },
            {
              "internalType": "int24",
              "name": "tickUpper",
              "type": "int24"
            }
          ],
          "internalType": "struct ICHIManager.RangeParams[]",
          "name": "removeRanges",
          "type": "tuple[]"
        }
      ],
      "name": "addAndRemoveRanges",
      "outputs": [],
      "stateMutability": "nonpayable",
      "type": "function"
    },
    {
      "inputs": [
        {
          "internalType": "uint256",
          "name": "tokenId",
          "type": "uint256"
        },
        {
          "internalType": "uint256",
          "name": "rangeIndex",
          "type": "uint256"
        },
        {
          "internalType": "uint256",
          "name": "amount0Desired",
          "type": "uint256"
        },
        {
          "internalType": "uint256",
          "name": "amount1Desired",
          "type": "uint256"
        }
      ],
      "name": "addLiquidityToPosition",
      "outputs": [],
      "stateMutability": "nonpayable",
      "type": "function"
    },
    {
      "inputs": [
        {
          "internalType": "uint256",
          "name": "tokenId",
          "type": "uint256"
        },
        {
          "internalType": "int24",
          "name": "tickLower",
          "type": "int24"
        },
        {
          "internalType": "int24",
          "name": "tickUpper",
          "type": "int24"
        }
      ],
      "name": "addRange",
      "outputs": [],
      "stateMutability": "nonpayable",
      "type": "function"
    },
    {
      "inputs": [
        {
          "internalType": "address",
          "name": "to",
          "type": "address"
        },
        {
          "internalType": "uint256",
          "name": "tokenId",
          "type": "uint256"
        }
      ],
      "name": "approve",
      "outputs": [],
      "stateMutability": "nonpayable",
      "type": "function"
    },
    {
      "inputs": [
        {
          "internalType": "address",
          "name": "owner",
          "type": "address"
        }
      ],
      "name": "balanceOf",
      "outputs": [
        {
          "internalType": "uint256",
          "name": "",
          "type": "uint256"
        }
      ],
      "stateMutability": "view",
      "type": "function"
    },
    {
      "inputs": [],
      "name": "baseURI",
      "outputs": [
        {
          "internalType": "string",
          "name": "",
          "type": "string"
        }
      ],
      "stateMutability": "pure",
      "type": "function"
    },
    {
      "inputs": [
        {
          "internalType": "uint256",
          "name": "tokenId",
          "type": "uint256"
        }
      ],
      "name": "chi",
      "outputs": [
        {
          "internalType": "address",
          "name": "owner",
          "type": "address"
        },
        {
          "internalType": "address",
          "name": "operator",
          "type": "address"
        },
        {
          "internalType": "address",
          "name": "pool",
          "type": "address"
        },
        {
          "internalType": "address",
          "name": "vault",
          "type": "address"
        },
        {
          "internalType": "uint256",
          "name": "accruedProtocolFees0",
          "type": "uint256"
        },
        {
          "internalType": "uint256",
          "name": "accruedProtocolFees1",
          "type": "uint256"
        },
        {
          "internalType": "uint256",
          "name": "fee",
          "type": "uint256"
        },
        {
          "internalType": "uint256",
          "name": "totalShares",
          "type": "uint256"
        }
      ],
      "stateMutability": "view",
      "type": "function"
    },
    {
      "inputs": [
        {
          "internalType": "uint256",
          "name": "tokenId",
          "type": "uint256"
        },
        {
          "internalType": "uint256",
          "name": "amount0",
          "type": "uint256"
        },
        {
          "internalType": "uint256",
          "name": "amount1",
          "type": "uint256"
        },
        {
          "internalType": "address",
          "name": "to",
          "type": "address"
        }
      ],
      "name": "collectProtocol",
      "outputs": [],
      "stateMutability": "nonpayable",
      "type": "function"
    },
    {
      "inputs": [],
      "name": "deployer",
      "outputs": [
        {
          "internalType": "address",
          "name": "",
          "type": "address"
        }
      ],
      "stateMutability": "view",
      "type": "function"
    },
    {
      "inputs": [
        {
          "internalType": "uint256",
          "name": "tokenId",
          "type": "uint256"
        }
      ],
      "name": "getApproved",
      "outputs": [
        {
          "internalType": "address",
          "name": "",
          "type": "address"
        }
      ],
      "stateMutability": "view",
      "type": "function"
    },
    {
      "inputs": [
        {
          "internalType": "address",
          "name": "owner",
          "type": "address"
        },
        {
          "internalType": "address",
          "name": "operator",
          "type": "address"
        }
      ],
      "name": "isApprovedForAll",
      "outputs": [
        {
          "internalType": "bool",
          "name": "",
          "type": "bool"
        }
      ],
      "stateMutability": "view",
      "type": "function"
    },
    {
      "inputs": [],
      "name": "manager",
      "outputs": [
        {
          "internalType": "address",
          "name": "",
          "type": "address"
        }
      ],
      "stateMutability": "view",
      "type": "function"
    },
    {
      "inputs": [],
      "name": "merkleRoot",
      "outputs": [
        {
          "internalType": "bytes32",
          "name": "",
          "type": "bytes32"
        }
      ],
      "stateMutability": "view",
      "type": "function"
    },
    {
      "inputs": [
        {
          "components": [
            {
              "internalType": "address",
              "name": "recipient",
              "type": "address"
            },
            {
              "internalType": "address",
              "name": "token0",
              "type": "address"
            },
            {
              "internalType": "address",
              "name": "token1",
              "type": "address"
            },
            {
              "internalType": "uint24",
              "name": "fee",
              "type": "uint24"
            },
            {
              "internalType": "uint256",
              "name": "vaultFee",
              "type": "uint256"
            }
          ],
          "internalType": "struct ICHIManager.MintParams",
          "name": "params",
          "type": "tuple"
        },
        {
          "internalType": "bytes32[]",
          "name": "merkleProof",
          "type": "bytes32[]"
        }
      ],
      "name": "mint",
      "outputs": [
        {
          "internalType": "uint256",
          "name": "tokenId",
          "type": "uint256"
        },
        {
          "internalType": "address",
          "name": "vault",
          "type": "address"
        }
      ],
      "stateMutability": "nonpayable",
      "type": "function"
    },
    {
      "inputs": [
        {
          "internalType": "bytes[]",
          "name": "data",
          "type": "bytes[]"
        }
      ],
      "name": "multicall",
      "outputs": [
        {
          "internalType": "bytes[]",
          "name": "results",
          "type": "bytes[]"
        }
      ],
      "stateMutability": "payable",
      "type": "function"
    },
    {
      "inputs": [],
      "name": "name",
      "outputs": [
        {
          "internalType": "string",
          "name": "",
          "type": "string"
        }
      ],
      "stateMutability": "view",
      "type": "function"
    },
    {
      "inputs": [
        {
          "internalType": "uint256",
          "name": "tokenId",
          "type": "uint256"
        }
      ],
      "name": "ownerOf",
      "outputs": [
        {
          "internalType": "address",
          "name": "",
          "type": "address"
        }
      ],
      "stateMutability": "view",
      "type": "function"
    },
    {
      "inputs": [
        {
          "internalType": "bytes32",
          "name": "",
          "type": "bytes32"
        }
      ],
      "name": "positions",
      "outputs": [
        {
          "internalType": "uint256",
          "name": "shares",
          "type": "uint256"
        }
      ],
      "stateMutability": "view",
      "type": "function"
    },
    {
      "inputs": [
        {
          "internalType": "uint256",
          "name": "tokenId",
          "type": "uint256"
        },
        {
          "internalType": "uint256",
          "name": "rangeIndex",
          "type": "uint256"
        }
      ],
      "name": "removeAllLiquidityFromPosition",
      "outputs": [],
      "stateMutability": "nonpayable",
      "type": "function"
    },
    {
      "inputs": [
        {
          "internalType": "uint256",
          "name": "tokenId",
          "type": "uint256"
        },
        {
          "internalType": "uint256",
          "name": "rangeIndex",
          "type": "uint256"
        },
        {
          "internalType": "uint128",
          "name": "liquidity",
          "type": "uint128"
        }
      ],
      "name": "removeLiquidityFromPosition",
      "outputs": [],
      "stateMutability": "nonpayable",
      "type": "function"
    },
    {
      "inputs": [
        {
          "internalType": "uint256",
          "name": "tokenId",
          "type": "uint256"
        },
        {
          "internalType": "int24",
          "name": "tickLower",
          "type": "int24"
        },
        {
          "internalType": "int24",
          "name": "tickUpper",
          "type": "int24"
        }
      ],
      "name": "removeRange",
      "outputs": [],
      "stateMutability": "nonpayable",
      "type": "function"
    },
    {
      "inputs": [
        {
          "internalType": "address",
          "name": "from",
          "type": "address"
        },
        {
          "internalType": "address",
          "name": "to",
          "type": "address"
        },
        {
          "internalType": "uint256",
          "name": "tokenId",
          "type": "uint256"
        }
      ],
      "name": "safeTransferFrom",
      "outputs": [],
      "stateMutability": "nonpayable",
      "type": "function"
    },
    {
      "inputs": [
        {
          "internalType": "address",
          "name": "from",
          "type": "address"
        },
        {
          "internalType": "address",
          "name": "to",
          "type": "address"
        },
        {
          "internalType": "uint256",
          "name": "tokenId",
          "type": "uint256"
        },
        {
          "internalType": "bytes",
          "name": "_data",
          "type": "bytes"
        }
      ],
      "name": "safeTransferFrom",
      "outputs": [],
      "stateMutability": "nonpayable",
      "type": "function"
    },
    {
      "inputs": [
        {
          "internalType": "address",
          "name": "operator",
          "type": "address"
        },
        {
          "internalType": "bool",
          "name": "approved",
          "type": "bool"
        }
      ],
      "name": "setApprovalForAll",
      "outputs": [],
      "stateMutability": "nonpayable",
      "type": "function"
    },
    {
      "inputs": [
        {
          "internalType": "uint256",
          "name": "yangId",
          "type": "uint256"
        },
        {
          "internalType": "uint256",
          "name": "tokenId",
          "type": "uint256"
        },
        {
          "internalType": "uint256",
          "name": "amount0Desired",
          "type": "uint256"
        },
        {
          "internalType": "uint256",
          "name": "amount1Desired",
          "type": "uint256"
        },
        {
          "internalType": "uint256",
          "name": "amount0Min",
          "type": "uint256"
        },
        {
          "internalType": "uint256",
          "name": "amount1Min",
          "type": "uint256"
        }
      ],
      "name": "subscribe",
      "outputs": [
        {
          "internalType": "uint256",
          "name": "shares",
          "type": "uint256"
        },
        {
          "internalType": "uint256",
          "name": "amount0",
          "type": "uint256"
        },
        {
          "internalType": "uint256",
          "name": "amount1",
          "type": "uint256"
        }
      ],
      "stateMutability": "nonpayable",
      "type": "function"
    },
    {
      "inputs": [
        {
          "internalType": "bytes4",
          "name": "interfaceId",
          "type": "bytes4"
        }
      ],
      "name": "supportsInterface",
      "outputs": [
        {
          "internalType": "bool",
          "name": "",
          "type": "bool"
        }
      ],
      "stateMutability": "view",
      "type": "function"
    },
    {
      "inputs": [],
      "name": "symbol",
      "outputs": [
        {
          "internalType": "string",
          "name": "",
          "type": "string"
        }
      ],
      "stateMutability": "view",
      "type": "function"
    },
    {
      "inputs": [
        {
          "internalType": "uint256",
          "name": "index",
          "type": "uint256"
        }
      ],
      "name": "tokenByIndex",
      "outputs": [
        {
          "internalType": "uint256",
          "name": "",
          "type": "uint256"
        }
      ],
      "stateMutability": "view",
      "type": "function"
    },
    {
      "inputs": [
        {
          "internalType": "address",
          "name": "owner",
          "type": "address"
        },
        {
          "internalType": "uint256",
          "name": "index",
          "type": "uint256"
        }
      ],
      "name": "tokenOfOwnerByIndex",
      "outputs": [
        {
          "internalType": "uint256",
          "name": "",
          "type": "uint256"
        }
      ],
      "stateMutability": "view",
      "type": "function"
    },
    {
      "inputs": [
        {
          "internalType": "uint256",
          "name": "tokenId",
          "type": "uint256"
        }
      ],
      "name": "tokenURI",
      "outputs": [
        {
          "internalType": "string",
          "name": "",
          "type": "string"
        }
      ],
      "stateMutability": "view",
      "type": "function"
    },
    {
      "inputs": [],
      "name": "totalSupply",
      "outputs": [
        {
          "internalType": "uint256",
          "name": "",
          "type": "uint256"
        }
      ],
      "stateMutability": "view",
      "type": "function"
    },
    {
      "inputs": [
        {
          "internalType": "address",
          "name": "from",
          "type": "address"
        },
        {
          "internalType": "address",
          "name": "to",
          "type": "address"
        },
        {
          "internalType": "uint256",
          "name": "tokenId",
          "type": "uint256"
        }
      ],
      "name": "transferFrom",
      "outputs": [],
      "stateMutability": "nonpayable",
      "type": "function"
    },
    {
      "inputs": [
        {
          "internalType": "uint256",
          "name": "yangId",
          "type": "uint256"
        },
        {
          "internalType": "uint256",
          "name": "tokenId",
          "type": "uint256"
        },
        {
          "internalType": "uint256",
          "name": "shares",
          "type": "uint256"
        },
        {
          "internalType": "uint256",
          "name": "amount0Min",
          "type": "uint256"
        },
        {
          "internalType": "uint256",
          "name": "amount1Min",
          "type": "uint256"
        }
      ],
      "name": "unsubscribe",
      "outputs": [
        {
          "internalType": "uint256",
          "name": "amount0",
          "type": "uint256"
        },
        {
          "internalType": "uint256",
          "name": "amount1",
          "type": "uint256"
        }
      ],
      "stateMutability": "nonpayable",
      "type": "function"
    },
    {
      "inputs": [
        {
          "internalType": "bytes32",
          "name": "_merkleRoot",
          "type": "bytes32"
        }
      ],
      "name": "updateMerkleRoot",
      "outputs": [],
      "stateMutability": "nonpayable",
      "type": "function"
    },
    {
      "inputs": [],
      "name": "v3Factory",
      "outputs": [
        {
          "internalType": "address",
          "name": "",
          "type": "address"
        }
      ],
      "stateMutability": "view",
      "type": "function"
    },
    {
      "inputs": [],
      "name": "yangNFT",
      "outputs": [
        {
          "internalType": "address",
          "name": "",
          "type": "address"
        }
      ],
      "stateMutability": "view",
      "type": "function"
    }
  ],
  "bytecode": "0x6080604052600b80546001600160b01b03191660011790553480156200002457600080fd5b5060405162003dee38038062003dee833981016040819052620000479162000297565b60405180606001604052806022815260200162003dcc6022913960408051808201909152600381526243484960e81b60208201526001600055620000926301ffc9a760e01b62000146565b8151620000a7906007906020850190620001ce565b508051620000bd906008906020840190620001ce565b50620000d06380ac58cd60e01b62000146565b620000e2635b5e139f60e01b62000146565b620000f463780e9d6360e01b62000146565b5050600e8054336001600160a01b031991821617909155600f805482166001600160a01b03968716179055601080548216948616949094179093556011805490931691909316179055601255620002e8565b6001600160e01b03198082161415620001a6576040805162461bcd60e51b815260206004820152601c60248201527f4552433136353a20696e76616c696420696e7465726661636520696400000000604482015290519081900360640190fd5b6001600160e01b0319166000908152600160208190526040909120805460ff19169091179055565b828054600181600116156101000203166002900490600052602060002090601f01602090048101928262000206576000855562000251565b82601f106200022157805160ff191683800117855562000251565b8280016001018555821562000251579182015b828111156200025157825182559160200191906001019062000234565b506200025f92915062000263565b5090565b5b808211156200025f576000815560010162000264565b80516001600160a01b03811681146200029257600080fd5b919050565b60008060008060808587031215620002ad578384fd5b620002b8856200027a565b9350620002c8602086016200027a565b9250620002d8604086016200027a565b6060959095015193969295505050565b613ad480620002f86000396000f3fe60806040526004361061026a5760003560e01c80635d87b6e411610153578063b88d4fde116100cb578063df84f84d1161007f578063e985e9c511610064578063e985e9c5146106bb578063ec28fcac146106db578063ed1bbd0b1461070a5761026a565b8063df84f84d1461067b578063e2c3350e1461069b5761026a565b8063c2108d1b116100b0578063c2108d1b14610626578063c87b56dd14610646578063d5f39488146106665761026a565b8063b88d4fde146105d2578063b9decd66146105f25761026a565b806372405f0b1161012257806395d89b411161010757806395d89b411461057d578063a22cb46514610592578063ac9650d8146105b25761026a565b806372405f0b1461053a5780637c887c59146105685761026a565b80635d87b6e4146104c55780636352211e146104e55780636c0360eb1461050557806370a082311461051a5761026a565b80632f745c59116101e65780634783f0ef116101b55780634b57512d1161019a5780634b57512d146104655780634f6ccce714610485578063514ea4bf146104a55761026a565b80634783f0ef14610430578063481c6a75146104505761026a565b80632f745c59146103ad5780634259ab44146103cd57806342842e0e146103e257806346698e75146104025761026a565b80630e082b741161023d57806323b872dd1161022257806323b872dd1461035857806325f368ae146103785780632eb4a7ab146103985761026a565b80630e082b741461031657806318160ddd146103365761026a565b806301ffc9a71461026f57806306fdde03146102a5578063081812fc146102c7578063095ea7b3146102f4575b600080fd5b34801561027b57600080fd5b5061028f61028a366004612ef6565b61072a565b60405161029c91906134d0565b60405180910390f35b3480156102b157600080fd5b506102ba610765565b60405161029c91906134f8565b3480156102d357600080fd5b506102e76102e2366004612ede565b6107fb565b60405161029c91906133a8565b34801561030057600080fd5b5061031461030f366004612e57565b610847565b005b34801561032257600080fd5b50610314610331366004613193565b61091d565b34801561034257600080fd5b5061034b6109fa565b60405161029c91906134db565b34801561036457600080fd5b50610314610373366004612d43565b610a0b565b34801561038457600080fd5b5061031461039336600461320c565b610a62565b3480156103a457600080fd5b5061034b610b21565b3480156103b957600080fd5b5061034b6103c8366004612e57565b610b27565b3480156103d957600080fd5b506102e7610b52565b3480156103ee57600080fd5b506103146103fd366004612d43565b610b61565b34801561040e57600080fd5b5061042261041d3660046132b2565b610b7c565b60405161029c92919061339a565b34801561043c57600080fd5b5061031461044b366004612ede565b610d57565b34801561045c57600080fd5b506102e7610d86565b34801561047157600080fd5b50610314610480366004613114565b610d95565b34801561049157600080fd5b5061034b6104a0366004612ede565b610e51565b3480156104b157600080fd5b5061034b6104c0366004612ede565b610e67565b3480156104d157600080fd5b506103146104e036600461314f565b610e79565b3480156104f157600080fd5b506102e7610500366004612ede565b610f53565b34801561051157600080fd5b506102ba610f7b565b34801561052657600080fd5b5061034b610535366004612cd3565b610f80565b34801561054657600080fd5b5061055a61055536600461300a565b610fe8565b60405161029c929190613720565b34801561057457600080fd5b506102e7611348565b34801561058957600080fd5b506102ba611357565b34801561059e57600080fd5b506103146105ad366004612e2a565b6113b8565b6105c56105c0366004612e82565b6114db565b60405161029c9190613452565b3480156105de57600080fd5b506103146105ed366004612d83565b61161b565b3480156105fe57600080fd5b5061061261060d366004612ede565b611679565b60405161029c9897969594939291906133e0565b34801561063257600080fd5b5061031461064136600461324c565b6118ea565b34801561065257600080fd5b506102ba610661366004612ede565b61196f565b34801561067257600080fd5b506102e7611997565b34801561068757600080fd5b5061031461069636600461309d565b6119a6565b3480156106a757600080fd5b506103146106b6366004613114565b611b63565b3480156106c757600080fd5b5061028f6106d6366004612d0b565b611be6565b3480156106e757600080fd5b506106fb6106f63660046132ec565b611c14565b60405161029c9392919061379b565b34801561071657600080fd5b50610314610725366004612f36565b611dd2565b7fffffffff00000000000000000000000000000000000000000000000000000000811660009081526001602052604090205460ff165b919050565b60078054604080516020601f60026000196101006001881615020190951694909404938401819004810282018101909252828152606093909290918301828280156107f15780601f106107c6576101008083540402835291602001916107f1565b820191906000526020600020905b8154815290600101906020018083116107d457829003601f168201915b5050505050905090565b600061080682611f32565b61082b5760405162461bcd60e51b81526004016108229061368c565b60405180910390fd5b506000908152600d60205260409020546001600160a01b031690565b600061085282610f53565b9050806001600160a01b0316836001600160a01b031614156108a55760405162461bcd60e51b8152600401808060200182810382526021815260200180613a766021913960400191505060405180910390fd5b806001600160a01b03166108b7611f3f565b6001600160a01b031614806108d357506108d3816106d6611f3f565b61090e5760405162461bcd60e51b81526004018080602001828103825260388152602001806139a06038913960400191505060405180910390fd5b6109188383611f43565b505050565b826109283382611fc9565b6109445760405162461bcd60e51b81526004016108229061361e565b6000848152600d602052604090819020600281015491517fd4da618500000000000000000000000000000000000000000000000000000000815290916001600160a01b03169063d4da6185906109a0908790879060040161375c565b6040805180830381600087803b1580156109b957600080fd5b505af11580156109cd573d6000803e3d6000fd5b505050506040513d601f19601f820116820180604052508101906109f19190613170565b50505050505050565b6000610a06600361206d565b905090565b610a1c610a16611f3f565b82611fc9565b610a575760405162461bcd60e51b8152600401808060200182810382526031815260200180613a976031913960400191505060405180910390fd5b610918838383612078565b83610a6d3382611fc9565b610a895760405162461bcd60e51b81526004016108229061361e565b6000858152600d602052604090819020600281015491517f0430c13000000000000000000000000000000000000000000000000000000000815290916001600160a01b031690630430c13090610ae79088908890889060040161377c565b600060405180830381600087803b158015610b0157600080fd5b505af1158015610b15573d6000803e3d6000fd5b50505050505050505050565b60125481565b6001600160a01b0382166000908152600260205260408120610b4990836121c4565b90505b92915050565b6010546001600160a01b031681565b6109188383836040518060200160405280600081525061161b565b60105460009081906001600160a01b03163314610bab5760405162461bcd60e51b815260040161082290613655565b60026000541415610c03576040805162461bcd60e51b815260206004820152601f60248201527f5265656e7472616e637947756172643a207265656e7472616e742063616c6c00604482015290519081900360640190fd5b60026000908155604051610c1d908990899060200161339a565b60408051601f1981840301815291815281516020928301206000818152600c9093529120805491925090871115610c665760405162461bcd60e51b8152600401610822906135e7565b6000888152600d602052604090819020600281015460105492517fd473a65400000000000000000000000000000000000000000000000000000000815291926001600160a01b039182169263d473a65492610cce928f928e928e928e929116906004016137b1565b608060405180830381600087803b158015610ce857600080fd5b505af1158015610cfc573d6000803e3d6000fd5b505050506040513d601f19601f82011682018060405250810190610d20919061327d565b6000878152600c60205260409020549198509650610d4192509050896121d0565b9091555050600160005590969095509350505050565b600e546001600160a01b03163314610d815760405162461bcd60e51b815260040161082290613542565b601255565b600e546001600160a01b031681565b82610da03382611fc9565b610dbc5760405162461bcd60e51b81526004016108229061361e565b6000848152600d602052604090819020600281015491517f5a64998b00000000000000000000000000000000000000000000000000000000815290916001600160a01b031690635a64998b90610e1890879087906004016134e4565b600060405180830381600087803b158015610e3257600080fd5b505af1158015610e46573d6000803e3d6000fd5b505050505050505050565b600080610e5f60038461222d565b509392505050565b600c6020526000908152604090205481565b81610e843382611fc9565b610ea05760405162461bcd60e51b81526004016108229061361e565b6000838152600d602052604090819020600281015491517f2106fa4600000000000000000000000000000000000000000000000000000000815290916001600160a01b031690632106fa4690610efa9086906004016134db565b6040805180830381600087803b158015610f1357600080fd5b505af1158015610f27573d6000803e3d6000fd5b505050506040513d601f19601f82011682018060405250810190610f4b9190613170565b505050505050565b6000610b4c82604051806060016040528060298152602001613a02602991396003919061224b565b606090565b60006001600160a01b038216610fc75760405162461bcd60e51b815260040180806020018281038252602a8152602001806139d8602a913960400191505060405180910390fd5b6001600160a01b0382166000908152600260205260409020610b4c9061206d565b6000808383600033604051602001611000919061335a565b604051602081830303815290604052805190602001209050611059838380806020026020016040519081016040528093929190818152602001838360200280828437600092019190915250506012549150849050612262565b6110755760405162461bcd60e51b81526004016108229061350b565b600f546000906001600160a01b0316631698ee8261109960408c0160208d01612cd3565b6110a960608d0160408e01612cd3565b6110b960808e0160608f01613062565b6040518463ffffffff1660e01b81526004016110d79392919061342a565b60206040518083038186803b1580156110ef57600080fd5b505afa158015611103573d6000803e3d6000fd5b505050506040513d601f19601f820116820180604052508101906111279190612cef565b90506001600160a01b03811661114f5760405162461bcd60e51b8152600401610822906135b0565b6011546040517f58b4b7110000000000000000000000000000000000000000000000000000000081526001600160a01b03909116906358b4b711906111a0908490309060808f0135906004016133bc565b602060405180830381600087803b1580156111ba57600080fd5b505af11580156111ce573d6000803e3d6000fd5b505050506040513d601f19601f820116820180604052508101906111f29190612cef565b945061125961120460208b018b612cd3565b600b80547fffffffffffffffffffff000000000000000000000000000000000000000000008116600175ffffffffffffffffffffffffffffffffffffffffffff9283169081019092161790915597508761230b565b60408051606081019091528061127260208c018c612cd3565b6001600160a01b03908116825283811660208084019190915288821660409384015260008a8152600d8252839020845181549084167fffffffffffffffffffffffff000000000000000000000000000000000000000091821617825591850151600182018054918516918416919091179055938301516002909401805494909216931692909217909155517ff03c0794e29ab9041701d90faa819fd394c96b5d374215f11d7dd03839606d5e906113349088908490899060808f013590613737565b60405180910390a150505050935093915050565b600f546001600160a01b031681565b60088054604080516020601f60026000196101006001881615020190951694909404938401819004810282018101909252828152606093909290918301828280156107f15780601f106107c6576101008083540402835291602001916107f1565b6113c0611f3f565b6001600160a01b0316826001600160a01b03161415611426576040805162461bcd60e51b815260206004820152601960248201527f4552433732313a20617070726f766520746f2063616c6c657200000000000000604482015290519081900360640190fd5b8060066000611433611f3f565b6001600160a01b0390811682526020808301939093526040918201600090812091871680825291909352912080547fffffffffffffffffffffffffffffffffffffffffffffffffffffffffffffff001692151592909217909155611495611f3f565b6001600160a01b03167f17307eab39ab6107e8899845ad3d59bd9653f200f220920489ca2b5937696c318360405180821515815260200191505060405180910390a35050565b60608167ffffffffffffffff811180156114f457600080fd5b5060405190808252806020026020018201604052801561152857816020015b60608152602001906001900390816115135790505b50905060005b82811015611614576000803086868581811061154657fe5b90506020028101906115589190613800565b60405161156692919061338a565b600060405180830381855af49150503d80600081146115a1576040519150601f19603f3d011682016040523d82523d6000602084013e6115a6565b606091505b5091509150816115f2576044815110156115bf57600080fd5b600481019050808060200190518101906115d99190612f97565b60405162461bcd60e51b815260040161082291906134f8565b808484815181106115ff57fe5b6020908102919091010152505060010161152e565b5092915050565b61162c611626611f3f565b83611fc9565b6116675760405162461bcd60e51b8152600401808060200182810382526031815260200180613a976031913960400191505060405180910390fd5b61167384848484612439565b50505050565b6000818152600d60205260408120819081908190819081908190819061169e8a611f32565b6116ba5760405162461bcd60e51b8152600401610822906136e9565b60028101546001600160a01b03166116d18b610f53565b825460018401546002850154604080517feae989a200000000000000000000000000000000000000000000000000000000815290516001600160a01b0394851694938416939283169287169163eae989a2916004808301926020929190829003018186803b15801561174257600080fd5b505afa158015611756573d6000803e3d6000fd5b505050506040513d601f19601f8201168201806040525081019061177a9190613085565b856001600160a01b031663a00fa77f6040518163ffffffff1660e01b815260040160206040518083038186803b1580156117b357600080fd5b505afa1580156117c7573d6000803e3d6000fd5b505050506040513d601f19601f820116820180604052508101906117eb9190613085565b866001600160a01b031663b0e21e8a6040518163ffffffff1660e01b815260040160206040518083038186803b15801561182457600080fd5b505afa158015611838573d6000803e3d6000fd5b505050506040513d601f19601f8201168201806040525081019061185c9190613085565b876001600160a01b03166318160ddd6040518163ffffffff1660e01b815260040160206040518083038186803b15801561189557600080fd5b505afa1580156118a9573d6000803e3d6000fd5b505050506040513d601f19601f820116820180604052508101906118cd9190613085565b995099509950995099509950995099505050919395975091939597565b836118f53382611fc9565b6119115760405162461bcd60e51b81526004016108229061361e565b6000858152600d602052604090819020600281015491517f9d9d75be00000000000000000000000000000000000000000000000000000000815290916001600160a01b031690639d9d75be90610ae79088908890889060040161379b565b606061197a82611f32565b61198357600080fd5b505060408051602081019091526000815290565b6011546001600160a01b031681565b846119b13382611fc9565b6119cd5760405162461bcd60e51b81526004016108229061361e565b6000868152600d60205260408120905b85811015611a995760028201546001600160a01b031663db4dcce4888884818110611a0457fe5b611a1a9260206040909202019081019150612f7d565b898985818110611a2657fe5b9050604002016020016020810190611a3e9190612f7d565b6040518363ffffffff1660e01b8152600401611a5b9291906134e4565b600060405180830381600087803b158015611a7557600080fd5b505af1158015611a89573d6000803e3d6000fd5b5050600190920191506119dd9050565b5060005b83811015611b595760028201546001600160a01b0316635a64998b868684818110611ac457fe5b611ada9260206040909202019081019150612f7d565b878785818110611ae657fe5b9050604002016020016020810190611afe9190612f7d565b6040518363ffffffff1660e01b8152600401611b1b9291906134e4565b600060405180830381600087803b158015611b3557600080fd5b505af1158015611b49573d6000803e3d6000fd5b505060019092019150611a9d9050565b5050505050505050565b82611b6e3382611fc9565b611b8a5760405162461bcd60e51b81526004016108229061361e565b6000848152600d602052604090819020600281015491517fdb4dcce400000000000000000000000000000000000000000000000000000000815290916001600160a01b03169063db4dcce490610e1890879087906004016134e4565b6001600160a01b03918216600090815260066020908152604080832093909416825291909152205460ff1690565b601054600090819081906001600160a01b03163314611c455760405162461bcd60e51b815260040161082290613655565b6013889055600054889060021415611ca4576040805162461bcd60e51b815260206004820152601f60248201527f5265656e7472616e637947756172643a207265656e7472616e742063616c6c00604482015290519081900360640190fd5b600260008181558a8152600d6020526040908190209182015490517fbf02b5ea0000000000000000000000000000000000000000000000000000000081526001600160a01b039091169063bf02b5ea90611d0a908e908d908d908d908d906004016137dd565b606060405180830381600087803b158015611d2457600080fd5b505af1158015611d38573d6000803e3d6000fd5b505050506040513d601f19601f82011682018060405250810190611d5c91906131df565b6040519297509095509350600090611d7a908d908d9060200161339a565b60408051601f1981840301815291815281516020928301206000818152600c909352912054909150611dac908761248b565b6000918252600c6020526040822055600181556013555092999198509650945050505050565b611ddb336124e5565b8215611e84576010546040517f23b872dd0000000000000000000000000000000000000000000000000000000081526001600160a01b03868116926323b872dd92611e309290911690339088906004016133bc565b602060405180830381600087803b158015611e4a57600080fd5b505af1158015611e5e573d6000803e3d6000fd5b505050506040513d601f19601f82011682018060405250810190611e829190612ec2565b505b8015611673576010546040517f23b872dd0000000000000000000000000000000000000000000000000000000081526001600160a01b03848116926323b872dd92611ed99290911690339086906004016133bc565b602060405180830381600087803b158015611ef357600080fd5b505af1158015611f07573d6000803e3d6000fd5b505050506040513d601f19601f82011682018060405250810190611f2b9190612ec2565b5050505050565b6000610b4c600383612529565b3390565b6000818152600d6020526040902080547fffffffffffffffffffffffff0000000000000000000000000000000000000000166001600160a01b0384169081179091558190611f9082610f53565b6001600160a01b03167f8c5be1e5ebec7d5bd14f71427d1e84f3dd0314c0f7b2291e5b200ac8c7c3b92560405160405180910390a45050565b6000611fd482611f32565b61200f5760405162461bcd60e51b815260040180806020018281038252602c815260200180613974602c913960400191505060405180910390fd5b600061201a83610f53565b9050806001600160a01b0316846001600160a01b031614806120555750836001600160a01b031661204a846107fb565b6001600160a01b0316145b8061206557506120658185611be6565b949350505050565b6000610b4c82612535565b826001600160a01b031661208b82610f53565b6001600160a01b0316146120d05760405162461bcd60e51b8152600401808060200182810382526029815260200180613a4d6029913960400191505060405180910390fd5b6001600160a01b0382166121155760405162461bcd60e51b81526004018080602001828103825260248152602001806139506024913960400191505060405180910390fd5b612120838383610918565b61212b600082611f43565b6001600160a01b038316600090815260026020526040902061214d9082612539565b506001600160a01b03821660009081526002602052604090206121709082612545565b5061217d60038284612551565b5080826001600160a01b0316846001600160a01b03167fddf252ad1be2c89b69c2b068fc378daa952ba7f163c4a11628f55a4df523b3ef60405160405180910390a4505050565b6000610b498383612567565b600082821115612227576040805162461bcd60e51b815260206004820152601e60248201527f536166654d6174683a207375627472616374696f6e206f766572666c6f770000604482015290519081900360640190fd5b50900390565b600080808061223c86866125cb565b909450925050505b9250929050565b6000612258848484612646565b90505b9392505050565b600081815b855181101561230057600086828151811061227e57fe5b602002602001015190508083116122c557828160405160200180838152602001828152602001925050506040516020818303038152906040528051906020012092506122f7565b808360405160200180838152602001828152602001925050506040516020818303038152906040528051906020012092505b50600101612267565b509092149392505050565b6001600160a01b038216612366576040805162461bcd60e51b815260206004820181905260248201527f4552433732313a206d696e7420746f20746865207a65726f2061646472657373604482015290519081900360640190fd5b61236f81611f32565b156123c1576040805162461bcd60e51b815260206004820152601c60248201527f4552433732313a20746f6b656e20616c7265616479206d696e74656400000000604482015290519081900360640190fd5b6123cd60008383610918565b6001600160a01b03821660009081526002602052604090206123ef9082612545565b506123fc60038284612551565b5060405181906001600160a01b038416906000907fddf252ad1be2c89b69c2b068fc378daa952ba7f163c4a11628f55a4df523b3ef908290a45050565b612444848484612078565b61245084848484612710565b6116735760405162461bcd60e51b815260040180806020018281038252603281526020018061391e6032913960400191505060405180910390fd5b600082820183811015610b49576040805162461bcd60e51b815260206004820152601b60248201527f536166654d6174683a206164646974696f6e206f766572666c6f770000000000604482015290519081900360640190fd5b6013546000908152600d6020526040902060028101546001600160a01b038381169116146125255760405162461bcd60e51b815260040161082290613579565b5050565b6000610b4983836128ec565b5490565b6000610b498383612904565b6000610b4983836129ca565b600061225884846001600160a01b038516612a14565b815460009082106125a95760405162461bcd60e51b81526004018080602001828103825260228152602001806138fc6022913960400191505060405180910390fd5b8260000182815481106125b857fe5b9060005260206000200154905092915050565b81546000908190831061260f5760405162461bcd60e51b8152600401808060200182810382526022815260200180613a2b6022913960400191505060405180910390fd5b600084600001848154811061262057fe5b906000526020600020906002020190508060000154816001015492509250509250929050565b600082815260018401602052604081205482816126e15760405162461bcd60e51b81526004018080602001828103825283818151815260200191508051906020019080838360005b838110156126a657818101518382015260200161268e565b50505050905090810190601f1680156126d35780820380516001836020036101000a031916815260200191505b509250505060405180910390fd5b508460000160018203815481106126f457fe5b9060005260206000209060020201600101549150509392505050565b6000612724846001600160a01b0316612aab565b61273057506001612065565b60006128817f150b7a020000000000000000000000000000000000000000000000000000000061275e611f3f565b88878760405160240180856001600160a01b03168152602001846001600160a01b0316815260200183815260200180602001828103825283818151815260200191508051906020019080838360005b838110156127c55781810151838201526020016127ad565b50505050905090810190601f1680156127f25780820380516001836020036101000a031916815260200191505b5095505050505050604051602081830303815290604052907bffffffffffffffffffffffffffffffffffffffffffffffffffffffff19166020820180517bffffffffffffffffffffffffffffffffffffffffffffffffffffffff838183161783525050505060405180606001604052806032815260200161391e603291396001600160a01b0388169190612ab1565b9050600081806020019051602081101561289a57600080fd5b50517fffffffff00000000000000000000000000000000000000000000000000000000167f150b7a02000000000000000000000000000000000000000000000000000000001492505050949350505050565b60009081526001919091016020526040902054151590565b600081815260018301602052604081205480156129c0578354600019808301919081019060009087908390811061293757fe5b906000526020600020015490508087600001848154811061295457fe5b60009182526020808320909101929092558281526001898101909252604090209084019055865487908061298457fe5b60019003818190600052602060002001600090559055866001016000878152602001908152602001600020600090556001945050505050610b4c565b6000915050610b4c565b60006129d683836128ec565b612a0c57508154600181810184556000848152602080822090930184905584548482528286019093526040902091909155610b4c565b506000610b4c565b600082815260018401602052604081205480612a7957505060408051808201825283815260208082018481528654600181810189556000898152848120955160029093029095019182559151908201558654868452818801909252929091205561225b565b82856000016001830381548110612a8c57fe5b906000526020600020906002020160010181905550600091505061225b565b3b151590565b6060612258848460008585612ac585612aab565b612b16576040805162461bcd60e51b815260206004820152601d60248201527f416464726573733a2063616c6c20746f206e6f6e2d636f6e7472616374000000604482015290519081900360640190fd5b600080866001600160a01b031685876040518082805190602001908083835b60208310612b545780518252601f199092019160209182019101612b35565b6001836020036101000a03801982511681845116808217855250505050505090500191505060006040518083038185875af1925050503d8060008114612bb6576040519150601f19603f3d011682016040523d82523d6000602084013e612bbb565b606091505b5091509150612bcb828286612bd6565b979650505050505050565b60608315612be557508161225b565b825115612bf55782518084602001fd5b60405162461bcd60e51b81526020600482018181528451602484015284518593919283926044019190850190808383600083156126a657818101518382015260200161268e565b60008083601f840112612c4d578182fd5b50813567ffffffffffffffff811115612c64578182fd5b602083019150836020808302850101111561224457600080fd5b60008083601f840112612c8f578182fd5b50813567ffffffffffffffff811115612ca6578182fd5b60208301915083602060408302850101111561224457600080fd5b8035600281900b811461076057600080fd5b600060208284031215612ce4578081fd5b8135610b49816138d5565b600060208284031215612d00578081fd5b8151610b49816138d5565b60008060408385031215612d1d578081fd5b8235612d28816138d5565b91506020830135612d38816138d5565b809150509250929050565b600080600060608486031215612d57578081fd5b8335612d62816138d5565b92506020840135612d72816138d5565b929592945050506040919091013590565b60008060008060808587031215612d98578081fd5b8435612da3816138d5565b93506020850135612db3816138d5565b925060408501359150606085013567ffffffffffffffff811115612dd5578182fd5b8501601f81018713612de5578182fd5b8035612df8612df382613887565b613863565b818152886020838501011115612e0c578384fd5b81602084016020830137908101602001929092525092959194509250565b60008060408385031215612e3c578182fd5b8235612e47816138d5565b91506020830135612d38816138ed565b60008060408385031215612e69578182fd5b8235612e74816138d5565b946020939093013593505050565b60008060208385031215612e94578182fd5b823567ffffffffffffffff811115612eaa578283fd5b612eb685828601612c3c565b90969095509350505050565b600060208284031215612ed3578081fd5b8151610b49816138ed565b600060208284031215612eef578081fd5b5035919050565b600060208284031215612f07578081fd5b81357fffffffff0000000000000000000000000000000000000000000000000000000081168114610b49578182fd5b60008060008060808587031215612f4b578182fd5b8435612f56816138d5565b9350602085013592506040850135612f6d816138d5565b9396929550929360600135925050565b600060208284031215612f8e578081fd5b610b4982612cc1565b600060208284031215612fa8578081fd5b815167ffffffffffffffff811115612fbe578182fd5b8201601f81018413612fce578182fd5b8051612fdc612df382613887565b818152856020838501011115612ff0578384fd5b6130018260208301602086016138a9565b95945050505050565b600080600083850360c081121561301f578182fd5b60a081121561302c578182fd5b5083925060a084013567ffffffffffffffff811115613049578182fd5b61305586828701612c3c565b9497909650939450505050565b600060208284031215613073578081fd5b813562ffffff81168114610b49578182fd5b600060208284031215613096578081fd5b5051919050565b6000806000806000606086880312156130b4578283fd5b85359450602086013567ffffffffffffffff808211156130d2578485fd5b6130de89838a01612c7e565b909650945060408801359150808211156130f6578283fd5b5061310388828901612c7e565b969995985093965092949392505050565b600080600060608486031215613128578081fd5b8335925061313860208501612cc1565b915061314660408501612cc1565b90509250925092565b60008060408385031215613161578182fd5b50508035926020909101359150565b60008060408385031215613182578182fd5b505080516020909101519092909150565b6000806000606084860312156131a7578081fd5b833592506020840135915060408401356fffffffffffffffffffffffffffffffff811681146131d4578182fd5b809150509250925092565b6000806000606084860312156131f3578081fd5b8351925060208401519150604084015190509250925092565b60008060008060808587031215613221578182fd5b8435935060208501359250604085013591506060850135613241816138d5565b939692955090935050565b60008060008060808587031215613261578182fd5b5050823594602084013594506040840135936060013592509050565b60008060008060808587031215613292578182fd5b505082516020840151604085015160609095015191969095509092509050565b600080600080600060a086880312156132c9578283fd5b505083359560208501359550604085013594606081013594506080013592509050565b60008060008060008060c08789031215613304578384fd5b505084359660208601359650604086013595606081013595506080810135945060a0013592509050565b600081518084526133468160208601602086016138a9565b601f01601f19169290920160200192915050565b60609190911b7fffffffffffffffffffffffffffffffffffffffff00000000000000000000000016815260140190565b6000828483379101908152919050565b918252602082015260400190565b6001600160a01b0391909116815260200190565b6001600160a01b039384168152919092166020820152604081019190915260600190565b6001600160a01b03988916815296881660208801529487166040870152929095166060850152608084015260a083019390935260c082019290925260e08101919091526101000190565b6001600160a01b03938416815291909216602082015262ffffff909116604082015260600190565b6000602080830181845280855180835260408601915060408482028701019250838701855b828110156134c3577fffffffffffffffffffffffffffffffffffffffffffffffffffffffffffffffc08886030184526134b185835161332e565b94509285019290850190600101613477565b5092979650505050505050565b901515815260200190565b90815260200190565b600292830b8152910b602082015260400190565b600060208252610b49602083018461332e565b60208082526009908201527f6f6e6c7920676f76730000000000000000000000000000000000000000000000604082015260600190565b60208082526007908201527f6d616e6167657200000000000000000000000000000000000000000000000000604082015260600190565b6020808252600d908201527f63616c6c6261636b206661696c00000000000000000000000000000000000000604082015260600190565b60208082526011908201527f4e6f6e2d6578697374656e7420706f6f6c000000000000000000000000000000604082015260600190565b60208082526001908201527f7300000000000000000000000000000000000000000000000000000000000000604082015260600190565b6020808252600c908201527f4e6f7420617070726f7665640000000000000000000000000000000000000000604082015260600190565b60208082526001908201527f7900000000000000000000000000000000000000000000000000000000000000604082015260600190565b6020808252602c908201527f4552433732313a20617070726f76656420717565727920666f72206e6f6e657860408201527f697374656e7420746f6b656e0000000000000000000000000000000000000000606082015260800190565b60208082526010908201527f496e76616c696420746f6b656e20494400000000000000000000000000000000604082015260600190565b9182526001600160a01b0316602082015260400190565b9384526001600160a01b03928316602085015291166040830152606082015260800190565b9182526fffffffffffffffffffffffffffffffff16602082015260400190565b92835260208301919091526001600160a01b0316604082015260600190565b9283526020830191909152604082015260600190565b9485526020850193909352604084019190915260608301526001600160a01b0316608082015260a00190565b948552602085019390935260408401919091526060830152608082015260a00190565b60008083357fffffffffffffffffffffffffffffffffffffffffffffffffffffffffffffffe1843603018112613834578283fd5b83018035915067ffffffffffffffff82111561384e578283fd5b60200191503681900382131561224457600080fd5b60405181810167ffffffffffffffff8111828210171561387f57fe5b604052919050565b600067ffffffffffffffff82111561389b57fe5b50601f01601f191660200190565b60005b838110156138c45781810151838201526020016138ac565b838111156116735750506000910152565b6001600160a01b03811681146138ea57600080fd5b50565b80151581146138ea57600080fdfe456e756d657261626c655365743a20696e646578206f7574206f6620626f756e64734552433732313a207472616e7366657220746f206e6f6e20455243373231526563656976657220696d706c656d656e7465724552433732313a207472616e7366657220746f20746865207a65726f20616464726573734552433732313a206f70657261746f7220717565727920666f72206e6f6e6578697374656e7420746f6b656e4552433732313a20617070726f76652063616c6c6572206973206e6f74206f776e6572206e6f7220617070726f76656420666f7220616c6c4552433732313a2062616c616e636520717565727920666f7220746865207a65726f20616464726573734552433732313a206f776e657220717565727920666f72206e6f6e6578697374656e7420746f6b656e456e756d657261626c654d61703a20696e646578206f7574206f6620626f756e64734552433732313a207472616e73666572206f6620746f6b656e2074686174206973206e6f74206f776e4552433732313a20617070726f76616c20746f2063757272656e74206f776e65724552433732313a207472616e736665722063616c6c6572206973206e6f74206f776e6572206e6f7220617070726f766564a164736f6c6343000706000a59494e277320556e697377617020563320506f736974696f6e73204d616e61676572",
  "linkReferences": {},
  "deployedLinkReferences": {}
}