{
  "_format": "hh-sol-artifact-1",
  "contractName": "CHIManager",
  "sourceName": "contracts/CHIManager.sol",
  "abi": [
    {
      "anonymous": false,
      "inputs": [
        {
          "indexed": true,
          "internalType": "address",
          "name": "owner",
          "type": "address"
        },
        {
          "indexed": true,
          "internalType": "address",
          "name": "approved",
          "type": "address"
        },
        {
          "indexed": true,
          "internalType": "uint256",
          "name": "tokenId",
          "type": "uint256"
        }
      ],
      "name": "Approval",
      "type": "event"
    },
    {
      "anonymous": false,
      "inputs": [
        {
          "indexed": true,
          "internalType": "address",
          "name": "owner",
          "type": "address"
        },
        {
          "indexed": true,
          "internalType": "address",
          "name": "operator",
          "type": "address"
        },
        {
          "indexed": false,
          "internalType": "bool",
          "name": "approved",
          "type": "bool"
        }
      ],
      "name": "ApprovalForAll",
      "type": "event"
    },
    {
      "anonymous": false,
      "inputs": [
        {
          "indexed": false,
          "internalType": "uint256",
          "name": "tokenId",
          "type": "uint256"
        },
        {
          "indexed": false,
          "internalType": "address",
          "name": "pool",
          "type": "address"
        },
        {
          "indexed": false,
          "internalType": "address",
          "name": "vault",
          "type": "address"
        },
        {
          "indexed": false,
          "internalType": "uint256",
          "name": "vaultFee",
          "type": "uint256"
        }
      ],
      "name": "Create",
      "type": "event"
    },
    {
      "anonymous": false,
      "inputs": [
        {
          "indexed": true,
          "internalType": "address",
          "name": "from",
          "type": "address"
        },
        {
          "indexed": true,
          "internalType": "address",
          "name": "to",
          "type": "address"
        },
        {
          "indexed": true,
          "internalType": "uint256",
          "name": "tokenId",
          "type": "uint256"
        }
      ],
      "name": "Transfer",
      "type": "event"
    },
    {
      "inputs": [
        {
          "internalType": "contract IERC20",
          "name": "token0",
          "type": "address"
        },
        {
          "internalType": "uint256",
          "name": "amount0",
          "type": "uint256"
        },
        {
          "internalType": "contract IERC20",
          "name": "token1",
          "type": "address"
        },
        {
          "internalType": "uint256",
          "name": "amount1",
          "type": "uint256"
        }
      ],
      "name": "CHIDepositCallback",
      "outputs": [],
      "stateMutability": "nonpayable",
      "type": "function"
    },
    {
      "inputs": [
        {
          "internalType": "uint256",
          "name": "tokenId",
          "type": "uint256"
        },
        {
          "components": [
            {
              "internalType": "int24",
              "name": "tickLower",
              "type": "int24"
            },
            {
              "internalType": "int24",
              "name": "tickUpper",
              "type": "int24"
            }
          ],
          "internalType": "struct ICHIManager.RangeParams[]",
          "name": "addRanges",
          "type": "tuple[]"
        },
        {
          "components": [
            {
              "internalType": "int24",
              "name": "tickLower",
              "type": "int24"
            },
            {
              "internalType": "int24",
              "name": "tickUpper",
              "type": "int24"
            }
          ],
          "internalType": "struct ICHIManager.RangeParams[]",
          "name": "removeRanges",
          "type": "tuple[]"
        }
      ],
      "name": "addAndRemoveRanges",
      "outputs": [],
      "stateMutability": "nonpayable",
      "type": "function"
    },
    {
      "inputs": [
        {
          "internalType": "uint256",
          "name": "tokenId",
          "type": "uint256"
        },
        {
          "internalType": "uint256",
          "name": "rangeIndex",
          "type": "uint256"
        },
        {
          "internalType": "uint256",
          "name": "amount0Desired",
          "type": "uint256"
        },
        {
          "internalType": "uint256",
          "name": "amount1Desired",
          "type": "uint256"
        }
      ],
      "name": "addLiquidityToPosition",
      "outputs": [],
      "stateMutability": "nonpayable",
      "type": "function"
    },
    {
      "inputs": [
        {
          "internalType": "uint256",
          "name": "tokenId",
          "type": "uint256"
        },
        {
          "internalType": "int24",
          "name": "tickLower",
          "type": "int24"
        },
        {
          "internalType": "int24",
          "name": "tickUpper",
          "type": "int24"
        }
      ],
      "name": "addRange",
      "outputs": [],
      "stateMutability": "nonpayable",
      "type": "function"
    },
    {
      "inputs": [
        {
          "internalType": "address",
          "name": "to",
          "type": "address"
        },
        {
          "internalType": "uint256",
          "name": "tokenId",
          "type": "uint256"
        }
      ],
      "name": "approve",
      "outputs": [],
      "stateMutability": "nonpayable",
      "type": "function"
    },
    {
      "inputs": [
        {
          "internalType": "address",
          "name": "owner",
          "type": "address"
        }
      ],
      "name": "balanceOf",
      "outputs": [
        {
          "internalType": "uint256",
          "name": "",
          "type": "uint256"
        }
      ],
      "stateMutability": "view",
      "type": "function"
    },
    {
      "inputs": [],
      "name": "baseURI",
      "outputs": [
        {
          "internalType": "string",
          "name": "",
          "type": "string"
        }
      ],
      "stateMutability": "pure",
      "type": "function"
    },
    {
      "inputs": [
        {
          "internalType": "uint256",
          "name": "tokenId",
          "type": "uint256"
        }
      ],
      "name": "chi",
      "outputs": [
        {
          "internalType": "address",
          "name": "owner",
          "type": "address"
        },
        {
          "internalType": "address",
          "name": "operator",
          "type": "address"
        },
        {
          "internalType": "address",
          "name": "pool",
          "type": "address"
        },
        {
          "internalType": "address",
          "name": "vault",
          "type": "address"
        },
        {
          "internalType": "uint256",
          "name": "accruedProtocolFees0",
          "type": "uint256"
        },
        {
          "internalType": "uint256",
          "name": "accruedProtocolFees1",
          "type": "uint256"
        },
        {
          "internalType": "uint256",
          "name": "fee",
          "type": "uint256"
        },
        {
          "internalType": "uint256",
          "name": "totalShares",
          "type": "uint256"
        }
      ],
      "stateMutability": "view",
      "type": "function"
    },
    {
      "inputs": [
        {
          "internalType": "uint256",
          "name": "tokenId",
          "type": "uint256"
        },
        {
          "internalType": "uint256",
          "name": "amount0",
          "type": "uint256"
        },
        {
          "internalType": "uint256",
          "name": "amount1",
          "type": "uint256"
        },
        {
          "internalType": "address",
          "name": "to",
          "type": "address"
        }
      ],
      "name": "collectProtocol",
      "outputs": [],
      "stateMutability": "nonpayable",
      "type": "function"
    },
    {
      "inputs": [],
      "name": "deployer",
      "outputs": [
        {
          "internalType": "address",
          "name": "",
          "type": "address"
        }
      ],
      "stateMutability": "view",
      "type": "function"
    },
    {
      "inputs": [
        {
          "internalType": "uint256",
          "name": "tokenId",
          "type": "uint256"
        }
      ],
      "name": "getApproved",
      "outputs": [
        {
          "internalType": "address",
          "name": "",
          "type": "address"
        }
      ],
      "stateMutability": "view",
      "type": "function"
    },
    {
      "inputs": [
        {
          "internalType": "uint176",
          "name": "_initId",
          "type": "uint176"
        },
        {
          "internalType": "address",
          "name": "_v3Factory",
          "type": "address"
        },
        {
          "internalType": "address",
          "name": "_yangNFT",
          "type": "address"
        },
        {
          "internalType": "address",
          "name": "_deployer",
          "type": "address"
        },
        {
          "internalType": "bytes32",
          "name": "_merkleRoot",
          "type": "bytes32"
        }
      ],
      "name": "initialize",
      "outputs": [],
      "stateMutability": "nonpayable",
      "type": "function"
    },
    {
      "inputs": [
        {
          "internalType": "address",
          "name": "owner",
          "type": "address"
        },
        {
          "internalType": "address",
          "name": "operator",
          "type": "address"
        }
      ],
      "name": "isApprovedForAll",
      "outputs": [
        {
          "internalType": "bool",
          "name": "",
          "type": "bool"
        }
      ],
      "stateMutability": "view",
      "type": "function"
    },
    {
      "inputs": [],
      "name": "manager",
      "outputs": [
        {
          "internalType": "address",
          "name": "",
          "type": "address"
        }
      ],
      "stateMutability": "view",
      "type": "function"
    },
    {
      "inputs": [],
      "name": "merkleRoot",
      "outputs": [
        {
          "internalType": "bytes32",
          "name": "",
          "type": "bytes32"
        }
      ],
      "stateMutability": "view",
      "type": "function"
    },
    {
      "inputs": [
        {
          "components": [
            {
              "internalType": "address",
              "name": "recipient",
              "type": "address"
            },
            {
              "internalType": "address",
              "name": "token0",
              "type": "address"
            },
            {
              "internalType": "address",
              "name": "token1",
              "type": "address"
            },
            {
              "internalType": "uint24",
              "name": "fee",
              "type": "uint24"
            },
            {
              "internalType": "uint256",
              "name": "vaultFee",
              "type": "uint256"
            }
          ],
          "internalType": "struct ICHIManager.MintParams",
          "name": "params",
          "type": "tuple"
        },
        {
          "internalType": "bytes32[]",
          "name": "merkleProof",
          "type": "bytes32[]"
        }
      ],
      "name": "mint",
      "outputs": [
        {
          "internalType": "uint256",
          "name": "tokenId",
          "type": "uint256"
        },
        {
          "internalType": "address",
          "name": "vault",
          "type": "address"
        }
      ],
      "stateMutability": "nonpayable",
      "type": "function"
    },
    {
      "inputs": [],
      "name": "name",
      "outputs": [
        {
          "internalType": "string",
          "name": "",
          "type": "string"
        }
      ],
      "stateMutability": "view",
      "type": "function"
    },
    {
      "inputs": [
        {
          "internalType": "uint256",
          "name": "tokenId",
          "type": "uint256"
        }
      ],
      "name": "ownerOf",
      "outputs": [
        {
          "internalType": "address",
          "name": "",
          "type": "address"
        }
      ],
      "stateMutability": "view",
      "type": "function"
    },
    {
      "inputs": [
        {
          "internalType": "bytes32",
          "name": "",
          "type": "bytes32"
        }
      ],
      "name": "positions",
      "outputs": [
        {
          "internalType": "uint256",
          "name": "shares",
          "type": "uint256"
        }
      ],
      "stateMutability": "view",
      "type": "function"
    },
    {
      "inputs": [
        {
          "internalType": "uint256",
          "name": "tokenId",
          "type": "uint256"
        },
        {
          "internalType": "uint256",
          "name": "rangeIndex",
          "type": "uint256"
        }
      ],
      "name": "removeAllLiquidityFromPosition",
      "outputs": [],
      "stateMutability": "nonpayable",
      "type": "function"
    },
    {
      "inputs": [
        {
          "internalType": "uint256",
          "name": "tokenId",
          "type": "uint256"
        },
        {
          "internalType": "uint256",
          "name": "rangeIndex",
          "type": "uint256"
        },
        {
          "internalType": "uint128",
          "name": "liquidity",
          "type": "uint128"
        }
      ],
      "name": "removeLiquidityFromPosition",
      "outputs": [],
      "stateMutability": "nonpayable",
      "type": "function"
    },
    {
      "inputs": [
        {
          "internalType": "uint256",
          "name": "tokenId",
          "type": "uint256"
        },
        {
          "internalType": "int24",
          "name": "tickLower",
          "type": "int24"
        },
        {
          "internalType": "int24",
          "name": "tickUpper",
          "type": "int24"
        }
      ],
      "name": "removeRange",
      "outputs": [],
      "stateMutability": "nonpayable",
      "type": "function"
    },
    {
      "inputs": [
        {
          "internalType": "address",
          "name": "from",
          "type": "address"
        },
        {
          "internalType": "address",
          "name": "to",
          "type": "address"
        },
        {
          "internalType": "uint256",
          "name": "tokenId",
          "type": "uint256"
        }
      ],
      "name": "safeTransferFrom",
      "outputs": [],
      "stateMutability": "nonpayable",
      "type": "function"
    },
    {
      "inputs": [
        {
          "internalType": "address",
          "name": "from",
          "type": "address"
        },
        {
          "internalType": "address",
          "name": "to",
          "type": "address"
        },
        {
          "internalType": "uint256",
          "name": "tokenId",
          "type": "uint256"
        },
        {
          "internalType": "bytes",
          "name": "_data",
          "type": "bytes"
        }
      ],
      "name": "safeTransferFrom",
      "outputs": [],
      "stateMutability": "nonpayable",
      "type": "function"
    },
    {
      "inputs": [
        {
          "internalType": "address",
          "name": "operator",
          "type": "address"
        },
        {
          "internalType": "bool",
          "name": "approved",
          "type": "bool"
        }
      ],
      "name": "setApprovalForAll",
      "outputs": [],
      "stateMutability": "nonpayable",
      "type": "function"
    },
    {
      "inputs": [
        {
          "internalType": "uint256",
          "name": "yangId",
          "type": "uint256"
        },
        {
          "internalType": "uint256",
          "name": "tokenId",
          "type": "uint256"
        },
        {
          "internalType": "uint256",
          "name": "amount0Desired",
          "type": "uint256"
        },
        {
          "internalType": "uint256",
          "name": "amount1Desired",
          "type": "uint256"
        },
        {
          "internalType": "uint256",
          "name": "amount0Min",
          "type": "uint256"
        },
        {
          "internalType": "uint256",
          "name": "amount1Min",
          "type": "uint256"
        }
      ],
      "name": "subscribe",
      "outputs": [
        {
          "internalType": "uint256",
          "name": "shares",
          "type": "uint256"
        },
        {
          "internalType": "uint256",
          "name": "amount0",
          "type": "uint256"
        },
        {
          "internalType": "uint256",
          "name": "amount1",
          "type": "uint256"
        }
      ],
      "stateMutability": "nonpayable",
      "type": "function"
    },
    {
      "inputs": [
        {
          "internalType": "bytes4",
          "name": "interfaceId",
          "type": "bytes4"
        }
      ],
      "name": "supportsInterface",
      "outputs": [
        {
          "internalType": "bool",
          "name": "",
          "type": "bool"
        }
      ],
      "stateMutability": "view",
      "type": "function"
    },
    {
      "inputs": [],
      "name": "symbol",
      "outputs": [
        {
          "internalType": "string",
          "name": "",
          "type": "string"
        }
      ],
      "stateMutability": "view",
      "type": "function"
    },
    {
      "inputs": [
        {
          "internalType": "uint256",
          "name": "index",
          "type": "uint256"
        }
      ],
      "name": "tokenByIndex",
      "outputs": [
        {
          "internalType": "uint256",
          "name": "",
          "type": "uint256"
        }
      ],
      "stateMutability": "view",
      "type": "function"
    },
    {
      "inputs": [
        {
          "internalType": "address",
          "name": "owner",
          "type": "address"
        },
        {
          "internalType": "uint256",
          "name": "index",
          "type": "uint256"
        }
      ],
      "name": "tokenOfOwnerByIndex",
      "outputs": [
        {
          "internalType": "uint256",
          "name": "",
          "type": "uint256"
        }
      ],
      "stateMutability": "view",
      "type": "function"
    },
    {
      "inputs": [
        {
          "internalType": "uint256",
          "name": "tokenId",
          "type": "uint256"
        }
      ],
      "name": "tokenURI",
      "outputs": [
        {
          "internalType": "string",
          "name": "",
          "type": "string"
        }
      ],
      "stateMutability": "view",
      "type": "function"
    },
    {
      "inputs": [],
      "name": "totalSupply",
      "outputs": [
        {
          "internalType": "uint256",
          "name": "",
          "type": "uint256"
        }
      ],
      "stateMutability": "view",
      "type": "function"
    },
    {
      "inputs": [
        {
          "internalType": "address",
          "name": "from",
          "type": "address"
        },
        {
          "internalType": "address",
          "name": "to",
          "type": "address"
        },
        {
          "internalType": "uint256",
          "name": "tokenId",
          "type": "uint256"
        }
      ],
      "name": "transferFrom",
      "outputs": [],
      "stateMutability": "nonpayable",
      "type": "function"
    },
    {
      "inputs": [
        {
          "internalType": "uint256",
          "name": "yangId",
          "type": "uint256"
        },
        {
          "internalType": "uint256",
          "name": "tokenId",
          "type": "uint256"
        },
        {
          "internalType": "uint256",
          "name": "shares",
          "type": "uint256"
        },
        {
          "internalType": "uint256",
          "name": "amount0Min",
          "type": "uint256"
        },
        {
          "internalType": "uint256",
          "name": "amount1Min",
          "type": "uint256"
        }
      ],
      "name": "unsubscribe",
      "outputs": [
        {
          "internalType": "uint256",
          "name": "amount0",
          "type": "uint256"
        },
        {
          "internalType": "uint256",
          "name": "amount1",
          "type": "uint256"
        }
      ],
      "stateMutability": "nonpayable",
      "type": "function"
    },
    {
      "inputs": [
        {
          "internalType": "bytes32",
          "name": "_merkleRoot",
          "type": "bytes32"
        }
      ],
      "name": "updateMerkleRoot",
      "outputs": [],
      "stateMutability": "nonpayable",
      "type": "function"
    },
    {
      "inputs": [],
      "name": "v3Factory",
      "outputs": [
        {
          "internalType": "address",
          "name": "",
          "type": "address"
        }
      ],
      "stateMutability": "view",
      "type": "function"
    },
    {
      "inputs": [],
      "name": "yangNFT",
      "outputs": [
        {
          "internalType": "address",
          "name": "",
          "type": "address"
        }
      ],
      "stateMutability": "view",
      "type": "function"
    }
  ],
  "bytecode": "0x608060405234801561001057600080fd5b50613c5d806100206000396000f3fe608060405234801561001057600080fd5b50600436106102775760003560e01c80635d87b6e411610160578063b88d4fde116100d8578063df84f84d1161008c578063e985e9c511610071578063e985e9c51461050e578063ec28fcac14610521578063ed1bbd0b1461054357610277565b8063df84f84d146104e8578063e2c3350e146104fb57610277565b8063c2108d1b116100bd578063c2108d1b146104ba578063c87b56dd146104cd578063d5f39488146104e057610277565b8063b88d4fde14610480578063b9decd661461049357610277565b806372405f0b1161012f57806393e4f7e61161011457806393e4f7e61461045257806395d89b4114610465578063a22cb4651461046d57610277565b806372405f0b146104295780637c887c591461044a57610277565b80635d87b6e4146103e85780636352211e146103fb5780636c0360eb1461040e57806370a082311461041657610277565b80632f745c59116101f35780634783f0ef116101c25780634b57512d116101a75780634b57512d146103af5780634f6ccce7146103c2578063514ea4bf146103d557610277565b80634783f0ef14610394578063481c6a75146103a757610277565b80632f745c59146103455780634259ab441461035857806342842e0e1461036057806346698e751461037357610277565b80630e082b741161024a57806323b872dd1161022f57806323b872dd1461031757806325f368ae1461032a5780632eb4a7ab1461033d57610277565b80630e082b74146102ef57806318160ddd1461030257610277565b806301ffc9a71461027c57806306fdde03146102a5578063081812fc146102ba578063095ea7b3146102da575b600080fd5b61028f61028a36600461319f565b610556565b60405161029c91906136c3565b60405180910390f35b6102ad610591565b60405161029c91906136eb565b6102cd6102c8366004613187565b610627565b60405161029c9190613619565b6102ed6102e8366004613140565b610673565b005b6102ed6102fd366004613475565b610749565b61030a610826565b60405161029c91906136ce565b6102ed61032536600461300f565b610837565b6102ed6103383660046134ee565b61088e565b61030a61094d565b61030a610353366004613140565b610953565b6102cd61097e565b6102ed61036e36600461300f565b61098d565b61038661038136600461355f565b6109a8565b60405161029c92919061360b565b6102ed6103a2366004613187565b610b7f565b6102cd610bae565b6102ed6103bd3660046133f6565b610bbd565b61030a6103d0366004613187565b610c79565b61030a6103e3366004613187565b610c8f565b6102ed6103f6366004613431565b610ca1565b6102cd610409366004613187565b610d7b565b6102ad610da3565b61030a610424366004612f9f565b610da8565b61043c610437366004613240565b610e10565b60405161029c929190613953565b6102cd611165565b6102ed6104603660046132c7565b611174565b6102ad611321565b6102ed61047b366004613113565b611382565b6102ed61048e36600461304f565b611487565b6104a66104a1366004613187565b6114e5565b60405161029c989796959493929190613651565b6102ed6104c836600461352e565b611756565b6102ad6104db366004613187565b6117db565b6102cd611803565b6102ed6104f636600461337f565b611812565b6102ed6105093660046133f6565b6119cf565b61028f61051c366004612fd7565b611a52565b61053461052f366004613599565b611a80565b60405161029c939291906139ce565b6102ed6105513660046131df565b611c40565b7fffffffff00000000000000000000000000000000000000000000000000000000811660009081526065602052604090205460ff165b919050565b609c8054604080516020601f600260001961010060018816150201909516949094049384018190048102820181019092528281526060939092909183018282801561061d5780601f106105f25761010080835404028352916020019161061d565b820191906000526020600020905b81548152906001019060200180831161060057829003601f168201915b5050505050905090565b600061063282611da0565b6106575760405162461bcd60e51b815260040161064e906138f6565b60405180910390fd5b50600090815260cb60205260409020546001600160a01b031690565b600061067e82610d7b565b9050806001600160a01b0316836001600160a01b031614156106d15760405162461bcd60e51b8152600401808060200182810382526021815260200180613bff6021913960400191505060405180910390fd5b806001600160a01b03166106e3611dad565b6001600160a01b031614806106ff57506106ff8161051c611dad565b61073a5760405162461bcd60e51b8152600401808060200182810382526038815260200180613afb6038913960400191505060405180910390fd5b6107448383611db1565b505050565b826107543382611e2c565b6107705760405162461bcd60e51b815260040161064e90613851565b600084815260cb602052604090819020600281015491517fd4da618500000000000000000000000000000000000000000000000000000000815290916001600160a01b03169063d4da6185906107cc908790879060040161398f565b6040805180830381600087803b1580156107e557600080fd5b505af11580156107f9573d6000803e3d6000fd5b505050506040513d601f19601f8201168201806040525081019061081d9190613452565b50505050505050565b60006108326098611ed0565b905090565b610848610842611dad565b82611e2c565b6108835760405162461bcd60e51b8152600401808060200182810382526031815260200180613c206031913960400191505060405180910390fd5b610744838383611edb565b836108993382611e2c565b6108b55760405162461bcd60e51b815260040161064e90613851565b600085815260cb602052604090819020600281015491517f0430c13000000000000000000000000000000000000000000000000000000000815290916001600160a01b031690630430c13090610913908890889088906004016139af565b600060405180830381600087803b15801561092d57600080fd5b505af1158015610941573d6000803e3d6000fd5b50505050505050505050565b60d05481565b6001600160a01b03821660009081526097602052604081206109759083612027565b90505b92915050565b60ce546001600160a01b031681565b61074483838360405180602001604052806000815250611487565b60ce5460009081906001600160a01b031633146109d75760405162461bcd60e51b815260040161064e90613888565b60026001541415610a2f576040805162461bcd60e51b815260206004820152601f60248201527f5265656e7472616e637947756172643a207265656e7472616e742063616c6c00604482015290519081900360640190fd5b6002600155604051600090610a4a908990899060200161360b565b60408051601f198184030181529181528151602092830120600081815260ca9093529120805491925090871115610a935760405162461bcd60e51b815260040161064e9061381a565b600088815260cb602052604090819020600281015460ce5492517fd473a65400000000000000000000000000000000000000000000000000000000815291926001600160a01b039182169263d473a65492610afb928f928e928e928e929116906004016139e4565b6040805180830381600087803b158015610b1457600080fd5b505af1158015610b28573d6000803e3d6000fd5b505050506040513d601f19601f82011682018060405250810190610b4c9190613452565b600085815260ca60205260409020549196509450610b6a9089612033565b90915550506001805590969095509350505050565b60cc546001600160a01b03163314610ba95760405162461bcd60e51b815260040161064e90613775565b60d055565b60cc546001600160a01b031681565b82610bc83382611e2c565b610be45760405162461bcd60e51b815260040161064e90613851565b600084815260cb602052604090819020600281015491517f5a64998b00000000000000000000000000000000000000000000000000000000815290916001600160a01b031690635a64998b90610c4090879087906004016136d7565b600060405180830381600087803b158015610c5a57600080fd5b505af1158015610c6e573d6000803e3d6000fd5b505050505050505050565b600080610c87609884612090565b509392505050565b60ca6020526000908152604090205481565b81610cac3382611e2c565b610cc85760405162461bcd60e51b815260040161064e90613851565b600083815260cb602052604090819020600281015491517f2106fa4600000000000000000000000000000000000000000000000000000000815290916001600160a01b031690632106fa4690610d229086906004016136ce565b6040805180830381600087803b158015610d3b57600080fd5b505af1158015610d4f573d6000803e3d6000fd5b505050506040513d601f19601f82011682018060405250810190610d739190613452565b505050505050565b600061097882604051806060016040528060298152602001613b5d60299139609891906120ae565b606090565b60006001600160a01b038216610def5760405162461bcd60e51b815260040180806020018281038252602a815260200180613b33602a913960400191505060405180910390fd5b6001600160a01b038216600090815260976020526040902061097890611ed0565b6000808383600033604051602001610e2891906135db565b604051602081830303815290604052805190602001209050610e818383808060200260200160405190810160405280939291908181526020018383602002808284376000920191909152505060d05491508490506120c5565b610e9d5760405162461bcd60e51b815260040161064e9061373e565b60cd546000906001600160a01b0316631698ee82610ec160408c0160208d01612f9f565b610ed160608d0160408e01612f9f565b610ee160808e0160608f01613344565b6040518463ffffffff1660e01b8152600401610eff9392919061369b565b60206040518083038186803b158015610f1757600080fd5b505afa158015610f2b573d6000803e3d6000fd5b505050506040513d601f19601f82011682018060405250810190610f4f9190612fbb565b90506001600160a01b038116610f775760405162461bcd60e51b815260040161064e906137e3565b60cf546040517f58b4b7110000000000000000000000000000000000000000000000000000000081526001600160a01b03909116906358b4b71190610fc8908490309060808f01359060040161362d565b602060405180830381600087803b158015610fe257600080fd5b505af1158015610ff6573d6000803e3d6000fd5b505050506040513d601f19601f8201168201806040525081019061101a9190612fbb565b945061108161102c60208b018b612f9f565b60c980547fffffffffffffffffffff000000000000000000000000000000000000000000008116600175ffffffffffffffffffffffffffffffffffffffffffff9283169081019092161790915597508761216e565b60408051606081019091528061109a60208c018c612f9f565b6001600160a01b03908116825283811660208084019190915288821660409384015260008a815260cb82528390208451815490841673ffffffffffffffffffffffffffffffffffffffff1991821617825591850151600182018054918516918416919091179055938301516002909401805494909216931692909217909155517ff03c0794e29ab9041701d90faa819fd394c96b5d374215f11d7dd03839606d5e906111519088908490899060808f01359061396a565b60405180910390a150505050935093915050565b60cd546001600160a01b031681565b600054610100900460ff168061118d575061118d61229c565b8061119b575060005460ff16155b6111d65760405162461bcd60e51b815260040180806020018281038252602e815260200180613b86602e913960400191505060405180910390fd5b600054610100900460ff16158015611201576000805460ff1961ff0019909116610100171660011790555b60cc80543373ffffffffffffffffffffffffffffffffffffffff199182161790915560cd805482166001600160a01b038881169190911790915560ce8054831687831617905560cf805490921690851617905560d082905560c980547fffffffffffffffffffff000000000000000000000000000000000000000000001675ffffffffffffffffffffffffffffffffffffffffffff881617905560408051808201825260208082527f59494e20556e697377617020563320506f736974696f6e73204d616e61676572818301528251808401909352600383527f434849000000000000000000000000000000000000000000000000000000000090830152611308916122ad565b8015610d73576000805461ff0019169055505050505050565b609d8054604080516020601f600260001961010060018816150201909516949094049384018190048102820181019092528281526060939092909183018282801561061d5780601f106105f25761010080835404028352916020019161061d565b61138a611dad565b6001600160a01b0316826001600160a01b031614156113f0576040805162461bcd60e51b815260206004820152601960248201527f4552433732313a20617070726f766520746f2063616c6c657200000000000000604482015290519081900360640190fd5b80609b60006113fd611dad565b6001600160a01b03908116825260208083019390935260409182016000908120918716808252919093529120805460ff191692151592909217909155611441611dad565b6001600160a01b03167f17307eab39ab6107e8899845ad3d59bd9653f200f220920489ca2b5937696c318360405180821515815260200191505060405180910390a35050565b611498611492611dad565b83611e2c565b6114d35760405162461bcd60e51b8152600401808060200182810382526031815260200180613c206031913960400191505060405180910390fd5b6114df8484848461236a565b50505050565b600081815260cb60205260408120819081908190819081908190819061150a8a611da0565b6115265760405162461bcd60e51b815260040161064e906138bf565b60028101546001600160a01b031661153d8b610d7b565b825460018401546002850154604080517feae989a200000000000000000000000000000000000000000000000000000000815290516001600160a01b0394851694938416939283169287169163eae989a2916004808301926020929190829003018186803b1580156115ae57600080fd5b505afa1580156115c2573d6000803e3d6000fd5b505050506040513d601f19601f820116820180604052508101906115e69190613367565b856001600160a01b031663a00fa77f6040518163ffffffff1660e01b815260040160206040518083038186803b15801561161f57600080fd5b505afa158015611633573d6000803e3d6000fd5b505050506040513d601f19601f820116820180604052508101906116579190613367565b866001600160a01b031663b0e21e8a6040518163ffffffff1660e01b815260040160206040518083038186803b15801561169057600080fd5b505afa1580156116a4573d6000803e3d6000fd5b505050506040513d601f19601f820116820180604052508101906116c89190613367565b876001600160a01b03166318160ddd6040518163ffffffff1660e01b815260040160206040518083038186803b15801561170157600080fd5b505afa158015611715573d6000803e3d6000fd5b505050506040513d601f19601f820116820180604052508101906117399190613367565b995099509950995099509950995099505050919395975091939597565b836117613382611e2c565b61177d5760405162461bcd60e51b815260040161064e90613851565b600085815260cb602052604090819020600281015491517f9d9d75be00000000000000000000000000000000000000000000000000000000815290916001600160a01b031690639d9d75be90610913908890889088906004016139ce565b60606117e682611da0565b6117ef57600080fd5b505060408051602081019091526000815290565b60cf546001600160a01b031681565b8461181d3382611e2c565b6118395760405162461bcd60e51b815260040161064e90613851565b600086815260cb60205260408120905b858110156119055760028201546001600160a01b031663db4dcce488888481811061187057fe5b6118869260206040909202019081019150613226565b89898581811061189257fe5b90506040020160200160208101906118aa9190613226565b6040518363ffffffff1660e01b81526004016118c79291906136d7565b600060405180830381600087803b1580156118e157600080fd5b505af11580156118f5573d6000803e3d6000fd5b5050600190920191506118499050565b5060005b838110156119c55760028201546001600160a01b0316635a64998b86868481811061193057fe5b6119469260206040909202019081019150613226565b87878581811061195257fe5b905060400201602001602081019061196a9190613226565b6040518363ffffffff1660e01b81526004016119879291906136d7565b600060405180830381600087803b1580156119a157600080fd5b505af11580156119b5573d6000803e3d6000fd5b5050600190920191506119099050565b5050505050505050565b826119da3382611e2c565b6119f65760405162461bcd60e51b815260040161064e90613851565b600084815260cb602052604090819020600281015491517fdb4dcce400000000000000000000000000000000000000000000000000000000815290916001600160a01b03169063db4dcce490610c4090879087906004016136d7565b6001600160a01b039182166000908152609b6020908152604080832093909416825291909152205460ff1690565b60ce54600090819081906001600160a01b03163314611ab15760405162461bcd60e51b815260040161064e90613888565b60d1889055600154889060021415611b10576040805162461bcd60e51b815260206004820152601f60248201527f5265656e7472616e637947756172643a207265656e7472616e742063616c6c00604482015290519081900360640190fd5b6002600181905560008a815260cb6020526040908190209182015490517fbf02b5ea0000000000000000000000000000000000000000000000000000000081526001600160a01b039091169063bf02b5ea90611b78908e908d908d908d908d90600401613a10565b606060405180830381600087803b158015611b9257600080fd5b505af1158015611ba6573d6000803e3d6000fd5b505050506040513d601f19601f82011682018060405250810190611bca91906134c1565b6040519297509095509350600090611be8908d908d9060200161360b565b60408051601f198184030181529181528151602092830120600081815260ca909352912054909150611c1a90876123bc565b600091825260ca60205260408220556001805560d1555092999198509650945050505050565b611c4933612416565b8215611cf25760ce546040517f23b872dd0000000000000000000000000000000000000000000000000000000081526001600160a01b03868116926323b872dd92611c9e92909116903390889060040161362d565b602060405180830381600087803b158015611cb857600080fd5b505af1158015611ccc573d6000803e3d6000fd5b505050506040513d601f19601f82011682018060405250810190611cf0919061316b565b505b80156114df5760ce546040517f23b872dd0000000000000000000000000000000000000000000000000000000081526001600160a01b03848116926323b872dd92611d4792909116903390869060040161362d565b602060405180830381600087803b158015611d6157600080fd5b505af1158015611d75573d6000803e3d6000fd5b505050506040513d601f19601f82011682018060405250810190611d99919061316b565b5050505050565b600061097860988361245a565b3390565b600081815260cb60205260409020805473ffffffffffffffffffffffffffffffffffffffff19166001600160a01b0384169081179091558190611df382610d7b565b6001600160a01b03167f8c5be1e5ebec7d5bd14f71427d1e84f3dd0314c0f7b2291e5b200ac8c7c3b92560405160405180910390a45050565b6000611e3782611da0565b611e725760405162461bcd60e51b815260040180806020018281038252602c815260200180613acf602c913960400191505060405180910390fd5b6000611e7d83610d7b565b9050806001600160a01b0316846001600160a01b03161480611eb85750836001600160a01b0316611ead84610627565b6001600160a01b0316145b80611ec85750611ec88185611a52565b949350505050565b600061097882612466565b826001600160a01b0316611eee82610d7b565b6001600160a01b031614611f335760405162461bcd60e51b8152600401808060200182810382526029815260200180613bd66029913960400191505060405180910390fd5b6001600160a01b038216611f785760405162461bcd60e51b8152600401808060200182810382526024815260200180613aab6024913960400191505060405180910390fd5b611f83838383610744565b611f8e600082611db1565b6001600160a01b0383166000908152609760205260409020611fb0908261246a565b506001600160a01b0382166000908152609760205260409020611fd39082612476565b50611fe060988284612482565b5080826001600160a01b0316846001600160a01b03167fddf252ad1be2c89b69c2b068fc378daa952ba7f163c4a11628f55a4df523b3ef60405160405180910390a4505050565b60006109758383612498565b60008282111561208a576040805162461bcd60e51b815260206004820152601e60248201527f536166654d6174683a207375627472616374696f6e206f766572666c6f770000604482015290519081900360640190fd5b50900390565b600080808061209f86866124fc565b909450925050505b9250929050565b60006120bb848484612577565b90505b9392505050565b600081815b85518110156121635760008682815181106120e157fe5b60200260200101519050808311612128578281604051602001808381526020018281526020019250505060405160208183030381529060405280519060200120925061215a565b808360405160200180838152602001828152602001925050506040516020818303038152906040528051906020012092505b506001016120ca565b509092149392505050565b6001600160a01b0382166121c9576040805162461bcd60e51b815260206004820181905260248201527f4552433732313a206d696e7420746f20746865207a65726f2061646472657373604482015290519081900360640190fd5b6121d281611da0565b15612224576040805162461bcd60e51b815260206004820152601c60248201527f4552433732313a20746f6b656e20616c7265616479206d696e74656400000000604482015290519081900360640190fd5b61223060008383610744565b6001600160a01b03821660009081526097602052604090206122529082612476565b5061225f60988284612482565b5060405181906001600160a01b038416906000907fddf252ad1be2c89b69c2b068fc378daa952ba7f163c4a11628f55a4df523b3ef908290a45050565b60006122a730612641565b15905090565b600054610100900460ff16806122c657506122c661229c565b806122d4575060005460ff16155b61230f5760405162461bcd60e51b815260040180806020018281038252602e815260200180613b86602e913960400191505060405180910390fd5b600054610100900460ff1615801561233a576000805460ff1961ff0019909116610100171660011790555b612342612647565b61234a6126e9565b612354838361279f565b8015610744576000805461ff0019169055505050565b612375848484611edb565b612381848484846128cf565b6114df5760405162461bcd60e51b8152600401808060200182810382526032815260200180613a796032913960400191505060405180910390fd5b600082820183811015610975576040805162461bcd60e51b815260206004820152601b60248201527f536166654d6174683a206164646974696f6e206f766572666c6f770000000000604482015290519081900360640190fd5b60d154600090815260cb6020526040902060028101546001600160a01b038381169116146124565760405162461bcd60e51b815260040161064e906137ac565b5050565b60006109758383612aab565b5490565b60006109758383612ac3565b60006109758383612b89565b60006120bb84846001600160a01b038516612bd3565b815460009082106124da5760405162461bcd60e51b8152600401808060200182810382526022815260200180613a576022913960400191505060405180910390fd5b8260000182815481106124e957fe5b9060005260206000200154905092915050565b8154600090819083106125405760405162461bcd60e51b8152600401808060200182810382526022815260200180613bb46022913960400191505060405180910390fd5b600084600001848154811061255157fe5b906000526020600020906002020190508060000154816001015492509250509250929050565b600082815260018401602052604081205482816126125760405162461bcd60e51b81526004018080602001828103825283818151815260200191508051906020019080838360005b838110156125d75781810151838201526020016125bf565b50505050905090810190601f1680156126045780820380516001836020036101000a031916815260200191505b509250505060405180910390fd5b5084600001600182038154811061262557fe5b9060005260206000209060020201600101549150509392505050565b3b151590565b600054610100900460ff1680612660575061266061229c565b8061266e575060005460ff16155b6126a95760405162461bcd60e51b815260040180806020018281038252602e815260200180613b86602e913960400191505060405180910390fd5b600054610100900460ff161580156126d4576000805460ff1961ff0019909116610100171660011790555b80156126e6576000805461ff00191690555b50565b600054610100900460ff1680612702575061270261229c565b80612710575060005460ff16155b61274b5760405162461bcd60e51b815260040180806020018281038252602e815260200180613b86602e913960400191505060405180910390fd5b600054610100900460ff16158015612776576000805460ff1961ff0019909116610100171660011790555b6126d47f01ffc9a700000000000000000000000000000000000000000000000000000000612c6a565b600054610100900460ff16806127b857506127b861229c565b806127c6575060005460ff16155b6128015760405162461bcd60e51b815260040180806020018281038252602e815260200180613b86602e913960400191505060405180910390fd5b600054610100900460ff1615801561282c576000805460ff1961ff0019909116610100171660011790555b825161283f90609c906020860190612ea9565b50815161285390609d906020850190612ea9565b5061287d7f80ac58cd00000000000000000000000000000000000000000000000000000000612c6a565b6128a67f5b5e139f00000000000000000000000000000000000000000000000000000000612c6a565b6123547f780e9d6300000000000000000000000000000000000000000000000000000000612c6a565b60006128e3846001600160a01b0316612641565b6128ef57506001611ec8565b6000612a407f150b7a020000000000000000000000000000000000000000000000000000000061291d611dad565b88878760405160240180856001600160a01b03168152602001846001600160a01b0316815260200183815260200180602001828103825283818151815260200191508051906020019080838360005b8381101561298457818101518382015260200161296c565b50505050905090810190601f1680156129b15780820380516001836020036101000a031916815260200191505b5095505050505050604051602081830303815290604052907bffffffffffffffffffffffffffffffffffffffffffffffffffffffff19166020820180517bffffffffffffffffffffffffffffffffffffffffffffffffffffffff8381831617835250505050604051806060016040528060328152602001613a79603291396001600160a01b0388169190612d1e565b90506000818060200190516020811015612a5957600080fd5b50517fffffffff00000000000000000000000000000000000000000000000000000000167f150b7a02000000000000000000000000000000000000000000000000000000001492505050949350505050565b60009081526001919091016020526040902054151590565b60008181526001830160205260408120548015612b7f5783546000198083019190810190600090879083908110612af657fe5b9060005260206000200154905080876000018481548110612b1357fe5b600091825260208083209091019290925582815260018981019092526040902090840190558654879080612b4357fe5b60019003818190600052602060002001600090559055866001016000878152602001908152602001600020600090556001945050505050610978565b6000915050610978565b6000612b958383612aab565b612bcb57508154600181810184556000848152602080822090930184905584548482528286019093526040902091909155610978565b506000610978565b600082815260018401602052604081205480612c385750506040805180820182528381526020808201848152865460018181018955600089815284812095516002909302909501918255915190820155865486845281880190925292909120556120be565b82856000016001830381548110612c4b57fe5b90600052602060002090600202016001018190555060009150506120be565b7fffffffff000000000000000000000000000000000000000000000000000000008082161415612ce1576040805162461bcd60e51b815260206004820152601c60248201527f4552433136353a20696e76616c696420696e7465726661636520696400000000604482015290519081900360640190fd5b7fffffffff00000000000000000000000000000000000000000000000000000000166000908152606560205260409020805460ff19166001179055565b60606120bb848460008585612d3285612641565b612d83576040805162461bcd60e51b815260206004820152601d60248201527f416464726573733a2063616c6c20746f206e6f6e2d636f6e7472616374000000604482015290519081900360640190fd5b600080866001600160a01b031685876040518082805190602001908083835b60208310612dc15780518252601f199092019160209182019101612da2565b6001836020036101000a03801982511681845116808217855250505050505090500191505060006040518083038185875af1925050503d8060008114612e23576040519150601f19603f3d011682016040523d82523d6000602084013e612e28565b606091505b5091509150612e38828286612e43565b979650505050505050565b60608315612e525750816120be565b825115612e625782518084602001fd5b60405162461bcd60e51b81526020600482018181528451602484015284518593919283926044019190850190808383600083156125d75781810151838201526020016125bf565b828054600181600116156101000203166002900490600052602060002090601f016020900481019282612edf5760008555612f25565b82601f10612ef857805160ff1916838001178555612f25565b82800160010185558215612f25579182015b82811115612f25578251825591602001919060010190612f0a565b50612f31929150612f35565b5090565b5b80821115612f315760008155600101612f36565b60008083601f840112612f5b578182fd5b50813567ffffffffffffffff811115612f72578182fd5b6020830191508360206040830285010111156120a757600080fd5b8035600281900b811461058c57600080fd5b600060208284031215612fb0578081fd5b813561097581613a33565b600060208284031215612fcc578081fd5b815161097581613a33565b60008060408385031215612fe9578081fd5b8235612ff481613a33565b9150602083013561300481613a33565b809150509250929050565b600080600060608486031215613023578081fd5b833561302e81613a33565b9250602084013561303e81613a33565b929592945050506040919091013590565b60008060008060808587031215613064578081fd5b843561306f81613a33565b935060208581013561308081613a33565b935060408601359250606086013567ffffffffffffffff808211156130a3578384fd5b818801915088601f8301126130b6578384fd5b8135818111156130c257fe5b60405184601f19601f84011682010181811084821117156130df57fe5b60405281815283820185018b10156130f5578586fd5b81858501868301379081019093019390935250939692955090935050565b60008060408385031215613125578182fd5b823561313081613a33565b9150602083013561300481613a48565b60008060408385031215613152578182fd5b823561315d81613a33565b946020939093013593505050565b60006020828403121561317c578081fd5b815161097581613a48565b600060208284031215613198578081fd5b5035919050565b6000602082840312156131b0578081fd5b81357fffffffff0000000000000000000000000000000000000000000000000000000081168114610975578182fd5b600080600080608085870312156131f4578182fd5b84356131ff81613a33565b935060208501359250604085013561321681613a33565b9396929550929360600135925050565b600060208284031215613237578081fd5b61097582612f8d565b600080600083850360c0811215613255578182fd5b60a0811215613262578182fd5b5083925060a084013567ffffffffffffffff80821115613280578283fd5b818601915086601f830112613293578283fd5b8135818111156132a1578384fd5b87602080830285010111156132b4578384fd5b6020830194508093505050509250925092565b600080600080600060a086880312156132de578283fd5b853575ffffffffffffffffffffffffffffffffffffffffffff81168114613303578384fd5b9450602086013561331381613a33565b9350604086013561332381613a33565b9250606086013561333381613a33565b949793965091946080013592915050565b600060208284031215613355578081fd5b813562ffffff81168114610975578182fd5b600060208284031215613378578081fd5b5051919050565b600080600080600060608688031215613396578283fd5b85359450602086013567ffffffffffffffff808211156133b4578485fd5b6133c089838a01612f4a565b909650945060408801359150808211156133d8578283fd5b506133e588828901612f4a565b969995985093965092949392505050565b60008060006060848603121561340a578081fd5b8335925061341a60208501612f8d565b915061342860408501612f8d565b90509250925092565b60008060408385031215613443578182fd5b50508035926020909101359150565b60008060408385031215613464578182fd5b505080516020909101519092909150565b600080600060608486031215613489578081fd5b833592506020840135915060408401356fffffffffffffffffffffffffffffffff811681146134b6578182fd5b809150509250925092565b6000806000606084860312156134d5578081fd5b8351925060208401519150604084015190509250925092565b60008060008060808587031215613503578182fd5b843593506020850135925060408501359150606085013561352381613a33565b939692955090935050565b60008060008060808587031215613543578182fd5b5050823594602084013594506040840135936060013592509050565b600080600080600060a08688031215613576578283fd5b505083359560208501359550604085013594606081013594506080013592509050565b60008060008060008060c087890312156135b1578384fd5b505084359660208601359650604086013595606081013595506080810135945060a0013592509050565b60609190911b7fffffffffffffffffffffffffffffffffffffffff00000000000000000000000016815260140190565b918252602082015260400190565b6001600160a01b0391909116815260200190565b6001600160a01b039384168152919092166020820152604081019190915260600190565b6001600160a01b03988916815296881660208801529487166040870152929095166060850152608084015260a083019390935260c082019290925260e08101919091526101000190565b6001600160a01b03938416815291909216602082015262ffffff909116604082015260600190565b901515815260200190565b90815260200190565b600292830b8152910b602082015260400190565b6000602080835283518082850152825b81811015613717578581018301518582016040015282016136fb565b818111156137285783604083870101525b50601f01601f1916929092016040019392505050565b60208082526009908201527f6f6e6c7920676f76730000000000000000000000000000000000000000000000604082015260600190565b60208082526007908201527f6d616e6167657200000000000000000000000000000000000000000000000000604082015260600190565b6020808252600d908201527f63616c6c6261636b206661696c00000000000000000000000000000000000000604082015260600190565b60208082526011908201527f4e6f6e2d6578697374656e7420706f6f6c000000000000000000000000000000604082015260600190565b60208082526001908201527f7300000000000000000000000000000000000000000000000000000000000000604082015260600190565b6020808252600c908201527f4e6f7420617070726f7665640000000000000000000000000000000000000000604082015260600190565b60208082526001908201527f7900000000000000000000000000000000000000000000000000000000000000604082015260600190565b60208082526010908201527f496e76616c696420746f6b656e20494400000000000000000000000000000000604082015260600190565b60208082526037908201527f4552433732315570677261646561626c653a20617070726f766564207175657260408201527f7920666f72206e6f6e6578697374656e7420746f6b656e000000000000000000606082015260800190565b9182526001600160a01b0316602082015260400190565b9384526001600160a01b03928316602085015291166040830152606082015260800190565b9182526fffffffffffffffffffffffffffffffff16602082015260400190565b92835260208301919091526001600160a01b0316604082015260600190565b9283526020830191909152604082015260600190565b9485526020850193909352604084019190915260608301526001600160a01b0316608082015260a00190565b948552602085019390935260408401919091526060830152608082015260a00190565b6001600160a01b03811681146126e657600080fd5b80151581146126e657600080fdfe456e756d657261626c655365743a20696e646578206f7574206f6620626f756e64734552433732313a207472616e7366657220746f206e6f6e20455243373231526563656976657220696d706c656d656e7465724552433732313a207472616e7366657220746f20746865207a65726f20616464726573734552433732313a206f70657261746f7220717565727920666f72206e6f6e6578697374656e7420746f6b656e4552433732313a20617070726f76652063616c6c6572206973206e6f74206f776e6572206e6f7220617070726f76656420666f7220616c6c4552433732313a2062616c616e636520717565727920666f7220746865207a65726f20616464726573734552433732313a206f776e657220717565727920666f72206e6f6e6578697374656e7420746f6b656e496e697469616c697a61626c653a20636f6e747261637420697320616c726561647920696e697469616c697a6564456e756d657261626c654d61703a20696e646578206f7574206f6620626f756e64734552433732313a207472616e73666572206f6620746f6b656e2074686174206973206e6f74206f776e4552433732313a20617070726f76616c20746f2063757272656e74206f776e65724552433732313a207472616e736665722063616c6c6572206973206e6f74206f776e6572206e6f7220617070726f766564a164736f6c6343000706000a",
  "linkReferences": {},
  "deployedLinkReferences": {}
}