{
  "_format": "hh-sol-artifact-1",
  "contractName": "CHIManager",
  "sourceName": "contracts/CHIManager.sol",
  "abi": [
    {
      "inputs": [
        {
          "internalType": "address",
          "name": "_v3Factory",
          "type": "address"
        },
        {
          "internalType": "address",
          "name": "_yangNFT",
          "type": "address"
        },
        {
          "internalType": "address",
          "name": "_deployer",
          "type": "address"
        },
        {
          "internalType": "address",
          "name": "_gov",
          "type": "address"
        }
      ],
      "stateMutability": "nonpayable",
      "type": "constructor"
    },
    {
      "anonymous": false,
      "inputs": [
        {
          "indexed": true,
          "internalType": "address",
          "name": "owner",
          "type": "address"
        },
        {
          "indexed": true,
          "internalType": "address",
          "name": "approved",
          "type": "address"
        },
        {
          "indexed": true,
          "internalType": "uint256",
          "name": "tokenId",
          "type": "uint256"
        }
      ],
      "name": "Approval",
      "type": "event"
    },
    {
      "anonymous": false,
      "inputs": [
        {
          "indexed": true,
          "internalType": "address",
          "name": "owner",
          "type": "address"
        },
        {
          "indexed": true,
          "internalType": "address",
          "name": "operator",
          "type": "address"
        },
        {
          "indexed": false,
          "internalType": "bool",
          "name": "approved",
          "type": "bool"
        }
      ],
      "name": "ApprovalForAll",
      "type": "event"
    },
    {
      "anonymous": false,
      "inputs": [
        {
          "indexed": false,
          "internalType": "uint256",
          "name": "tokenId",
          "type": "uint256"
        },
        {
          "indexed": false,
          "internalType": "address",
          "name": "pool",
          "type": "address"
        },
        {
          "indexed": false,
          "internalType": "address",
          "name": "vault",
          "type": "address"
        },
        {
          "indexed": false,
          "internalType": "uint256",
          "name": "vaultFee",
          "type": "uint256"
        }
      ],
      "name": "Create",
      "type": "event"
    },
    {
      "anonymous": false,
      "inputs": [
        {
          "indexed": true,
          "internalType": "address",
          "name": "from",
          "type": "address"
        },
        {
          "indexed": true,
          "internalType": "address",
          "name": "to",
          "type": "address"
        },
        {
          "indexed": true,
          "internalType": "uint256",
          "name": "tokenId",
          "type": "uint256"
        }
      ],
      "name": "Transfer",
      "type": "event"
    },
    {
      "inputs": [
        {
          "internalType": "contract IERC20",
          "name": "token0",
          "type": "address"
        },
        {
          "internalType": "uint256",
          "name": "amount0",
          "type": "uint256"
        },
        {
          "internalType": "contract IERC20",
          "name": "token1",
          "type": "address"
        },
        {
          "internalType": "uint256",
          "name": "amount1",
          "type": "uint256"
        }
      ],
      "name": "CHIDepositCallback",
      "outputs": [],
      "stateMutability": "nonpayable",
      "type": "function"
    },
    {
      "inputs": [],
      "name": "acceptGovernance",
      "outputs": [],
      "stateMutability": "nonpayable",
      "type": "function"
    },
    {
      "inputs": [
        {
          "internalType": "uint256",
          "name": "tokenId",
          "type": "uint256"
        },
        {
          "components": [
            {
              "internalType": "int24",
              "name": "tickLower",
              "type": "int24"
            },
            {
              "internalType": "int24",
              "name": "tickUpper",
              "type": "int24"
            }
          ],
          "internalType": "struct ICHIManager.RangeParams[]",
          "name": "addRanges",
          "type": "tuple[]"
        },
        {
          "components": [
            {
              "internalType": "int24",
              "name": "tickLower",
              "type": "int24"
            },
            {
              "internalType": "int24",
              "name": "tickUpper",
              "type": "int24"
            }
          ],
          "internalType": "struct ICHIManager.RangeParams[]",
          "name": "removeRanges",
          "type": "tuple[]"
        }
      ],
      "name": "addAndRemoveRanges",
      "outputs": [],
      "stateMutability": "nonpayable",
      "type": "function"
    },
    {
      "inputs": [
        {
          "internalType": "uint256",
          "name": "tokenId",
          "type": "uint256"
        },
        {
          "internalType": "uint256",
          "name": "rangeIndex",
          "type": "uint256"
        },
        {
          "internalType": "uint256",
          "name": "amount0Desired",
          "type": "uint256"
        },
        {
          "internalType": "uint256",
          "name": "amount1Desired",
          "type": "uint256"
        }
      ],
      "name": "addLiquidityToPosition",
      "outputs": [],
      "stateMutability": "nonpayable",
      "type": "function"
    },
    {
      "inputs": [
        {
          "internalType": "uint256",
          "name": "tokenId",
          "type": "uint256"
        },
        {
          "internalType": "int24",
          "name": "tickLower",
          "type": "int24"
        },
        {
          "internalType": "int24",
          "name": "tickUpper",
          "type": "int24"
        }
      ],
      "name": "addRange",
      "outputs": [],
      "stateMutability": "nonpayable",
      "type": "function"
    },
    {
      "inputs": [
        {
          "internalType": "address",
          "name": "to",
          "type": "address"
        },
        {
          "internalType": "uint256",
          "name": "tokenId",
          "type": "uint256"
        }
      ],
      "name": "approve",
      "outputs": [],
      "stateMutability": "nonpayable",
      "type": "function"
    },
    {
      "inputs": [
        {
          "internalType": "address",
          "name": "owner",
          "type": "address"
        }
      ],
      "name": "balanceOf",
      "outputs": [
        {
          "internalType": "uint256",
          "name": "",
          "type": "uint256"
        }
      ],
      "stateMutability": "view",
      "type": "function"
    },
    {
      "inputs": [],
      "name": "baseURI",
      "outputs": [
        {
          "internalType": "string",
          "name": "",
          "type": "string"
        }
      ],
      "stateMutability": "pure",
      "type": "function"
    },
    {
      "inputs": [
        {
          "internalType": "uint256",
          "name": "tokenId",
          "type": "uint256"
        }
      ],
      "name": "chi",
      "outputs": [
        {
          "internalType": "address",
          "name": "owner",
          "type": "address"
        },
        {
          "internalType": "address",
          "name": "operator",
          "type": "address"
        },
        {
          "internalType": "address",
          "name": "pool",
          "type": "address"
        },
        {
          "internalType": "address",
          "name": "vault",
          "type": "address"
        },
        {
          "internalType": "uint256",
          "name": "accruedProtocolFees0",
          "type": "uint256"
        },
        {
          "internalType": "uint256",
          "name": "accruedProtocolFees1",
          "type": "uint256"
        },
        {
          "internalType": "uint256",
          "name": "fee",
          "type": "uint256"
        },
        {
          "internalType": "uint256",
          "name": "totalShares",
          "type": "uint256"
        }
      ],
      "stateMutability": "view",
      "type": "function"
    },
    {
      "inputs": [],
      "name": "chigov",
      "outputs": [
        {
          "internalType": "address",
          "name": "",
          "type": "address"
        }
      ],
      "stateMutability": "view",
      "type": "function"
    },
    {
      "inputs": [
        {
          "internalType": "uint256",
          "name": "tokenId",
          "type": "uint256"
        },
        {
          "internalType": "uint256",
          "name": "amount0",
          "type": "uint256"
        },
        {
          "internalType": "uint256",
          "name": "amount1",
          "type": "uint256"
        },
        {
          "internalType": "address",
          "name": "to",
          "type": "address"
        }
      ],
      "name": "collectProtocol",
      "outputs": [],
      "stateMutability": "nonpayable",
      "type": "function"
    },
    {
      "inputs": [],
      "name": "deployer",
      "outputs": [
        {
          "internalType": "address",
          "name": "",
          "type": "address"
        }
      ],
      "stateMutability": "view",
      "type": "function"
    },
    {
      "inputs": [
        {
          "internalType": "uint256",
          "name": "tokenId",
          "type": "uint256"
        }
      ],
      "name": "getApproved",
      "outputs": [
        {
          "internalType": "address",
          "name": "",
          "type": "address"
        }
      ],
      "stateMutability": "view",
      "type": "function"
    },
    {
      "inputs": [
        {
          "internalType": "address",
          "name": "owner",
          "type": "address"
        },
        {
          "internalType": "address",
          "name": "operator",
          "type": "address"
        }
      ],
      "name": "isApprovedForAll",
      "outputs": [
        {
          "internalType": "bool",
          "name": "",
          "type": "bool"
        }
      ],
      "stateMutability": "view",
      "type": "function"
    },
    {
      "inputs": [
        {
          "components": [
            {
              "internalType": "address",
              "name": "recipient",
              "type": "address"
            },
            {
              "internalType": "address",
              "name": "token0",
              "type": "address"
            },
            {
              "internalType": "address",
              "name": "token1",
              "type": "address"
            },
            {
              "internalType": "uint24",
              "name": "fee",
              "type": "uint24"
            },
            {
              "internalType": "uint256",
              "name": "vaultFee",
              "type": "uint256"
            }
          ],
          "internalType": "struct ICHIManager.MintParams",
          "name": "params",
          "type": "tuple"
        }
      ],
      "name": "mint",
      "outputs": [
        {
          "internalType": "uint256",
          "name": "tokenId",
          "type": "uint256"
        },
        {
          "internalType": "address",
          "name": "vault",
          "type": "address"
        }
      ],
      "stateMutability": "nonpayable",
      "type": "function"
    },
    {
      "inputs": [
        {
          "internalType": "bytes[]",
          "name": "data",
          "type": "bytes[]"
        }
      ],
      "name": "multicall",
      "outputs": [
        {
          "internalType": "bytes[]",
          "name": "results",
          "type": "bytes[]"
        }
      ],
      "stateMutability": "payable",
      "type": "function"
    },
    {
      "inputs": [],
      "name": "name",
      "outputs": [
        {
          "internalType": "string",
          "name": "",
          "type": "string"
        }
      ],
      "stateMutability": "view",
      "type": "function"
    },
    {
      "inputs": [],
      "name": "nextgov",
      "outputs": [
        {
          "internalType": "address",
          "name": "",
          "type": "address"
        }
      ],
      "stateMutability": "view",
      "type": "function"
    },
    {
      "inputs": [
        {
          "internalType": "uint256",
          "name": "tokenId",
          "type": "uint256"
        }
      ],
      "name": "ownerOf",
      "outputs": [
        {
          "internalType": "address",
          "name": "",
          "type": "address"
        }
      ],
      "stateMutability": "view",
      "type": "function"
    },
    {
      "inputs": [
        {
          "internalType": "bytes32",
          "name": "",
          "type": "bytes32"
        }
      ],
      "name": "positions",
      "outputs": [
        {
          "internalType": "uint256",
          "name": "shares",
          "type": "uint256"
        }
      ],
      "stateMutability": "view",
      "type": "function"
    },
    {
      "inputs": [
        {
          "internalType": "uint256",
          "name": "tokenId",
          "type": "uint256"
        },
        {
          "internalType": "uint256",
          "name": "rangeIndex",
          "type": "uint256"
        }
      ],
      "name": "removeAllLiquidityFromPosition",
      "outputs": [],
      "stateMutability": "nonpayable",
      "type": "function"
    },
    {
      "inputs": [
        {
          "internalType": "uint256",
          "name": "tokenId",
          "type": "uint256"
        },
        {
          "internalType": "uint256",
          "name": "rangeIndex",
          "type": "uint256"
        },
        {
          "internalType": "uint128",
          "name": "liquidity",
          "type": "uint128"
        }
      ],
      "name": "removeLiquidityFromPosition",
      "outputs": [],
      "stateMutability": "nonpayable",
      "type": "function"
    },
    {
      "inputs": [
        {
          "internalType": "uint256",
          "name": "tokenId",
          "type": "uint256"
        },
        {
          "internalType": "int24",
          "name": "tickLower",
          "type": "int24"
        },
        {
          "internalType": "int24",
          "name": "tickUpper",
          "type": "int24"
        }
      ],
      "name": "removeRange",
      "outputs": [],
      "stateMutability": "nonpayable",
      "type": "function"
    },
    {
      "inputs": [
        {
          "internalType": "address",
          "name": "from",
          "type": "address"
        },
        {
          "internalType": "address",
          "name": "to",
          "type": "address"
        },
        {
          "internalType": "uint256",
          "name": "tokenId",
          "type": "uint256"
        }
      ],
      "name": "safeTransferFrom",
      "outputs": [],
      "stateMutability": "nonpayable",
      "type": "function"
    },
    {
      "inputs": [
        {
          "internalType": "address",
          "name": "from",
          "type": "address"
        },
        {
          "internalType": "address",
          "name": "to",
          "type": "address"
        },
        {
          "internalType": "uint256",
          "name": "tokenId",
          "type": "uint256"
        },
        {
          "internalType": "bytes",
          "name": "_data",
          "type": "bytes"
        }
      ],
      "name": "safeTransferFrom",
      "outputs": [],
      "stateMutability": "nonpayable",
      "type": "function"
    },
    {
      "inputs": [
        {
          "internalType": "address",
          "name": "operator",
          "type": "address"
        },
        {
          "internalType": "bool",
          "name": "approved",
          "type": "bool"
        }
      ],
      "name": "setApprovalForAll",
      "outputs": [],
      "stateMutability": "nonpayable",
      "type": "function"
    },
    {
      "inputs": [
        {
          "internalType": "address",
          "name": "_governance",
          "type": "address"
        }
      ],
      "name": "setGovernance",
      "outputs": [],
      "stateMutability": "nonpayable",
      "type": "function"
    },
    {
      "inputs": [
        {
          "internalType": "uint256",
          "name": "yangId",
          "type": "uint256"
        },
        {
          "internalType": "uint256",
          "name": "tokenId",
          "type": "uint256"
        },
        {
          "internalType": "uint256",
          "name": "amount0Desired",
          "type": "uint256"
        },
        {
          "internalType": "uint256",
          "name": "amount1Desired",
          "type": "uint256"
        },
        {
          "internalType": "uint256",
          "name": "amount0Min",
          "type": "uint256"
        },
        {
          "internalType": "uint256",
          "name": "amount1Min",
          "type": "uint256"
        }
      ],
      "name": "subscribe",
      "outputs": [
        {
          "internalType": "uint256",
          "name": "shares",
          "type": "uint256"
        },
        {
          "internalType": "uint256",
          "name": "amount0",
          "type": "uint256"
        },
        {
          "internalType": "uint256",
          "name": "amount1",
          "type": "uint256"
        }
      ],
      "stateMutability": "nonpayable",
      "type": "function"
    },
    {
      "inputs": [
        {
          "internalType": "bytes4",
          "name": "interfaceId",
          "type": "bytes4"
        }
      ],
      "name": "supportsInterface",
      "outputs": [
        {
          "internalType": "bool",
          "name": "",
          "type": "bool"
        }
      ],
      "stateMutability": "view",
      "type": "function"
    },
    {
      "inputs": [],
      "name": "symbol",
      "outputs": [
        {
          "internalType": "string",
          "name": "",
          "type": "string"
        }
      ],
      "stateMutability": "view",
      "type": "function"
    },
    {
      "inputs": [
        {
          "internalType": "uint256",
          "name": "index",
          "type": "uint256"
        }
      ],
      "name": "tokenByIndex",
      "outputs": [
        {
          "internalType": "uint256",
          "name": "",
          "type": "uint256"
        }
      ],
      "stateMutability": "view",
      "type": "function"
    },
    {
      "inputs": [
        {
          "internalType": "address",
          "name": "owner",
          "type": "address"
        },
        {
          "internalType": "uint256",
          "name": "index",
          "type": "uint256"
        }
      ],
      "name": "tokenOfOwnerByIndex",
      "outputs": [
        {
          "internalType": "uint256",
          "name": "",
          "type": "uint256"
        }
      ],
      "stateMutability": "view",
      "type": "function"
    },
    {
      "inputs": [
        {
          "internalType": "uint256",
          "name": "tokenId",
          "type": "uint256"
        }
      ],
      "name": "tokenURI",
      "outputs": [
        {
          "internalType": "string",
          "name": "",
          "type": "string"
        }
      ],
      "stateMutability": "view",
      "type": "function"
    },
    {
      "inputs": [],
      "name": "totalSupply",
      "outputs": [
        {
          "internalType": "uint256",
          "name": "",
          "type": "uint256"
        }
      ],
      "stateMutability": "view",
      "type": "function"
    },
    {
      "inputs": [
        {
          "internalType": "address",
          "name": "from",
          "type": "address"
        },
        {
          "internalType": "address",
          "name": "to",
          "type": "address"
        },
        {
          "internalType": "uint256",
          "name": "tokenId",
          "type": "uint256"
        }
      ],
      "name": "transferFrom",
      "outputs": [],
      "stateMutability": "nonpayable",
      "type": "function"
    },
    {
      "inputs": [
        {
          "internalType": "uint256",
          "name": "yangId",
          "type": "uint256"
        },
        {
          "internalType": "uint256",
          "name": "tokenId",
          "type": "uint256"
        },
        {
          "internalType": "uint256",
          "name": "shares",
          "type": "uint256"
        },
        {
          "internalType": "uint256",
          "name": "amount0Min",
          "type": "uint256"
        },
        {
          "internalType": "uint256",
          "name": "amount1Min",
          "type": "uint256"
        }
      ],
      "name": "unsubscribe",
      "outputs": [
        {
          "internalType": "uint256",
          "name": "amount0",
          "type": "uint256"
        },
        {
          "internalType": "uint256",
          "name": "amount1",
          "type": "uint256"
        }
      ],
      "stateMutability": "nonpayable",
      "type": "function"
    },
    {
      "inputs": [],
      "name": "v3Factory",
      "outputs": [
        {
          "internalType": "address",
          "name": "",
          "type": "address"
        }
      ],
      "stateMutability": "view",
      "type": "function"
    },
    {
      "inputs": [],
      "name": "yangNFT",
      "outputs": [
        {
          "internalType": "address",
          "name": "",
          "type": "address"
        }
      ],
      "stateMutability": "view",
      "type": "function"
    }
  ],
  "bytecode": "0x6080604052600b80546001600160b01b03191660011790553480156200002457600080fd5b5060405162003cd738038062003cd783398101604081905262000047916200029b565b60405180606001604052806022815260200162003cb56022913960408051808201909152600381526243484960e81b60208201526001600055620000926301ffc9a760e01b6200014a565b8151620000a7906007906020850190620001d2565b508051620000bd906008906020840190620001d2565b50620000d06380ac58cd60e01b6200014a565b620000e2635b5e139f60e01b6200014a565b620000f463780e9d6360e01b6200014a565b5050600e80546001600160a01b039586166001600160a01b031991821617909155600f805494861694821694909417909355601080549285169284169290921790915560118054919093169116179055620002f7565b6001600160e01b03198082161415620001aa576040805162461bcd60e51b815260206004820152601c60248201527f4552433136353a20696e76616c696420696e7465726661636520696400000000604482015290519081900360640190fd5b6001600160e01b0319166000908152600160208190526040909120805460ff19169091179055565b828054600181600116156101000203166002900490600052602060002090601f0160209004810192826200020a576000855562000255565b82601f106200022557805160ff191683800117855562000255565b8280016001018555821562000255579182015b828111156200025557825182559160200191906001019062000238565b506200026392915062000267565b5090565b5b8082111562000263576000815560010162000268565b80516001600160a01b03811681146200029657600080fd5b919050565b60008060008060808587031215620002b1578384fd5b620002bc856200027e565b9350620002cc602086016200027e565b9250620002dc604086016200027e565b9150620002ec606086016200027e565b905092959194509250565b6139ae80620003076000396000f3fe6080604052600436106102855760003560e01c806370a0823111610153578063c2108d1b116100cb578063e3fe6eae1161007f578063ec28fcac11610064578063ec28fcac146106f6578063ed1bbd0b14610725578063f94e4e801461074557610285565b8063e3fe6eae146106c1578063e985e9c5146106d657610285565b8063d5f39488116100b0578063d5f394881461066c578063df84f84d14610681578063e2c3350e146106a157610285565b8063c2108d1b1461062c578063c87b56dd1461064c57610285565b8063ab033ea911610122578063b88d4fde11610107578063b88d4fde146105aa578063b9decd66146105ca578063bc7e5d86146105fe57610285565b8063ab033ea91461056a578063ac9650d81461058a57610285565b806370a08231146105005780637c887c591461052057806395d89b4114610535578063a22cb4651461054a57610285565b80632f745c59116102015780634f6ccce7116101b55780635d87b6e41161019a5780635d87b6e4146104ab5780636352211e146104cb5780636c0360eb146104eb57610285565b80634f6ccce71461046b578063514ea4bf1461048b57610285565b806342842e0e116101e657806342842e0e146103fd57806346698e751461041d5780634b57512d1461044b57610285565b80632f745c59146103c85780634259ab44146103e857610285565b80630e082b7411610258578063238efcbc1161023d578063238efcbc1461037357806323b872dd1461038857806325f368ae146103a857610285565b80630e082b741461033157806318160ddd1461035157610285565b806301ffc9a71461028a57806306fdde03146102c0578063081812fc146102e2578063095ea7b31461030f575b600080fd5b34801561029657600080fd5b506102aa6102a5366004612e76565b61075a565b6040516102b791906133aa565b60405180910390f35b3480156102cc57600080fd5b506102d5610795565b6040516102b791906133c9565b3480156102ee57600080fd5b506103026102fd366004612e5e565b61082b565b6040516102b79190613282565b34801561031b57600080fd5b5061032f61032a366004612da8565b610877565b005b34801561033d57600080fd5b5061032f61034c3660046130d2565b61094d565b34801561035d57600080fd5b50610366610a2a565b6040516102b791906135f1565b34801561037f57600080fd5b5061032f610a3b565b34801561039457600080fd5b5061032f6103a3366004612c94565b610a92565b3480156103b457600080fd5b5061032f6103c336600461314b565b610ae9565b3480156103d457600080fd5b506103666103e3366004612da8565b610ba8565b3480156103f457600080fd5b50610302610bd3565b34801561040957600080fd5b5061032f610418366004612c94565b610be2565b34801561042957600080fd5b5061043d6104383660046131bc565b610bfd565b6040516102b7929190613274565b34801561045757600080fd5b5061032f610466366004613053565b610dd4565b34801561047757600080fd5b50610366610486366004612e5e565b610e90565b34801561049757600080fd5b506103666104a6366004612e5e565b610ea6565b3480156104b757600080fd5b5061032f6104c636600461308e565b610eb8565b3480156104d757600080fd5b506103026104e6366004612e5e565b610f92565b3480156104f757600080fd5b506102d5610fba565b34801561050c57600080fd5b5061036661051b366004612c24565b610fbf565b34801561052c57600080fd5b50610302611027565b34801561054157600080fd5b506102d5611036565b34801561055657600080fd5b5061032f610565366004612d7b565b611097565b34801561057657600080fd5b5061032f610585366004612c24565b6111ba565b61059d610598366004612dd3565b611213565b6040516102b7919061332c565b3480156105b657600080fd5b5061032f6105c5366004612cd4565b611353565b3480156105d657600080fd5b506105ea6105e5366004612e5e565b6113b1565b6040516102b79897969594939291906132ba565b34801561060a57600080fd5b5061061e610619366004612f8a565b611622565b6040516102b79291906135fa565b34801561063857600080fd5b5061032f61064736600461318b565b611913565b34801561065857600080fd5b506102d5610667366004612e5e565b611998565b34801561067857600080fd5b506103026119c0565b34801561068d57600080fd5b5061032f61069c366004612fdc565b6119cf565b3480156106ad57600080fd5b5061032f6106bc366004613053565b611b8c565b3480156106cd57600080fd5b50610302611c0f565b3480156106e257600080fd5b506102aa6106f1366004612c5c565b611c1e565b34801561070257600080fd5b506107166107113660046131f6565b611c4c565b6040516102b793929190613675565b34801561073157600080fd5b5061032f610740366004612eb6565b611e0a565b34801561075157600080fd5b50610302611f6a565b7fffffffff00000000000000000000000000000000000000000000000000000000811660009081526001602052604090205460ff165b919050565b60078054604080516020601f60026000196101006001881615020190951694909404938401819004810282018101909252828152606093909290918301828280156108215780601f106107f657610100808354040283529160200191610821565b820191906000526020600020905b81548152906001019060200180831161080457829003601f168201915b5050505050905090565b600061083682611f79565b61085b5760405162461bcd60e51b815260040161085290613526565b60405180910390fd5b506000908152600d60205260409020546001600160a01b031690565b600061088282610f92565b9050806001600160a01b0316836001600160a01b031614156108d55760405162461bcd60e51b81526004018080602001828103825260218152602001806139506021913960400191505060405180910390fd5b806001600160a01b03166108e7611f86565b6001600160a01b031614806109035750610903816106f1611f86565b61093e5760405162461bcd60e51b815260040180806020018281038252603881526020018061387a6038913960400191505060405180910390fd5b6109488383611f8a565b505050565b826109583382612005565b6109745760405162461bcd60e51b8152600401610852906134b8565b6000848152600d602052604090819020600281015491517fd4da618500000000000000000000000000000000000000000000000000000000815290916001600160a01b03169063d4da6185906109d09087908790600401613636565b6040805180830381600087803b1580156109e957600080fd5b505af11580156109fd573d6000803e3d6000fd5b505050506040513d601f19601f82011682018060405250810190610a2191906130af565b50505050505050565b6000610a3660036120a9565b905090565b6012546001600160a01b03163314610a655760405162461bcd60e51b8152600401610852906135ba565b6011805473ffffffffffffffffffffffffffffffffffffffff199081163317909155601280549091169055565b610aa3610a9d611f86565b82612005565b610ade5760405162461bcd60e51b81526004018080602001828103825260318152602001806139716031913960400191505060405180910390fd5b6109488383836120b4565b83610af43382612005565b610b105760405162461bcd60e51b8152600401610852906134b8565b6000858152600d602052604090819020600281015491517f0430c13000000000000000000000000000000000000000000000000000000000815290916001600160a01b031690630430c13090610b6e90889088908890600401613656565b600060405180830381600087803b158015610b8857600080fd5b505af1158015610b9c573d6000803e3d6000fd5b50505050505050505050565b6001600160a01b0382166000908152600260205260408120610bca9083612200565b90505b92915050565b600f546001600160a01b031681565b61094883838360405180602001604052806000815250611353565b600f5460009081906001600160a01b03163314610c2c5760405162461bcd60e51b8152600401610852906134ef565b60026000541415610c84576040805162461bcd60e51b815260206004820152601f60248201527f5265656e7472616e637947756172643a207265656e7472616e742063616c6c00604482015290519081900360640190fd5b60026000908155604051610c9e9089908990602001613274565b60408051601f1981840301815291815281516020928301206000818152600c9093529120805491925090871115610ce75760405162461bcd60e51b815260040161085290613481565b6000888152600d6020526040908190206002810154600f5492517fd473a65400000000000000000000000000000000000000000000000000000000815291926001600160a01b039182169263d473a65492610d4f928f928e928e928e9291169060040161368b565b6040805180830381600087803b158015610d6857600080fd5b505af1158015610d7c573d6000803e3d6000fd5b505050506040513d601f19601f82011682018060405250810190610da091906130af565b6000858152600c60205260409020549196509450610dbe908961220c565b9091555050600160005590969095509350505050565b82610ddf3382612005565b610dfb5760405162461bcd60e51b8152600401610852906134b8565b6000848152600d602052604090819020600281015491517f5a64998b00000000000000000000000000000000000000000000000000000000815290916001600160a01b031690635a64998b90610e5790879087906004016133b5565b600060405180830381600087803b158015610e7157600080fd5b505af1158015610e85573d6000803e3d6000fd5b505050505050505050565b600080610e9e600384612269565b509392505050565b600c6020526000908152604090205481565b81610ec33382612005565b610edf5760405162461bcd60e51b8152600401610852906134b8565b6000838152600d602052604090819020600281015491517f2106fa4600000000000000000000000000000000000000000000000000000000815290916001600160a01b031690632106fa4690610f399086906004016135f1565b6040805180830381600087803b158015610f5257600080fd5b505af1158015610f66573d6000803e3d6000fd5b505050506040513d601f19601f82011682018060405250810190610f8a91906130af565b505050505050565b6000610bcd826040518060600160405280602981526020016138dc6029913960039190612287565b606090565b60006001600160a01b0382166110065760405162461bcd60e51b815260040180806020018281038252602a8152602001806138b2602a913960400191505060405180910390fd5b6001600160a01b0382166000908152600260205260409020610bcd906120a9565b600e546001600160a01b031681565b60088054604080516020601f60026000196101006001881615020190951694909404938401819004810282018101909252828152606093909290918301828280156108215780601f106107f657610100808354040283529160200191610821565b61109f611f86565b6001600160a01b0316826001600160a01b03161415611105576040805162461bcd60e51b815260206004820152601960248201527f4552433732313a20617070726f766520746f2063616c6c657200000000000000604482015290519081900360640190fd5b8060066000611112611f86565b6001600160a01b0390811682526020808301939093526040918201600090812091871680825291909352912080547fffffffffffffffffffffffffffffffffffffffffffffffffffffffffffffff001692151592909217909155611174611f86565b6001600160a01b03167f17307eab39ab6107e8899845ad3d59bd9653f200f220920489ca2b5937696c318360405180821515815260200191505060405180910390a35050565b6011546001600160a01b031633146111e45760405162461bcd60e51b8152600401610852906133dc565b6012805473ffffffffffffffffffffffffffffffffffffffff19166001600160a01b0392909216919091179055565b60608167ffffffffffffffff8111801561122c57600080fd5b5060405190808252806020026020018201604052801561126057816020015b606081526020019060019003908161124b5790505b50905060005b8281101561134c576000803086868581811061127e57fe5b905060200281019061129091906136da565b60405161129e929190613264565b600060405180830381855af49150503d80600081146112d9576040519150601f19603f3d011682016040523d82523d6000602084013e6112de565b606091505b50915091508161132a576044815110156112f757600080fd5b600481019050808060200190518101906113119190612f17565b60405162461bcd60e51b815260040161085291906133c9565b8084848151811061133757fe5b60209081029190910101525050600101611266565b5092915050565b61136461135e611f86565b83612005565b61139f5760405162461bcd60e51b81526004018080602001828103825260318152602001806139716031913960400191505060405180910390fd5b6113ab8484848461229e565b50505050565b6000818152600d6020526040812081908190819081908190819081906113d68a611f79565b6113f25760405162461bcd60e51b815260040161085290613583565b60028101546001600160a01b03166114098b610f92565b825460018401546002850154604080517feae989a200000000000000000000000000000000000000000000000000000000815290516001600160a01b0394851694938416939283169287169163eae989a2916004808301926020929190829003018186803b15801561147a57600080fd5b505afa15801561148e573d6000803e3d6000fd5b505050506040513d601f19601f820116820180604052508101906114b29190612fc4565b856001600160a01b031663a00fa77f6040518163ffffffff1660e01b815260040160206040518083038186803b1580156114eb57600080fd5b505afa1580156114ff573d6000803e3d6000fd5b505050506040513d601f19601f820116820180604052508101906115239190612fc4565b866001600160a01b031663b0e21e8a6040518163ffffffff1660e01b815260040160206040518083038186803b15801561155c57600080fd5b505afa158015611570573d6000803e3d6000fd5b505050506040513d601f19601f820116820180604052508101906115949190612fc4565b876001600160a01b03166318160ddd6040518163ffffffff1660e01b815260040160206040518083038186803b1580156115cd57600080fd5b505afa1580156115e1573d6000803e3d6000fd5b505050506040513d601f19601f820116820180604052508101906116059190612fc4565b995099509950995099509950995099505050919395975091939597565b60115460009081906001600160a01b031633146116515760405162461bcd60e51b8152600401610852906133dc565b600e546000906001600160a01b0316631698ee826116756040870160208801612c24565b6116856060880160408901612c24565b6116956080890160608a01612fa1565b6040518463ffffffff1660e01b81526004016116b393929190613304565b60206040518083038186803b1580156116cb57600080fd5b505afa1580156116df573d6000803e3d6000fd5b505050506040513d601f19601f820116820180604052508101906117039190612c40565b90506001600160a01b03811661172b5760405162461bcd60e51b81526004016108529061344a565b6010546040517f58b4b7110000000000000000000000000000000000000000000000000000000081526001600160a01b03909116906358b4b7119061177c908490309060808a013590600401613296565b602060405180830381600087803b15801561179657600080fd5b505af11580156117aa573d6000803e3d6000fd5b505050506040513d601f19601f820116820180604052508101906117ce9190612c40565b91506118356117e06020860186612c24565b600b80547fffffffffffffffffffff000000000000000000000000000000000000000000008116600175ffffffffffffffffffffffffffffffffffffffffffff928316908101909216179091559450846122f0565b60408051606081019091528061184e6020870187612c24565b6001600160a01b0390811682528381166020808401919091528582166040938401526000878152600d82528390208451815490841673ffffffffffffffffffffffffffffffffffffffff1991821617825591850151600182018054918516918416919091179055938301516002909401805494909216931692909217909155517ff03c0794e29ab9041701d90faa819fd394c96b5d374215f11d7dd03839606d5e906119059085908490869060808a013590613611565b60405180910390a150915091565b8361191e3382612005565b61193a5760405162461bcd60e51b8152600401610852906134b8565b6000858152600d602052604090819020600281015491517f9d9d75be00000000000000000000000000000000000000000000000000000000815290916001600160a01b031690639d9d75be90610b6e90889088908890600401613675565b60606119a382611f79565b6119ac57600080fd5b505060408051602081019091526000815290565b6010546001600160a01b031681565b846119da3382612005565b6119f65760405162461bcd60e51b8152600401610852906134b8565b6000868152600d60205260408120905b85811015611ac25760028201546001600160a01b031663db4dcce4888884818110611a2d57fe5b611a439260206040909202019081019150612efd565b898985818110611a4f57fe5b9050604002016020016020810190611a679190612efd565b6040518363ffffffff1660e01b8152600401611a849291906133b5565b600060405180830381600087803b158015611a9e57600080fd5b505af1158015611ab2573d6000803e3d6000fd5b505060019092019150611a069050565b5060005b83811015611b825760028201546001600160a01b0316635a64998b868684818110611aed57fe5b611b039260206040909202019081019150612efd565b878785818110611b0f57fe5b9050604002016020016020810190611b279190612efd565b6040518363ffffffff1660e01b8152600401611b449291906133b5565b600060405180830381600087803b158015611b5e57600080fd5b505af1158015611b72573d6000803e3d6000fd5b505060019092019150611ac69050565b5050505050505050565b82611b973382612005565b611bb35760405162461bcd60e51b8152600401610852906134b8565b6000848152600d602052604090819020600281015491517fdb4dcce400000000000000000000000000000000000000000000000000000000815290916001600160a01b03169063db4dcce490610e5790879087906004016133b5565b6011546001600160a01b031681565b6001600160a01b03918216600090815260066020908152604080832093909416825291909152205460ff1690565b600f54600090819081906001600160a01b03163314611c7d5760405162461bcd60e51b8152600401610852906134ef565b6013889055600054889060021415611cdc576040805162461bcd60e51b815260206004820152601f60248201527f5265656e7472616e637947756172643a207265656e7472616e742063616c6c00604482015290519081900360640190fd5b600260008181558a8152600d6020526040908190209182015490517fbf02b5ea0000000000000000000000000000000000000000000000000000000081526001600160a01b039091169063bf02b5ea90611d42908e908d908d908d908d906004016136b7565b606060405180830381600087803b158015611d5c57600080fd5b505af1158015611d70573d6000803e3d6000fd5b505050506040513d601f19601f82011682018060405250810190611d94919061311e565b6040519297509095509350600090611db2908d908d90602001613274565b60408051601f1981840301815291815281516020928301206000818152600c909352912054909150611de4908761241e565b6000918252600c6020526040822055600181556013555092999198509650945050505050565b611e1333612478565b8215611ebc57600f546040517f23b872dd0000000000000000000000000000000000000000000000000000000081526001600160a01b03868116926323b872dd92611e68929091169033908890600401613296565b602060405180830381600087803b158015611e8257600080fd5b505af1158015611e96573d6000803e3d6000fd5b505050506040513d601f19601f82011682018060405250810190611eba9190612e42565b505b80156113ab57600f546040517f23b872dd0000000000000000000000000000000000000000000000000000000081526001600160a01b03848116926323b872dd92611f11929091169033908690600401613296565b602060405180830381600087803b158015611f2b57600080fd5b505af1158015611f3f573d6000803e3d6000fd5b505050506040513d601f19601f82011682018060405250810190611f639190612e42565b5050505050565b6012546001600160a01b031681565b6000610bcd6003836124bc565b3390565b6000818152600d60205260409020805473ffffffffffffffffffffffffffffffffffffffff19166001600160a01b0384169081179091558190611fcc82610f92565b6001600160a01b03167f8c5be1e5ebec7d5bd14f71427d1e84f3dd0314c0f7b2291e5b200ac8c7c3b92560405160405180910390a45050565b600061201082611f79565b61204b5760405162461bcd60e51b815260040180806020018281038252602c81526020018061384e602c913960400191505060405180910390fd5b600061205683610f92565b9050806001600160a01b0316846001600160a01b031614806120915750836001600160a01b03166120868461082b565b6001600160a01b0316145b806120a157506120a18185611c1e565b949350505050565b6000610bcd826124c8565b826001600160a01b03166120c782610f92565b6001600160a01b03161461210c5760405162461bcd60e51b81526004018080602001828103825260298152602001806139276029913960400191505060405180910390fd5b6001600160a01b0382166121515760405162461bcd60e51b815260040180806020018281038252602481526020018061382a6024913960400191505060405180910390fd5b61215c838383610948565b612167600082611f8a565b6001600160a01b038316600090815260026020526040902061218990826124cc565b506001600160a01b03821660009081526002602052604090206121ac90826124d8565b506121b9600382846124e4565b5080826001600160a01b0316846001600160a01b03167fddf252ad1be2c89b69c2b068fc378daa952ba7f163c4a11628f55a4df523b3ef60405160405180910390a4505050565b6000610bca83836124fa565b600082821115612263576040805162461bcd60e51b815260206004820152601e60248201527f536166654d6174683a207375627472616374696f6e206f766572666c6f770000604482015290519081900360640190fd5b50900390565b6000808080612278868661255e565b909450925050505b9250929050565b60006122948484846125d9565b90505b9392505050565b6122a98484846120b4565b6122b5848484846126a3565b6113ab5760405162461bcd60e51b81526004018080602001828103825260328152602001806137f86032913960400191505060405180910390fd5b6001600160a01b03821661234b576040805162461bcd60e51b815260206004820181905260248201527f4552433732313a206d696e7420746f20746865207a65726f2061646472657373604482015290519081900360640190fd5b61235481611f79565b156123a6576040805162461bcd60e51b815260206004820152601c60248201527f4552433732313a20746f6b656e20616c7265616479206d696e74656400000000604482015290519081900360640190fd5b6123b260008383610948565b6001600160a01b03821660009081526002602052604090206123d490826124d8565b506123e1600382846124e4565b5060405181906001600160a01b038416906000907fddf252ad1be2c89b69c2b068fc378daa952ba7f163c4a11628f55a4df523b3ef908290a45050565b600082820183811015610bca576040805162461bcd60e51b815260206004820152601b60248201527f536166654d6174683a206164646974696f6e206f766572666c6f770000000000604482015290519081900360640190fd5b6013546000908152600d6020526040902060028101546001600160a01b038381169116146124b85760405162461bcd60e51b815260040161085290613413565b5050565b6000610bca838361287f565b5490565b6000610bca8383612897565b6000610bca838361295d565b600061229484846001600160a01b0385166129a7565b8154600090821061253c5760405162461bcd60e51b81526004018080602001828103825260228152602001806137d66022913960400191505060405180910390fd5b82600001828154811061254b57fe5b9060005260206000200154905092915050565b8154600090819083106125a25760405162461bcd60e51b81526004018080602001828103825260228152602001806139056022913960400191505060405180910390fd5b60008460000184815481106125b357fe5b906000526020600020906002020190508060000154816001015492509250509250929050565b600082815260018401602052604081205482816126745760405162461bcd60e51b81526004018080602001828103825283818151815260200191508051906020019080838360005b83811015612639578181015183820152602001612621565b50505050905090810190601f1680156126665780820380516001836020036101000a031916815260200191505b509250505060405180910390fd5b5084600001600182038154811061268757fe5b9060005260206000209060020201600101549150509392505050565b60006126b7846001600160a01b0316612a3e565b6126c3575060016120a1565b60006128147f150b7a02000000000000000000000000000000000000000000000000000000006126f1611f86565b88878760405160240180856001600160a01b03168152602001846001600160a01b0316815260200183815260200180602001828103825283818151815260200191508051906020019080838360005b83811015612758578181015183820152602001612740565b50505050905090810190601f1680156127855780820380516001836020036101000a031916815260200191505b5095505050505050604051602081830303815290604052907bffffffffffffffffffffffffffffffffffffffffffffffffffffffff19166020820180517bffffffffffffffffffffffffffffffffffffffffffffffffffffffff83818316178352505050506040518060600160405280603281526020016137f8603291396001600160a01b0388169190612a44565b9050600081806020019051602081101561282d57600080fd5b50517fffffffff00000000000000000000000000000000000000000000000000000000167f150b7a02000000000000000000000000000000000000000000000000000000001492505050949350505050565b60009081526001919091016020526040902054151590565b6000818152600183016020526040812054801561295357835460001980830191908101906000908790839081106128ca57fe5b90600052602060002001549050808760000184815481106128e757fe5b60009182526020808320909101929092558281526001898101909252604090209084019055865487908061291757fe5b60019003818190600052602060002001600090559055866001016000878152602001908152602001600020600090556001945050505050610bcd565b6000915050610bcd565b6000612969838361287f565b61299f57508154600181810184556000848152602080822090930184905584548482528286019093526040902091909155610bcd565b506000610bcd565b600082815260018401602052604081205480612a0c575050604080518082018252838152602080820184815286546001818101895560008981528481209551600290930290950191825591519082015586548684528188019092529290912055612297565b82856000016001830381548110612a1f57fe5b9060005260206000209060020201600101819055506000915050612297565b3b151590565b6060612294848460008585612a5885612a3e565b612aa9576040805162461bcd60e51b815260206004820152601d60248201527f416464726573733a2063616c6c20746f206e6f6e2d636f6e7472616374000000604482015290519081900360640190fd5b600080866001600160a01b031685876040518082805190602001908083835b60208310612ae75780518252601f199092019160209182019101612ac8565b6001836020036101000a03801982511681845116808217855250505050505090500191505060006040518083038185875af1925050503d8060008114612b49576040519150601f19603f3d011682016040523d82523d6000602084013e612b4e565b606091505b5091509150612b5e828286612b69565b979650505050505050565b60608315612b78575081612297565b825115612b885782518084602001fd5b60405162461bcd60e51b8152602060048201818152845160248401528451859391928392604401919085019080838360008315612639578181015183820152602001612621565b60008083601f840112612be0578182fd5b50813567ffffffffffffffff811115612bf7578182fd5b60208301915083602060408302850101111561228057600080fd5b8035600281900b811461079057600080fd5b600060208284031215612c35578081fd5b8135610bca816137af565b600060208284031215612c51578081fd5b8151610bca816137af565b60008060408385031215612c6e578081fd5b8235612c79816137af565b91506020830135612c89816137af565b809150509250929050565b600080600060608486031215612ca8578081fd5b8335612cb3816137af565b92506020840135612cc3816137af565b929592945050506040919091013590565b60008060008060808587031215612ce9578081fd5b8435612cf4816137af565b93506020850135612d04816137af565b925060408501359150606085013567ffffffffffffffff811115612d26578182fd5b8501601f81018713612d36578182fd5b8035612d49612d4482613761565b61373d565b818152886020838501011115612d5d578384fd5b81602084016020830137908101602001929092525092959194509250565b60008060408385031215612d8d578182fd5b8235612d98816137af565b91506020830135612c89816137c7565b60008060408385031215612dba578182fd5b8235612dc5816137af565b946020939093013593505050565b60008060208385031215612de5578182fd5b823567ffffffffffffffff80821115612dfc578384fd5b818501915085601f830112612e0f578384fd5b813581811115612e1d578485fd5b8660208083028501011115612e30578485fd5b60209290920196919550909350505050565b600060208284031215612e53578081fd5b8151610bca816137c7565b600060208284031215612e6f578081fd5b5035919050565b600060208284031215612e87578081fd5b81357fffffffff0000000000000000000000000000000000000000000000000000000081168114610bca578182fd5b60008060008060808587031215612ecb578182fd5b8435612ed6816137af565b9350602085013592506040850135612eed816137af565b9396929550929360600135925050565b600060208284031215612f0e578081fd5b610bca82612c12565b600060208284031215612f28578081fd5b815167ffffffffffffffff811115612f3e578182fd5b8201601f81018413612f4e578182fd5b8051612f5c612d4482613761565b818152856020838501011115612f70578384fd5b612f81826020830160208601613783565b95945050505050565b600060a08284031215612f9b578081fd5b50919050565b600060208284031215612fb2578081fd5b813562ffffff81168114610bca578182fd5b600060208284031215612fd5578081fd5b5051919050565b600080600080600060608688031215612ff3578283fd5b85359450602086013567ffffffffffffffff80821115613011578485fd5b61301d89838a01612bcf565b90965094506040880135915080821115613035578283fd5b5061304288828901612bcf565b969995985093965092949392505050565b600080600060608486031215613067578081fd5b8335925061307760208501612c12565b915061308560408501612c12565b90509250925092565b600080604083850312156130a0578182fd5b50508035926020909101359150565b600080604083850312156130c1578182fd5b505080516020909101519092909150565b6000806000606084860312156130e6578081fd5b833592506020840135915060408401356fffffffffffffffffffffffffffffffff81168114613113578182fd5b809150509250925092565b600080600060608486031215613132578081fd5b8351925060208401519150604084015190509250925092565b60008060008060808587031215613160578182fd5b8435935060208501359250604085013591506060850135613180816137af565b939692955090935050565b600080600080608085870312156131a0578182fd5b5050823594602084013594506040840135936060013592509050565b600080600080600060a086880312156131d3578283fd5b505083359560208501359550604085013594606081013594506080013592509050565b60008060008060008060c0878903121561320e578384fd5b505084359660208601359650604086013595606081013595506080810135945060a0013592509050565b60008151808452613250816020860160208601613783565b601f01601f19169290920160200192915050565b6000828483379101908152919050565b918252602082015260400190565b6001600160a01b0391909116815260200190565b6001600160a01b039384168152919092166020820152604081019190915260600190565b6001600160a01b03988916815296881660208801529487166040870152929095166060850152608084015260a083019390935260c082019290925260e08101919091526101000190565b6001600160a01b03938416815291909216602082015262ffffff909116604082015260600190565b6000602080830181845280855180835260408601915060408482028701019250838701855b8281101561339d577fffffffffffffffffffffffffffffffffffffffffffffffffffffffffffffffc088860301845261338b858351613238565b94509285019290850190600101613351565b5092979650505050505050565b901515815260200190565b600292830b8152910b602082015260400190565b600060208252610bca6020830184613238565b60208082526003908201527f676f760000000000000000000000000000000000000000000000000000000000604082015260600190565b6020808252600d908201527f63616c6c6261636b206661696c00000000000000000000000000000000000000604082015260600190565b60208082526011908201527f4e6f6e2d6578697374656e7420706f6f6c000000000000000000000000000000604082015260600190565b60208082526001908201527f7300000000000000000000000000000000000000000000000000000000000000604082015260600190565b6020808252600c908201527f4e6f7420617070726f7665640000000000000000000000000000000000000000604082015260600190565b60208082526001908201527f7900000000000000000000000000000000000000000000000000000000000000604082015260600190565b6020808252602c908201527f4552433732313a20617070726f76656420717565727920666f72206e6f6e657860408201527f697374656e7420746f6b656e0000000000000000000000000000000000000000606082015260800190565b60208082526010908201527f496e76616c696420746f6b656e20494400000000000000000000000000000000604082015260600190565b60208082526008908201527f6e65787420676f76000000000000000000000000000000000000000000000000604082015260600190565b90815260200190565b9182526001600160a01b0316602082015260400190565b9384526001600160a01b03928316602085015291166040830152606082015260800190565b9182526fffffffffffffffffffffffffffffffff16602082015260400190565b92835260208301919091526001600160a01b0316604082015260600190565b9283526020830191909152604082015260600190565b9485526020850193909352604084019190915260608301526001600160a01b0316608082015260a00190565b948552602085019390935260408401919091526060830152608082015260a00190565b60008083357fffffffffffffffffffffffffffffffffffffffffffffffffffffffffffffffe184360301811261370e578283fd5b83018035915067ffffffffffffffff821115613728578283fd5b60200191503681900382131561228057600080fd5b60405181810167ffffffffffffffff8111828210171561375957fe5b604052919050565b600067ffffffffffffffff82111561377557fe5b50601f01601f191660200190565b60005b8381101561379e578181015183820152602001613786565b838111156113ab5750506000910152565b6001600160a01b03811681146137c457600080fd5b50565b80151581146137c457600080fdfe456e756d657261626c655365743a20696e646578206f7574206f6620626f756e64734552433732313a207472616e7366657220746f206e6f6e20455243373231526563656976657220696d706c656d656e7465724552433732313a207472616e7366657220746f20746865207a65726f20616464726573734552433732313a206f70657261746f7220717565727920666f72206e6f6e6578697374656e7420746f6b656e4552433732313a20617070726f76652063616c6c6572206973206e6f74206f776e6572206e6f7220617070726f76656420666f7220616c6c4552433732313a2062616c616e636520717565727920666f7220746865207a65726f20616464726573734552433732313a206f776e657220717565727920666f72206e6f6e6578697374656e7420746f6b656e456e756d657261626c654d61703a20696e646578206f7574206f6620626f756e64734552433732313a207472616e73666572206f6620746f6b656e2074686174206973206e6f74206f776e4552433732313a20617070726f76616c20746f2063757272656e74206f776e65724552433732313a207472616e736665722063616c6c6572206973206e6f74206f776e6572206e6f7220617070726f766564a164736f6c6343000706000a59494e277320556e697377617020563320506f736974696f6e73204d616e61676572",
  "linkReferences": {},
  "deployedLinkReferences": {}
}