{
  "_format": "hh-sol-artifact-1",
  "contractName": "CHIManager",
  "sourceName": "contracts/CHIManager.sol",
  "abi": [
    {
      "inputs": [
        {
          "internalType": "address",
          "name": "_v3Factory",
          "type": "address"
        },
        {
          "internalType": "address",
          "name": "_yangNFT",
          "type": "address"
        },
        {
          "internalType": "address",
          "name": "_deployer",
          "type": "address"
        },
        {
          "internalType": "bytes32",
          "name": "_merkleRoot",
          "type": "bytes32"
        }
      ],
      "stateMutability": "nonpayable",
      "type": "constructor"
    },
    {
      "anonymous": false,
      "inputs": [
        {
          "indexed": true,
          "internalType": "address",
          "name": "owner",
          "type": "address"
        },
        {
          "indexed": true,
          "internalType": "address",
          "name": "approved",
          "type": "address"
        },
        {
          "indexed": true,
          "internalType": "uint256",
          "name": "tokenId",
          "type": "uint256"
        }
      ],
      "name": "Approval",
      "type": "event"
    },
    {
      "anonymous": false,
      "inputs": [
        {
          "indexed": true,
          "internalType": "address",
          "name": "owner",
          "type": "address"
        },
        {
          "indexed": true,
          "internalType": "address",
          "name": "operator",
          "type": "address"
        },
        {
          "indexed": false,
          "internalType": "bool",
          "name": "approved",
          "type": "bool"
        }
      ],
      "name": "ApprovalForAll",
      "type": "event"
    },
    {
      "anonymous": false,
      "inputs": [
        {
          "indexed": false,
          "internalType": "uint256",
          "name": "tokenId",
          "type": "uint256"
        },
        {
          "indexed": false,
          "internalType": "address",
          "name": "pool",
          "type": "address"
        },
        {
          "indexed": false,
          "internalType": "address",
          "name": "vault",
          "type": "address"
        },
        {
          "indexed": false,
          "internalType": "uint256",
          "name": "vaultFee",
          "type": "uint256"
        }
      ],
      "name": "Create",
      "type": "event"
    },
    {
      "anonymous": false,
      "inputs": [
        {
          "indexed": true,
          "internalType": "address",
          "name": "from",
          "type": "address"
        },
        {
          "indexed": true,
          "internalType": "address",
          "name": "to",
          "type": "address"
        },
        {
          "indexed": true,
          "internalType": "uint256",
          "name": "tokenId",
          "type": "uint256"
        }
      ],
      "name": "Transfer",
      "type": "event"
    },
    {
      "inputs": [
        {
          "internalType": "contract IERC20",
          "name": "token0",
          "type": "address"
        },
        {
          "internalType": "uint256",
          "name": "amount0",
          "type": "uint256"
        },
        {
          "internalType": "contract IERC20",
          "name": "token1",
          "type": "address"
        },
        {
          "internalType": "uint256",
          "name": "amount1",
          "type": "uint256"
        }
      ],
      "name": "CHIDepositCallback",
      "outputs": [],
      "stateMutability": "nonpayable",
      "type": "function"
    },
    {
      "inputs": [
        {
          "internalType": "uint256",
          "name": "tokenId",
          "type": "uint256"
        },
        {
          "components": [
            {
              "internalType": "int24",
              "name": "tickLower",
              "type": "int24"
            },
            {
              "internalType": "int24",
              "name": "tickUpper",
              "type": "int24"
            }
          ],
          "internalType": "struct ICHIManager.RangeParams[]",
          "name": "addRanges",
          "type": "tuple[]"
        },
        {
          "components": [
            {
              "internalType": "int24",
              "name": "tickLower",
              "type": "int24"
            },
            {
              "internalType": "int24",
              "name": "tickUpper",
              "type": "int24"
            }
          ],
          "internalType": "struct ICHIManager.RangeParams[]",
          "name": "removeRanges",
          "type": "tuple[]"
        }
      ],
      "name": "addAndRemoveRanges",
      "outputs": [],
      "stateMutability": "nonpayable",
      "type": "function"
    },
    {
      "inputs": [
        {
          "internalType": "uint256",
          "name": "tokenId",
          "type": "uint256"
        },
        {
          "internalType": "uint256",
          "name": "rangeIndex",
          "type": "uint256"
        },
        {
          "internalType": "uint256",
          "name": "amount0Desired",
          "type": "uint256"
        },
        {
          "internalType": "uint256",
          "name": "amount1Desired",
          "type": "uint256"
        }
      ],
      "name": "addLiquidityToPosition",
      "outputs": [],
      "stateMutability": "nonpayable",
      "type": "function"
    },
    {
      "inputs": [
        {
          "internalType": "uint256",
          "name": "tokenId",
          "type": "uint256"
        },
        {
          "internalType": "int24",
          "name": "tickLower",
          "type": "int24"
        },
        {
          "internalType": "int24",
          "name": "tickUpper",
          "type": "int24"
        }
      ],
      "name": "addRange",
      "outputs": [],
      "stateMutability": "nonpayable",
      "type": "function"
    },
    {
      "inputs": [
        {
          "internalType": "address",
          "name": "to",
          "type": "address"
        },
        {
          "internalType": "uint256",
          "name": "tokenId",
          "type": "uint256"
        }
      ],
      "name": "approve",
      "outputs": [],
      "stateMutability": "nonpayable",
      "type": "function"
    },
    {
      "inputs": [
        {
          "internalType": "address",
          "name": "owner",
          "type": "address"
        }
      ],
      "name": "balanceOf",
      "outputs": [
        {
          "internalType": "uint256",
          "name": "",
          "type": "uint256"
        }
      ],
      "stateMutability": "view",
      "type": "function"
    },
    {
      "inputs": [],
      "name": "baseURI",
      "outputs": [
        {
          "internalType": "string",
          "name": "",
          "type": "string"
        }
      ],
      "stateMutability": "pure",
      "type": "function"
    },
    {
      "inputs": [
        {
          "internalType": "uint256",
          "name": "tokenId",
          "type": "uint256"
        }
      ],
      "name": "chi",
      "outputs": [
        {
          "internalType": "address",
          "name": "owner",
          "type": "address"
        },
        {
          "internalType": "address",
          "name": "operator",
          "type": "address"
        },
        {
          "internalType": "address",
          "name": "pool",
          "type": "address"
        },
        {
          "internalType": "address",
          "name": "vault",
          "type": "address"
        },
        {
          "internalType": "uint256",
          "name": "accruedProtocolFees0",
          "type": "uint256"
        },
        {
          "internalType": "uint256",
          "name": "accruedProtocolFees1",
          "type": "uint256"
        },
        {
          "internalType": "uint256",
          "name": "fee",
          "type": "uint256"
        },
        {
          "internalType": "uint256",
          "name": "totalShares",
          "type": "uint256"
        }
      ],
      "stateMutability": "view",
      "type": "function"
    },
    {
      "inputs": [
        {
          "internalType": "uint256",
          "name": "tokenId",
          "type": "uint256"
        },
        {
          "internalType": "uint256",
          "name": "amount0",
          "type": "uint256"
        },
        {
          "internalType": "uint256",
          "name": "amount1",
          "type": "uint256"
        },
        {
          "internalType": "address",
          "name": "to",
          "type": "address"
        }
      ],
      "name": "collectProtocol",
      "outputs": [],
      "stateMutability": "nonpayable",
      "type": "function"
    },
    {
      "inputs": [],
      "name": "deployer",
      "outputs": [
        {
          "internalType": "address",
          "name": "",
          "type": "address"
        }
      ],
      "stateMutability": "view",
      "type": "function"
    },
    {
      "inputs": [
        {
          "internalType": "uint256",
          "name": "tokenId",
          "type": "uint256"
        }
      ],
      "name": "getApproved",
      "outputs": [
        {
          "internalType": "address",
          "name": "",
          "type": "address"
        }
      ],
      "stateMutability": "view",
      "type": "function"
    },
    {
      "inputs": [
        {
          "internalType": "address",
          "name": "owner",
          "type": "address"
        },
        {
          "internalType": "address",
          "name": "operator",
          "type": "address"
        }
      ],
      "name": "isApprovedForAll",
      "outputs": [
        {
          "internalType": "bool",
          "name": "",
          "type": "bool"
        }
      ],
      "stateMutability": "view",
      "type": "function"
    },
    {
      "inputs": [],
      "name": "manager",
      "outputs": [
        {
          "internalType": "address",
          "name": "",
          "type": "address"
        }
      ],
      "stateMutability": "view",
      "type": "function"
    },
    {
      "inputs": [],
      "name": "merkleRoot",
      "outputs": [
        {
          "internalType": "bytes32",
          "name": "",
          "type": "bytes32"
        }
      ],
      "stateMutability": "view",
      "type": "function"
    },
    {
      "inputs": [
        {
          "components": [
            {
              "internalType": "address",
              "name": "recipient",
              "type": "address"
            },
            {
              "internalType": "address",
              "name": "token0",
              "type": "address"
            },
            {
              "internalType": "address",
              "name": "token1",
              "type": "address"
            },
            {
              "internalType": "uint24",
              "name": "fee",
              "type": "uint24"
            },
            {
              "internalType": "uint256",
              "name": "vaultFee",
              "type": "uint256"
            }
          ],
          "internalType": "struct ICHIManager.MintParams",
          "name": "params",
          "type": "tuple"
        },
        {
          "internalType": "bytes32[]",
          "name": "merkleProof",
          "type": "bytes32[]"
        }
      ],
      "name": "mint",
      "outputs": [
        {
          "internalType": "uint256",
          "name": "tokenId",
          "type": "uint256"
        },
        {
          "internalType": "address",
          "name": "vault",
          "type": "address"
        }
      ],
      "stateMutability": "nonpayable",
      "type": "function"
    },
    {
      "inputs": [
        {
          "internalType": "bytes[]",
          "name": "data",
          "type": "bytes[]"
        }
      ],
      "name": "multicall",
      "outputs": [
        {
          "internalType": "bytes[]",
          "name": "results",
          "type": "bytes[]"
        }
      ],
      "stateMutability": "payable",
      "type": "function"
    },
    {
      "inputs": [],
      "name": "name",
      "outputs": [
        {
          "internalType": "string",
          "name": "",
          "type": "string"
        }
      ],
      "stateMutability": "view",
      "type": "function"
    },
    {
      "inputs": [
        {
          "internalType": "uint256",
          "name": "tokenId",
          "type": "uint256"
        }
      ],
      "name": "ownerOf",
      "outputs": [
        {
          "internalType": "address",
          "name": "",
          "type": "address"
        }
      ],
      "stateMutability": "view",
      "type": "function"
    },
    {
      "inputs": [
        {
          "internalType": "bytes32",
          "name": "",
          "type": "bytes32"
        }
      ],
      "name": "positions",
      "outputs": [
        {
          "internalType": "uint256",
          "name": "shares",
          "type": "uint256"
        }
      ],
      "stateMutability": "view",
      "type": "function"
    },
    {
      "inputs": [
        {
          "internalType": "uint256",
          "name": "tokenId",
          "type": "uint256"
        },
        {
          "internalType": "uint256",
          "name": "rangeIndex",
          "type": "uint256"
        }
      ],
      "name": "removeAllLiquidityFromPosition",
      "outputs": [],
      "stateMutability": "nonpayable",
      "type": "function"
    },
    {
      "inputs": [
        {
          "internalType": "uint256",
          "name": "tokenId",
          "type": "uint256"
        },
        {
          "internalType": "uint256",
          "name": "rangeIndex",
          "type": "uint256"
        },
        {
          "internalType": "uint128",
          "name": "liquidity",
          "type": "uint128"
        }
      ],
      "name": "removeLiquidityFromPosition",
      "outputs": [],
      "stateMutability": "nonpayable",
      "type": "function"
    },
    {
      "inputs": [
        {
          "internalType": "uint256",
          "name": "tokenId",
          "type": "uint256"
        },
        {
          "internalType": "int24",
          "name": "tickLower",
          "type": "int24"
        },
        {
          "internalType": "int24",
          "name": "tickUpper",
          "type": "int24"
        }
      ],
      "name": "removeRange",
      "outputs": [],
      "stateMutability": "nonpayable",
      "type": "function"
    },
    {
      "inputs": [
        {
          "internalType": "address",
          "name": "from",
          "type": "address"
        },
        {
          "internalType": "address",
          "name": "to",
          "type": "address"
        },
        {
          "internalType": "uint256",
          "name": "tokenId",
          "type": "uint256"
        }
      ],
      "name": "safeTransferFrom",
      "outputs": [],
      "stateMutability": "nonpayable",
      "type": "function"
    },
    {
      "inputs": [
        {
          "internalType": "address",
          "name": "from",
          "type": "address"
        },
        {
          "internalType": "address",
          "name": "to",
          "type": "address"
        },
        {
          "internalType": "uint256",
          "name": "tokenId",
          "type": "uint256"
        },
        {
          "internalType": "bytes",
          "name": "_data",
          "type": "bytes"
        }
      ],
      "name": "safeTransferFrom",
      "outputs": [],
      "stateMutability": "nonpayable",
      "type": "function"
    },
    {
      "inputs": [
        {
          "internalType": "address",
          "name": "operator",
          "type": "address"
        },
        {
          "internalType": "bool",
          "name": "approved",
          "type": "bool"
        }
      ],
      "name": "setApprovalForAll",
      "outputs": [],
      "stateMutability": "nonpayable",
      "type": "function"
    },
    {
      "inputs": [
        {
          "internalType": "uint256",
          "name": "yangId",
          "type": "uint256"
        },
        {
          "internalType": "uint256",
          "name": "tokenId",
          "type": "uint256"
        },
        {
          "internalType": "uint256",
          "name": "amount0Desired",
          "type": "uint256"
        },
        {
          "internalType": "uint256",
          "name": "amount1Desired",
          "type": "uint256"
        },
        {
          "internalType": "uint256",
          "name": "amount0Min",
          "type": "uint256"
        },
        {
          "internalType": "uint256",
          "name": "amount1Min",
          "type": "uint256"
        }
      ],
      "name": "subscribe",
      "outputs": [
        {
          "internalType": "uint256",
          "name": "shares",
          "type": "uint256"
        },
        {
          "internalType": "uint256",
          "name": "amount0",
          "type": "uint256"
        },
        {
          "internalType": "uint256",
          "name": "amount1",
          "type": "uint256"
        }
      ],
      "stateMutability": "nonpayable",
      "type": "function"
    },
    {
      "inputs": [
        {
          "internalType": "bytes4",
          "name": "interfaceId",
          "type": "bytes4"
        }
      ],
      "name": "supportsInterface",
      "outputs": [
        {
          "internalType": "bool",
          "name": "",
          "type": "bool"
        }
      ],
      "stateMutability": "view",
      "type": "function"
    },
    {
      "inputs": [],
      "name": "symbol",
      "outputs": [
        {
          "internalType": "string",
          "name": "",
          "type": "string"
        }
      ],
      "stateMutability": "view",
      "type": "function"
    },
    {
      "inputs": [
        {
          "internalType": "uint256",
          "name": "index",
          "type": "uint256"
        }
      ],
      "name": "tokenByIndex",
      "outputs": [
        {
          "internalType": "uint256",
          "name": "",
          "type": "uint256"
        }
      ],
      "stateMutability": "view",
      "type": "function"
    },
    {
      "inputs": [
        {
          "internalType": "address",
          "name": "owner",
          "type": "address"
        },
        {
          "internalType": "uint256",
          "name": "index",
          "type": "uint256"
        }
      ],
      "name": "tokenOfOwnerByIndex",
      "outputs": [
        {
          "internalType": "uint256",
          "name": "",
          "type": "uint256"
        }
      ],
      "stateMutability": "view",
      "type": "function"
    },
    {
      "inputs": [
        {
          "internalType": "uint256",
          "name": "tokenId",
          "type": "uint256"
        }
      ],
      "name": "tokenURI",
      "outputs": [
        {
          "internalType": "string",
          "name": "",
          "type": "string"
        }
      ],
      "stateMutability": "view",
      "type": "function"
    },
    {
      "inputs": [],
      "name": "totalSupply",
      "outputs": [
        {
          "internalType": "uint256",
          "name": "",
          "type": "uint256"
        }
      ],
      "stateMutability": "view",
      "type": "function"
    },
    {
      "inputs": [
        {
          "internalType": "address",
          "name": "from",
          "type": "address"
        },
        {
          "internalType": "address",
          "name": "to",
          "type": "address"
        },
        {
          "internalType": "uint256",
          "name": "tokenId",
          "type": "uint256"
        }
      ],
      "name": "transferFrom",
      "outputs": [],
      "stateMutability": "nonpayable",
      "type": "function"
    },
    {
      "inputs": [
        {
          "internalType": "uint256",
          "name": "yangId",
          "type": "uint256"
        },
        {
          "internalType": "uint256",
          "name": "tokenId",
          "type": "uint256"
        },
        {
          "internalType": "uint256",
          "name": "shares",
          "type": "uint256"
        },
        {
          "internalType": "uint256",
          "name": "amount0Min",
          "type": "uint256"
        },
        {
          "internalType": "uint256",
          "name": "amount1Min",
          "type": "uint256"
        }
      ],
      "name": "unsubscribe",
      "outputs": [
        {
          "internalType": "uint256",
          "name": "amount0",
          "type": "uint256"
        },
        {
          "internalType": "uint256",
          "name": "amount1",
          "type": "uint256"
        }
      ],
      "stateMutability": "nonpayable",
      "type": "function"
    },
    {
      "inputs": [
        {
          "internalType": "bytes32",
          "name": "_merkleRoot",
          "type": "bytes32"
        }
      ],
      "name": "updateMerkleRoot",
      "outputs": [],
      "stateMutability": "nonpayable",
      "type": "function"
    },
    {
      "inputs": [],
      "name": "v3Factory",
      "outputs": [
        {
          "internalType": "address",
          "name": "",
          "type": "address"
        }
      ],
      "stateMutability": "view",
      "type": "function"
    },
    {
      "inputs": [],
      "name": "yangNFT",
      "outputs": [
        {
          "internalType": "address",
          "name": "",
          "type": "address"
        }
      ],
      "stateMutability": "view",
      "type": "function"
    }
  ],
  "bytecode": "0x6080604052600b80546001600160b01b03191660011790553480156200002457600080fd5b5060405162003daa38038062003daa8339810160408190526200004791620002ae565b60408051808201825260208082527f59494e20556e697377617020563320506f736974696f6e73204d616e61676572818301528251808401909352600383526243484960e81b90830152600160005590620000a96301ffc9a760e01b6200015d565b8151620000be906007906020850190620001e5565b508051620000d4906008906020840190620001e5565b50620000e76380ac58cd60e01b6200015d565b620000f9635b5e139f60e01b6200015d565b6200010b63780e9d6360e01b6200015d565b5050600e8054336001600160a01b031991821617909155600f805482166001600160a01b03968716179055601080548216948616949094179093556011805490931691909316179055601255620002ff565b6001600160e01b03198082161415620001bd576040805162461bcd60e51b815260206004820152601c60248201527f4552433136353a20696e76616c696420696e7465726661636520696400000000604482015290519081900360640190fd5b6001600160e01b0319166000908152600160208190526040909120805460ff19169091179055565b828054600181600116156101000203166002900490600052602060002090601f0160209004810192826200021d576000855562000268565b82601f106200023857805160ff191683800117855562000268565b8280016001018555821562000268579182015b82811115620002685782518255916020019190600101906200024b565b50620002769291506200027a565b5090565b5b808211156200027657600081556001016200027b565b80516001600160a01b0381168114620002a957600080fd5b919050565b60008060008060808587031215620002c4578384fd5b620002cf8562000291565b9350620002df6020860162000291565b9250620002ef6040860162000291565b6060959095015193969295505050565b613a9b806200030f6000396000f3fe60806040526004361061026a5760003560e01c80635d87b6e411610153578063b88d4fde116100cb578063df84f84d1161007f578063e985e9c511610064578063e985e9c5146106bb578063ec28fcac146106db578063ed1bbd0b1461070a5761026a565b8063df84f84d1461067b578063e2c3350e1461069b5761026a565b8063c2108d1b116100b0578063c2108d1b14610626578063c87b56dd14610646578063d5f39488146106665761026a565b8063b88d4fde146105d2578063b9decd66146105f25761026a565b806372405f0b1161012257806395d89b411161010757806395d89b411461057d578063a22cb46514610592578063ac9650d8146105b25761026a565b806372405f0b1461053a5780637c887c59146105685761026a565b80635d87b6e4146104c55780636352211e146104e55780636c0360eb1461050557806370a082311461051a5761026a565b80632f745c59116101e65780634783f0ef116101b55780634b57512d1161019a5780634b57512d146104655780634f6ccce714610485578063514ea4bf146104a55761026a565b80634783f0ef14610430578063481c6a75146104505761026a565b80632f745c59146103ad5780634259ab44146103cd57806342842e0e146103e257806346698e75146104025761026a565b80630e082b741161023d57806323b872dd1161022257806323b872dd1461035857806325f368ae146103785780632eb4a7ab146103985761026a565b80630e082b741461031657806318160ddd146103365761026a565b806301ffc9a71461026f57806306fdde03146102a5578063081812fc146102c7578063095ea7b3146102f4575b600080fd5b34801561027b57600080fd5b5061028f61028a366004612ef2565b61072a565b60405161029c9190613497565b60405180910390f35b3480156102b157600080fd5b506102ba610765565b60405161029c91906134bf565b3480156102d357600080fd5b506102e76102e2366004612eda565b6107fb565b60405161029c919061336f565b34801561030057600080fd5b5061031461030f366004612e53565b610847565b005b34801561032257600080fd5b5061031461033136600461318f565b61091d565b34801561034257600080fd5b5061034b6109fa565b60405161029c91906134a2565b34801561036457600080fd5b50610314610373366004612d3f565b610a0b565b34801561038457600080fd5b50610314610393366004613208565b610a62565b3480156103a457600080fd5b5061034b610b21565b3480156103b957600080fd5b5061034b6103c8366004612e53565b610b27565b3480156103d957600080fd5b506102e7610b52565b3480156103ee57600080fd5b506103146103fd366004612d3f565b610b61565b34801561040e57600080fd5b5061042261041d366004613279565b610b7c565b60405161029c929190613361565b34801561043c57600080fd5b5061031461044b366004612eda565b610d53565b34801561045c57600080fd5b506102e7610d82565b34801561047157600080fd5b50610314610480366004613110565b610d91565b34801561049157600080fd5b5061034b6104a0366004612eda565b610e4d565b3480156104b157600080fd5b5061034b6104c0366004612eda565b610e63565b3480156104d157600080fd5b506103146104e036600461314b565b610e75565b3480156104f157600080fd5b506102e7610500366004612eda565b610f4f565b34801561051157600080fd5b506102ba610f77565b34801561052657600080fd5b5061034b610535366004612ccf565b610f7c565b34801561054657600080fd5b5061055a610555366004613006565b610fe4565b60405161029c9291906136e7565b34801561057457600080fd5b506102e7611344565b34801561058957600080fd5b506102ba611353565b34801561059e57600080fd5b506103146105ad366004612e26565b6113b4565b6105c56105c0366004612e7e565b6114d7565b60405161029c9190613419565b3480156105de57600080fd5b506103146105ed366004612d7f565b611617565b3480156105fe57600080fd5b5061061261060d366004612eda565b611675565b60405161029c9897969594939291906133a7565b34801561063257600080fd5b50610314610641366004613248565b6118e6565b34801561065257600080fd5b506102ba610661366004612eda565b61196b565b34801561067257600080fd5b506102e7611993565b34801561068757600080fd5b50610314610696366004613099565b6119a2565b3480156106a757600080fd5b506103146106b6366004613110565b611b5f565b3480156106c757600080fd5b5061028f6106d6366004612d07565b611be2565b3480156106e757600080fd5b506106fb6106f63660046132b3565b611c10565b60405161029c93929190613762565b34801561071657600080fd5b50610314610725366004612f32565b611dce565b7fffffffff00000000000000000000000000000000000000000000000000000000811660009081526001602052604090205460ff165b919050565b60078054604080516020601f60026000196101006001881615020190951694909404938401819004810282018101909252828152606093909290918301828280156107f15780601f106107c6576101008083540402835291602001916107f1565b820191906000526020600020905b8154815290600101906020018083116107d457829003601f168201915b5050505050905090565b600061080682611f2e565b61082b5760405162461bcd60e51b815260040161082290613653565b60405180910390fd5b506000908152600d60205260409020546001600160a01b031690565b600061085282610f4f565b9050806001600160a01b0316836001600160a01b031614156108a55760405162461bcd60e51b8152600401808060200182810382526021815260200180613a3d6021913960400191505060405180910390fd5b806001600160a01b03166108b7611f3b565b6001600160a01b031614806108d357506108d3816106d6611f3b565b61090e5760405162461bcd60e51b81526004018080602001828103825260388152602001806139676038913960400191505060405180910390fd5b6109188383611f3f565b505050565b826109283382611fc5565b6109445760405162461bcd60e51b8152600401610822906135e5565b6000848152600d602052604090819020600281015491517fd4da618500000000000000000000000000000000000000000000000000000000815290916001600160a01b03169063d4da6185906109a09087908790600401613723565b6040805180830381600087803b1580156109b957600080fd5b505af11580156109cd573d6000803e3d6000fd5b505050506040513d601f19601f820116820180604052508101906109f1919061316c565b50505050505050565b6000610a066003612069565b905090565b610a1c610a16611f3b565b82611fc5565b610a575760405162461bcd60e51b8152600401808060200182810382526031815260200180613a5e6031913960400191505060405180910390fd5b610918838383612074565b83610a6d3382611fc5565b610a895760405162461bcd60e51b8152600401610822906135e5565b6000858152600d602052604090819020600281015491517f0430c13000000000000000000000000000000000000000000000000000000000815290916001600160a01b031690630430c13090610ae790889088908890600401613743565b600060405180830381600087803b158015610b0157600080fd5b505af1158015610b15573d6000803e3d6000fd5b50505050505050505050565b60125481565b6001600160a01b0382166000908152600260205260408120610b4990836121c0565b90505b92915050565b6010546001600160a01b031681565b61091883838360405180602001604052806000815250611617565b60105460009081906001600160a01b03163314610bab5760405162461bcd60e51b81526004016108229061361c565b60026000541415610c03576040805162461bcd60e51b815260206004820152601f60248201527f5265656e7472616e637947756172643a207265656e7472616e742063616c6c00604482015290519081900360640190fd5b60026000908155604051610c1d9089908990602001613361565b60408051601f1981840301815291815281516020928301206000818152600c9093529120805491925090871115610c665760405162461bcd60e51b8152600401610822906135ae565b6000888152600d602052604090819020600281015460105492517fd473a65400000000000000000000000000000000000000000000000000000000815291926001600160a01b039182169263d473a65492610cce928f928e928e928e92911690600401613778565b6040805180830381600087803b158015610ce757600080fd5b505af1158015610cfb573d6000803e3d6000fd5b505050506040513d601f19601f82011682018060405250810190610d1f919061316c565b6000858152600c60205260409020549196509450610d3d90896121cc565b9091555050600160005590969095509350505050565b600e546001600160a01b03163314610d7d5760405162461bcd60e51b815260040161082290613509565b601255565b600e546001600160a01b031681565b82610d9c3382611fc5565b610db85760405162461bcd60e51b8152600401610822906135e5565b6000848152600d602052604090819020600281015491517f5a64998b00000000000000000000000000000000000000000000000000000000815290916001600160a01b031690635a64998b90610e1490879087906004016134ab565b600060405180830381600087803b158015610e2e57600080fd5b505af1158015610e42573d6000803e3d6000fd5b505050505050505050565b600080610e5b600384612229565b509392505050565b600c6020526000908152604090205481565b81610e803382611fc5565b610e9c5760405162461bcd60e51b8152600401610822906135e5565b6000838152600d602052604090819020600281015491517f2106fa4600000000000000000000000000000000000000000000000000000000815290916001600160a01b031690632106fa4690610ef69086906004016134a2565b6040805180830381600087803b158015610f0f57600080fd5b505af1158015610f23573d6000803e3d6000fd5b505050506040513d601f19601f82011682018060405250810190610f47919061316c565b505050505050565b6000610b4c826040518060600160405280602981526020016139c96029913960039190612247565b606090565b60006001600160a01b038216610fc35760405162461bcd60e51b815260040180806020018281038252602a81526020018061399f602a913960400191505060405180910390fd5b6001600160a01b0382166000908152600260205260409020610b4c90612069565b6000808383600033604051602001610ffc9190613321565b60405160208183030381529060405280519060200120905061105583838080602002602001604051908101604052809392919081815260200183836020028082843760009201919091525050601254915084905061225e565b6110715760405162461bcd60e51b8152600401610822906134d2565b600f546000906001600160a01b0316631698ee8261109560408c0160208d01612ccf565b6110a560608d0160408e01612ccf565b6110b560808e0160608f0161305e565b6040518463ffffffff1660e01b81526004016110d3939291906133f1565b60206040518083038186803b1580156110eb57600080fd5b505afa1580156110ff573d6000803e3d6000fd5b505050506040513d601f19601f820116820180604052508101906111239190612ceb565b90506001600160a01b03811661114b5760405162461bcd60e51b815260040161082290613577565b6011546040517f58b4b7110000000000000000000000000000000000000000000000000000000081526001600160a01b03909116906358b4b7119061119c908490309060808f013590600401613383565b602060405180830381600087803b1580156111b657600080fd5b505af11580156111ca573d6000803e3d6000fd5b505050506040513d601f19601f820116820180604052508101906111ee9190612ceb565b945061125561120060208b018b612ccf565b600b80547fffffffffffffffffffff000000000000000000000000000000000000000000008116600175ffffffffffffffffffffffffffffffffffffffffffff92831690810190921617909155975087612307565b60408051606081019091528061126e60208c018c612ccf565b6001600160a01b03908116825283811660208084019190915288821660409384015260008a8152600d8252839020845181549084167fffffffffffffffffffffffff000000000000000000000000000000000000000091821617825591850151600182018054918516918416919091179055938301516002909401805494909216931692909217909155517ff03c0794e29ab9041701d90faa819fd394c96b5d374215f11d7dd03839606d5e906113309088908490899060808f0135906136fe565b60405180910390a150505050935093915050565b600f546001600160a01b031681565b60088054604080516020601f60026000196101006001881615020190951694909404938401819004810282018101909252828152606093909290918301828280156107f15780601f106107c6576101008083540402835291602001916107f1565b6113bc611f3b565b6001600160a01b0316826001600160a01b03161415611422576040805162461bcd60e51b815260206004820152601960248201527f4552433732313a20617070726f766520746f2063616c6c657200000000000000604482015290519081900360640190fd5b806006600061142f611f3b565b6001600160a01b0390811682526020808301939093526040918201600090812091871680825291909352912080547fffffffffffffffffffffffffffffffffffffffffffffffffffffffffffffff001692151592909217909155611491611f3b565b6001600160a01b03167f17307eab39ab6107e8899845ad3d59bd9653f200f220920489ca2b5937696c318360405180821515815260200191505060405180910390a35050565b60608167ffffffffffffffff811180156114f057600080fd5b5060405190808252806020026020018201604052801561152457816020015b606081526020019060019003908161150f5790505b50905060005b82811015611610576000803086868581811061154257fe5b905060200281019061155491906137c7565b604051611562929190613351565b600060405180830381855af49150503d806000811461159d576040519150601f19603f3d011682016040523d82523d6000602084013e6115a2565b606091505b5091509150816115ee576044815110156115bb57600080fd5b600481019050808060200190518101906115d59190612f93565b60405162461bcd60e51b815260040161082291906134bf565b808484815181106115fb57fe5b6020908102919091010152505060010161152a565b5092915050565b611628611622611f3b565b83611fc5565b6116635760405162461bcd60e51b8152600401808060200182810382526031815260200180613a5e6031913960400191505060405180910390fd5b61166f84848484612435565b50505050565b6000818152600d60205260408120819081908190819081908190819061169a8a611f2e565b6116b65760405162461bcd60e51b8152600401610822906136b0565b60028101546001600160a01b03166116cd8b610f4f565b825460018401546002850154604080517feae989a200000000000000000000000000000000000000000000000000000000815290516001600160a01b0394851694938416939283169287169163eae989a2916004808301926020929190829003018186803b15801561173e57600080fd5b505afa158015611752573d6000803e3d6000fd5b505050506040513d601f19601f820116820180604052508101906117769190613081565b856001600160a01b031663a00fa77f6040518163ffffffff1660e01b815260040160206040518083038186803b1580156117af57600080fd5b505afa1580156117c3573d6000803e3d6000fd5b505050506040513d601f19601f820116820180604052508101906117e79190613081565b866001600160a01b031663b0e21e8a6040518163ffffffff1660e01b815260040160206040518083038186803b15801561182057600080fd5b505afa158015611834573d6000803e3d6000fd5b505050506040513d601f19601f820116820180604052508101906118589190613081565b876001600160a01b03166318160ddd6040518163ffffffff1660e01b815260040160206040518083038186803b15801561189157600080fd5b505afa1580156118a5573d6000803e3d6000fd5b505050506040513d601f19601f820116820180604052508101906118c99190613081565b995099509950995099509950995099505050919395975091939597565b836118f13382611fc5565b61190d5760405162461bcd60e51b8152600401610822906135e5565b6000858152600d602052604090819020600281015491517f9d9d75be00000000000000000000000000000000000000000000000000000000815290916001600160a01b031690639d9d75be90610ae790889088908890600401613762565b606061197682611f2e565b61197f57600080fd5b505060408051602081019091526000815290565b6011546001600160a01b031681565b846119ad3382611fc5565b6119c95760405162461bcd60e51b8152600401610822906135e5565b6000868152600d60205260408120905b85811015611a955760028201546001600160a01b031663db4dcce4888884818110611a0057fe5b611a169260206040909202019081019150612f79565b898985818110611a2257fe5b9050604002016020016020810190611a3a9190612f79565b6040518363ffffffff1660e01b8152600401611a579291906134ab565b600060405180830381600087803b158015611a7157600080fd5b505af1158015611a85573d6000803e3d6000fd5b5050600190920191506119d99050565b5060005b83811015611b555760028201546001600160a01b0316635a64998b868684818110611ac057fe5b611ad69260206040909202019081019150612f79565b878785818110611ae257fe5b9050604002016020016020810190611afa9190612f79565b6040518363ffffffff1660e01b8152600401611b179291906134ab565b600060405180830381600087803b158015611b3157600080fd5b505af1158015611b45573d6000803e3d6000fd5b505060019092019150611a999050565b5050505050505050565b82611b6a3382611fc5565b611b865760405162461bcd60e51b8152600401610822906135e5565b6000848152600d602052604090819020600281015491517fdb4dcce400000000000000000000000000000000000000000000000000000000815290916001600160a01b03169063db4dcce490610e1490879087906004016134ab565b6001600160a01b03918216600090815260066020908152604080832093909416825291909152205460ff1690565b601054600090819081906001600160a01b03163314611c415760405162461bcd60e51b81526004016108229061361c565b6013889055600054889060021415611ca0576040805162461bcd60e51b815260206004820152601f60248201527f5265656e7472616e637947756172643a207265656e7472616e742063616c6c00604482015290519081900360640190fd5b600260008181558a8152600d6020526040908190209182015490517fbf02b5ea0000000000000000000000000000000000000000000000000000000081526001600160a01b039091169063bf02b5ea90611d06908e908d908d908d908d906004016137a4565b606060405180830381600087803b158015611d2057600080fd5b505af1158015611d34573d6000803e3d6000fd5b505050506040513d601f19601f82011682018060405250810190611d5891906131db565b6040519297509095509350600090611d76908d908d90602001613361565b60408051601f1981840301815291815281516020928301206000818152600c909352912054909150611da89087612487565b6000918252600c6020526040822055600181556013555092999198509650945050505050565b611dd7336124e1565b8215611e80576010546040517f23b872dd0000000000000000000000000000000000000000000000000000000081526001600160a01b03868116926323b872dd92611e2c929091169033908890600401613383565b602060405180830381600087803b158015611e4657600080fd5b505af1158015611e5a573d6000803e3d6000fd5b505050506040513d601f19601f82011682018060405250810190611e7e9190612ebe565b505b801561166f576010546040517f23b872dd0000000000000000000000000000000000000000000000000000000081526001600160a01b03848116926323b872dd92611ed5929091169033908690600401613383565b602060405180830381600087803b158015611eef57600080fd5b505af1158015611f03573d6000803e3d6000fd5b505050506040513d601f19601f82011682018060405250810190611f279190612ebe565b5050505050565b6000610b4c600383612525565b3390565b6000818152600d6020526040902080547fffffffffffffffffffffffff0000000000000000000000000000000000000000166001600160a01b0384169081179091558190611f8c82610f4f565b6001600160a01b03167f8c5be1e5ebec7d5bd14f71427d1e84f3dd0314c0f7b2291e5b200ac8c7c3b92560405160405180910390a45050565b6000611fd082611f2e565b61200b5760405162461bcd60e51b815260040180806020018281038252602c81526020018061393b602c913960400191505060405180910390fd5b600061201683610f4f565b9050806001600160a01b0316846001600160a01b031614806120515750836001600160a01b0316612046846107fb565b6001600160a01b0316145b8061206157506120618185611be2565b949350505050565b6000610b4c82612531565b826001600160a01b031661208782610f4f565b6001600160a01b0316146120cc5760405162461bcd60e51b8152600401808060200182810382526029815260200180613a146029913960400191505060405180910390fd5b6001600160a01b0382166121115760405162461bcd60e51b81526004018080602001828103825260248152602001806139176024913960400191505060405180910390fd5b61211c838383610918565b612127600082611f3f565b6001600160a01b03831660009081526002602052604090206121499082612535565b506001600160a01b038216600090815260026020526040902061216c9082612541565b506121796003828461254d565b5080826001600160a01b0316846001600160a01b03167fddf252ad1be2c89b69c2b068fc378daa952ba7f163c4a11628f55a4df523b3ef60405160405180910390a4505050565b6000610b498383612563565b600082821115612223576040805162461bcd60e51b815260206004820152601e60248201527f536166654d6174683a207375627472616374696f6e206f766572666c6f770000604482015290519081900360640190fd5b50900390565b600080808061223886866125c7565b909450925050505b9250929050565b6000612254848484612642565b90505b9392505050565b600081815b85518110156122fc57600086828151811061227a57fe5b602002602001015190508083116122c157828160405160200180838152602001828152602001925050506040516020818303038152906040528051906020012092506122f3565b808360405160200180838152602001828152602001925050506040516020818303038152906040528051906020012092505b50600101612263565b509092149392505050565b6001600160a01b038216612362576040805162461bcd60e51b815260206004820181905260248201527f4552433732313a206d696e7420746f20746865207a65726f2061646472657373604482015290519081900360640190fd5b61236b81611f2e565b156123bd576040805162461bcd60e51b815260206004820152601c60248201527f4552433732313a20746f6b656e20616c7265616479206d696e74656400000000604482015290519081900360640190fd5b6123c960008383610918565b6001600160a01b03821660009081526002602052604090206123eb9082612541565b506123f86003828461254d565b5060405181906001600160a01b038416906000907fddf252ad1be2c89b69c2b068fc378daa952ba7f163c4a11628f55a4df523b3ef908290a45050565b612440848484612074565b61244c8484848461270c565b61166f5760405162461bcd60e51b81526004018080602001828103825260328152602001806138e56032913960400191505060405180910390fd5b600082820183811015610b49576040805162461bcd60e51b815260206004820152601b60248201527f536166654d6174683a206164646974696f6e206f766572666c6f770000000000604482015290519081900360640190fd5b6013546000908152600d6020526040902060028101546001600160a01b038381169116146125215760405162461bcd60e51b815260040161082290613540565b5050565b6000610b4983836128e8565b5490565b6000610b498383612900565b6000610b4983836129c6565b600061225484846001600160a01b038516612a10565b815460009082106125a55760405162461bcd60e51b81526004018080602001828103825260228152602001806138c36022913960400191505060405180910390fd5b8260000182815481106125b457fe5b9060005260206000200154905092915050565b81546000908190831061260b5760405162461bcd60e51b81526004018080602001828103825260228152602001806139f26022913960400191505060405180910390fd5b600084600001848154811061261c57fe5b906000526020600020906002020190508060000154816001015492509250509250929050565b600082815260018401602052604081205482816126dd5760405162461bcd60e51b81526004018080602001828103825283818151815260200191508051906020019080838360005b838110156126a257818101518382015260200161268a565b50505050905090810190601f1680156126cf5780820380516001836020036101000a031916815260200191505b509250505060405180910390fd5b508460000160018203815481106126f057fe5b9060005260206000209060020201600101549150509392505050565b6000612720846001600160a01b0316612aa7565b61272c57506001612061565b600061287d7f150b7a020000000000000000000000000000000000000000000000000000000061275a611f3b565b88878760405160240180856001600160a01b03168152602001846001600160a01b0316815260200183815260200180602001828103825283818151815260200191508051906020019080838360005b838110156127c15781810151838201526020016127a9565b50505050905090810190601f1680156127ee5780820380516001836020036101000a031916815260200191505b5095505050505050604051602081830303815290604052907bffffffffffffffffffffffffffffffffffffffffffffffffffffffff19166020820180517bffffffffffffffffffffffffffffffffffffffffffffffffffffffff83818316178352505050506040518060600160405280603281526020016138e5603291396001600160a01b0388169190612aad565b9050600081806020019051602081101561289657600080fd5b50517fffffffff00000000000000000000000000000000000000000000000000000000167f150b7a02000000000000000000000000000000000000000000000000000000001492505050949350505050565b60009081526001919091016020526040902054151590565b600081815260018301602052604081205480156129bc578354600019808301919081019060009087908390811061293357fe5b906000526020600020015490508087600001848154811061295057fe5b60009182526020808320909101929092558281526001898101909252604090209084019055865487908061298057fe5b60019003818190600052602060002001600090559055866001016000878152602001908152602001600020600090556001945050505050610b4c565b6000915050610b4c565b60006129d283836128e8565b612a0857508154600181810184556000848152602080822090930184905584548482528286019093526040902091909155610b4c565b506000610b4c565b600082815260018401602052604081205480612a75575050604080518082018252838152602080820184815286546001818101895560008981528481209551600290930290950191825591519082015586548684528188019092529290912055612257565b82856000016001830381548110612a8857fe5b9060005260206000209060020201600101819055506000915050612257565b3b151590565b6060612254848460008585612ac185612aa7565b612b12576040805162461bcd60e51b815260206004820152601d60248201527f416464726573733a2063616c6c20746f206e6f6e2d636f6e7472616374000000604482015290519081900360640190fd5b600080866001600160a01b031685876040518082805190602001908083835b60208310612b505780518252601f199092019160209182019101612b31565b6001836020036101000a03801982511681845116808217855250505050505090500191505060006040518083038185875af1925050503d8060008114612bb2576040519150601f19603f3d011682016040523d82523d6000602084013e612bb7565b606091505b5091509150612bc7828286612bd2565b979650505050505050565b60608315612be1575081612257565b825115612bf15782518084602001fd5b60405162461bcd60e51b81526020600482018181528451602484015284518593919283926044019190850190808383600083156126a257818101518382015260200161268a565b60008083601f840112612c49578182fd5b50813567ffffffffffffffff811115612c60578182fd5b602083019150836020808302850101111561224057600080fd5b60008083601f840112612c8b578182fd5b50813567ffffffffffffffff811115612ca2578182fd5b60208301915083602060408302850101111561224057600080fd5b8035600281900b811461076057600080fd5b600060208284031215612ce0578081fd5b8135610b498161389c565b600060208284031215612cfc578081fd5b8151610b498161389c565b60008060408385031215612d19578081fd5b8235612d248161389c565b91506020830135612d348161389c565b809150509250929050565b600080600060608486031215612d53578081fd5b8335612d5e8161389c565b92506020840135612d6e8161389c565b929592945050506040919091013590565b60008060008060808587031215612d94578081fd5b8435612d9f8161389c565b93506020850135612daf8161389c565b925060408501359150606085013567ffffffffffffffff811115612dd1578182fd5b8501601f81018713612de1578182fd5b8035612df4612def8261384e565b61382a565b818152886020838501011115612e08578384fd5b81602084016020830137908101602001929092525092959194509250565b60008060408385031215612e38578182fd5b8235612e438161389c565b91506020830135612d34816138b4565b60008060408385031215612e65578182fd5b8235612e708161389c565b946020939093013593505050565b60008060208385031215612e90578182fd5b823567ffffffffffffffff811115612ea6578283fd5b612eb285828601612c38565b90969095509350505050565b600060208284031215612ecf578081fd5b8151610b49816138b4565b600060208284031215612eeb578081fd5b5035919050565b600060208284031215612f03578081fd5b81357fffffffff0000000000000000000000000000000000000000000000000000000081168114610b49578182fd5b60008060008060808587031215612f47578182fd5b8435612f528161389c565b9350602085013592506040850135612f698161389c565b9396929550929360600135925050565b600060208284031215612f8a578081fd5b610b4982612cbd565b600060208284031215612fa4578081fd5b815167ffffffffffffffff811115612fba578182fd5b8201601f81018413612fca578182fd5b8051612fd8612def8261384e565b818152856020838501011115612fec578384fd5b612ffd826020830160208601613870565b95945050505050565b600080600083850360c081121561301b578182fd5b60a0811215613028578182fd5b5083925060a084013567ffffffffffffffff811115613045578182fd5b61305186828701612c38565b9497909650939450505050565b60006020828403121561306f578081fd5b813562ffffff81168114610b49578182fd5b600060208284031215613092578081fd5b5051919050565b6000806000806000606086880312156130b0578283fd5b85359450602086013567ffffffffffffffff808211156130ce578485fd5b6130da89838a01612c7a565b909650945060408801359150808211156130f2578283fd5b506130ff88828901612c7a565b969995985093965092949392505050565b600080600060608486031215613124578081fd5b8335925061313460208501612cbd565b915061314260408501612cbd565b90509250925092565b6000806040838503121561315d578182fd5b50508035926020909101359150565b6000806040838503121561317e578182fd5b505080516020909101519092909150565b6000806000606084860312156131a3578081fd5b833592506020840135915060408401356fffffffffffffffffffffffffffffffff811681146131d0578182fd5b809150509250925092565b6000806000606084860312156131ef578081fd5b8351925060208401519150604084015190509250925092565b6000806000806080858703121561321d578182fd5b843593506020850135925060408501359150606085013561323d8161389c565b939692955090935050565b6000806000806080858703121561325d578182fd5b5050823594602084013594506040840135936060013592509050565b600080600080600060a08688031215613290578283fd5b505083359560208501359550604085013594606081013594506080013592509050565b60008060008060008060c087890312156132cb578384fd5b505084359660208601359650604086013595606081013595506080810135945060a0013592509050565b6000815180845261330d816020860160208601613870565b601f01601f19169290920160200192915050565b60609190911b7fffffffffffffffffffffffffffffffffffffffff00000000000000000000000016815260140190565b6000828483379101908152919050565b918252602082015260400190565b6001600160a01b0391909116815260200190565b6001600160a01b039384168152919092166020820152604081019190915260600190565b6001600160a01b03988916815296881660208801529487166040870152929095166060850152608084015260a083019390935260c082019290925260e08101919091526101000190565b6001600160a01b03938416815291909216602082015262ffffff909116604082015260600190565b6000602080830181845280855180835260408601915060408482028701019250838701855b8281101561348a577fffffffffffffffffffffffffffffffffffffffffffffffffffffffffffffffc08886030184526134788583516132f5565b9450928501929085019060010161343e565b5092979650505050505050565b901515815260200190565b90815260200190565b600292830b8152910b602082015260400190565b600060208252610b4960208301846132f5565b60208082526009908201527f6f6e6c7920676f76730000000000000000000000000000000000000000000000604082015260600190565b60208082526007908201527f6d616e6167657200000000000000000000000000000000000000000000000000604082015260600190565b6020808252600d908201527f63616c6c6261636b206661696c00000000000000000000000000000000000000604082015260600190565b60208082526011908201527f4e6f6e2d6578697374656e7420706f6f6c000000000000000000000000000000604082015260600190565b60208082526001908201527f7300000000000000000000000000000000000000000000000000000000000000604082015260600190565b6020808252600c908201527f4e6f7420617070726f7665640000000000000000000000000000000000000000604082015260600190565b60208082526001908201527f7900000000000000000000000000000000000000000000000000000000000000604082015260600190565b6020808252602c908201527f4552433732313a20617070726f76656420717565727920666f72206e6f6e657860408201527f697374656e7420746f6b656e0000000000000000000000000000000000000000606082015260800190565b60208082526010908201527f496e76616c696420746f6b656e20494400000000000000000000000000000000604082015260600190565b9182526001600160a01b0316602082015260400190565b9384526001600160a01b03928316602085015291166040830152606082015260800190565b9182526fffffffffffffffffffffffffffffffff16602082015260400190565b92835260208301919091526001600160a01b0316604082015260600190565b9283526020830191909152604082015260600190565b9485526020850193909352604084019190915260608301526001600160a01b0316608082015260a00190565b948552602085019390935260408401919091526060830152608082015260a00190565b60008083357fffffffffffffffffffffffffffffffffffffffffffffffffffffffffffffffe18436030181126137fb578283fd5b83018035915067ffffffffffffffff821115613815578283fd5b60200191503681900382131561224057600080fd5b60405181810167ffffffffffffffff8111828210171561384657fe5b604052919050565b600067ffffffffffffffff82111561386257fe5b50601f01601f191660200190565b60005b8381101561388b578181015183820152602001613873565b8381111561166f5750506000910152565b6001600160a01b03811681146138b157600080fd5b50565b80151581146138b157600080fdfe456e756d657261626c655365743a20696e646578206f7574206f6620626f756e64734552433732313a207472616e7366657220746f206e6f6e20455243373231526563656976657220696d706c656d656e7465724552433732313a207472616e7366657220746f20746865207a65726f20616464726573734552433732313a206f70657261746f7220717565727920666f72206e6f6e6578697374656e7420746f6b656e4552433732313a20617070726f76652063616c6c6572206973206e6f74206f776e6572206e6f7220617070726f76656420666f7220616c6c4552433732313a2062616c616e636520717565727920666f7220746865207a65726f20616464726573734552433732313a206f776e657220717565727920666f72206e6f6e6578697374656e7420746f6b656e456e756d657261626c654d61703a20696e646578206f7574206f6620626f756e64734552433732313a207472616e73666572206f6620746f6b656e2074686174206973206e6f74206f776e4552433732313a20617070726f76616c20746f2063757272656e74206f776e65724552433732313a207472616e736665722063616c6c6572206973206e6f74206f776e6572206e6f7220617070726f766564a164736f6c6343000706000a",
  "linkReferences": {},
  "deployedLinkReferences": {}
}