{
  "_format": "hh-sol-artifact-1",
  "contractName": "CHIVault",
  "sourceName": "contracts/CHIVault.sol",
  "abi": [
    {
      "inputs": [
        {
          "internalType": "address",
          "name": "_pool",
          "type": "address"
        },
        {
          "internalType": "address",
          "name": "_manager",
          "type": "address"
        },
        {
          "internalType": "uint256",
          "name": "_protocolFee_",
          "type": "uint256"
        }
      ],
      "stateMutability": "nonpayable",
      "type": "constructor"
    },
    {
      "anonymous": false,
      "inputs": [
        {
          "indexed": false,
          "internalType": "address",
          "name": "account",
          "type": "address"
        }
      ],
      "name": "Archived",
      "type": "event"
    },
    {
      "anonymous": false,
      "inputs": [
        {
          "indexed": false,
          "internalType": "uint256",
          "name": "feesFromPool0",
          "type": "uint256"
        },
        {
          "indexed": false,
          "internalType": "uint256",
          "name": "feesFromPool1",
          "type": "uint256"
        }
      ],
      "name": "CollectFee",
      "type": "event"
    },
    {
      "anonymous": false,
      "inputs": [
        {
          "indexed": true,
          "internalType": "uint256",
          "name": "yangId",
          "type": "uint256"
        },
        {
          "indexed": false,
          "internalType": "uint256",
          "name": "shares",
          "type": "uint256"
        },
        {
          "indexed": false,
          "internalType": "uint256",
          "name": "amount0",
          "type": "uint256"
        },
        {
          "indexed": false,
          "internalType": "uint256",
          "name": "amount1",
          "type": "uint256"
        }
      ],
      "name": "Deposit",
      "type": "event"
    },
    {
      "anonymous": false,
      "inputs": [
        {
          "indexed": false,
          "internalType": "address",
          "name": "account",
          "type": "address"
        }
      ],
      "name": "Paused",
      "type": "event"
    },
    {
      "anonymous": false,
      "inputs": [
        {
          "indexed": false,
          "internalType": "address",
          "name": "account",
          "type": "address"
        }
      ],
      "name": "Unarchived",
      "type": "event"
    },
    {
      "anonymous": false,
      "inputs": [
        {
          "indexed": false,
          "internalType": "address",
          "name": "account",
          "type": "address"
        }
      ],
      "name": "Unpaused",
      "type": "event"
    },
    {
      "anonymous": false,
      "inputs": [
        {
          "indexed": true,
          "internalType": "uint256",
          "name": "yangId",
          "type": "uint256"
        },
        {
          "indexed": true,
          "internalType": "address",
          "name": "to",
          "type": "address"
        },
        {
          "indexed": false,
          "internalType": "uint256",
          "name": "shares",
          "type": "uint256"
        },
        {
          "indexed": false,
          "internalType": "uint256",
          "name": "amount0",
          "type": "uint256"
        },
        {
          "indexed": false,
          "internalType": "uint256",
          "name": "amount1",
          "type": "uint256"
        }
      ],
      "name": "Withdraw",
      "type": "event"
    },
    {
      "inputs": [],
      "name": "CHIManager",
      "outputs": [
        {
          "internalType": "contract ICHIManager",
          "name": "",
          "type": "address"
        }
      ],
      "stateMutability": "view",
      "type": "function"
    },
    {
      "inputs": [],
      "name": "FEE_BASE",
      "outputs": [
        {
          "internalType": "uint256",
          "name": "",
          "type": "uint256"
        }
      ],
      "stateMutability": "view",
      "type": "function"
    },
    {
      "inputs": [],
      "name": "accruedProtocolFees0",
      "outputs": [
        {
          "internalType": "uint256",
          "name": "",
          "type": "uint256"
        }
      ],
      "stateMutability": "view",
      "type": "function"
    },
    {
      "inputs": [],
      "name": "accruedProtocolFees1",
      "outputs": [
        {
          "internalType": "uint256",
          "name": "",
          "type": "uint256"
        }
      ],
      "stateMutability": "view",
      "type": "function"
    },
    {
      "inputs": [
        {
          "internalType": "uint256",
          "name": "rangeIndex",
          "type": "uint256"
        },
        {
          "internalType": "uint256",
          "name": "amount0Desired",
          "type": "uint256"
        },
        {
          "internalType": "uint256",
          "name": "amount1Desired",
          "type": "uint256"
        }
      ],
      "name": "addLiquidityToPosition",
      "outputs": [],
      "stateMutability": "nonpayable",
      "type": "function"
    },
    {
      "inputs": [
        {
          "internalType": "int24",
          "name": "tickLower",
          "type": "int24"
        },
        {
          "internalType": "int24",
          "name": "tickUpper",
          "type": "int24"
        }
      ],
      "name": "addRange",
      "outputs": [],
      "stateMutability": "nonpayable",
      "type": "function"
    },
    {
      "inputs": [],
      "name": "archiveVault",
      "outputs": [],
      "stateMutability": "nonpayable",
      "type": "function"
    },
    {
      "inputs": [],
      "name": "archived",
      "outputs": [
        {
          "internalType": "bool",
          "name": "",
          "type": "bool"
        }
      ],
      "stateMutability": "view",
      "type": "function"
    },
    {
      "inputs": [
        {
          "internalType": "uint256",
          "name": "amount0",
          "type": "uint256"
        },
        {
          "internalType": "uint256",
          "name": "amount1",
          "type": "uint256"
        },
        {
          "internalType": "address",
          "name": "to",
          "type": "address"
        }
      ],
      "name": "collectProtocol",
      "outputs": [],
      "stateMutability": "nonpayable",
      "type": "function"
    },
    {
      "inputs": [
        {
          "internalType": "uint256",
          "name": "yangId",
          "type": "uint256"
        },
        {
          "internalType": "uint256",
          "name": "amount0Desired",
          "type": "uint256"
        },
        {
          "internalType": "uint256",
          "name": "amount1Desired",
          "type": "uint256"
        },
        {
          "internalType": "uint256",
          "name": "amount0Min",
          "type": "uint256"
        },
        {
          "internalType": "uint256",
          "name": "amount1Min",
          "type": "uint256"
        }
      ],
      "name": "deposit",
      "outputs": [
        {
          "internalType": "uint256",
          "name": "shares",
          "type": "uint256"
        },
        {
          "internalType": "uint256",
          "name": "amount0",
          "type": "uint256"
        },
        {
          "internalType": "uint256",
          "name": "amount1",
          "type": "uint256"
        }
      ],
      "stateMutability": "nonpayable",
      "type": "function"
    },
    {
      "inputs": [
        {
          "internalType": "uint256",
          "name": "index",
          "type": "uint256"
        }
      ],
      "name": "getRange",
      "outputs": [
        {
          "internalType": "int24",
          "name": "tickLower",
          "type": "int24"
        },
        {
          "internalType": "int24",
          "name": "tickUpper",
          "type": "int24"
        }
      ],
      "stateMutability": "view",
      "type": "function"
    },
    {
      "inputs": [],
      "name": "getRangeCount",
      "outputs": [
        {
          "internalType": "uint256",
          "name": "",
          "type": "uint256"
        }
      ],
      "stateMutability": "view",
      "type": "function"
    },
    {
      "inputs": [],
      "name": "getTotalAmounts",
      "outputs": [
        {
          "internalType": "uint256",
          "name": "total0",
          "type": "uint256"
        },
        {
          "internalType": "uint256",
          "name": "total1",
          "type": "uint256"
        }
      ],
      "stateMutability": "view",
      "type": "function"
    },
    {
      "inputs": [],
      "name": "harvestFee",
      "outputs": [],
      "stateMutability": "nonpayable",
      "type": "function"
    },
    {
      "inputs": [],
      "name": "pauseVault",
      "outputs": [],
      "stateMutability": "nonpayable",
      "type": "function"
    },
    {
      "inputs": [],
      "name": "paused",
      "outputs": [
        {
          "internalType": "bool",
          "name": "",
          "type": "bool"
        }
      ],
      "stateMutability": "view",
      "type": "function"
    },
    {
      "inputs": [],
      "name": "pool",
      "outputs": [
        {
          "internalType": "contract IUniswapV3Pool",
          "name": "",
          "type": "address"
        }
      ],
      "stateMutability": "view",
      "type": "function"
    },
    {
      "inputs": [],
      "name": "protocolFee",
      "outputs": [
        {
          "internalType": "uint256",
          "name": "",
          "type": "uint256"
        }
      ],
      "stateMutability": "view",
      "type": "function"
    },
    {
      "inputs": [
        {
          "internalType": "uint256",
          "name": "rangeIndex",
          "type": "uint256"
        }
      ],
      "name": "removeAllLiquidityFromPosition",
      "outputs": [
        {
          "internalType": "uint256",
          "name": "amount0",
          "type": "uint256"
        },
        {
          "internalType": "uint256",
          "name": "amount1",
          "type": "uint256"
        }
      ],
      "stateMutability": "nonpayable",
      "type": "function"
    },
    {
      "inputs": [
        {
          "internalType": "uint256",
          "name": "rangeIndex",
          "type": "uint256"
        },
        {
          "internalType": "uint128",
          "name": "liquidity",
          "type": "uint128"
        }
      ],
      "name": "removeLiquidityFromPosition",
      "outputs": [
        {
          "internalType": "uint256",
          "name": "amount0",
          "type": "uint256"
        },
        {
          "internalType": "uint256",
          "name": "amount1",
          "type": "uint256"
        }
      ],
      "stateMutability": "nonpayable",
      "type": "function"
    },
    {
      "inputs": [
        {
          "internalType": "int24",
          "name": "tickLower",
          "type": "int24"
        },
        {
          "internalType": "int24",
          "name": "tickUpper",
          "type": "int24"
        }
      ],
      "name": "removeRange",
      "outputs": [],
      "stateMutability": "nonpayable",
      "type": "function"
    },
    {
      "inputs": [],
      "name": "stateOfVault",
      "outputs": [
        {
          "internalType": "bool",
          "name": "isPaused",
          "type": "bool"
        },
        {
          "internalType": "bool",
          "name": "isArchived",
          "type": "bool"
        }
      ],
      "stateMutability": "view",
      "type": "function"
    },
    {
      "inputs": [],
      "name": "tickSpacing",
      "outputs": [
        {
          "internalType": "int24",
          "name": "",
          "type": "int24"
        }
      ],
      "stateMutability": "view",
      "type": "function"
    },
    {
      "inputs": [],
      "name": "token0",
      "outputs": [
        {
          "internalType": "contract IERC20",
          "name": "",
          "type": "address"
        }
      ],
      "stateMutability": "view",
      "type": "function"
    },
    {
      "inputs": [],
      "name": "token1",
      "outputs": [
        {
          "internalType": "contract IERC20",
          "name": "",
          "type": "address"
        }
      ],
      "stateMutability": "view",
      "type": "function"
    },
    {
      "inputs": [],
      "name": "totalSupply",
      "outputs": [
        {
          "internalType": "uint256",
          "name": "",
          "type": "uint256"
        }
      ],
      "stateMutability": "view",
      "type": "function"
    },
    {
      "inputs": [
        {
          "internalType": "uint256",
          "name": "amount0Owed",
          "type": "uint256"
        },
        {
          "internalType": "uint256",
          "name": "amount1Owed",
          "type": "uint256"
        },
        {
          "internalType": "bytes",
          "name": "data",
          "type": "bytes"
        }
      ],
      "name": "uniswapV3MintCallback",
      "outputs": [],
      "stateMutability": "nonpayable",
      "type": "function"
    },
    {
      "inputs": [],
      "name": "unpauseVault",
      "outputs": [],
      "stateMutability": "nonpayable",
      "type": "function"
    },
    {
      "inputs": [
        {
          "internalType": "uint256",
          "name": "yangId",
          "type": "uint256"
        },
        {
          "internalType": "uint256",
          "name": "shares",
          "type": "uint256"
        },
        {
          "internalType": "uint256",
          "name": "amount0Min",
          "type": "uint256"
        },
        {
          "internalType": "uint256",
          "name": "amount1Min",
          "type": "uint256"
        },
        {
          "internalType": "address",
          "name": "to",
          "type": "address"
        }
      ],
      "name": "withdraw",
      "outputs": [
        {
          "internalType": "uint256",
          "name": "amount0",
          "type": "uint256"
        },
        {
          "internalType": "uint256",
          "name": "amount1",
          "type": "uint256"
        }
      ],
      "stateMutability": "nonpayable",
      "type": "function"
    }
  ],
  "bytecode": "0x60e0604052620f42406006553480156200001857600080fd5b5060405162003f5e38038062003f5e833981810160405260608110156200003e57600080fd5b5080516020808301516040938401516001600081905580546001600160b01b031916620100006001600160a01b03808816820292909217928390558751630dfe168160e01b8152975196979496939592041692630dfe16819260048083019392829003018186803b158015620000b357600080fd5b505afa158015620000c8573d6000803e3d6000fd5b505050506040513d6020811015620000df57600080fd5b50516001600160601b031960609190911b166080526001546040805163d21220a760e01b81529051620100009092046001600160a01b03169163d21220a791600480820192602092909190829003018186803b1580156200013f57600080fd5b505afa15801562000154573d6000803e3d6000fd5b505050506040513d60208110156200016b57600080fd5b50516001600160601b031960609190911b1660a052600154604080516334324e9f60e21b81529051620100009092046001600160a01b03169163d0c93a7c91600480820192602092909190829003018186803b158015620001cb57600080fd5b505afa158015620001e0573d6000803e3d6000fd5b505050506040513d6020811015620001f757600080fd5b5051600290810b810b60e81b60c05280546001600160a01b0319166001600160a01b038416179055600581905560065481106200025f576040805162461bcd60e51b81526020600482015260016024820152603360f91b604482015290519081900360640190fd5b50505060805160601c60a05160601c60c05160e81c613c8a620002d4600039806115a65280612ccb5280612d50525080610641528061142f52806115ca528061165652806118dc52806123cf52508061060752806107585280611400528061161c52806118a252806123285250613c8a6000f3fe608060405234801561001057600080fd5b50600436106101cf5760003560e01c8063b0e21e8a11610104578063d21220a7116100a2578063db4dcce411610071578063db4dcce4146104fe578063eae989a214610528578063ecefc70514610530578063fbdcd7c814610538576101cf565b8063d21220a714610410578063d348799714610418578063d473a65414610494578063d4da6185146104d2576101cf565b8063bf02b5ea116100de578063bf02b5ea14610356578063c4a7761e146103a9578063cc364f48146103b1578063d0c93a7c146103f1576101cf565b8063b0e21e8a1461033e578063b135a14514610346578063b59629171461034e576101cf565b80635a64998b116101715780639d9d75be1161014b5780639d9d75be146102e25780639e0879c21461030b578063a00fa77f14610313578063afa986321461031b576101cf565b80635a64998b146102945780635c975abb146102be5780639d60da50146102da576101cf565b80630dfe1681116101ad5780630dfe16811461021857806316f0115b1461023c57806318160ddd146102445780632106fa461461025e576101cf565b80630430c130146101d45780630b7562be146102085780630bda770f14610210575b600080fd5b610206600480360360608110156101ea57600080fd5b50803590602081013590604001356001600160a01b0316610540565b005b61020661066d565b61020661070b565b610220610756565b604080516001600160a01b039092168252519081900360200190f35b61022061077a565b61024c61078f565b60408051918252519081900360200190f35b61027b6004803603602081101561027457600080fd5b5035610795565b6040805192835260208301919091528051918290030190f35b610206600480360360408110156102aa57600080fd5b508035600290810b9160200135900b610a66565b6102c6610b99565b604080519115158252519081900360200190f35b610220610ba2565b610206600480360360608110156102f857600080fd5b5080359060208101359060400135610bb1565b610206610f35565b61024c610fd1565b610323610fd7565b60408051921515835290151560208301528051918290030190f35b61024c610ff2565b61024c610ff8565b610206611009565b61038b600480360360a081101561036c57600080fd5b5080359060208101359060408101359060608101359060800135611108565b60408051938452602084019290925282820152519081900360600190f35b61027b6114fc565b6103ce600480360360208110156103c757600080fd5b5035611589565b604051808360020b81526020018260020b81526020019250505060405180910390f35b6103f96115a4565b6040805160029290920b8252519081900360200190f35b6102206115c8565b6102066004803603606081101561042e57600080fd5b81359160208101359181019060608101604082013564010000000081111561045557600080fd5b82018360208201111561046757600080fd5b8035906020019184600183028401116401000000008311171561048957600080fd5b5090925090506115ec565b61027b600480360360a08110156104aa57600080fd5b50803590602081013590604081013590606081013590608001356001600160a01b0316611683565b61027b600480360360408110156104e857600080fd5b50803590602001356001600160801b0316611a30565b6102066004803603604081101561051457600080fd5b508035600290810b9160200135900b611d5f565b61024c611e95565b61024c611e9b565b6102c6611ea1565b6002546001600160a01b03163314610583576040805162461bcd60e51b81526020600482015260016024820152606d60f81b604482015290519081900360640190fd5b61058b611ea1565b156105d4576040805162461bcd60e51b8152602060048201526014602482015273105c98da1a5d98589b194e88185c98da1a5d995960621b604482015290519081900360640190fd5b6003546105e19084611eaf565b6003556004546105f19083611eaf565b600455821561062e5761062e6001600160a01b037f0000000000000000000000000000000000000000000000000000000000000000168285611f11565b8115610668576106686001600160a01b037f0000000000000000000000000000000000000000000000000000000000000000168284611f11565b505050565b6002546001600160a01b031633146106b0576040805162461bcd60e51b81526020600482015260016024820152606d60f81b604482015290519081900360640190fd5b6106b8611ea1565b15610701576040805162461bcd60e51b8152602060048201526014602482015273105c98da1a5d98589b194e88185c98da1a5d995960621b604482015290519081900360640190fd5b610709611f91565b565b6002546001600160a01b0316331461074e576040805162461bcd60e51b81526020600482015260016024820152606d60f81b604482015290519081900360640190fd5b61070961203a565b7f000000000000000000000000000000000000000000000000000000000000000081565b6001546201000090046001600160a01b031681565b60075490565b600080600260005414156107f0576040805162461bcd60e51b815260206004820152601f60248201527f5265656e7472616e637947756172643a207265656e7472616e742063616c6c00604482015290519081900360640190fd5b60026000819055546001600160a01b03163314610838576040805162461bcd60e51b81526020600482015260016024820152606d60f81b604482015290519081900360640190fd5b610840611ea1565b15610889576040805162461bcd60e51b8152602060048201526014602482015273105c98da1a5d98589b194e88185c98da1a5d995960621b604482015290519081900360640190fd5b60008061089f61089a6008876120e0565b6120f3565b9150915060006108af83836120fe565b90506001600160801b03811615610a57576001546040805163a34123a760e01b8152600286810b600483015285900b60248201526001600160801b03841660448201528151620100009093046001600160a01b03169263a34123a7926064808401939192918290030181600087803b15801561092a57600080fd5b505af115801561093e573d6000803e3d6000fd5b505050506040513d604081101561095457600080fd5b5080516020909101519095509350841515806109705750600084115b15610a57576001546201000090046001600160a01b0316634f1eb3d83085856109988a6121c6565b6109a18a6121c6565b6040518663ffffffff1660e01b815260040180866001600160a01b031681526020018560020b81526020018460020b8152602001836001600160801b03168152602001826001600160801b03168152602001955050505050506040805180830381600087803b158015610a1357600080fd5b505af1158015610a27573d6000803e3d6000fd5b505050506040513d6040811015610a3d57600080fd5b5080516020909101516001600160801b0391821696501693505b50506001600055509092909150565b6002546001600160a01b03163314610aa9576040805162461bcd60e51b81526020600482015260016024820152606d60f81b604482015290519081900360640190fd5b610ab1611ea1565b15610afa576040805162461bcd60e51b8152602060048201526014602482015273105c98da1a5d98589b194e88185c98da1a5d995960621b604482015290519081900360640190fd5b600080610b0784846121e1565b9150915081600014610b45576040805162461bcd60e51b8152602060048201526002602482015261061360f41b604482015290519081900360640190fd5b8015610b7d576040805162461bcd60e51b8152602060048201526002602482015261061360f41b604482015290519081900360640190fd5b610b92610b8a8585612303565b600890612312565b5050505050565b60015460ff1690565b6002546001600160a01b031681565b60026000541415610c09576040805162461bcd60e51b815260206004820152601f60248201527f5265656e7472616e637947756172643a207265656e7472616e742063616c6c00604482015290519081900360640190fd5b60026000819055546001600160a01b03163314610c51576040805162461bcd60e51b81526020600482015260016024820152606d60f81b604482015290519081900360640190fd5b610c59611ea1565b15610ca2576040805162461bcd60e51b8152602060048201526014602482015273105c98da1a5d98589b194e88185c98da1a5d995960621b604482015290519081900360640190fd5b610caa610b99565b15610cfc576040805162461bcd60e51b815260206004820152601060248201527f5061757361626c653a2070617573656400000000000000000000000000000000604482015290519081900360640190fd5b600080610d0d61089a6008876120e0565b91509150610d1961231e565b841115610d6d576040805162461bcd60e51b815260206004820152600360248201527f4942300000000000000000000000000000000000000000000000000000000000604482015290519081900360640190fd5b610d756123c5565b831115610dc9576040805162461bcd60e51b815260206004820152600360248201527f4942310000000000000000000000000000000000000000000000000000000000604482015290519081900360640190fd5b6000610dd78383878761243a565b90506001600160801b03811615610f28576001546201000090046001600160a01b0316633c8a7d8d3085858560006040519080825280601f01601f191660200182016040528015610e2f576020820181803683370190505b506040518663ffffffff1660e01b815260040180866001600160a01b031681526020018560020b81526020018460020b8152602001836001600160801b0316815260200180602001828103825283818151815260200191508051906020019080838360005b83811015610eac578181015183820152602001610e94565b50505050905090810190601f168015610ed95780820380516001836020036101000a031916815260200191505b5096505050505050506040805180830381600087803b158015610efb57600080fd5b505af1158015610f0f573d6000803e3d6000fd5b505050506040513d6040811015610f2557600080fd5b50505b5050600160005550505050565b6002546001600160a01b03163314610f78576040805162461bcd60e51b81526020600482015260016024820152606d60f81b604482015290519081900360640190fd5b610f80611ea1565b15610fc9576040805162461bcd60e51b8152602060048201526014602482015273105c98da1a5d98589b194e88185c98da1a5d995960621b604482015290519081900360640190fd5b6107096124e0565b60045490565b600080610fe2610b99565b9150610fec611ea1565b90509091565b60055490565b6000611004600861256f565b905090565b611011611ea1565b1561105a576040805162461bcd60e51b8152602060048201526014602482015273105c98da1a5d98589b194e88185c98da1a5d995960621b604482015290519081900360640190fd5b60008061106561257a565b60005b611072600861256f565b8110156110c85760008061108a61089a6008856120e0565b9150915060008061109b848461265c565b90925090506110aa878361287c565b96506110b6868261287c565b95505060019093019250611068915050565b50604080518381526020810183905281517f38436c42bcfd74414acafc159a381bf74b9880bc4c1c9f922686fc7161d9c7ad929181900390910190a15050565b600080600060026000541415611165576040805162461bcd60e51b815260206004820152601f60248201527f5265656e7472616e637947756172643a207265656e7472616e742063616c6c00604482015290519081900360640190fd5b60026000819055546001600160a01b031633146111ad576040805162461bcd60e51b81526020600482015260016024820152606d60f81b604482015290519081900360640190fd5b6111b5611ea1565b156111fe576040805162461bcd60e51b8152602060048201526014602482015273105c98da1a5d98589b194e88185c98da1a5d995960621b604482015290519081900360640190fd5b611206610b99565b15611258576040805162461bcd60e51b815260206004820152601060248201527f5061757361626c653a2070617573656400000000000000000000000000000000604482015290519081900360640190fd5b60008711806112675750600086115b6112ba576040805162461bcd60e51b8152602060048083019190915260248201527f6130613100000000000000000000000000000000000000000000000000000000604482015290519081900360640190fd5b6112c261257a565b6112cc87876128d6565b9194509250905082611325576040805162461bcd60e51b815260206004820152600160248201527f7300000000000000000000000000000000000000000000000000000000000000604482015290519081900360640190fd5b8482101561137a576040805162461bcd60e51b815260206004820152600360248201527f41304d0000000000000000000000000000000000000000000000000000000000604482015290519081900360640190fd5b838110156113cf576040805162461bcd60e51b815260206004820152600360248201527f41314d0000000000000000000000000000000000000000000000000000000000604482015290519081900360640190fd5b604080517fed1bbd0b0000000000000000000000000000000000000000000000000000000081526001600160a01b037f000000000000000000000000000000000000000000000000000000000000000081166004830152602482018590527f0000000000000000000000000000000000000000000000000000000000000000166044820152606481018390529051339163ed1bbd0b91608480830192600092919082900301818387803b15801561148557600080fd5b505af1158015611499573d6000803e3d6000fd5b505050506114a683612a3b565b6040805184815260208101849052808201839052905189917f9b776d199f09c774f5b205c9bc2ac6f40d508c347aaea919867eeaf06ebef0e9919081900360600190a26001600081905550955095509592505050565b60008060005b61150c600861256f565b8110156115625760008061152461089a6008856120e0565b9150915060008061153584846121e1565b9092509050611544878361287c565b9650611550868261287c565b95505060019093019250611502915050565b5061157561156e61231e565b839061287c565b9150610fec6115826123c5565b829061287c565b60008061159a61089a6008856120e0565b9094909350915050565b7f000000000000000000000000000000000000000000000000000000000000000081565b7f000000000000000000000000000000000000000000000000000000000000000081565b6001546201000090046001600160a01b0316331461160957600080fd5b8315611643576116436001600160a01b037f0000000000000000000000000000000000000000000000000000000000000000163386611f11565b821561167d5761167d6001600160a01b037f0000000000000000000000000000000000000000000000000000000000000000163385611f11565b50505050565b600080600260005414156116de576040805162461bcd60e51b815260206004820152601f60248201527f5265656e7472616e637947756172643a207265656e7472616e742063616c6c00604482015290519081900360640190fd5b60026000819055546001600160a01b03163314611726576040805162461bcd60e51b81526020600482015260016024820152606d60f81b604482015290519081900360640190fd5b61172e611ea1565b15611777576040805162461bcd60e51b8152602060048201526014602482015273105c98da1a5d98589b194e88185c98da1a5d995960621b604482015290519081900360640190fd5b600086116117cc576040805162461bcd60e51b815260206004820152600160248201527f7300000000000000000000000000000000000000000000000000000000000000604482015290519081900360640190fd5b6001600160a01b038316158015906117ed57506001600160a01b0383163014155b61183e576040805162461bcd60e51b815260206004820152600260248201527f746f000000000000000000000000000000000000000000000000000000000000604482015290519081900360640190fd5b60008061184b8886612a46565b91509150611857611009565b60006118776007546118718b61186b61231e565b90612ace565b90612b27565b9050600061188d6007546118718c61186b6123c5565b905081156118c9576118c96001600160a01b037f0000000000000000000000000000000000000000000000000000000000000000168884611f11565b8015611903576119036001600160a01b037f0000000000000000000000000000000000000000000000000000000000000000168883611f11565b61190d848361287c565b9550611919838261287c565b945088861015611970576040805162461bcd60e51b815260206004820152600360248201527f41304d0000000000000000000000000000000000000000000000000000000000604482015290519081900360640190fd5b878510156119c5576040805162461bcd60e51b815260206004820152600360248201527f41314d0000000000000000000000000000000000000000000000000000000000604482015290519081900360640190fd5b6119ce8a612b8e565b604080518b81526020810188905280820187905290516001600160a01b038916918d917f30011545efcd097ee25dae81386c1513acbd42b2af85ac6caae1a3b7d51933669181900360600190a350506001600055509197909650945050505050565b60008060026000541415611a8b576040805162461bcd60e51b815260206004820152601f60248201527f5265656e7472616e637947756172643a207265656e7472616e742063616c6c00604482015290519081900360640190fd5b60026000819055546001600160a01b03163314611ad3576040805162461bcd60e51b81526020600482015260016024820152606d60f81b604482015290519081900360640190fd5b611adb611ea1565b15611b24576040805162461bcd60e51b8152602060048201526014602482015273105c98da1a5d98589b194e88185c98da1a5d995960621b604482015290519081900360640190fd5b600080611b3561089a6008886120e0565b91509150611b4382826120fe565b6001600160801b0316856001600160801b03161115611ba9576040805162461bcd60e51b815260206004820152600160248201527f4c00000000000000000000000000000000000000000000000000000000000000604482015290519081900360640190fd5b6001600160801b03851615611d4f576001546040805163a34123a760e01b8152600285810b600483015284900b60248201526001600160801b03881660448201528151620100009093046001600160a01b03169263a34123a7926064808401939192918290030181600087803b158015611c2257600080fd5b505af1158015611c36573d6000803e3d6000fd5b505050506040513d6040811015611c4c57600080fd5b508051602090910151909450925083151580611c685750600083115b15611d4f576001546201000090046001600160a01b0316634f1eb3d8308484611c90896121c6565b611c99896121c6565b6040518663ffffffff1660e01b815260040180866001600160a01b031681526020018560020b81526020018460020b8152602001836001600160801b03168152602001826001600160801b03168152602001955050505050506040805180830381600087803b158015611d0b57600080fd5b505af1158015611d1f573d6000803e3d6000fd5b505050506040513d6040811015611d3557600080fd5b5080516020909101516001600160801b0391821695501692505b5050600160005590939092509050565b6002546001600160a01b03163314611da2576040805162461bcd60e51b81526020600482015260016024820152606d60f81b604482015290519081900360640190fd5b611daa611ea1565b15611df3576040805162461bcd60e51b8152602060048201526014602482015273105c98da1a5d98589b194e88185c98da1a5d995960621b604482015290519081900360640190fd5b600080611e0084846121e1565b9150915081600014611e3e576040805162461bcd60e51b8152602060048201526002602482015261061360f41b604482015290519081900360640190fd5b8015611e76576040805162461bcd60e51b8152602060048201526002602482015261061360f41b604482015290519081900360640190fd5b611e808484612b9a565b610b92611e8d8585612303565b600890612dd7565b60035490565b60065481565b600154610100900460ff1690565b600082821115611f06576040805162461bcd60e51b815260206004820152601e60248201527f536166654d6174683a207375627472616374696f6e206f766572666c6f770000604482015290519081900360640190fd5b508082035b92915050565b604080516001600160a01b038416602482015260448082018490528251808303909101815260649091019091526020810180517bffffffffffffffffffffffffffffffffffffffffffffffffffffffff167fa9059cbb00000000000000000000000000000000000000000000000000000000179052610668908490612de3565b611f99610b99565b611fea576040805162461bcd60e51b815260206004820152601460248201527f5061757361626c653a206e6f7420706175736564000000000000000000000000604482015290519081900360640190fd5b6001805460ff191690557f5db9ee0a495bf2e6ff9c91a7834c1ba4fdd244a5e8aa4e537bd38aeae4b073aa61201d612e94565b604080516001600160a01b039092168252519081900360200190a1565b612042611ea1565b1561208b576040805162461bcd60e51b8152602060048201526014602482015273105c98da1a5d98589b194e88185c98da1a5d995960621b604482015290519081900360640190fd5b600180547fffffffffffffffffffffffffffffffffffffffffffffffffffffffffffff00ff166101001790557ff818881af39266093c27612f78d72c9d0d9178770f63e199887772b2581e4d0861201d612e94565b60006120ec8383612e98565b9392505050565b601081905260005191565b604080513060601b602080830191909152600285810b60e890811b60348501529085900b901b60378301528251601a818403018152603a83018085528151919092012060015463514ea4bf60e01b909252603e8301819052925160009392620100009092046001600160a01b03169163514ea4bf91605e8083019260a0929190829003018186803b15801561219257600080fd5b505afa1580156121a6573d6000803e3d6000fd5b505050506040513d60a08110156121bc57600080fd5b5051949350505050565b806001600160801b03811681146121dc57600080fd5b919050565b604080513060601b602080830191909152600285810b60e890811b60348501529085900b901b60378301528251601a818403018152603a83018085528151919092012060015463514ea4bf60e01b909252603e83018190529251600093849390928492839283926201000090046001600160a01b03169163514ea4bf91605e8082019260a092909190829003018186803b15801561227e57600080fd5b505afa158015612292573d6000803e3d6000fd5b505050506040513d60a08110156122a857600080fd5b508051606082015160809092015190945090925090506122c9888885612efc565b90965094506122e1866001600160801b03841661287c565b95506122f6856001600160801b03831661287c565b9450505050509250929050565b60109081526000919091525190565b60006120ec8383612fa6565b60006110046003547f00000000000000000000000000000000000000000000000000000000000000006001600160a01b03166370a08231306040518263ffffffff1660e01b815260040180826001600160a01b0316815260200191505060206040518083038186803b15801561239357600080fd5b505afa1580156123a7573d6000803e3d6000fd5b505050506040513d60208110156123bd57600080fd5b505190611eaf565b60006110046004547f00000000000000000000000000000000000000000000000000000000000000006001600160a01b03166370a08231306040518263ffffffff1660e01b815260040180826001600160a01b0316815260200191505060206040518083038186803b15801561239357600080fd5b600080600160029054906101000a90046001600160a01b03166001600160a01b0316633850c7bd6040518163ffffffff1660e01b815260040160e06040518083038186803b15801561248b57600080fd5b505afa15801561249f573d6000803e3d6000fd5b505050506040513d60e08110156124b557600080fd5b505190506124d6816124c68861306c565b6124cf8861306c565b87876133c7565b9695505050505050565b6124e8610b99565b1561253a576040805162461bcd60e51b815260206004820152601060248201527f5061757361626c653a2070617573656400000000000000000000000000000000604482015290519081900360640190fd5b6001805460ff1916811790557f62e78cea01bee320cd4e420270b5ea74000d11b0c9f74754ebdbfc544b05a25861201d612e94565b6000611f0b8261348b565b60005b612587600861256f565b8110156126595760008061259f61089a6008856120e0565b9150915060006125af83836120fe565b6001600160801b0316111561264f576001546040805163a34123a760e01b8152600285810b600483015284900b60248201526000604482018190528251620100009094046001600160a01b03169363a34123a7936064808501949193918390030190829087803b15801561262257600080fd5b505af1158015612636573d6000803e3d6000fd5b505050506040513d604081101561264c57600080fd5b50505b505060010161257d565b50565b604080513060601b602080830191909152600285810b60e890811b60348501529085900b901b60378301528251601a818403018152603a83018085528151919092012060015463514ea4bf60e01b909252603e830181905292516000938493909284928392620100009092046001600160a01b03169163514ea4bf91605e8083019260a0929190829003018186803b1580156126f757600080fd5b505afa15801561270b573d6000803e3d6000fd5b505050506040513d60a081101561272157600080fd5b506060810151608090910151600154604080517f4f1eb3d800000000000000000000000000000000000000000000000000000000815230600482015260028c810b60248301528b900b60448201526001600160801b038086166064830152841660848201528151949650929450620100009091046001600160a01b031692634f1eb3d89260a48082019392918290030181600087803b1580156127c357600080fd5b505af11580156127d7573d6000803e3d6000fd5b505050506040513d60408110156127ed57600080fd5b5080516020909101516005546001600160801b039283169750911694506000908190156128705761282f6006546118716005548a612ace90919063ffffffff16565b915061284c60065461187160055489612ace90919063ffffffff16565b60035490915061285c908361287c565b60035560045461286c908261287c565b6004555b50505050509250929050565b6000828201838110156120ec576040805162461bcd60e51b815260206004820152601b60248201527f536166654d6174683a206164646974696f6e206f766572666c6f770000000000604482015290519081900360640190fd5b60008060008060006128e66114fc565b91509150600754600014806128fb5750600082115b806129065750600081115b61290c57fe5b60075461292a57869350859250612923848461348f565b9450612a32565b8161294b578592506129238161187160075486612ace90919063ffffffff16565b8061296c578693506129238261187160075487612ace90919063ffffffff16565b600061298a61297b8984612ace565b6129858986612ace565b6134a6565b9050600081116129e1576040805162461bcd60e51b815260206004820152600160248201527f6300000000000000000000000000000000000000000000000000000000000000604482015290519081900360640190fd5b6129fa60016129f4846118718584611eaf565b9061287c565b9450612a0f60016129f4856118718584611eaf565b9350612a2e826118718561187160075486612ace90919063ffffffff16565b9550505b50509250925092565b600780549091019055565b60008060005b612a56600861256f565b811015612ac657600080612a6e61089a6008856120e0565b915091506000612a7e83836120fe565b6001600160801b03161115612abc57600080612a9c84848b8b6134b5565b9092509050612aab878361287c565b9650612ab7868261287c565b955050505b5050600101612a4c565b509250929050565b600082612add57506000611f0b565b82820282848281612aea57fe5b04146120ec5760405162461bcd60e51b8152600401808060200182810382526021815260200180613c336021913960400191505060405180910390fd5b6000808211612b7d576040805162461bcd60e51b815260206004820152601a60248201527f536166654d6174683a206469766973696f6e206279207a65726f000000000000604482015290519081900360640190fd5b818381612b8657fe5b049392505050565b60078054919091039055565b8060020b8260020b12612bf4576040805162461bcd60e51b815260206004820152600360248201527f544c550000000000000000000000000000000000000000000000000000000000604482015290519081900360640190fd5b7ffffffffffffffffffffffffffffffffffffffffffffffffffffffffffff27618600283900b1215612c6d576040805162461bcd60e51b815260206004820152600360248201527f544c4d0000000000000000000000000000000000000000000000000000000000604482015290519081900360640190fd5b620d89e8600282900b1315612cc9576040805162461bcd60e51b815260206004820152600360248201527f54554d0000000000000000000000000000000000000000000000000000000000604482015290519081900360640190fd5b7f000000000000000000000000000000000000000000000000000000000000000060020b8260020b81612cf857fe5b0760020b15612d4e576040805162461bcd60e51b815260206004820152600360248201527f544c460000000000000000000000000000000000000000000000000000000000604482015290519081900360640190fd5b7f000000000000000000000000000000000000000000000000000000000000000060020b8160020b81612d7d57fe5b0760020b15612dd3576040805162461bcd60e51b815260206004820152600360248201527f5455460000000000000000000000000000000000000000000000000000000000604482015290519081900360640190fd5b5050565b60006120ec83836136a5565b6000612e38826040518060400160405280602081526020017f5361666545524332303a206c6f772d6c6576656c2063616c6c206661696c6564815250856001600160a01b03166136ef9092919063ffffffff16565b80519091501561066857808060200190516020811015612e5757600080fd5b50516106685760405162461bcd60e51b815260040180806020018281038252602a815260200180613c54602a913960400191505060405180910390fd5b3390565b81546000908210612eda5760405162461bcd60e51b8152600401808060200182810382526022815260200180613beb6022913960400191505060405180910390fd5b826000018281548110612ee957fe5b9060005260206000200154905092915050565b6000806000600160029054906101000a90046001600160a01b03166001600160a01b0316633850c7bd6040518163ffffffff1660e01b815260040160e06040518083038186803b158015612f4f57600080fd5b505afa158015612f63573d6000803e3d6000fd5b505050506040513d60e0811015612f7957600080fd5b50519050612f9981612f8a8861306c565b612f938861306c565b87613706565b9097909650945050505050565b600081815260018301602052604081205480156130625783546000198083019190810190600090879083908110612fd957fe5b9060005260206000200154905080876000018481548110612ff657fe5b60009182526020808320909101929092558281526001898101909252604090209084019055865487908061302657fe5b60019003818190600052602060002001600090559055866001016000878152602001908152602001600020600090556001945050505050611f0b565b6000915050611f0b565b60008060008360020b12613083578260020b61308b565b8260020b6000035b9050620d89e88111156130e5576040805162461bcd60e51b815260206004820152600160248201527f5400000000000000000000000000000000000000000000000000000000000000604482015290519081900360640190fd5b60006001821661310657700100000000000000000000000000000000613118565b6ffffcb933bd6fad37aa2d162d1a5940015b70ffffffffffffffffffffffffffffffffff169050600282161561314c576ffff97272373d413259a46990580e213a0260801c5b600482161561316b576ffff2e50f5f656932ef12357cf3c7fdcc0260801c5b600882161561318a576fffe5caca7e10e4e61c3624eaa0941cd00260801c5b60108216156131a9576fffcb9843d60f6159c9db58835c9266440260801c5b60208216156131c8576fff973b41fa98c081472e6896dfb254c00260801c5b60408216156131e7576fff2ea16466c96a3843ec78b326b528610260801c5b6080821615613206576ffe5dee046a99a2a811c461f1969c30530260801c5b610100821615613226576ffcbe86c7900a88aedcffc83b479aa3a40260801c5b610200821615613246576ff987a7253ac413176f2b074cf7815e540260801c5b610400821615613266576ff3392b0822b70005940c7a398e4b70f30260801c5b610800821615613286576fe7159475a2c29b7443b29c7fa6e889d90260801c5b6110008216156132a6576fd097f3bdfd2022b8845ad8f792aa58250260801c5b6120008216156132c6576fa9f746462d870fdf8a65dc1f90e061e50260801c5b6140008216156132e6576f70d869a156d2a1b890bb3df62baf32f70260801c5b618000821615613306576f31be135f97d08fd981231505542fcfa60260801c5b62010000821615613327576f09aa508b5b7a84e1c677de54f3e99bc90260801c5b62020000821615613347576e5d6af8dedb81196699c329225ee6040260801c5b62040000821615613366576d2216e584f5fa1ea926041bedfe980260801c5b62080000821615613383576b048a170391f7dc42444e8fa20260801c5b60008460020b131561339e57806000198161339a57fe5b0490505b6401000000008106156133b25760016133b5565b60005b60ff16602082901c0192505050919050565b6000836001600160a01b0316856001600160a01b031611156133e7579293925b846001600160a01b0316866001600160a01b0316116134125761340b8585856137a2565b9050613482565b836001600160a01b0316866001600160a01b031610156134745760006134398786866137a2565b90506000613448878986613809565b9050806001600160801b0316826001600160801b031610613469578061346b565b815b92505050613482565b61347f858584613809565b90505b95945050505050565b5490565b60008183101561349f57816120ec565b5090919050565b600081831061349f57816120ec565b60008060006134c487876120fe565b905060006134f26134ed60075461187189866001600160801b0316612ace90919063ffffffff16565b6121c6565b90506001600160801b0381161561369a576001546040805163a34123a760e01b815260028b810b60048301528a900b60248201526001600160801b03841660448201528151620100009093046001600160a01b03169263a34123a7926064808401939192918290030181600087803b15801561356d57600080fd5b505af1158015613581573d6000803e3d6000fd5b505050506040513d604081101561359757600080fd5b5080516020909101519094509250831515806135b35750600083115b1561369a576001546201000090046001600160a01b0316634f1eb3d8868a8a6135db896121c6565b6135e4896121c6565b6040518663ffffffff1660e01b815260040180866001600160a01b031681526020018560020b81526020018460020b8152602001836001600160801b03168152602001826001600160801b03168152602001955050505050506040805180830381600087803b15801561365657600080fd5b505af115801561366a573d6000803e3d6000fd5b505050506040513d604081101561368057600080fd5b5080516020909101516001600160801b0391821695501692505b505094509492505050565b60006136b1838361384f565b6136e757508154600181810184556000848152602080822090930184905584548482528286019093526040902091909155611f0b565b506000611f0b565b60606136fe8484600085613867565b949350505050565b600080836001600160a01b0316856001600160a01b03161115613727579293925b846001600160a01b0316866001600160a01b0316116137525761374b8585856139e0565b9150613799565b836001600160a01b0316866001600160a01b0316101561378b576137778685856139e0565b9150613784858785613a49565b9050613799565b613796858585613a49565b90505b94509492505050565b6000826001600160a01b0316846001600160a01b031611156137c2579192915b60006137ee856001600160a01b0316856001600160a01b03166c01000000000000000000000000613a91565b90506134826134ed84838888036001600160a01b0316613a91565b6000826001600160a01b0316846001600160a01b03161115613829579192915b6136fe6134ed836c010000000000000000000000008787036001600160a01b0316613a91565b60009081526001919091016020526040902054151590565b6060824710156138a85760405162461bcd60e51b8152600401808060200182810382526026815260200180613c0d6026913960400191505060405180910390fd5b6138b185613b40565b613902576040805162461bcd60e51b815260206004820152601d60248201527f416464726573733a2063616c6c20746f206e6f6e2d636f6e7472616374000000604482015290519081900360640190fd5b600080866001600160a01b031685876040518082805190602001908083835b6020831061395e57805182527fffffffffffffffffffffffffffffffffffffffffffffffffffffffffffffffe09092019160209182019101613921565b6001836020036101000a03801982511681845116808217855250505050505090500191505060006040518083038185875af1925050503d80600081146139c0576040519150601f19603f3d011682016040523d82523d6000602084013e6139c5565b606091505b50915091506139d5828286613b46565b979650505050505050565b6000826001600160a01b0316846001600160a01b03161115613a00579192915b836001600160a01b0316613a39606060ff16846001600160801b0316901b8686036001600160a01b0316866001600160a01b0316613a91565b81613a4057fe5b04949350505050565b6000826001600160a01b0316846001600160a01b03161115613a69579192915b6136fe826001600160801b03168585036001600160a01b03166c010000000000000000000000005b6000808060001985870986860292508281109083900303905080613ac75760008411613abc57600080fd5b5082900490506120ec565b808411613ad357600080fd5b6000848688096000868103871696879004966002600389028118808a02820302808a02820302808a02820302808a02820302808a02820302808a02909103029181900381900460010186841190950394909402919094039290920491909117919091029150509392505050565b3b151590565b60608315613b555750816120ec565b825115613b655782518084602001fd5b8160405162461bcd60e51b81526004018080602001828103825283818151815260200191508051906020019080838360005b83811015613baf578181015183820152602001613b97565b50505050905090810190601f168015613bdc5780820380516001836020036101000a031916815260200191505b509250505060405180910390fdfe456e756d657261626c655365743a20696e646578206f7574206f6620626f756e6473416464726573733a20696e73756666696369656e742062616c616e636520666f722063616c6c536166654d6174683a206d756c7469706c69636174696f6e206f766572666c6f775361666545524332303a204552433230206f7065726174696f6e20646964206e6f742073756363656564a164736f6c6343000706000a",
  "linkReferences": {},
  "deployedLinkReferences": {}
}